:100000000C94B4120C94DC120C94DC120C94BD16FB
:100010000C94E2160C9407170C94DC120C94DC126E
:100020000C94DC120C94DC120C94DC120C94DC1298
:100030000C94DC120C9431250C94DC120C94DC1220
:100040000C94E82B0C94DC120C94C52D0C94172EF8
:100050000C94DC120C94DC120C94DC120C94DC1268
:100060000C949C270C94DC12DE62496E74657266F7
:100070006163653A204672616D6520656E640009B2
:10008000496E746572666163653A20457870656390
:1000900074696E67206672616D65206C656E677449
:1000A000683A20256400496E746572666163653A3A
:1000B000204672616D652073746172740009496E27
:1000C000746572666163653A204F4C454420636FE6
:1000D0006D6D616E640009496E7465726661636579
:1000E0003A2052494E4720636F6D6D616E6400097E
:1000F000496E746572666163653A20524553455492
:1001000020636F6D6D616E640009496E746572667F
:100110006163653A2053594E4320636F6D6D616E84
:10012000640009496E746572666163653A205374B0
:1001300061727420616E696D6174696F6E202564EF
:100140000009496E746572666163653A2052696E92
:1001500067206F66660009496E7465726661636543
:100160003A20536574206C65647320746F20256C8D
:10017000750009496E746572666163653A2053655E
:1001800074206C656420256420746F20256C7500D4
:1001900009496E746572666163653A204F6C6564E7
:1001A0002073657420706978656C00094F6C656414
:1001B000206C6F676F00094F6C6564206F6E0009DB
:1001C000496E746572666163653A204F6C656420A0
:1001D0006F66660009496E746572666163653A20F0
:1001E0004F6C656420636C656172000909783A257B
:1001F0006420793A25642073697A653A25642C2055
:10020000636F6C6F723A2025750009496E746572D0
:10021000666163653A204F6C656420736574207471
:100220006578743A202573001B0000000000000070
:10023000000000000000000000FEFF030080FFFF40
:100240000F00E0FFFF1F00F000003C0038000078C6
:10025000001C000070000C0000E000060000C0015F
:10026000060000C0010600008001060000800106B3
:1002700000008001060000800106000080010600E9
:10028000008001060000C001060000C0010C000053
:10029000E0001C000070003800007800F000003C16
:1002A00000E0FFFF1F0080FFFF0F0000FEFF0300C4
:1002B0000C00000000000000000000000000000032
:1002C000060000000006000000000600000000FE1E
:1002D000FFFFFF01FEFFFFFF01FEFFFFFF01000028
:1002E000000000000000000000000000000000000E
:1002F00000000000000000000000000000000000FE
:1003000000000000000000000000000000000000ED
:1003100000000000000000000000000000000000DD
:1003200000000000000000000000000000000000CD
:1003300000000000000000001600000000000000A7
:10034000008001060000C001060000E00106000078
:10035000F001060000FC01060000BE010600009F3F
:10036000010600808F010600E083010600F0810194
:100370000600F8800106007C800106001F8001064F
:10038000800F800106C007800106E00380010EF89F
:100390000080011E7C008001FC3F008001F81F00EE
:1003A0008001E00700800100000000000000000064
:1003B000000000000000000000000000000000003D
:1003C0001406000080010600008001060000800184
:1003D0000600038001060003800106000380010679
:1003E000000380010600038001060003800106006F
:1003F000038001060003800106000380010600035C
:10040000800106000380010E8007C0011EC00FE0BE
:10041000013CE01FF000F8FFFE7F00F07FFC3F0092
:10042000E03FF81F00000000000000000000000096
:1004300000000000000000000000000000000000BC
:1004400000000000000000001600001E00000080F8
:100450007F000000C07F000000E0E1000000F0C06D
:1004600000000078C00000003CC00000001EC0007A
:1004700000000FC000008007C00000C003C00000E3
:10048000E001C00000F000C000007800C000003CA7
:1004900000C000001E00C000000E00C00000FEFFF3
:1004A000FFFF01FEFFFFFF01FEFFFFFF010000C095
:1004B00000000000C000000000000000000000007C
:1004C000000000000000000000000000000000002C
:1004D0001700000000000000000000FC7F00800109
:1004E000FEFF008001FEFF00800106C000800106C3
:1004F000C000800106C000800106C000800106C067
:1005000000800106C000800106C000800106C00016
:10051000800106C000800106C000800106C0008086
:100520000106C000800106C001C00106C003E00151
:10053000068007F0000600FF7F000600FE3F000671
:1005400000FC1F0000000000000000000000000090
:100550000000000000000000190000000000000082
:100560000000000000000000C0FFFF1F00F0FFFFC0
:100570003F00F8FFFF7F003CC001F0001CE000E0FE
:10058000010E7000C00106300080010630008001BD
:100590000630008001063000800106300080010630
:1005A00030008001063000800106300080010630F6
:1005B0000080010E300080011C7000C0013CF00082
:1005C000E001F8E101F000F0C1FF7F00C081FF3FD2
:1005D000000000FF1F0000000000000000000000FD
:1005E00015060000000006000000000600000000E4
:1005F00006000000000600000000060000000006E3
:1006000000008001060000E001060000F80106007D
:1006100000FE010600807F000600E01F000600F8D3
:1006200007000600FE010006807F000006E01F00B4
:10063000000EF8070000FEFF010000FC7F00000034
:10064000F81F000000F0070000000000000000009C
:10065000000000000000000000000000000000009A
:100660000000000000000000190000000000000071
:1006700000000000000000000000FC1F000000FE61
:100680003F00E007FF7F00F88F07F000FCDF03E08A
:10069000011CF001C0010EE000800106C0008001D5
:1006A00006C000800106C000800106C0008001066F
:1006B000C000800106C000800106C000800106C0A5
:1006C0000080010EE00080011CF001C001FCDF038E
:1006D000E001F88F07F000E007FF7F000000FE3F19
:1006E000000000FC1F0000000000000000000000EF
:1006F00019000000000000000000000000000000E1
:10070000C07F000000F0FF010E00F8FF033E003C38
:1007100080077E001C000FF0000E000EE0010600B6
:100720000CC00106000C800106000C800106000CC4
:10073000800106000C800106000C800106000C8080
:100740000106000C800106000C800106000C8001EF
:100750000E000EC0011C0007E0013C8003F000F811
:10076000FFFF7F00F0FFFF3F00C0FFFF1F00000002
:100770000000000000000000080000000000000071
:1007800000000000000000000000000000007038C1
:1007900000000070380000000000000000000000B1
:1007A0000000000000000000000000000000000049
:1007B0000000000000000000000000000000000039
:1007C0000000000000000000000000000000000029
:1007D0000000000000000000000000000000000019
:1007E0000000000000000000000000000000000009
:1007F00000000000000000000000000000000000F9
:1008000004000000000000000000000000000000E4
:1008100000000000000000000001FC0900000000D2
:1008200000000000000000000000000000000000C8
:1008300000000204000400000000000000000000AE
:100840000000000000000000000000050000F003B0
:1008500020012001F0030000000000000000000063
:10086000000000000638044804FC0F880408050056
:100870000300000000000000000000000001000074
:100880000000000000000000000000000000000068
:10089000000000000000078007B8084408A40818FA
:1008A0000D0006000900000000000000000000012B
:1008B0000C0000000000000000000000000000002C
:1008C0000000000000000000040000F80704080415
:1008D0000800000000000000000000000000000010
:1008E000000304080408F8070000000000000000EE
:1008F0000000000000000000000004000018003CA0
:1009000000180000000000000000000000000000CF
:100910000000000680008000F0038000800080005E
:1009200000000000000000000000000001001800AE
:1009300000000000000000000000000000000000B7
:1009400000000000000500008000800080008000A2
:100950000000000000000000000000000000020095
:10096000000008000000000000000000000000007F
:100970000000000000000006000800068001600082
:10098000180004000000000000000000000000004B
:10099000080000F00318042408C408040B0804F03D
:1009A0000300000000000000000510080808FC0F0C
:1009B0000008000800000000000000000000000027
:1009C0000000070000180C040A0409C408240818D1
:1009D0000800000000000000000000060408840871
:1009E00084088408840878070000000000000000E4
:1009F000000000000680034002200210020C02FCEE
:100A00000F000000000000000000000000070000D0
:100A10007C08440844084408440884070000000097
:100A2000000000000000080000F807240824082443
:100A30000824082008C0070000000000000000068D
:100A400004000400040C0403E4001800000000008B
:100A50000000000000000000080000800778084443
:100A600008440844087808800700000000000000DF
:100A70000007000078068408840884088408F807C2
:100A800000000000000000000000020000800200E2
:100A90000000000000000000000000000000000056
:100AA00000000002000080030000000000000000C1
:100AB0000000000000000000000000000480004072
:100AC00001300320020000000000000000000000D0
:100AD0000000000000050000A000A000A000A00091
:100AE0000000000000000000000000000000040002
:100AF0000030022001C000000000000000000000E3
:100B000000000000000000060000840944004400CA
:100B10004400380000000000000000000000000059
:100B20000A0000F8070408C213721252125212F29D
:100B30001F0400F803000000000900080006E0019F
:100B4000180104013801C001000E00080000000077
:100B50000000080000FC0F440844084408440878DA
:100B60000880070000000000000000070000F003FC
:100B70000804040804080408040800000000000039
:100B800000000000080000FC0F040804080408042A
:100B9000080804F003000000000000000008000046
:100BA000FC0F4408440844084408440804080000B2
:100BB000000000000000080000FC0F440044004456
:100BC0000044004400040000000000000000000891
:100BD0000000F00308040408040884088804900353
:100BE0000000000000000000080000FC0F40004072
:100BF00000400040004000FC0F000000000000002A
:100C00000006000004080408FC0F040804080000A3
:100C100000000000000000000000040008000800C0
:100C200004FC0300000000000000000000000000C1
:100C3000000000080000FC0F40004000E000100130
:100C4000080604080000000000000000070000FC87
:100C50000F0008000800080008000800000000005D
:100C600000000000000A0000FC0F0C001000200033
:100C70004000200018000400FC0F000000000800E5
:100C800000FC0F1C006000800100060008FC0F0043
:100C900000000000000000080000F0030804040841
:100CA000040804080804F00300000000000000002D
:100CB000080000FC0F8400840084008400CC0078CD
:100CC000000000000000000000080000F00308041D
:100CD0000408040804080804F00B000000000000E9
:100CE0000000080000FC0F8400840084008401CC14
:100CF000067808000000000000000007180824081B
:100D00004408840804090409040E000000000000DF
:100D10000000000007040004000400FC0F040004AD
:100D200000040000000000000000000000080000B7
:100D3000FC0300040008000800080004FC03000095
:100D40000000000000000804003800C00100060098
:100D5000080007E0001C0000000000000000000C7C
:100D600000007C0080070008800760003C00C00392
:100D7000000C000FF0000C000800000C0C1002200A
:100D800001C0002003180404080000000000000057
:100D900000070C0010002000C00F200010000C0005
:100DA0000000000000000000000007040C040A849A
:100DB00009440824081C0804080000000000000082
:100DC000000000040000FC0F0408040800000000FC
:100DD000000000000000000000000000040C007093
:100DE000008003000C000000000000000000000074
:100DF00000000000000304080408FC0F00000000CD
:100E000000000000000000000000000000000610CC
:100E100000180004000C001000100000000000008A
:100E200000000000000000050000000800080008A5
:100E300000080000000000000000000000000000AA
:100E4000020000030000000000000000000000009D
:100E5000000000000000000000060000200620093D
:100E600020092009C00F0000000000000000000061
:100E70000000060000FC0F20082008600CC00700DE
:100E80000000000000000000000000050000C00796
:100E9000600C200820080000000000000000000096
:100EA0000000000005C007600C20082008FC0F00AF
:100EB000000000000000000000000000000600002C
:100EC000C007200920092009C0010000000000001F
:100ED000000000000000050000F80F24002400249A
:100EE00000000000000000000000000000000006FC
:100EF0000000C027202820282028E01F0000000034
:100F00000000000000000000060000FC0F40002070
:100F1000002000C00F0000000000000000000000E2
:100F200000020000D00F00000000000000000000E0
:100F3000000000000000000000000300200030F06E
:100F40001F00000000000000000000000000000082
:100F5000000000060000FC0F800080014006000831
:100F6000000000000000000000000000030000FC82
:100F70000F0008000000000000000000000000005A
:100F800000000000000A0000E00F20002000200008
:100F9000C00F200020002000C00F0000000006004D
:100FA00000E00F200020002000C00F000000000023
:100FB00000000000000000060000C0072008200814
:100FC0002008C00700000000000000000000000032
:100FD000060000E03F200820082008C007000000AD
:100FE00000000000000000000006C00760082008A4
:100FF0002008600CE03F000000000000000000003E
:101000000000050000C00F4000400040000000004C
:101010000000000000000000000000050000E008E3
:101020002009200A200C0000000000000000000041
:1010300000000000050000FC07200C20080008004C
:10104000000000000000000000000000000600009A
:10105000C007000800080008C00F000000000000E2
:101060000000000000000640008003000C000E801D
:101070000140000000000000000000000000000827
:101080000000C003000C0007C001000E000FC000EC
:101090000000000000000000050000C00C000380FC
:1010A00003400C00000000000000000000000000F1
:1010B00000060000C0000033000C80034000000068
:1010C00000000000000000000000050000200E20CD
:1010D00009E00820080000000000000000000000F7
:1010E00000000001000000000000000000000000FF
:1010F000000000000000000000000000020000FEF0
:101100001F000000000000000000000000000000C0
:1011100000000000000100000000000000000000CE
:1011200000000000000000000000000000000700B8
:10113000000000C00040008000800040000000006F
:101140000000000000000003FC0F0408FC0F00007A
:10115000000000000000000000000000000000008F
:10116000000000000000000000000000000000007F
:1011700000000000000000002000C629AA5CAA5C54
:10118000F41B730B97037703960377039603770398
:101190009603770397039703750BF402820001000F
:1011A000000000000000000000000000000000003F
:1011B000000000000000000000000000000000002F
:1011C000000000000000000000000000000000001F
:1011D00000000000000000000000000020118A7CD8
:1011E00004852485D054AB337803980377039603A2
:1011F0007703960377039603770396037703B80381
:101200000B1A43000000000800000000000000006E
:1012100000000000000000000000000000000000CE
:1012200000000000000000000000000000000000BE
:1012300000000000000000000000000000000000AE
:10124000E1420985047D057D2C6D294C77037703E8
:1012500097039703970397039703970397039703BE
:10126000970398031023C80000000000000000004E
:10127000000000000000000000000000000000006E
:10128000000000000000000000000000000000005E
:10129000000000000000000000000000000000004E
:1012A00000006008656C0785E57C057D0975C76CE5
:1012B0009603950B770397037703960377039603BB
:1012C0007703960377039703541BED01000000009A
:1012D000000000000000000000000000000000000E
:1012E00000000000000000000000000000000000FE
:1012F00000000000000000000000000000000000EE
:10130000000001000000A429267DE674057D067D0D
:10131000067D0775151C730B9703980397039703B6
:101320009703970397039703970397039513F40283
:10133000210001000000000000000000000000008B
:10134000000000000000000000000000000000009D
:10135000000000000000000000000000000000008D
:10136000000000000000000020006863267D057D6D
:10137000E67C057DE57C0585733C6E1B7803970351
:101380007703960377039603770396037703970310
:101390007703960BE508010000000008000000003C
:1013A000000000000000000000000000000000003D
:1013B000000000000000000000000000000000002D
:1013C00000000000000000000000000040118A7CC6
:1013D000257D0675067D0675057D057DF054AC2BD3
:1013E000980378039703970397039703970397034B
:1013F000970397039703B8032B1A240000000000FB
:1014000000000000000000000000000000000000DC
:1014100000000000000000000000000000000000CC
:1014200000000000000000000000000000000000BC
:10143000E1420985E67C057DE67C057DE57C058548
:101440000C65485477039703770396037703960355
:10145000770396037703960397039703F122C70058
:101460000000000800000000000000000000000074
:10147000000000000000000000000000000000006C
:10148000000000000000000000000000000000005C
:1014900000006108856C077D057D0675067D067573
:1014A000057D067D0875A864B60B76039703770360
:1014B000970397039703970397039703970398035B
:1014C000741BEE010000000000000000000000009E
:1014D000000000000000000000000000000000000C
:1014E00000000000000000000000000000000000FC
:1014F000000000000000C331077D067D067D057DEC
:10150000E67C057DE67C057DE67C067DF51B721399
:10151000770397037703960377039603770396037E
:1015200077039703760BF302010000000000000030
:1015300000000000000000000000000000000000AB
:10154000000000000000000000000000000000009B
:1015500000000000000000004000685B467D06754A
:10156000067D0675067D0675067DE674057D057D9E
:10157000933C6F1B98037803970397039703970394
:1015800097039703970397039603970305090200B0
:10159000000000000000000000000000000000004B
:1015A000000000000000000000000000000000003B
:1015B0000000000000000000000000004011AA84AC
:1015C000067D057DE67C057DE67C057DE67C057D6A
:1015D000E57C0485F054CB33780398039703970395
:1015E0009703970397039703970397037703B7032B
:1015F0000C1A23000000000800000000000000009A
:1016000000000000000000000000000000000000DA
:1016100000000000000000000000000000000000CA
:10162000E142EA84057D0675067DE674067DE67472
:10163000067DE674057D057D2C6D4954970377037F
:1016400097039703970397039703970397039703CA
:10165000970398031123C900000000000000000058
:10166000000000000000000000000000000000007A
:10167000000000000000000000000000000000006A
:1016800000004008656C0785067D057DE67C057DCC
:10169000E67C057DE67C057DE57C057D0A7D844B49
:1016A0001503760B77039703970397039703970325
:1016B0009703970397039703741BEE010000000044
:1016C000000000000000000000000000000000001A
:1016D000000000000000000000000000000000000A
:1016E000000001000000A429267DE674067D067531
:1016F000067D0675067D0675067D0675057D067DEB
:10170000CA7C6011710276139703980397039703BD
:101710009703970397039703970397039613F4028E
:101720002100010000000000000000000000000097
:1017300000000000000000000000000000000000A9
:10174000000000000000000020006763267D057D8A
:10175000067D057DE67C057DE67C057DE67C057DD8
:10176000067D2685686320002B015323970397038A
:10177000770396037703960377039603770396031D
:101780007703960BE608010000000000000000004F
:101790000000000000000000000000000000000049
:1017A00000000000000000000000000040118A7CE2
:1017B000257D0675067D0675067D0675067D067512
:1017C000067D0675067D277DE439000086008F22A0
:1017D000B803980397039703970397039703970317
:1017E00097039703970398034C22440000000000DE
:1017F00000000000000000000000000000000000E9
:1018000000000000000000000000000000000000D8
:10181000C13A0985067D057DE67C057DE67C057D72
:10182000E67C057DE67C057DE77C856C6008000034
:1018300003008811970396037703960377039603B3
:101840007703960377039603970397031123E80022
:101850000000000800000000000000000000000080
:101860000000000000000000000000000000000078
:1018700000004000656C087D057D0675067DE674F8
:10188000067DE674067DE674057D067509850243CE
:1018900000000000010063007503760397037703DF
:1018A0009703970397039703970397039703980367
:1018B000741B0F0200000000000000000000000088
:1018C0000000000000000000000000000000000018
:1018D000000000000000A331067D057DE67C057D4B
:1018E000E67C057DE67C057DE67C057D067D057D47
:1018F0008A7C401900000000000000007102741B87
:10190000770397037703960377039603770396038A
:1019100077039703760B14032100000000000000FA
:1019200000000000000000000000000000000000B7
:1019300000000000000001004000485B467D067585
:10194000067DE674067DE674067DE674067DE67423
:10195000057D267D88634000000001000000000036
:101960004A01532397039803970397039703970319
:1019700097039703970377039603970306090200DB
:101980000000000000000000000000000000000057
:1019900000000000000000000000000020118A7C10
:1019A000067D057DE67C057DE67C057DE67C057D86
:1019B000E67C057DE67C2685A43100000000000061
:1019C0000000000066008E229803970377039603B9
:1019D0007703960377039603770396037703B7039A
:1019E0002C1A440000000008000000000000000065
:1019F00000000000000000000000000000000000E7
:101A0000E142EA84057D0675067D0675067D06754C
:101A1000067D0675057D0675077D656C600800000E
:101A2000000000000000000022008811B7037703C7
:101A300097039703970397039703970397039703D6
:101A4000970398033123E900000000000000000024
:101A50000000000000000000000000000000000086
:101A600000006008656C0785E67C057DE67C057DE9
:101A7000E67C057DE67C057DE57C057DE984E1422B
:101A800000000000000000000000000001006200F3
:101A90005603960B77039703770396037703960312
:101AA0007703960377039703741B0E020000000070
:101AB0000000000000000000000000000000000026
:101AC000000000000000A429267DE67C067D067546
:101AD000067D0675067D0675067D0675057D06750F
:101AE0008A7C40110000010000000000000000009E
:101AF0000000000070027513970398039703970383
:101B0000970397039703970397039703960B150380
:101B10004100010000000000000000000000000083
:101B2000000000000000000020006763267D057DA6
:101B3000E67C057DE67C057DE67C057DE67C057D15
:101B4000067D2685685B4000000000000000000064
:101B500000000000000000004B0152239703970390
:101B60007703960377039603770396037703960329
:101B70007703970B26090200000000000000000018
:101B800000000000000000000000000040118A7CFE
:101B9000257D0675067D0675067D0675067D06752E
:101BA000067D0675067D077DC4310000000000003B
:101BB00000000000000000000000000065008E2210
:101BC000B803980397039703970397039703970323
:101BD000970397039703B8034C22450000000000C9
:101BE00000000000000000000000000000000000F5
:101BF000E1420985067D057D067D057D067D057D25
:101C0000067D057D067D057D077D646C400800002E
:101C100000000000000000000000000000000000C4
:101C200003006711970396037703960377039603E0
:101C3000770396037703960397039703122308010C
:101C4000000000080000000000000000000000008C
:101C500000006008856C087D067D0675067DE674CB
:101C6000067DE674067DE674057D06750985E13A14
:101C70000000000000000000000000000000000064
:101C800000000000010063005503970397039703CA
:101C90009703970397039703970397039703980373
:101CA000741B0F0200000000000000000000000094
:101CB000000000000000A331067D057D067D057D46
:101CC000E67C057DE67C057DE67C057D057D057D64
:101CD0008A7C4011000000000000000000000000AD
:101CE0000000000000000000000000005002741B13
:101CF0007703970377039603770396037703960397
:101D000077039703760B34032200000000000000E5
:101D100000000000000000004000685B467D067582
:101D2000067DE674067DE674067DE674067DE6743F
:101D3000057D267D88634000000001000000000052
:101D40000000000000000000000000000000000093
:101D50004A013223B7039803970397039703970326
:101D6000970397039703970397039703261102009E
:101D70000000000000000000000000004011AA84E4
:101D8000067D057DE67C057DE67C057DE67C057DA2
:101D9000E67C057DE67C0685A4310000000000009D
:101DA0000000000000000000000000000000000033
:101DB0000000000865008D229803970377039603BF
:101DC0007703960377039603770396037703B703A6
:101DD0002C1A440000000008000000000000000071
:101DE00000430985057D0675067D0675067D067529
:101DF000067D0675057D0675077D65646008000033
:101E000000000000000000000000000000000000D2
:101E1000000000000000000002006811B7039703F3
:101E200097039703970397039703970397039703E2
:101E3000970398033123090100000000000000000F
:101E400000000000856C0685E67C057DE67C057D4E
:101E5000E67C057DE67C057D067D057DE984E04226
:101E60000000000000000000000000000000000072
:101E700000000000000000000000000001006200FF
:101E80003503750B77039703770396037703960360
:101E90007703960377039703741B0F02000000007B
:101EA0000000000000000000057D0675067D067537
:101EB000067D0675067D0675067D0675057D06752B
:101EC0008A7C2009000001000000000000000000E2
:101ED0000000000000000000000000000000000002
:101EE00000000000500275139703980397039703AF
:101EF000970397039703970397039703960B35036D
:101F00004100010000000000000000006564277D22
:101F1000E67C057DE67C057DE67C057DE67C057D31
:101F2000E57C2685285B2000000000000000000002
:101F300000000000000000000000000000000000A1
:101F400000000000000000000901312B98039703F6
:101F50007703960377039603770396037703960335
:101F60007703B70B270902000000000800000000FB
:101F7000A3120E65057D0675057DE67C057DE6747C
:101F8000057DE674057D067DA42920004100220020
:101F900041002100410021004100210041002100B9
:101FA000410021004100210040002000C600AE1A7F
:101FB000B80398039703970397039703970397032F
:101FC00097039703B703B8036C2245000000000095
:101FD000000000000401303473157215521D721D8B
:101FE000521D521D521D521D521D521D920491042C
:101FF0009204B1049204B1049204B1049204B104B5
:102000009204B1049204B1049204B104B204D20C5B
:102010004F038C027703760B7703960377039603BF
:1020200077039603770396039703970332230901F7
:1020300000000008000000004100291AD60596059E
:1020400095059605950596059505960595059605BC
:10205000B505B605B505B605B505B605B505B605AC
:10206000B505B605B505B605B505B605D505D6055C
:1020700033256D03620042005503760B97039703E7
:10208000970397039703970397039703970398037F
:10209000741B30020000000000000000000061001E
:1020A000D204741595059505750594057505940577
:1020B00075059405750594057505940575059405D4
:1020C0007505940575059405750594059505B50583
:1020D0007515910404090000000000003002741B13
:1020E00077039703770396037703960377039603A3
:1020F00077039703760B34032200000000000000F2
:1021000000000000EB023425950595059505950521
:1021100095059505950595059505950595059505EF
:1021200095059505950595059505950595059505DF
:10213000B5055505691A8200000000000000000086
:102140002901322397039803970397039703970373
:102150009703970397039703970397034711020089
:102160000000000000000008E3000F34B6059505EC
:102170007505940575059405750594057505940513
:102180007505940575059405750594057505940503
:102190009505B505AE23A50100000008000000006C
:1021A0000000000845006D2298039703770396030B
:1021B0007703960377039603770396037703B703B2
:1021C0004D22440000000008000000004000C7113C
:1021D000B50595059505950595059505950595050F
:1021E000950595059505950595059505950595051F
:1021F000B505B605D224CB020000000000000000A7
:10220000000000000000000002004709B703970328
:1022100097039703970397039703970397039703EE
:102220009703980332230A01000000000000000019
:10223000000020009104741D950595057505940511
:102240007505940575059405750594057505940542
:102250009505B50555155004C308000000000000A1
:10226000000000000000000000000000010062000B
:102270003503960B7703970377039603770396034B
:10228000770396037703970375134F02000000004E
:1022900000000000000000008902142DB50595051E
:1022A000950595059505950595059505950595055E
:1022B00095059505B50D3405071A6200000000006C
:1022C000000000000000000000000000000000000E
:1022D00000000000500275139703980397039703BB
:1022E000970397039703970397039703960B350379
:1022F000620001000000000000000008C300CE33AF
:10230000B60595057505940575059405750594053F
:10231000750594059505B5054D2344010000000899
:1023200000000000000000000000000000000000AD
:1023300000000000000000000901312B9803970302
:102340007703960377039603770396037703960341
:102350007703B703471102000000000000000000EF
:102360002000860995057505950595059505950542
:1023700095059505B505D60591246A020000000073
:10238000000000000000000000000000000000004D
:1023900000000000000000000000000065006D1A51
:1023A000B70398039703970397039703970397033C
:1023B000970397039703B8038D22450000000000A0
:1023C00000000000000000005004741D95059505F4
:1023D000750594059505D505341DCE0382080000CA
:1023E00000000000000000000000000000000000ED
:1023F00000000000000000000000000000000000DD
:102400000200471197039603770396037703960319
:1024100077039603770396039703970332232901E3
:102420000000000000000000000800002702132D3B
:10243000B505B5059505D60554157104651141001E
:10244000000000000000000000000000000000008C
:10245000000000000000000000000000000000007C
:1024600000000000000062003403960B9703B703DE
:10247000960397039603970396039703970397038F
:10248000751B710200000000000000000000000049
:102490004200E8193405740DD314AE032509200059
:1024A000000000000000000000000000000000002C
:1024B000000000000000000000000000000000001C
:1024C0000000000000000000000000003002741B4B
:1024D00097037603970376039703760397037603B0
:1024E0009703760397035603496E746572666163BA
:1024F000653A206C697374656E696E67206174203B
:1025000030782532780000000000240027002A00DF
:1025100000000000250028002B0000000000230020
:102520002600290004040404040404040202020234
:102530000202030303030303010204081020408086
:102540000102040810200102040810200000000706
:10255000000201000003040600000000000000006B
:10256000B019DC266A297D2F11241FBECFEFD8E0D9
:10257000DEBFCDBF11E0A0E0B1E0EAE0F2E602C0CC
:1025800005900D92A43DB107D9F714E0A4EDB1E098
:1025900001C01D92A731B107E1F715E2C8E6D5E207
:1025A00004C02297FE010E94C830C036D107C9F787
:1025B0000E94D42F0C9403310C9400000F931F93AE
:1025C000CF93DF93689F8001699F100D789F100D56
:1025D0001124C8010E94B32AEC01009729F060E0A1
:1025E00070E0A8010E940913CE01DF91CF911F91E5
:1025F0000F910895FB01DC014150504048F00590D7
:102600000D920020C9F701C01D9241505040E0F7E3
:102610000895DC0101C06D9341505040E0F70895EA
:10262000AEE0B0E0E6E1F3E10C94DA300D891E890A
:102630008F89988D97FF02C080E090E801979E8374
:102640008D831A83098386E08C839E01255E3F4F2C
:10265000CE010196698D7A8DA9010E946B134D817F
:102660005E8157FD0AC02F813885421753070CF44D
:102670009A01020F131FF80110822E96E4E00C94C9
:10268000F630AEE0B0E0E7E4F3E10C94DA308C0130
:1026900077FF02C060E070E8615070407E836D8318
:1026A0001A83098386E08C83CE010196BA01A901C1
:1026B0000E946B132D813E8137FD09C0EF81F885A3
:1026C0002E173F070CF4F901E00FF11F10822E9630
:1026D000E4E00C94F630ABE0B0E0E1E7F3E10C9419
:1026E000CC303C012B015A01FC01178216828381F8
:1026F00081FD03C06FEF7FEFC6C19AE0892E1E01F6
:102700000894211C311CF3012381F20123FD8591E2
:1027100023FF81912F01882309F4B2C1853239F456
:1027200023FD859123FF81912F01853229F490E0CB
:10273000B3010E945E15E7CF982FFF24EE24992461
:10274000FFE1FF15D0F09B3269F09C3228F4903203
:1027500059F0933291F40EC09D3249F0903369F4F0
:1027600041E024C052E0F52A84E0F82A28C098E02D
:10277000F92A25C0E0E1FE2A22C0F7FC29C0892FF2
:1027800080538A3070F4F6FE05C0989C902C11247A
:10279000980E15C0E89CE02C1124E80EF0E2FF2A08
:1027A0000EC09E3229F4F6FC6BC140E4F42A07C047
:1027B0009C3619F450E8F52A02C0983649F4F20123
:1027C00023FD959123FF91912F01992309F0B8CF13
:1027D000892F8554833018F08052833038F444E0D8
:1027E00050E0A40EB51E5FE359830FC0933631F05D
:1027F000933779F0933509F056C020C0F5018081F8
:10280000898342E050E0A40EB51E610101E010E0B2
:1028100012C0F501C080D180F6FC03C06FEF7FEFDE
:1028200002C0692D70E042E050E0A40EB51EC60162
:102830000E9453158C015FE7F52214C0F501C0809A
:10284000D180F6FC03C06FEF7FEF02C0692D70E00E
:1028500042E050E0A40EB51EC6010E9448158C014E
:1028600050E8F52AF3FE07C01AC080E290E0B301F9
:102870000E945E15EA948E2D90E008171907A8F3C0
:102880000EC0F601F7FC8591F7FE81916F0190E093
:10289000B3010E945E15E110EA9401501040011549
:1028A000110579F7EAC0943611F0993669F5F7FE0B
:1028B00008C0F501208131814281538184E090E09C
:1028C0000AC0F501808191819C01442737FD409524
:1028D000542F82E090E0A80EB91E9FE6F92257FF20
:1028E00009C050954095309521953F4F4F4F5F4F10
:1028F000E0E8FE2ACA01B901A1012AE030E00E9405
:102900008A15D82ED21840C0953729F41F2D1F7E66
:102910002AE030E01DC01F2D197F9F3661F09037EF
:1029200020F4983509F0ACC00FC0903739F09837D3
:1029300009F0A6C004C028E030E00AC0106114FD10
:10294000146020E130E004C014FD166020E132E0A4
:1029500017FF08C0F501608171818281938144E095
:1029600050E008C0F50180819181BC0180E090E0D9
:1029700042E050E0A40EB51EA1010E948A15D82E97
:10298000D2188FE7F82EF122F6FE0BC05EEFF5228B
:10299000D91438F4F4FE07C0F2FC05C08FEEF8221B
:1029A00002C01D2D01C0192DF4FE0DC0FE01ED0D5C
:1029B000F11D8081803319F499EEF92208C01F5F60
:1029C000F2FE05C003C08F2D867809F01F5F0F2D22
:1029D000F3FC14C0F0FE0FC01E1510F09D2C0BC0B0
:1029E0009D2C9E0C911A1E2D06C080E290E0B30132
:1029F0000E945E151F5F1E15C0F304C01E1510F463
:102A0000E11A01C0EE2404FF0FC080E390E0B3019F
:102A10000E945E1502FF1DC001FD03C088E790E023
:102A20000EC088E590E00BC0802F867891F001FF02
:102A300002C08BE201C080E2F7FC8DE290E0B301BE
:102A40000E945E1506C080E390E0B3010E945E150F
:102A50009A94D914C0F3DA94F101ED0DF11D80813F
:102A600090E0B3010E945E15DD20A9F706C080E268
:102A700090E0B3010E945E15EA94EE20C1F743CEC8
:102A8000F30166817781CB012B96E2E10C94E8306B
:102A9000FC010590615070400110D8F78095909529
:102AA0008E0F9F1F0895FC0161507040019001102E
:102AB000D8F7809590958E0F9F1F08950F931F93C1
:102AC000CF93DF938C01EB018B8181FF1BC082FFD1
:102AD0000DC02E813F818C819D812817390764F4B8
:102AE000E881F9810193F983E88306C0E885F985D7
:102AF000802F0995892B31F48E819F8101969F83C8
:102B00008E8302C00FEF1FEFC801DF91CF911F919D
:102B10000F910895FA01AA27283051F1203181F14F
:102B2000E8946F936E7F6E5F7F4F8F4F9F4FAF4FD5
:102B3000B1E03ED0B4E03CD0670F781F891F9A1FE8
:102B4000A11D680F791F8A1F911DA11D6A0F711D9C
:102B5000811D911DA11D20D009F468943F912AE0A8
:102B6000269F11243019305D3193DEF6CF01089590
:102B7000462F4770405D4193B3E00FD0C9F7F6CFC1
:102B8000462F4F70405D4A3318F0495D31FD405289
:102B9000419302D0A9F7EACFB4E0A695979587951F
:102BA00077956795BA95C9F70097610571050895FE
:102BB0009B01AC010A2E06945795479537952795AA
:102BC000BA95C9F7620F731F841F951FA01D089542
:102BD000FF920F931F93CF93DF93282F8B01BA019E
:102BE000A82FB0E0CD01885C9A4DFC01F490AC5D5B
:102BF000BA4DFD018491882309F441C0382F325029
:102C0000432F50E0FA01EE0FFF1FED56FE4FC0813B
:102C1000D181CA01E3E0880F991FEA95E1F73130CD
:102C200011F42E5001C02770280F832F90E0880FD9
:102C3000991F825E9A4DFC01A591B4918C91FA0185
:102C4000EA5DFD4F8083E22FF0E0EE0FFF1FDF0112
:102C5000A75DBD4F6D937C93E75AFD4F11830083B1
:102C600088818F2988832091680081E090E002C0EC
:102C7000880F991F4A95E2F7282B20936800DF916F
:102C8000CF911F910F91FF900895BF92CF92DF9245
:102C9000EF92FF920F931F93CF93DF93282F30E093
:102CA000C901880F991F825E9A4DFC01A591B491CC
:102CB0004C91F901EA5DFD4F908194274083F90121
:102CC000EE0FFF1FED56FE4F0190F081E02D808149
:102CD000982309F448C0B22EBB0CBB0CBB0CC0E05F
:102CE000D0E051E0C52ED12CE92EFF24042F10E0B6
:102CF000C6010C2E02C0880F991F0A94E2F7282FF4
:102D000030E0C9018E219F21892B49F18B2D8C0F39
:102D100090E0FC01EE0FFF1FE75DFD4F0190F08199
:102D2000E02DE130F10571F0E330F10529F42023C5
:102D30003123232B39F413C0329789F42023312314
:102D4000232B69F4FC01EE0FFF1FE75AFD4F808132
:102D50009181892B21F00190F081E02D0995219638
:102D6000C830D10529F6DF91CF911F910F91FF90C7
:102D7000EF90DF90CF90BF9008951F920F920FB603
:102D80000F9211242F933F934F935F936F937F93F1
:102D90008F939F93AF93BF93EF93FF9380E00E9435
:102DA0004516FF91EF91BF91AF919F918F917F91C8
:102DB0006F915F914F913F912F910F900FBE0F90A8
:102DC0001F9018951F920F920FB60F9211242F93F8
:102DD0003F934F935F936F937F938F939F93AF93A3
:102DE000BF93EF93FF9381E00E944516FF91EF910F
:102DF000BF91AF919F918F917F916F915F914F9113
:102E00003F912F910F900FBE0F901F9018951F921A
:102E10000F920FB60F9211242F933F934F935F930E
:102E20006F937F938F939F93AF93BF93EF93FF9392
:102E300082E00E944516FF91EF91BF91AF919F9163
:102E40008F917F916F915F914F913F912F910F9053
:102E50000FBE0F901F9018950895CF92DF92EF92BA
:102E6000FF920F931F93CF93DF93EC018D8560E06A
:102E70000E941D2DAEE2EA2EF12CF1E0CF2ED12CD6
:102E80002FC08F8560E00E941D2DC601002E02C05C
:102E9000880F991F0A94E2F7ED81FE81EE0DFF1D68
:102EA0002081318182239323892B19F08E8561E063
:102EB00002C08E8560E00E941D2D8F8561E00E941A
:102EC0001D2D015010408FEF0F3F1807D1F68EEFE8
:102ED0009FEFE80EF91E9EEFE9169FEFF90619F035
:102EE0000BE010E0CECF8F8560E00E941D2D8D8518
:102EF00061E00E941D2D8D8560E00E941D2DDF91F7
:102F0000CF911F910F91FF90EF90DF90CF90089598
:102F1000DC0170E01396ED91FC911497E60FF71F1A
:102F20008081882391F41196ED91FC911297E60F20
:102F3000F71F808190E0880F991F1596ED91FC9105
:102F40001697E80FF91F51834083CD010E942D177A
:102F50000895DC0140E01EC0242F30E01396ED916F
:102F6000FC911497E20FF31F8081882391F411964E
:102F7000ED91FC911297E20FF31F808190E0880F92
:102F8000991F1596ED91FC911697E80FF91F718323
:102F900060834F5F8C914817F8F2CD010E942D1786
:102FA00008950F931F93CF93DF93EC018B0160E0A3
:102FB00024C0262F30E0E981FA81E20FF31F8081DF
:102FC00090E0880F991FAD81BE81A80FB91F4D9168
:102FD0005C911197EB81FC81E20FF31F80818823C4
:102FE00059F4CA01800F911F20E18030920710F040
:102FF0008FEF9FE08D939C936F5F88816817C8F275
:10300000CE010E942D17DF91CF911F910F9108954E
:103010001F93CF93DF93EC01162F888160E00E940D
:103020001D2D898160E00E941D2D1EBD0DB407FE7F
:10303000FDCF8EB5898161E00E941D2DDF91CF917A
:103040001F9108951F93CF93DF93EC01162F888172
:1030500061E00E941D2D898160E00E941D2D1EBD32
:103060000DB407FEFDCF8EB5898161E00E941D2D54
:10307000DF91CF911F910895EF92FF920F931F93CD
:103080008C01F62EE42E65E10E940818C8016F2D10
:103090000E942218C8016E2D0E9422181F910F91C4
:1030A000FF90EF900895EF92FF920F931F938C0182
:1030B000F62EE42E65E70E940818C8016F2D0E94C5
:1030C0002218C8016E2D0E9422181F910F91FF90A7
:1030D000EF9008959F92AF92BF92CF92DF92EF92BE
:1030E000FF920F931F93CF93DF936C01962EA72E21
:1030F000F22EB02E47FD3FC027FD3DC0822F90E04D
:103100008E0D911D813891051CF06FE7E62EE21AB5
:10311000842F90E08B0D911D813891051CF05FE7A5
:10312000B52EB41A10E8612F641B6B190FE7802FBE
:10313000841B482FC6010E943C181F191E190F1925
:10314000C601612F402F0E945318C6016CE50E94F2
:103150000818BE9C70011124C0E0D0E009C0C6016F
:103160006A2D0E942218C601692D0E9422182196FC
:10317000CE15DF05A0F3DF91CF911F910F91FF9046
:10318000EF90DF90CF90BF90AF909F900895CF9237
:10319000DF92EF92FF920F931F937C016B01022F3E
:1031A0001EE7812F841B482FC701642F0E943C1803
:1031B000101BC701612F412F0E945318C7016CE5F6
:1031C0000E940818C7016D2D0E942218C7016C2D9E
:1031D0000E9422181F910F91FF90EF90DF90CF90E7
:1031E0000895CF92DF92EF920F936C016DEF0E94E2
:1031F0000818C60162E10E942218C6016DEF0E9404
:103200000818C60161EB0E942218C6016EEA0E94EE
:103210000818C60163EB0E940818C60161EF0E94FE
:103220002218C6016AEC0E940818C6016FE70E94C6
:103230002218C60162EA0E940818C60160E00E94D6
:103240002218C60161EA0E940818C60160E00E94C7
:103250002218C60160EA0E940818C60164E70E94AD
:103260002218C60165EB0E940818C60160E00E94A2
:103270002218C6016BEA0E940818C60161E00E948C
:103280002218C60164EB0E940818C60160EA0E9479
:103290002218C60165EB0E942218C60165E50E944E
:1032A0002218C60161EC0E940818C60168EC0E9451
:1032B0002218C60160E80E942218C60168EC0E942C
:1032C0002218C60167EC0E940818C6016FE00E9430
:1032D0002218C60161EB0E940818C60162E30E9431
:1032E0002218C6016BEB0E940818C60162E30E9417
:1032F0002218C60162EB0E940818C60164EA0E9407
:103300002218C60160E00E942218C60160E00E94F7
:103310002218C60166EB0E940818C60161E00E94EF
:103320002218C6016EEB0E940818C60165E00E94D3
:103330002218C60166EA0E940818C60160E070E023
:1033400040E020E000E8E0E8EE2E0E946A18C601A6
:103350006FEA0E9408180F91EF90DF90CF900895C8
:10336000BF92CF92DF92EF92FF920F931F9314EDD3
:10337000C12E11E0D12E85E18093D40189E991E03D
:103380009093D6018093D50182E090E068E170E0EF
:103390000E94DE128093D901F60196836091D401D8
:1033A00081E090E070E00E94DE128093D701F60188
:1033B000948388E08093E00189E08093E10186E0D6
:1033C0008093E20187E08093E30188E061E00E945E
:1033D000DE2C8091E10161E00E94DE2C8091E2010F
:1033E00061E00E94DE2C8091E30161E00E94DE2C0E
:1033F0008091E10160E00E941D2D8091E00161E07B
:103400000E941D2D8AE08093E701B7EEEB2EB1E01C
:10341000FB2EA1E1BA2EF701B2927F0180E18093E9
:10342000E8018AE061E00E94DE2C8091E80161E021
:103430000E94DE2CF701808161E00E94DE2C0EEFFD
:1034400011E0C8010E940026C8016CE271E00E94F0
:103450005A26055110408FE0F8018083B092EF01A9
:103460001092EE011092F3011092F201D092FB0142
:10347000C092FA01F092FD01E092FC011092F90174
:103480001092F8011092F10181E38093F0018FE036
:1034900061E00E94DE2CF801808160E00E941D2D19
:1034A00083E080931502F8EBEF2EFBE0FF2EF09205
:1034B0001202E092110208EC10E010931402009343
:1034C0001302EEE0F2E01182108212921292129236
:1034D0001292DD24D394D092100212921292129280
:1034E000129260E00E94DE2C82E080932502F0922E
:1034F0002202E09221021093240200932302EEE1C3
:10350000F2E0118210821292129212921292D092D2
:103510002002129212921292129260E00E94DE2C0D
:103520001F910F91FF90EF90DF90CF90BF90089583
:10353000CF93DF93EC018D81882361F4888161E072
:103540000E941D2D81E08D830E943C2C69837A832B
:103550008B839C83DF91CF9108950F931F93CF931B
:10356000DF93EC0189859A858E010B5E1F4F892BB5
:1035700009F046C0C8010E94012602970CF485C0DC
:10358000C8010E943A26883909F07FC0C8010E940C
:103590003A2689871A860E943C2C6B877C878D8708
:1035A0009E8700D000D002E513E0ADB7BEB71296FB
:1035B0001C930E93119786EA90E014969C938E9339
:1035C00013970E94FE2900D0EDB7FEB73196ADB734
:1035D000BEB712961C930E9311978FE790E09383DA
:1035E000828389859A85958384830E94FE29EDB71D
:1035F000FEB736960FB6F894FEBF0FBEEDBF45C0BE
:10360000C8010E94012629853A858217930744F153
:1036100000D000D082E593E0ADB7BEB712969C9380
:103620008E9311978AE690E014969C938E9313974D
:103630000E94FE290F900F900F900F9069857A8558
:10364000C8010E940526893939F083E090E0988B03
:103650008F871A86198622C01A86198681E01FC0B4
:103660000E943C2C2B853C854D855E85621B730B2F
:10367000840B950B695E73408040904030F082E08F
:1036800090E0988B8F871A861986CE0145960E9406
:103690000126892B19F488858F7E888780E0DF9149
:1036A000CF911F910F910895CF92DF92EF92FF92E9
:1036B0000F931F93CF93DF936C016EEA0E9408185B
:1036C000C60160E070E040E020E000E850E8E52E50
:1036D0000E946A1800E611E147E2F42E12C0FE01D2
:1036E000659174912296C6014E2D2F2D0E94C71808
:1036F000E39489E5E81699F70C591F4FF394F816EF
:1037000021F0E80137E2E32EEACFC6016FEA0E941A
:10371000081810E0C60167EC0E940818C601612F66
:103720000E94221862E470E080E090E00E944A2C3F
:103730001F5F103179F7DF91CF911F910F91FF90AB
:10374000EF90DF90CF900895FC0113864081838134
:10375000948160E070E050E00E94091389E892E0F3
:103760000E94FA250895EF92FF920F931F93CF9333
:10377000DF93EC017A018B0160E070E00E94A917F1
:10378000288130E040E050E06F81788589859A8516
:103790000E94A430CE014FEF5FE00E9488172F8176
:1037A000388549855A852F5F3F4F4F4F5F4F2F8395
:1037B000388749875A87888190E0A0E0B0E0821777
:1037C0009307A407B50740F481E090E0A0E0B0E0E3
:1037D0008F839887A987BA87288130E040E050E03E
:1037E000C801B7010E94A43089E892E0BA01A9019A
:1037F0000E94582580E0DF91CF911F910F91FF909B
:10380000EF9008952F923F924F925F926F927F9226
:103810008F929F92AF92BF92CF92DF92EF92FF92E0
:103820000F931F93DF93CF93CDB7DEB72C970FB6CF
:10383000F894DEBF0FBECDBF3C0149835A836B8332
:103840007C832901ED82FE820F831887A986BA86C0
:10385000CB86DC8614018FEF9FE0B9010E947D309A
:103860006B018BA1882309F1F30187819085A185E4
:10387000B2850197A105B105C1F4FAA1FF2321F496
:10388000C30160E070E003C0C3016FEF7FE00E94FE
:10389000A917F30187819085A185B2850196A11DA5
:1038A000B11D87839087A187B287F30107811085B7
:1038B000218532850230110521053105E0F04601F0
:1038C000AA24BB24081519052A053B05A0F4FAA172
:1038D000FF2319F4C301B20105C0662777276419D5
:1038E0007509C3010E94D11769817A818B819C81FE
:1038F000A501940144C0C601A0E0B0E00817190773
:103900002A073B0799F48AA1882321F4C3016FEFAA
:103910007FE003C0C30160E070E00E94A91789E85E
:1039200092E04D815E816F8178852FC0801791076D
:10393000A207B307A8F58FEF9FE0B1010E947D3089
:103940007B01C60ED71EC601A0E0B0E0081719071C
:103950002A073B0728F5EAA1EE2331F466277727EB
:1039600062197309C30102C0C301B1010E94D117DA
:10397000970140E050E069857A858B859C850E949F
:10398000A43089E892E0BA01A9010E945825F30108
:1039900087819085A185B2850196A11DB11D13C0B7
:1039A00089A1882331F081E090E0A0E0B0E0F3014C
:1039B0000AC0C30160E070E00E94A917C3010E9421
:1039C000A41B81E005C087839087A187B28780E030
:1039D0002C960FB6F894DEBF0FBECDBFCF91DF910E
:1039E0001F910F91FF90EF90DF90CF90BF90AF901D
:1039F0009F908F907F906F905F904F903F902F900F
:103A000008958F929F92AF92BF92CF92DF92EF92E2
:103A1000FF920F931F93CF93DF93EC018B85882345
:103A200021F4CE010E94A41BBCC1853009F4F4C06E
:103A3000863070F4823009F1833020F4813009F04F
:103A4000B0C115C0833009F1843009F0AAC192C019
:103A5000873009F429C1873008F4EAC0883009F4B6
:103A60007BC1893009F09DC140E051E072C1CE01B7
:103A700040EE5EE260E070E005C0CE0140E757E155
:103A800060E070E00E94B31B8DC18F819885A9858D
:103A9000BA850197A105B10581F4CE0160E070E01F
:103AA0000E94A9178F819885A985BA850196A11DC5
:103AB000B11D8F839887A987BA87EF80F88409851D
:103AC0001A8582E0E816F1040105110580F194E100
:103AD000E916F10401051105C0F4E981FA8180813C
:103AE00090E0880F991FED81FE81E80FF91F60813A
:103AF000718168537F4FCE010E94A91789E892E037
:103B000044E650E060E070E0C1C0A4E1EA16F104D0
:103B10000105110561F4CE016FEF7FE00E94A91746
:103B200089E892E040E050E060E070E0AFC0B5E1CD
:103B3000EB16F1040105110508F4E9C02881822F74
:103B400090E04496A0E0B0E0E816F9060A071B07EB
:103B500008F0DDC08BEE9FEFAFEFBFEFE80EF91E70
:103B60000A1F1B1F30E040E050E0C801B7010E946F
:103B7000A43079C0CE0160E070E00E94A9172881CE
:103B800030E040E050E06F81788589859A850E9419
:103B9000A430CE014FEF5FE00E9488171881212FDB
:103BA00030E040E050E06F81788589859A850E94F9
:103BB000A4301150161BCE01612F4FEF5FE00E9421
:103BC0008817288130E040E050E060ED77E080E049
:103BD00090E00E94A43089E892E0BA01A9010E9415
:103BE00058252F81388549855A852F5F3F4F4F4F84
:103BF0005F4F2F83388749875A87888190E0A0E0FC
:103C0000B0E0281739074A075B0708F4CAC082E00A
:103C100090E0A0E0B0E043C000D00F92EDB7FEB757
:103C20003196ADB7BEB711961C92118281E09FC04C
:103C30002F81388549855A85213031054105510547
:103C4000E1F1223031054105510508F460C0888159
:103C500090E0A0E0B0E0281739074A075B0708F0BA
:103C600056C0622F6250CE0140E050E00E9488179B
:103C7000288130E040E050E060ED77E080E090E0C7
:103C80000E94A43089E892E0BA01A9010E94582557
:103C90008F819885A985BA850196A11DB11D8F8355
:103CA0009887A987BA877DC02F81388549855A852D
:103CB000213031054105510561F4CE016FEF7FE000
:103CC0000E94A91789E892E048E853E160E070E0BB
:103CD000DDCF2230310541055105C8F08881869538
:103CE00090E00296AA2797FDA095BA2F28173907CA
:103CF0004A075B0760F4622F6250CE0140E050E05B
:103D00000E94881768816F5F8F81681BACCFCE01DE
:103D100060E070E00E94A917CE010E94A41B81E020
:103D200041C0242F30E0E981FA81E20FF31F808146
:103D300090E0880F991FED81FE81E80FF91F8081C7
:103D40009181892B29F4EB81FC81E20FF31F5083D1
:103D50004F5F8881481728F300D00F92EDB7FEB768
:103D6000319681E0ADB7BEB711968C9311828283F4
:103D7000CE0140ED57E060E070E028EC30E0EE244A
:103D8000FF248701F0EDAF2EF7E0BF2EC12CD12C20
:103D9000E8EC8E2E912C0E94021C0F900F900F9039
:103DA00001C080E0DF91CF911F910F91FF90EF90C4
:103DB000DF90CF90BF90AF909F908F900895CF925B
:103DC000DF92FF920F931F93CF93DF936C01EC016F
:103DD0006596CE010E943A268330C9F5CE010E9435
:103DE0003A26F82ECE010E943A26182FCE010E94C4
:103DF0003A26312F20E0082F10E0022B132BD6019A
:103E000051968D919C9152976F2DA8010E94881711
:103E1000EDB7FEB738970FB6F894FEBF0FBEEDBFF3
:103E2000319682E593E0ADB7BEB712969C938E9320
:103E3000119782E791E093838283F482158217833E
:103E400006830E94FE29EDB7FEB738967AC084300B
:103E500051F5CE010E943A26182FCE010E943A2633
:103E6000312F20E0082F10E0022B132BD6015196A2
:103E70008D919C915297B8010E94A91700D000D053
:103E800000D0EDB7FEB7319682E593E0ADB7BEB78F
:103E900012969C938E93119786E591E0938382838B
:103EA0001583048349C08130E1F4D60151968D9188
:103EB0009C91529760E070E00E94A91700D000D05A
:103EC00082E593E0EDB7FEB79283818381E491E0D0
:103ED000948383830E94FE290F900F900F900F9080
:103EE00035C0823099F5CE010E943A26182FD601AE
:103EF0005196ED91FC915297838781E090E0A0E08C
:103F0000B0E087839087A187B287CF010E94011D0F
:103F100000D000D000D0EDB7FEB7319682E593E037
:103F2000ADB7BEB712969C938E93119782E291E043
:103F300093838283148315820E94FE29EDB7FEB716
:103F400036960FB6F894FEBF0FBEEDBFDF91CF914E
:103F50001F910F91FF90DF90CF90089584ED91E035
:103F60000E94011D08952F923F924F925F926F928F
:103F70007F928F929F92AF92BF92CF92DF92EF92F9
:103F8000FF920F931F93DF93CF93CDB7DEB76D975B
:103F90000FB6F894DEBF0FBECDBF3C012DB73EB7C4
:103FA0003D872C8725E1C22ED12CC80ED91EC60113
:103FB0000E943A26982E31E0831739F046E08417A4
:103FC00021F057E0851709F08DC18DB78A8B9EB718
:103FD0009B8BC6010E943A268B87C6010E943A2617
:103FE0008A87C6010E943A268987C6010E943A261E
:103FF000182F00E0C6010E943A26A82FB0E0A02B9F
:10400000B12BBB83AA83C6010E943A26E82EFF2467
:10401000C7010196EDB7FEB7E81BF90B0FB6F89490
:10402000FEBF0FBEEDBFADB6BEB60894A11CB11C5D
:1040300000E010E009C0C6010E943A26F501E00F39
:10404000F11F80830F5F1F4F0E151F05A4F3EA0CAD
:10405000FB1CD7011C92B1E09B1619F440E050E024
:1040600008C0E7E09E1619F442E050E002C041E0CB
:1040700050E0D3015396BC91BE87F301F489FF87CA
:10408000A88AB98A3B843A942A8521502C833985A1
:10409000323061F080E098E098878F838CE09EE07A
:1040A000D92E90E29E83AFE7A9830BC0E8E2F2E04D
:1040B000F887EF838BE101E2D02EF0E3FE832AE361
:1040C00029833D2D3695369536953F5F3D83389F44
:1040D000102D11241F5F888999899C01D90100E066
:1040E000612F70E08E81282F332727FD309514C073
:1040F000992787FD9095821B930B689FF001699F1C
:10410000F00D789FF00D11248F819885E80FF91F2D
:10411000E491EF5F0E0F11968C91882349F741309F
:10412000510521F4802F8695381A04C0423051057C
:1041300009F4301A8E859F8560E070E0432D2A8552
:10414000ED2C0E946A18888999899C017901AE81B9
:10415000BB27A7FDB095BF8BAE8BE12FF0E0F98FA9
:10416000E88F3D81232F30E03B8F2A8F4D2D50E08B
:104170005D8F4C8F72C05E81851714F4852F04C04B
:10418000998198170CF4892F992787FD9095AE890E
:10419000BF898A1B9B0B288D398D829FF001839FDD
:1041A000F00D929FF00D11244F815885E40FF51FFB
:1041B00044903F010894611C711C532C222445C07B
:1041C00053018C809924CC24DD24F501849100E0F6
:1041D00010E0282F30E03D8B2C8BC8018C0D9D1DED
:1041E0004C8D5D8D84179507C4F48C899D89002EB4
:1041F00002C0959587950A94E2F7282D200F80FF3D
:1042000005C08E859F856A817B8104C08E859F85D0
:1042100060E070E0452D0E94C7180F5F1F4F083007
:104220001105D9F693940894A11CB11C88E090E084
:10423000C80ED91E98E0890EAD819A1630F22394EB
:104240005394EA8DFB8D6E0E7F1E241408F4B8CFB4
:104250004394340C0894E11CF11CD7018C91882301
:1042600009F089CF00D000D000D0EDB7FEB731966D
:1042700002E513E0ADB7BEB712961C930E931197EB
:104280008AE092E093838283B889B4832989258365
:104290000E94FE2900D000D000D0EDB7FEB73196C5
:1042A000ADB7BEB712961C930E9311978BEE91E0AB
:1042B00093838283BB85B48315822A8526831782E4
:1042C0003985308711864A815B81538742870E94F6
:1042D000FE292A893B89C9010FB6F8949EBF0FBEFB
:1042E0008DBF99C052E08517C9F4D30153968D91C3
:1042F0009C91549760E070E040E020E000E810E816
:10430000E12E0E946A1800D000D082E593E0EDB75C
:10431000FEB79283818384ED91E015C0F4E08F179E
:10432000D9F4D30153968D919C9154976EEA0E94D3
:10433000081800D000D082E593E0EDB7FEB7928375
:1043400081838FEB91E0948383830E94FE290F90F9
:104350000F900F900F905FC0F3E08F1799F4D30187
:1043600053968D919C9154976FEA0E94081800D043
:1043700000D082E593E0EDB7FEB79283818386EBB0
:1043800091E0E1CFF8E08F1791F4D30153968D912E
:104390009C9154970E94541B00D000D082E593E07A
:1043A000EDB7FEB7928381838BEA91E0CCCFF5E045
:1043B0008F1789F500D000D082E593E0ADB7BEB786
:1043C00012969C938E93119780E991E014969C939A
:1043D0008E9313970E94FE290F900F900F900F90CD
:1043E000C6010E943A26F82EC6010E943A26082FDE
:1043F000C6010E943A26182FC6010E943A26712F44
:1044000060E090E0682B792BF301838994894F2D2C
:10441000202F0E94C7182C853D850FB6F8943EBF0B
:104420000FBE2DBF6D960FB6F894DEBF0FBECDBF89
:10443000CF91DF911F910F91FF90EF90DF90CF9080
:10444000BF90AF909F908F907F906F905F904F90B4
:104450003F902F900895FF920F931F93CF93DF9378
:10446000EC018C010B5E1F4FC8010E943A2682307E
:1044700009F46AC0833020F4813009F07AC04EC05C
:104480008639B1F0873909F074C000D000D082E5D8
:1044900093E0EDB7FEB79283818389E091E0948346
:1044A00083830E94FE290F900F900F900F9061C0A0
:1044B00000D000D002E513E0EDB7FEB71283018310
:1044C0008FEE90E0948383830E94FE292EE088E1A2
:1044D00090E00FB6F894A895809360000FBE2093EB
:1044E00060000F900F900F900F90F02E012FCCE0F6
:1044F000D1E000D000D0EDB7FEB7F1820283D483C3
:10450000C3830E94562A0F900F900F900F9064EF74
:1045100071E080E090E00E944A2CEBCF00D000D008
:1045200082E593E0EDB7FEB79283818386ED90E05C
:10453000948383830E94FE290F900F900F900F9019
:10454000CE010E94DF1E15C000D000D082E593E0AE
:10455000EDB7FEB7928381838DEB90E094838383E4
:104560000E94FE290F900F900F900F90CE010E9495
:10457000B31FC8010E943A26DF91CF911F910F917E
:10458000FF900895A8958091EE018823D1F00E94B4
:104590003C2C2091EA013091EB014091EC015091CB
:1045A000ED0128533F4F4F4F5F4F6217730784074A
:1045B000950738F01092EE018091E90160E00E94C9
:1045C0001D2D2091F8013091F9012115310511F1CE
:1045D00000D000D000D0EDB7FEB7319682E593E071
:1045E000ADB7BEB712969C938E9311978AE191E076
:1045F00093838283358324830E946E2A1092F9016B
:104600001092F801EDB7FEB736960FB6F894FEBFDC
:104610000FBEEDBF89EE91E00E94AD1A8823D1F064
:1046200089EE91E00E942B2200D000D082E593E039
:10463000ADB7BEB712969C938E9311978DE291E021
:1046400014969C938E9313970E943E2A0F900F907E
:104650000F900F9008950F931F938C0188ED92E0B7
:10466000D80116966C910E945F2700D000D000D030
:10467000EDB7FEB7319682E593E0ADB7BEB71296BF
:104680009C938E93119788EE94E293838283D80152
:1046900016968C91848315820E94FE29EDB7FEB791
:1046A00036960FB6F894FEBF0FBEEDBF1F910F9167
:1046B0000895AF92BF92CF92DF92EF920F931F9324
:1046C00014BE88E10FB6F8948093600010926000E9
:1046D0000FBE29E288E190E00FB6F894A895809388
:1046E00060000FBE2093600081EF93E040E855E248
:1046F00060E070E00E94522E52E5A52E53E0B52EE8
:10470000C50163E070E00E944B29C5016CE277E1CE
:104710000E94512900D000D0EDB7FEB7B282A1822D
:1047200080E591E0948383830E943E2AEDB7FEB733
:10473000B282A18281E591E0948383830E943E2A24
:104740000F900F900F900F9084ED91E060E070E07B
:104750000E94A9178091E00160E00E941D2D09E8E8
:1047600012E0C80148EE53E060E070E00E94D325FB
:10477000C8016EEA7FE12FEF3FEF4FEF5FEF0E943E
:10478000DB25C8010E94FA250E949C2A8CE00E9429
:10479000862A84E00E948B2A8091E80161E00E94D1
:1047A0001D2D64EF71E080E090E00E944A2C809122
:1047B000E80160E00E941D2D64EF71E080E090E070
:1047C0000E944A2C8091E80161E00E941D2D64EF57
:1047D00071E080E090E00E944A2C46EEC42E41E059
:1047E000D42EC6010E94F118C6016EEA0E94081874
:1047F000C60160E070E040E020E000E830E8E32E31
:104800000E946A18C6016FEA0E94081808ED12E0BB
:10481000C8016EE175E20E94D726C80164EE74E219
:104820000E94D22689EE91E00E942B2383E069EB5F
:1048300074E241E050E00E94E81582E06EE874E224
:1048400041E050E00E94E815C6010E94541B00D0D0
:1048500000D0EDB7FEB7B282A18289E691E09483E1
:1048600083830E943E2A0F900F900F900F901F910C
:104870000F91EF90DF90CF90BF90AF900895EF929F
:10488000FF920F931F93CF93DF93EC010E943C2C78
:10489000688379838A839B836D857E8580E090E041
:1048A0000E944A2C0E943C2C8F850E94712D8823E7
:1048B00061F588859985892B51F50E943C2C6C8384
:1048C0007D838E839F8381E090E01CC088859985DD
:1048D000892BE9F00E943C2CEC80FD800E811F8129
:1048E0002B853C8540E050E02E0D3F1D401F511FA1
:1048F000621773078407950718F482E090E002C0FE
:1049000083E090E09987888702C08130F9F2DF91D7
:10491000CF911F910F91FF90EF90089586E192E063
:104920000E943F2480911E0290911F02029769F419
:1049300010921F0210921E028091F10184608093F8
:10494000F10189EE91E00E94981A80911E029091E7
:104950001F02039769F410921F0210921E028091A9
:10496000F10188608093F10189EE91E00E94981A2C
:10497000089586E092E00E943F2480910E0290917B
:104980000F02029769F410920F0210920E028091AA
:10499000F10181608093F10189EE91E00E94981A03
:1049A00080910E0290910F02039769F410920F020A
:1049B00010920E028091F10182608093F10189EEE4
:1049C00091E00E94981A0895EF92FF920F931F931F
:1049D000CF93DF93182F88ED92E00E947A26809380
:1049E000F001C1E0D0E0012F10E061E0E62EF12CF3
:1049F00010C088ED92E00E947A26682F8EEF91E039
:104A00000E941626892B21F4F092F901E092F80118
:104A10002196C017D1076CF38EEF91E00E9401261A
:104A2000892B29F08091F10180618093F101DF9160
:104A3000CF911F910F91FF90EF90089581EF93E038
:104A400060E871E00E944B3088ED92E06091F101E6
:104A50000E9424278091F001803311F41092F1011B
:104A600008951F920F920FB60F9211242F933F9328
:104A70004F935F936F937F938F939F93AF93BF9366
:104A8000EF93FF93E0918D02F0918E020995FF91D3
:104A9000EF91BF91AF919F918F917F916F915F91B6
:104AA0004F913F912F910F900FBE0F901F9018952F
:104AB000CF93DF93EC01CB01BA0120EA3FE040E065
:104AC00050E00E945E309B01AC01203080E038074E
:104AD00081E0480780E0580714F481E010C073E0DB
:104AE00055954795379527957A95D1F7203080E0F1
:104AF000380781E0480780E058071CF482E08A8389
:104B000039C063E055954795379527956A95D1F754
:104B1000203080E0380781E0480780E0580714F42F
:104B200083E0EDCF92E055954795379527959A9577
:104B3000D1F7203080E0380781E0480780E058074F
:104B400014F484E0DCCF82E055954795379527959E
:104B50008A95D1F7203080E0380781E0480780E06F
:104B6000580714F485E0CBCF85E08A832FEF3FEF21
:104B700040E050E08FB78B83F894398328833093DB
:104B80008700209386008B818FBF80918100887F72
:104B900080938100809181009A81892B809381008C
:104BA000DF91CF9108951092800020E12093810041
:104BB0000E94582508950F931F93CF93DF93EC0124
:104BC0008B01121613061406150624F4BA01A90166
:104BD0000E9458251D830C8381E080936F00809193
:104BE00081009A81892B80938100DF91CF911F9161
:104BF0000F910895E1E8F0E08081887F8083089537
:104C00000895FC01868197810895FC01CB012481E0
:104C1000358162817381820F931F0E947D300190E4
:104C2000F081E02DE80FF91F80810895CF93DF9385
:104C3000EC01462F2E813F816A817B812617370741
:104C400018F020E030E012C08C819D81820F931F0C
:104C50000E947D30E881F981E80FF91F40838E8141
:104C60009F8101969F838E8321E030E0C901DF910F
:104C7000CF910895CF93DF93EC012E813F812115D1
:104C8000310511F4E0E012C08C819D81E881F98149
:104C9000E80FF91FE0816A817B8101960E947D30D7
:104CA0009D838C83215030403F832E838E2FDF9154
:104CB000CF910895EF92FF920F931F938C017B0188
:104CC000CB010E94B32AF80180839183F382E282B0
:104CD00015821482178216821F910F91FF90EF9018
:104CE00008952091B00230E08091AF02281B310975
:104CF000C90108954091AF028091B002481718F0A1
:104D00002FEF3FEF0AC0E42FF0E0E157FD4F808125
:104D1000282F30E04F5F4093AF02C9010895E09122
:104D2000AF028091B002E81718F0EFEFFFEF06C076
:104D3000F0E0E157FD4F8081E82FF0E0CF010895CA
:104D40000895AC012091D6023091D702211531058A
:104D5000E1F09091AF028091B0029817B0F090E02E
:104D600008C0FA01EA0FFB1F8081A157BD4F8C9349
:104D70009F5FA92FB0E0A617B7079CF31092AF0270
:104D80006093B002CB01F90109950895E091D40236
:104D9000F091D502309729F01092D1021092D202F0
:104DA000099508957093D7026093D6020895709381
:104DB000D5026093D40208951092DB021092DA02B9
:104DC00088EE93E0A0E0B0E08093DC029093DD02F7
:104DD000A093DE02B093DF0288EB91E09093D902BA
:104DE0008093D8020895CF92DF92EF92FF920F93B3
:104DF0001F93CF93DF937C016B018A018091D302D3
:104E00008823A1F0C0E0D0E00DC0D701ED91FC9166
:104E1000D601AC0FBD1F0190F081E02DC7016C9150
:104E200009952196C017D10780F304C0CB01642FE8
:104E30000E947727C801DF91CF911F910F91FF90BA
:104E4000EF90DF90CF900895DF93CF930F92CDB77F
:104E5000DEB7FC0169838091D3028823C9F0809179
:104E6000D202803238F081E090E09383828320E0A8
:104E700030E015C08091D102E82FF0E0EF54FD4FF3
:104E8000998190838F5F8093D1028093D20205C075
:104E9000CE01019661E00E94772721E030E0C90150
:104EA0000F90CF91DF9108951092AF021092B0024F
:104EB0001092D1021092D2020E942D2908950F93D0
:104EC0001F938C01862F0E94732786EC96E20E9426
:104ED000972781EA96E20E949227C8010E945427F0
:104EE0001F910F910895880F8093BA000895482F5D
:104EF000613210F081E008958091E402843011F075
:104F000082E0089560932F03AEE0B3E0842F9C010C
:104F1000F90102C081918D938E2F841B8617D0F3E7
:104F200080E008959093EB028093EA0208959093B5
:104F3000E9028093E80208951F920F920FB60F9234
:104F400011242F933F934F935F936F937F938F938E
:104F50009F93AF93BF93EF93FF938091B90090E03D
:104F6000887F90708036910509F4F2C081369105F2
:104F7000CCF58832910509F47BC089329105B4F4EF
:104F80008031910509F46FC0813191053CF400979F
:104F900009F447C1089709F04FC165C088319105F0
:104FA00009F466C0809709F047C182C0803491053A
:104FB00009F4A4C08134910544F48033910509F4C7
:104FC00082C0C89709F038C189C08035910509F4BD
:104FD00089C08835910509F496C08834910509F097
:104FE0002BC1AEC08839910509F413C189399105E7
:104FF000ECF48837910509F4ABC0893791054CF47E
:105000008836910509F4A4C08037910509F014C1D0
:105010009FC08838910509F4FCC08039910509F4D6
:105020009DC08038910509F007C198C0803B91056B
:1050300009F4C6C0813B91054CF4803A910509F40E
:105040009FC0883A910509F0F7C0BAC0803C91052D
:1050500009F4E3C0883C910509F4DFC0883B910561
:1050600009F0EAC0C2C08091E5028093BB00CFC0C6
:1050700090910C0380910D03981768F490910C03A4
:10508000E92FF0E0E451FD4F80818093BB009F5FEA
:1050900090930C03BCC08091E602882309F44BC0B6
:1050A00085ED8093BC008091BC0084FDFCCFC2C024
:1050B00080E28093510385ED8093BC008091BC0019
:1050C00084FDFCCFB7C080E38093510385ED8093CE
:1050D000BC008091BC0084FDFCCFACC088E3809311
:1050E00051039BC080910C039091BB00E82FF0E02E
:1050F000E451FD4F90838F5F80930C0390910C03DC
:1051000080910D0382C080910C039091BB00E82F29
:10511000F0E0E451FD4F90838F5F80930C0380910A
:10512000E602882341F085ED8093BC008091BC00AD
:1051300084FDFCCF7FC081E08093E70284EA6EC0EB
:1051400085ED8093BC008091BC0084FDFCCF72C0D3
:1051500083E08093E4021092500359C08091500381
:10516000803208F056C0809150039091BB00E82F28
:10517000F0E0E05DFC4F90838F5F8093500347C069
:1051800080915003803230F4E0915003F0E0E05D14
:10519000FC4F108285ED8093BC008091BC0084FDA3
:1051A000FCCF1092E40260915003E091EA02F0918A
:1051B000EB0280E393E070E00995109250032DC05C
:1051C00084E08093E40210922E0310922F03E0916A
:1051D000E802F091E902099580912F03882329F4D0
:1051E00081E080932F0310920E0390912E03E92FFC
:1051F000F0E0E25FFC4F80818093BB009F5F909363
:105200002E0390912E0380912F03981710F485ECB4
:1052100001C085E88093BC000FC085EC8093BC0082
:1052200009C01092510385ED8093BC008091BC00B1
:1052300084FDFCCF1092E402FF91EF91BF91AF91FA
:105240009F918F917F916F915F914F913F912F919E
:105250000F900FBE0F901F9018951092E40281E0FE
:105260008093E6021092E70282E161E00E941D2D28
:1052700083E161E00E941D2DE9EBF0E080818E7FEB
:10528000808380818D7F808380E28093B80085E475
:105290008093BC000895FC017183608313821282A5
:1052A0000895DC0112968D919C9113970296FC0152
:1052B000EE0FFF1FEA0FFB1F7183608301971396A8
:1052C0009C938E931297059721F413961C921E922D
:1052D0001297089583E090E09093530380935203D4
:1052E00008958F929F92AF92BF92CF92DF92EF92EA
:1052F000FF920F931F93DF93CF93CDB7DEB7C259C1
:10530000D1400FB6F894DEBF0FBECDBF5C017B016C
:10531000DA01FE01EF56FE4F5183408349018E01B1
:105320000F5F1F4FC80168EC70E0A7019D010E944C
:1053300041138DB79EB708970FB6F8949EBF0FBE66
:105340008DBFEDB7FEB7319639ECC32ED12CCC0E04
:10535000DD1EADB7BEB71296DC92CE92119788ECE7
:1053600090E09383828380E991E09583848317831F
:1053700006830E941013EDB7FEB738960FB6F89467
:10538000FEBF0FBEEDBFD50112968D919C91139774
:10539000892B21F0750100E010E010C081EF93E04F
:1053A000B6010E944B3016C0D7011296ED91FC91C8
:1053B0001397C601B40109950F5F1F4FE2E0F0E0BB
:1053C000EE0EFF1ED50112968D919C911397081732
:1053D000190754F3CE56DE4F0FB6F894DEBF0FBE5A
:1053E000CDBFCF91DF911F910F91FF90EF90DF9094
:1053F000CF90BF90AF909F908F900895EF92FF92C3
:105400000F931F93DF93CF93CDB7DEB7C85CD04027
:105410000FB6F894DEBF0FBECDBFCF52DF4FE8808E
:10542000F980C15DD040F701808191810397C4F07C
:105430008E010F5F1F4FC801CD52DF4F6881798108
:10544000C35DD04048EC50E00E94FA129E012B52FE
:105450003F4FC701B801A90123E030E00E94712944
:10546000C853DF4F0FB6F894DEBF0FBECDBFCF914C
:10547000DF911F910F91FF90EF900895DF93CF93ED
:10548000CDB7DEB7ED81FE818081918103975CF01D
:105490009E01275F3F4FCF016F817885A90123E0EF
:1054A00030E00E947129CF91DF910895DF93CF936F
:1054B000CDB7DEB7ED81FE818081918102975CF0EE
:1054C0009E01275F3F4FCF016F817885A90122E0C0
:1054D00030E00E947129CF91DF910895DF93CF933F
:1054E000CDB7DEB7ED81FE818081918197FD0BC044
:1054F0009E01275F3F4FCF016F817885A90120E092
:1055000030E00E947129CF91DF9108959CB5937F7F
:10551000982B9CBD08952CB5382F33702C7F322BDF
:105520003CBD2DB590E095958795959587958170B3
:105530002E7F822B8DBD08958AE061E00E941D2D93
:105540008AE061E00E94DE2C8CB580618CBD8CB558
:1055500080648CBD8DE061E00E94DE2C8BE061E018
:105560000E94DE2C08950F931F93CF93DF93BC010D
:105570008230910510F462E070E0E0911504F09142
:105580001604A0E0B0E040E050E024C080819181AA
:1055900086179707D0F08617970771F48281938159
:1055A000109729F013969C938E9312972CC090938A
:1055B00016048093150427C04115510519F084176E
:1055C000950718F4EF018D01AC01DF018281938111
:1055D0009C01F9013097D1F641155105F9F0CA0146
:1055E000861B970B8430910580F48A819B8101157D
:1055F000110521F0F8019383828304C0909316046F
:1056000080931504FE01329645C0FE01E80FF91F94
:10561000619371930297998388833CC080911304AE
:1056200090911404892B41F48091B0019091B101C3
:1056300090931404809313044091B2015091B301EC
:105640004115510541F44DB75EB78091AE0190917F
:10565000AF01481B590B20911304309114042417F7
:105660003507B0F4CA01821B930B8617970780F0A9
:10567000AB014E5F5F4F8417950750F0420F531FE9
:105680005093140440931304F9016193719302C081
:10569000E0E0F0E0CF01DF91CF911F910F910895ED
:1056A000CF93DF939C01009709F48FC0EC01229700
:1056B0001B821A82609115047091160461157105A0
:1056C00081F488819981820F931F20911304309176
:1056D00014042817390739F5D0931404C093130420
:1056E00074C0DB0140E050E0AC17BD0708F1BB839C
:1056F000AA83FE0121913191E20FF31FAE17BF077C
:1057000079F48D919C911197280F391F2E5F3F4F8F
:105710003983288312968D919C9113979B838A835A
:105720004115510571F4D0931604C09315044DC072
:1057300012968D919C911397AD01009711F0DC01A9
:10574000D3CFDA011396DC93CE931297FA0121910D
:105750003191E20FF31FCE17DF0769F48881998139
:10576000280F391F2E5F3F4FFA01318320838A8132
:105770009B8193838283E0E0F0E0DB0112968D91C0
:105780009C911397009719F0BC01FD01F6CFAB0176
:105790004E5F5F4FDB018D919C91840F951F20918F
:1057A0001304309114042817390779F4309729F439
:1057B000109216041092150402C0138212824250F5
:1057C00050405093140440931304DF91CF910895F7
:1057D0001F920F920FB60F9211242F933F934F9366
:1057E0005F936F937F938F939F93AF93BF9320911A
:1057F0006403309165034091660350916703709193
:105800006803DA01C9010296A11DB11D672F6A5F05
:105810006D3730F06D57DA01C9010396A11DB11D36
:10582000609368038093640390936503A093660379
:10583000B09367038091600390916103A09162032C
:10584000B09163030196A11DB11D809360039093F5
:105850006103A0936203B0936303BF91AF919F91E3
:105860008F917F916F915F914F913F912F910F9009
:105870000FBE0F901F9018958FB7F8942091640376
:105880003091650340916603509167038FBFB90162
:10589000CA0108959B01AC017FB7F8948091600321
:1058A00090916103A0916203B091630366B5A89BD8
:1058B00005C06F3F19F00196A11DB11D7FBFBA2F22
:1058C000A92F982F8827860F911DA11DB11D63E078
:1058D000880F991FAA1FBB1F6A95D1F7BC012DC065
:1058E000FFB7F8948091600390916103A0916203E7
:1058F000B0916303E6B5A89B05C0EF3F19F0019690
:10590000A11DB11DFFBFBA2FA92F982F88278E0F79
:10591000911DA11DB11DE3E0880F991FAA1FBB1F98
:10592000EA95D1F7861B970B885E9340C8F2215009
:1059300030404040504068517C4F211531054105B1
:10594000510571F60895789484B5826084BD84B55C
:10595000816084BD85B5826085BD85B5816085BD6A
:10596000EEE6F0E0808181608083E1E8F0E0108283
:10597000808182608083808181608083E0E8F0E0C4
:10598000808181608083E1EBF0E0808184608083AE
:10599000E0EBF0E0808181608083EAE7F0E08081E5
:1059A0008460808380818260808380818160808345
:1059B0008081806880831092C1000895CF93DF9327
:1059C000482F50E0CA01885C9A4DFC0134914C5D2F
:1059D0005A4DFA018491882369F190E0880F991F4C
:1059E000FC01EA5FFA4DA591B491FC01E05FFA4D2C
:1059F000C591D491662351F42FB7F8948C91932FCD
:105A0000909589238C93888189230BC0623061F43F
:105A10002FB7F8948C91932F909589238C9388813C
:105A2000832B88832FBF06C09FB7F8948C91832B5C
:105A30008C939FBFDF91CF910895482F50E0CA010A
:105A4000845B9A4DFC012491CA01885C9A4DFC014B
:105A500094914C5D5A4DFA013491332309F440C0BE
:105A6000222351F1233071F0243028F42130A1F0A9
:105A7000223011F514C02630B1F02730C1F02430A7
:105A8000D9F404C0809180008F7703C0809180009A
:105A90008F7D8093800010C084B58F7702C084B55D
:105AA0008F7D84BD09C08091B0008F7703C0809145
:105AB000B0008F7D8093B000E32FF0E0EE0FFF1F6A
:105AC000E05FFA4DA591B4912FB7F894662321F4C5
:105AD0008C919095892302C08C91892B8C932FBF38
