:100000000C94EE120C9416130C9416130C94F71611
:100010000C941C170C9441170C9416130C94161383
:100020000C9416130C9416130C9416130C941613AC
:100030000C9416130C944A2A0C9416130C94161351
:100040000C9401310C9416130C94DE320C94303362
:100050000C9416130C9416130C9416130C9416137C
:100060000C94B52C0C941613D87108000000BE92A5
:100070002449123EABAAAA2ABECDCCCC4C3E0000ED
:100080000080BEABAAAAAA3E00000000BF0000008C
:10009000803F0000000000084178D3BB4387D113A4
:1000A0003D190E3CC3BD4282AD2B3E68EC8276BE4C
:1000B000D98FE1A93E4C80EFFFBE01C4FF7F3F0016
:1000C00000000000496E746572666163653A2046FF
:1000D00072616D6520656E640009496E74657266B3
:1000E0006163653A20457870656374696E67206660
:1000F00072616D65206C656E6774683A20256400D6
:10010000496E746572666163653A204672616D6519
:100110002073746172740009496E7465726661635C
:10012000653A20534C45455020636F6D6D616E6498
:100130000009496E746572666163653A204F4C45EB
:100140004420636F6D6D616E640009496E74657261
:10015000666163653A2052494E4720636F6D6D6159
:100160006E640009496E746572666163653A205277
:100170004553455420636F6D6D616E640009496E8F
:10018000746572666163653A2053594E4320636F0C
:100190006D6D616E640009496E74657266616365B8
:1001A0003A20537461727420616E696D6174696F75
:1001B0006E2025640009496E746572666163653A54
:1001C0002052696E67206F66660009496E74657219
:1001D000666163653A20536574206C6564732074AE
:1001E0006F20256C750009496E74657266616365E0
:1001F0003A20536574206C656420256420746F2058
:10020000256C750009496E746572666163653A20F4
:100210004F6C65642073657420706978656C0009A3
:100220004F6C6564206C6F676F00094F6C656420CC
:100230006F6E0009496E746572666163653A204F9E
:100240006C6564206F66660009496E74657266614C
:1002500063653A204F6C656420636C6561720009C8
:1002600009783A256420793A25642073697A653AD9
:1002700025642C20636F6C6F723A20257500094944
:100280006E746572666163653A204F6C65642073B5
:10029000657420746578743A202573001B00000093
:1002A00000000000000000000000000000FEFF034E
:1002B0000080FFFF0F00E0FFFF1F00F000003C0088
:1002C00038000078001C000070000C0000E0000600
:1002D0000000C001060000C0010600008001060009
:1002E0000080010600008001060000800106000079
:1002F00080010600008001060000C001060000C069
:10030000010C0000E0001C000070003800007800C4
:10031000F000003C00E0FFFF1F0080FFFF0F000027
:10032000FEFF03000C0000000000000000000000C1
:1003300000000000060000000006000000000600AB
:10034000000000FEFFFFFF01FEFFFFFF01FEFFFFB9
:10035000FF0100000000000000000000000000009D
:10036000000000000000000000000000000000008D
:10037000000000000000000000000000000000007D
:10038000000000000000000000000000000000006D
:10039000000000000000000000000000000000005D
:1003A0000000000000000000000000001600000037
:1003B00000000000008001060000C001060000E00F
:1003C00001060000F001060000FC01060000BE016D
:1003D0000600009F010600808F010600E0830106F1
:1003E00000F081010600F8800106007C8001060013
:1003F0001F800106800F800106C007800106E00310
:1004000080010EF80080011E7C008001FC3F00800E
:1004100001F81F008001E0070080010000000000DB
:1004200000000000000000000000000000000000CC
:100430000000000014060000800106000080010694
:100440000000800106000380010600038001060011
:1004500003800106000380010600038001060003FB
:10046000800106000380010600038001060003806E
:1004700001060003800106000380010E8007C00111
:100480001EC00FE0013CE01FF000F8FFFE7F00F00F
:100490007FFC3F00E03FF81F00000000000000006C
:1004A000000000000000000000000000000000004C
:1004B0000000000000000000000000001600001E08
:1004C000000000807F000000C07F000000E0E1002D
:1004D0000000F0C000000078C00000003CC0000038
:1004E000001EC00000000FC000008007C00000C058
:1004F00003C00000E001C00000F000C00000780070
:10050000C000003C00C000001E00C000000E00C083
:100510000000FEFFFFFF01FEFFFFFF01FEFFFFFFE8
:10052000010000C000000000C0000000000000004A
:1005300000000000000000000000000000000000BB
:10054000000000001700000000000000000000FC98
:100550007F008001FEFF008001FEFF00800106C0D9
:1005600000800106C000800106C000800106C000B6
:10057000800106C000800106C000800106C0008026
:100580000106C000800106C000800106C000800195
:1005900006C000800106C000800106C001C001063F
:1005A000C003E001068007F0000600FF7F000600A0
:1005B000FE3F000600FC1F000000000000000000DD
:1005C0000000000000000000000000001900000012
:1005D000000000000000000000000000C0FFFF1F3E
:1005E00000F0FFFF3F00F8FFFF7F003CC001F0007C
:1005F0001CE000E0010E7000C00106300080010622
:100600003000800106300080010630008001063095
:1006100000800106300080010630008001063000B5
:10062000800106300080010E300080011C7000C087
:10063000013CF000E001F8E101F000F0C1FF7F00B3
:10064000C081FF3F000000FF1F000000000000000D
:100650000000000015060000000006000000000673
:100660000000000006000000000600000000060078
:100670000000000600008001060000E00106000006
:10068000F801060000FE010600807F000600E01F62
:10069000000600F807000600FE010006807F00004B
:1006A00006E01F00000EF8070000FEFF010000FC3E
:1006B0007F000000F81F000000F0070000000000AD
:1006C000000000000000000000000000000000002A
:1006D0000000000000000000000000001900000001
:1006E0000000000000000000000000000000FC1FEF
:1006F000000000FE3F00E007FF7F00F88F07F000DA
:10070000FCDF03E0011CF001C0010EE000800106E7
:10071000C000800106C000800106C000800106C044
:1007200000800106C000800106C000800106C000F4
:10073000800106C00080010EE00080011CF001C0B5
:1007400001FCDF03E001F88F07F000E007FF7F0006
:100750000000FE3F000000FC1F0000000000000041
:100760000000000019000000000000000000000070
:1007700000000000C07F000000F0FF010E00F8FF45
:10078000033E003C80077E001C000FF0000E000EB0
:10079000E00106000CC00106000C800106000C8080
:1007A0000106000C800106000C800106000C80018F
:1007B00006000C800106000C800106000C8001067A
:1007C000000C80010E000EC0011C0007E0013C80FF
:1007D00003F000F8FFFF7F00F0FFFF3F00C0FFFFC6
:1007E0001F000000000000000000000008000000E2
:1007F00000000000000000000000000000000000F9
:100800000000703800000070380000000000000098
:1008100000000000000000000000000000000000D8
:1008200000000000000000000000000000000000C8
:1008300000000000000000000000000000000000B8
:1008400000000000000000000000000000000000A8
:100850000000000000000000000000000000000098
:100860000000000000000000000000000000000088
:100870000000000004000000000000000000000074
:100880000000000000000000000000000001FC0962
:100890000000000000000000000000000000000058
:1008A000000000000000020400040000000000003E
:1008B0000000000000000000000000000000000533
:1008C0000000F00320012001F00300000000000000
:1008D00000000000000000000638044804FC0F88F7
:1008E00004080500030000000000000000000000F4
:1008F00000010000000000000000000000000000F7
:1009000000000000000000000000078007B8084455
:1009100008A408180D0006000900000000000000EF
:10092000000000010C0000000000000000000000BA
:10093000000000000000000000000000040000F8BB
:100940000704080408000000000000000000000088
:1009500000000000000304080408F807000000007D
:100960000000000000000000000000000000040083
:100970000018003C0018000000000000000000000B
:10098000000000000000000680008000F0038000EE
:100990008000800000000000000000000000000057
:1009A000010018000000000000000000000000002E
:1009B0000000000000000000000500008000800032
:1009C0008000800000000000000000000000000027
:1009D000000002000000080000000000000000000D
:1009E00000000000000000000000000600080006F3
:1009F00080016000180004000000000000000000FA
:100A000000000000080000F00318042408C40804D3
:100A10000B0804F0030000000000000000051008AF
:100A20000808FC0F0008000800000000000000009B
:100A3000000000000000070000180C040A0409C4AC
:100A4000082408180800000000000000000000064C
:100A500004088408840884088408780700000000DB
:100A60000000000000000000068003400220021089
:100A7000020C02FC0F00000000000000000000005B
:100A8000000700007C084408440844084408840720
:100A900000000000000000000000080000F807242B
:100AA000082408240824082008C0070000000000CB
:100AB0000000000604000400040C0403E400180015
:100AC000000000000000000000000000080000809E
:100AD00007780844084408440878088007000000A4
:100AE00000000000000700007806840884088408DD
:100AF0008408F80700000000000000000000020069
:100B00000080020000000000000000000000000063
:100B10000000000000000002000080030000000050
:100B200000000000000000000000000000000000C5
:100B3000048000400130032002000000000000009B
:100B4000000000000000000000050000A000A00060
:100B5000A000A00000000000000000000000000055
:100B6000000004000030022001C00000000000006E
:100B700000000000000000000000000600008409E2
:100B80004400440044003800000000000000000061
:100B9000000000000A0000F8070408C21372125295
:100BA000125212F21F0400F80300000000090008AE
:100BB0000006E001180104013801C001000E000820
:100BC000000000000000080000FC0F440844084436
:100BD00008440878088007000000000000000007B3
:100BE0000000F003080404080408040804080000D6
:100BF0000000000000000000080000FC0F040804D2
:100C000008040804080804F00300000000000000C5
:100C100000080000FC0F4408440844084408440845
:100C200004080000000000000000080000FC0F4461
:100C300000440044004400440004000000000000A0
:100C4000000000080000F0030804040804088408F9
:100C5000880490030000000000000000080000FC71
:100C60000F40004000400040004000FC0F0000002A
:100C7000000000000006000004080408FC0F04083F
:100C80000408000000000000000000000000040054
:100C90000800080004FC0300000000000000000041
:100CA00000000000000000080000FC0F40004000B1
:100CB000E000100108060408000000000000000029
:100CC000070000FC0F0008000800080008000800EA
:100CD0000000000000000000000A0000FC0F0C00F3
:100CE000100020004000200018000400FC0F00004D
:100CF0000000080000FC0F1C0060008001000600DE
:100D000008FC0F0000000000000000080000F003D5
:100D100008040408040804080804F00300000000A4
:100D200000000000080000FC0F84008400840084A0
:100D300000CC007800000000000000000008000067
:100D4000F00308040408040804080804F00B000079
:100D5000000000000000080000FC0F8400840084F4
:100D6000008401CC067808000000000000000007A5
:100D7000180824084408840804090409040E000023
:100D8000000000000000000007040004000400FC54
:100D90000F04000400040000000000000000000038
:100DA00000080000FC03000400080008000800041C
:100DB000FC0300000000000000000804003800C030
:100DC00001000600080007E0001C00000000000011
:100DD0000000000C00007C00800700088007600015
:100DE0003C00C003000C000FF0000C000800000CD9
:100DF0000C10022001C000200318040408000000A9
:100E00000000000000070C0010002000C00F2000B0
:100E100010000C00000000000000000000000704AB
:100E20000C040A8409440824081C08040800000073
:100E300000000000000000040000FC0F040804088B
:100E400000000000000000000000000000000000A2
:100E5000040C0070008003000C0000000000000083
:100E60000000000000000000000304080408FC0F5C
:100E70000000000000000000000000000000000072
:100E80000000061000180004000C00100010000004
:100E90000000000000000000000000050000000845
:100EA000000800080008000000000000000000002A
:100EB000000000000200000300000000000000002D
:100EC000000000000000000000000000000600001C
:100ED0002006200920092009C00F000000000000A2
:100EE000000000000000060000FC0F200820086041
:100EF0000CC007000000000000000000000000051A
:100F00000000C007600C200820080000000000005E
:100F1000000000000000000005C007600C20082051
:100F200008FC0F00000000000000000000000000AE
:100F300000060000C007200920092009C0010000A8
:100F400000000000000000000000050000F80F2471
:100F50000024002400000000000000000000000049
:100F6000000000060000C027202820282028E01FBD
:100F7000000000000000000000000000060000FC6F
:100F80000F400020002000C00F0000000000000003
:100F90000000000000020000D00F00000000000070
:100FA000000000000000000000000000000003003E
:100FB000200030F01F0000000000000000000000D2
:100FC00000000000000000060000FC0F800080010F
:100FD00040060008000000000000000000000000C3
:100FE000030000FC0F0008000000000000000000EB
:100FF0000000000000000000000A0000E00F2000D8
:1010000020002000C00F200020002000C00F0000A2
:101010000000060000E00F200020002000C00F00AC
:101020000000000000000000000000060000C007F3
:10103000200820082008C007000000000000000071
:1010400000000000060000E03F200820082008C043
:101050000700000000000000000000000006C007BC
:10106000600820082008600CE03F0000000000003D
:10107000000000000000050000C00F4000400040DC
:10108000000000000000000000000000000000055B
:101090000000E0082009200A200C000000000000E9
:1010A0000000000000000000050000FC07200C20EC
:1010B0000800080000000000000000000000000020
:1010C00000060000C007000800080008C00F00006C
:1010D0000000000000000000000006400080030047
:1010E0000C000E8001400000000000000000000025
:1010F000000000080000C003000C0007C001000E43
:10110000000FC0000000000000000000050000C04B
:101110000C00038003400C000000000000000000F1
:101120000000000000060000C0000033000C800337
:10113000400000000000000000000000000005006A
:1011400000200E2009E00820080000000000000038
:10115000000000000000000100000000000000008E
:10116000000000000000000000000000000000007F
:10117000020000FE1F000000000000000000000050
:10118000000000000000000000010000000000005E
:10119000000000000000000000000000000000004F
:1011A00000000700000000C00040008000800040F8
:1011B000000000000000000000000003FC0F040815
:1011C000FC0F000000000000000000000000000014
:1011D000000000000000000000000000000000000F
:1011E0000000000000000000000000002000C629F0
:1011F000AA5CAA5CF41B730B97037703960377032F
:10120000960377039603770397039703750BF4020E
:10121000820001000000000000000000000000004B
:1012200000000000000000000000000000000000BE
:1012300000000000000000000000000000000000AE
:10124000000000000000000000000000000000009E
:1012500020118A7C04852485D054AB33780398030D
:101260007703960377039603770396037703960332
:101270007703B8030B1A43000000000800000000C9
:10128000000000000000000000000000000000005E
:10129000000000000000000000000000000000004E
:1012A000000000000000000000000000000000003E
:1012B00000000000E1420985047D057D2C6D294C6C
:1012C000770377039703970397039703970397038E
:1012D00097039703970398031023C80000000000AA
:1012E00000000000000000000000000000000000FE
:1012F00000000000000000000000000000000000EE
:1013000000000000000000000000000000000000DD
:101310000000000000006008656C0785E57C057D25
:101320000975C76C9603950B7703970377039603AC
:10133000770396037703960377039703541BED0116
:10134000000000000000000000000000000000009D
:10135000000000000000000000000000000000008D
:10136000000000000000000000000000000000007D
:1013700000000000000001000000A429267DE674A2
:10138000057D067D067D0775151C730B9703980375
:10139000970397039703970397039703970397037D
:1013A0009513F4022100010000000000000000007D
:1013B000000000000000000000000000000000002D
:1013C000000000000000000000000000000000001D
:1013D0000000000000000000000000002000686322
:1013E000267D057DE67C057DE57C0585733C6E1BD1
:1013F000780397037703960377039603770396039F
:10140000770397037703960BE508010000000008B7
:1014100000000000000000000000000000000000CC
:1014200000000000000000000000000000000000BC
:1014300000000000000000000000000000000000AC
:1014400040118A7C257D0675067D0675057D057D26
:10145000F054AC2B980378039703970397039703F3
:1014600097039703970397039703B8032B1A240056
:10147000000000000000000000000000000000006C
:10148000000000000000000000000000000000005C
:10149000000000000000000000000000000000004C
:1014A00000000000E1420985E67C057DE67C057DC3
:1014B000E57C05850C65485477039703770396030D
:1014C00077039603770396037703960397039703AF
:1014D000F122C7000000000800000000000000002A
:1014E00000000000000000000000000000000000FC
:1014F00000000000000000000000000000000000EC
:101500000000000000006108856C077D057D067500
:10151000067D0675057D067D0875A864B60B760305
:10152000970377039703970397039703970397030B
:1015300097039803741BEE010000000000000000F8
:10154000000000000000000000000000000000009B
:10155000000000000000000000000000000000008B
:1015600000000000000000000000C331077D067D80
:10157000067D057DE67C057DE67C057DE67C067DB9
:10158000F51B72137703970377039603770396038C
:101590007703960377039703760BF30201000000AD
:1015A000000000000000000000000000000000003B
:1015B000000000000000000000000000000000002B
:1015C0000000000000000000000000004000685B18
:1015D000467D0675067D0675067D0675067DE674F4
:1015E000057D057D933C6F1B980378039703970354
:1015F000970397039703970397039703960397031C
:1016000005090200000000000000000000000000CA
:1016100000000000000000000000000000000000CA
:1016200000000000000000000000000000000000BA
:101630004011AA84067D057DE67C057DE67C057D5E
:10164000E67C057DE57C0485F054CB337803980374
:1016500097039703970397039703970397039703BA
:101660007703B7030C1A23000000000800000000F5
:10167000000000000000000000000000000000006A
:10168000000000000000000000000000000000005A
:1016900000000000E142EA84057D0675067DE674DF
:1016A000067DE674067DE674057D057D2C6D495446
:1016B000970377039703970397039703970397037A
:1016C00097039703970398031123C90000000000B4
:1016D000000000000000000000000000000000000A
:1016E00000000000000000000000000000000000FA
:1016F0000000000000004008656C0785067D057D40
:10170000E67C057DE67C057DE67C057DE57C057D4A
:101710000A7D844B1503760B770397039703970392
:10172000970397039703970397039703741BEE019F
:1017300000000000000000000000000000000000A9
:101740000000000000000000000000000000000099
:1017500000000000000001000000A429267DE674BE
:10176000067D0675067D0675067D0675067D067581
:10177000057D067DCA7C601171027613970398037C
:101780009703970397039703970397039703970389
:101790009613F40221000100000000000000000088
:1017A0000000000000000000000000000000000039
:1017B000000000000000000000000000200067633F
:1017C000267D057D067D057DE67C057DE67C057D27
:1017D000E67C057D067D2685686320002B0153236A
:1017E000970397037703960377039603770396038C
:1017F000770396037703960BE608010000000000CC
:1018000000000000000000000000000000000000D8
:1018100000000000000000000000000000000000C8
:1018200040118A7C257D0675067D0675067D067548
:10183000067D0675067D0675067D277DE439000068
:1018400086008F22B80398039703970397039703A3
:101850009703970397039703970398034C22440039
:101860000000000000000000000000000000000078
:101870000000000000000000000000000000000068
:1018800000000000C13A0985067D057DE67C057DE6
:10189000E67C057DE67C057DE67C057DE77C856C48
:1018A00060080000030088119703960377039603EE
:1018B00077039603770396037703960397039703BB
:1018C0001123E800000000080000000000000000F4
:1018D0000000000000000000000000000000000008
:1018E0000000000000004000656C087D057D067565
:1018F000067DE674067DE674067DE674057D067554
:1019000009850243000000000100630075037603AF
:101910009703770397039703970397039703970317
:1019200097039803741B0F020000000000000000E2
:1019300000000000000000000000000000000000A7
:1019400000000000000000000000A331067D057DBE
:10195000E67C057DE67C057DE67C057DE67C057DF7
:10196000067D057D8A7C4019000000000000000013
:101970007102741B7703970377039603770396032B
:101980007703960377039703760B14032100000077
:101990000000000000000000000000000000000047
:1019A0000000000000000000000001004000485B53
:1019B000467D0675067DE674067DE674067DE67452
:1019C000067DE674057D267D8863400000000100E9
:1019D000000000004A0153239703980397039703DD
:1019E0009703970397039703970377039603970348
:1019F00006090200000000000000000000000000D6
:101A000000000000000000000000000000000000D6
:101A100020118A7C067D057DE67C057DE67C057DC2
:101A2000E67C057DE67C057DE67C2685A43100000C
:101A3000000000000000000066008E22980397035B
:101A4000770396037703960377039603770396034A
:101A50007703B7032C1A44000000000800000000C0
:101A60000000000000000000000000000000000076
:101A700000000000E142EA84057D0675067D0675DA
:101A8000067D0675067D0675057D0675077D656C08
:101A90006008000000000000000000002200881123
:101AA000B703770397039703970397039703970366
:101AB00097039703970398033123E9000000000080
:101AC0000000000000000000000000000000000016
:101AD0000000000000006008656C0785E67C057D5D
:101AE000E67C057DE67C057DE67C057DE57C057D67
:101AF000E984E14200000000000000000000000056
:101B0000010062005603960B770397037703960351
:101B1000770396037703960377039703741B0E02EC
:101B200000000000000000000000000000000000B5
:101B300000000000000000000000A429267DE67CD3
:101B4000067D0675067D0675067D0675067D06759D
:101B5000057D06758A7C4011000001000000000030
:101B60000000000000000000700275139703980346
:101B70009703970397039703970397039703970395
:101B8000960B15034100010000000000000000005A
:101B9000000000000000000000000000200067635B
:101BA000267D057DE67C057DE67C057DE67C057D64
:101BB000E67C057D067D2685685B40000000000010
:101BC0000000000000000000000000004B01522354
:101BD0009703970377039603770396037703960398
:101BE000770396037703970B260902000000000095
:101BF00000000000000000000000000000000000E5
:101C000040118A7C257D0675067D0675067D067564
:101C1000067D0675067D0675067D077DC4310000CC
:101C200000000000000000000000000000000000B4
:101C300065008E22B80398039703970397039703D1
:101C400097039703970397039703B8034C22450024
:101C50000000000000000000000000000000000084
:101C600000000000E1420985067D057D067D057DB9
:101C7000067D057D067D057D067D057D077D646C01
:101C8000400800000000000000000000000000000C
:101C90000000000003006711970396037703960383
:101CA00077039603770396037703960397039703C7
:101CB00012230801000000080000000000000000DE
:101CC0000000000000006008856C087D067D067538
:101CD000067DE674067DE674067DE674057D067570
:101CE0000985E13A0000000000000000000000004B
:101CF000000000000000000001006300550397038E
:101D00009703970397039703970397039703970303
:101D100097039803741B0F020000000000000000EE
:101D200000000000000000000000A331067D057DDA
:101D3000067D057DE67C057DE67C057DE67C057DF2
:101D4000057D057D8A7C4011000000000000000038
:101D50000000000000000000000000000000000083
:101D60005002741B77039703770396037703960358
:101D70007703960377039703760B34032200000062
:101D80000000000000000000000000004000685B50
:101D9000467D0675067DE674067DE674067DE6746E
:101DA000067DE674057D267D886340000000010005
:101DB0000000000000000000000000000000000023
:101DC000000000004A013223B703980397039703EA
:101DD0009703970397039703970397039703970333
:101DE00026110200000000000000000000000000BA
:101DF0004011AA84067D057DE67C057DE67C057D97
:101E0000E67C057DE67C057DE67C0685A431000048
:101E100000000000000000000000000000000000C2
:101E2000000000000000000865008D229803970361
:101E30007703960377039603770396037703960356
:101E40007703B7032C1A44000000000800000000CC
:101E50000000000000430985057D0675067D0675B6
:101E6000067D0675067D0675057D0675077D65642C
:101E700060080000000000000000000000000000FA
:101E800000000000000000000000000002006811D7
:101E9000B703970397039703970397039703970352
:101EA000970397039703980331230901000000006B
:101EB0000000000000000000856C0685E67C057DC2
:101EC000E67C057DE67C057DE67C057D067D057D61
:101ED000E984E04200000000000000000000000073
:101EE00000000000000000000000000000000000F2
:101EF000010062003503750B7703970377039603A0
:101F0000770396037703960377039703741B0F02F7
:101F1000000000000000000000000000057D0675C4
:101F2000067D0675067D0675067D0675067D0675B9
:101F3000057D06758A7C2009000001000000000074
:101F40000000000000000000000000000000000091
:101F50000000000000000000500275139703980372
:101F600097039703970397039703970397039703A1
:101F7000960B350341000100000000000000000046
:101F80006564277DE67C057DE67C057DE67C057D38
:101F9000E67C057DE57C2685285B200000000000AE
:101FA0000000000000000000000000000000000031
:101FB0000000000000000000000000000901312BBB
:101FC00098039703770396037703960377039603A3
:101FD000770396037703B70B270902000000000878
:101FE00000000000A3120E65057D0675057DE67CE8
:101FF000057DE674057DE674057D067DA429200037
:102000004100220041002100410021004100210047
:10201000410021004100210041002100400020003A
:10202000C600AE1AB8039803970397039703970364
:102030009703970397039703B703B8036C224500F0
:102040000000000000000000040130347315721518
:10205000521D721D521D521D521D521D521D521DE8
:10206000920491049204B1049204B1049204B10464
:102070009204B1049204B1049204B1049204B10434
:10208000B204D20C4F038C027703760B77039603CE
:1020900077039603770396037703960397039703D3
:1020A0003223090100000008000000004100291A45
:1020B000D60596059505960595059605950596050B
:1020C00095059605B505B605B505B605B505B6057C
:1020D000B505B605B505B605B505B605B505B6052C
:1020E000D505D60533256D03620042005503760BF6
:1020F0009703970397039703970397039703970310
:1021000097039803741B30020000000000000000D9
:1021100000006100D20474159505950575059405B8
:102120007505940575059405750594057505940563
:102130007505940575059405750594057505940553
:102140009505B5057515910404090000000000000F
:102150003002741B77039703770396037703960384
:102160007703960377039703760B3403220000006E
:102170000000000000000000EB02342595059505E5
:10218000950595059505950595059505950595057F
:10219000950595059505950595059505950595056F
:1021A00095059505B5055505691A820000000000E2
:1021B0000000000029013223970398039703970337
:1021C000970397039703970397039703970397033F
:1021D000471102000000000000000008E3000F3477
:1021E000B605950575059405750594057505940561
:1021F0007505940575059405750594057505940593
:10220000750594059505B505AE23A50100000008E8
:10221000000000000000000845006D2298039703AD
:102220007703960377039603770396037703960362
:102230007703B7034D2244000000000800000000AF
:102240004000C711B50595059505950595059505BA
:1022500095059505950595059505950595059505AE
:1022600095059505B505B605D224CB020000000002
:10227000000000000000000000000000020047090C
:10228000B70397039703970397039703970397035E
:10229000970397039703980332230A010000000075
:1022A00000000000000020009104741D95059505B4
:1022B00075059405750594057505940575059405D2
:1022C000750594059505B50555155004C30800001E
:1022D00000000000000000000000000000000000FE
:1022E000010062003503960B77039703770396038B
:1022F00077039603770396037703970375134F02CB
:102300000000000000000000000000008902142D01
:10231000B5059505950595059505950595059505CD
:102320009505950595059505B50D3405071A6200C7
:10233000000000000000000000000000000000009D
:10234000000000000000000050027513970398037E
:1023500097039703970397039703970397039703AD
:10236000960B350362000100000000000000000829
:10237000C300CE33B605950575059405750594051E
:1023800075059405750594059505B5054D2344011E
:102390000000000800000000000000000000000035
:1023A0000000000000000000000000000901312BC7
:1023B00098039703770396037703960377039603AF
:1023C000770396037703B70347110200000000006C
:1023D0000000000020008609950575059505950506
:1023E0009505950595059505B505D60591246A02CF
:1023F00000000000000000000000000000000000DD
:1024000000000000000000000000000000000000CC
:1024100065006D1AB7039803970397039703970313
:1024200097039703970397039703B8038D224500FB
:102430000000000000000000000000005004741DB7
:1024400095059505750594059505D505341DCE03AF
:1024500082080000000000000000000000000000F2
:10246000000000000000000000000000000000006C
:1024700000000000020047119703960377039603BC
:1024800077039603770396037703960397039703DF
:1024900032232901000000000000000000080000B5
:1024A0002702132DB505B5059505D60554157104FC
:1024B0006511410000000000000000000000000065
:1024C000000000000000000000000000000000000C
:1024D0000000000000000000000062003403960BC2
:1024E0009703B703960397039603970396039703FF
:1024F00097039703751B71020000000000000000A5
:10250000000000004200E8193405740DD314AE0336
:10251000250920000000000000000000000000006D
:1025200000000000000000000000000000000000AB
:10253000000000000000000000000000000000009B
:102540003002741B97037603970376039703760391
:10255000970376039703760397035603496E7465D2
:1025600072666163653A206C697374656E696E6743
:1025700020617420307825327800000000002400AB
:1025800027002A0000000000250028002B00000082
:1025900000002300260029000404040404040404A9
:1025A00002020202020203030303030301020408FE
:1025B00010204080010204081020010204081020AD
:1025C00000000007000201000003040600000000F4
:1025D00000000000201AF52B832E963411241FBE14
:1025E000CFEFD8E0DEBFCDBF11E0A0E0B1E0E4E086
:1025F000F1E702C005900D92A43DB107D9F714E0B0
:10260000A4EDB1E001C01D92AE37B107E1F715E2CC
:10261000CCEDD5E204C02297FE010E944538C43DAE
:10262000D107C9F70E94ED340C9480380C94000057
:102630000F931F93CF93DF93689F8001699F100DC5
:10264000789F100D1124C8010E94CC2FEC01009737
:1026500029F060E070E0A8010E944313CE01DF91F1
:10266000CF911F910F910895FB01DC014150504023
:1026700048F005900D920020C9F701C01D9241500D
:102680005040E0F70895DC0101C06D934150504087
:10269000E0F70895AEE0B0E0E0E5F3E10C945738E0
:1026A0000D891E898F89988D97FF02C080E090E880
:1026B00001979E838D831A83098386E08C839E0114
:1026C000255E3F4FCE010196698D7A8DA9010E944A
:1026D000A5134D815E8157FD0AC02F8138854217B1
:1026E00053070CF49A01020F131FF80110822E9663
:1026F000E4E00C947338AEE0B0E0E1E8F3E10C9470
:1027000057388C0177FF02C060E070E8615070407C
:102710007E836D831A83098386E08C83CE010196C4
:10272000BA01A9010E94A5132D813E8137FD09C080
:10273000EF81F8852E173F070CF4F901E00FF11F28
:1027400010822E96E4E00C947338ABE0B0E0EBEA34
:10275000F3E10C9449383C012B015A01FC0117822A
:102760001682838181FD03C06FEF7FEFC6C19AE0BF
:10277000892E1E010894211C311CF3012381F201D2
:1027800023FD859123FF81912F01882309F4B2C194
:10279000853239F423FD859123FF81912F01853204
:1027A00029F490E0B3010E949815E7CF982FFF24F9
:1027B000EE249924FFE1FF15D0F09B3269F09C32A2
:1027C00028F4903259F0933291F40EC09D3249F0C2
:1027D000903369F441E024C052E0F52A84E0F82AFD
:1027E00028C098E0F92A25C0E0E1FE2A22C0F7FCC3
:1027F00029C0892F80538A3070F4F6FE05C0989C5A
:10280000902C1124980E15C0E89CE02C1124E80EA1
:10281000F0E2FF2A0EC09E3229F4F6FC6BC140E4C0
:10282000F42A07C09C3619F450E8F52A02C09836FD
:1028300049F4F20123FD959123FF91912F019923F2
:1028400009F0B8CF892F8554833018F08052833037
:1028500038F444E050E0A40EB51E5FE359830FC086
:10286000933631F0933779F0933509F056C020C094
:10287000F5018081898342E050E0A40EB51E61011C
:1028800001E010E012C0F501C080D180F6FC03C069
:102890006FEF7FEF02C0692D70E042E050E0A40EC0
:1028A000B51EC6010E948D158C015FE7F52214C08C
:1028B000F501C080D180F6FC03C06FEF7FEF02C04E
:1028C000692D70E042E050E0A40EB51EC6010E94E2
:1028D00082158C0150E8F52AF3FE07C01AC080E289
:1028E00090E0B3010E949815EA948E2D90E00817AD
:1028F0001907A8F30EC0F601F7FC8591F7FE819148
:102900006F0190E0B3010E949815E110EA94015024
:1029100010400115110579F7EAC0943611F0993687
:1029200069F5F7FE08C0F5012081318142815381AC
:1029300084E090E00AC0F501808191819C014427E8
:1029400037FD4095542F82E090E0A80EB91E9FE617
:10295000F92257FF09C050954095309521953F4F7A
:102960004F4F5F4FE0E8FE2ACA01B901A1012AE0FA
:1029700030E00E94C415D82ED21840C0953729F4F3
:102980001F2D1F7E2AE030E01DC01F2D197F9F36AE
:1029900061F0903720F4983509F0ACC00FC0903743
:1029A00039F0983709F0A6C004C028E030E00AC02A
:1029B000106114FD146020E130E004C014FD1660C5
:1029C00020E132E017FF08C0F5016081718182814A
:1029D000938144E050E008C0F50180819181BC0101
:1029E00080E090E042E050E0A40EB51EA1010E94FC
:1029F000C415D82ED2188FE7F82EF122F6FE0BC0A0
:102A00005EEFF522D91438F4F4FE07C0F2FC05C0DD
:102A10008FEEF82202C01D2D01C0192DF4FE0DC04D
:102A2000FE01ED0DF11D8081803319F499EEF9223C
:102A300008C01F5FF2FE05C003C08F2D867809F025
:102A40001F5F0F2DF3FC14C0F0FE0FC01E1510F019
:102A50009D2C0BC09D2C9E0C911A1E2D06C080E251
:102A600090E0B3010E9498151F5F1E15C0F304C0CB
:102A70001E1510F4E11A01C0EE2404FF0FC080E31C
:102A800090E0B3010E94981502FF1DC001FD03C034
:102A900088E790E00EC088E590E00BC0802F867834
:102AA00091F001FF02C08BE201C080E2F7FC8DE2F1
:102AB00090E0B3010E94981506C080E390E0B30156
:102AC0000E9498159A94D914C0F3DA94F101ED0D8F
:102AD000F11D808190E0B3010E949815DD20A9F7D7
:102AE00006C080E290E0B3010E949815EA94EE20BF
:102AF000C1F743CEF30166817781CB012B96E2E1EA
:102B00000C946538FC010590615070400110D8F7B5
:102B1000809590958E0F9F1F0895FC016150704025
:102B200001900110D8F7809590958E0F9F1F089502
:102B30000F931F93CF93DF938C01EB018B8181FF68
:102B40001BC082FF0DC02E813F818C819D81281783
:102B5000390764F4E881F9810193F983E88306C0B9
:102B6000E885F985802F0995892B31F48E819F8125
:102B700001969F838E8302C00FEF1FEFC801DF9184
:102B8000CF911F910F910895FA01AA27283051F192
:102B9000203181F1E8946F936E7F6E5F7F4F8F4F8E
:102BA0009F4FAF4FB1E03ED0B4E03CD0670F781FED
:102BB000891F9A1FA11D680F791F8A1F911DA11DD2
:102BC0006A0F711D811D911DA11D20D009F468940B
:102BD0003F912AE0269F11243019305D3193DEF6B3
:102BE000CF010895462F4770405D4193B3E00FD069
:102BF000C9F7F6CF462F4F70405D4A3318F0495D54
:102C000031FD4052419302D0A9F7EACFB4E0A69536
:102C10009795879577956795BA95C9F70097610558
:102C2000710508959B01AC010A2E069457954795AE
:102C300037952795BA95C9F7620F731F841F951FA3
:102C4000A01D0895FF920F931F93CF93DF93282F1A
:102C50008B01BA01A82FB0E0CD0184559A4DFC013B
:102C6000F490A856BA4DFD018491882309F441C01F
:102C7000382F3250432F50E0FA01EE0FFF1FED5670
:102C8000FE4FC081D181CA01E3E0880F991FEA9508
:102C9000E1F7313011F42E5001C02770280F832F37
:102CA00090E0880F991F8E569A4DFC01A591B49122
:102CB0008C91FA01E357FD4F8083E22FF0E0EE0F95
:102CC000FF1FDF01A057BD4F6D937C93E054FD4F74
:102CD0001183008388818F2988832091680081E097
:102CE00090E002C0880F991F4A95E2F7282B2093A5
:102CF0006800DF91CF911F910F91FF900895BF92CF
:102D0000CF92DF92EF92FF920F931F93CF93DF93B7
:102D1000282F30E0C901880F991F8E569A4DFC016B
:102D2000A591B4914C91F901E357FD4F90819427FF
:102D30004083F901EE0FFF1FED56FE4F0190F08129
:102D4000E02D8081982309F448C0B22EBB0CBB0C47
:102D5000BB0CC0E0D0E051E0C52ED12CE92EFF2401
:102D6000042F10E0C6010C2E02C0880F991F0A9490
:102D7000E2F7282F30E0C9018E219F21892B49F1EC
:102D80008B2D8C0F90E0FC01EE0FFF1FE057FD4FE5
:102D90000190F081E02DE130F10571F0E330F105B3
:102DA00029F420233123232B39F413C0329789F4DB
:102DB00020233123232B69F4FC01EE0FFF1FE05485
:102DC000FD4F80819181892B21F00190F081E02DD0
:102DD00009952196C830D10529F6DF91CF911F9131
:102DE0000F91FF90EF90DF90CF90BF9008951F92CA
:102DF0000F920FB60F9211242F933F934F935F932F
:102E00006F937F938F939F93AF93BF93EF93FF93B2
:102E100080E00E947F16FF91EF91BF91AF919F914B
:102E20008F917F916F915F914F913F912F910F9073
:102E30000FBE0F901F9018951F920F920FB60F9212
:102E400011242F933F934F935F936F937F938F93AF
:102E50009F93AF93BF93EF93FF9381E00E947F1600
:102E6000FF91EF91BF91AF919F918F917F916F9162
:102E70005F914F913F912F910F900FBE0F901F9038
:102E800018951F920F920FB60F9211242F933F9314
:102E90004F935F936F937F938F939F93AF93BF9362
:102EA000EF93FF9382E00E947F16FF91EF91BF9115
:102EB000AF919F918F917F916F915F914F913F91D2
:102EC0002F910F900FBE0F901F9018950895CF92DD
:102ED000DF92EF92FF920F931F93CF93DF93EC015A
:102EE0008D8560E00E943632AEE2EA2EF12CF1E0F0
:102EF000CF2ED12C2FC08F8560E00E943632C601C4
:102F0000002E02C0880F991F0A94E2F7ED81FE811E
:102F1000EE0DFF1D2081318182239323892B19F02F
:102F20008E8561E002C08E8560E00E9436328F851A
:102F300061E00E943632015010408FEF0F3F1807BA
:102F4000D1F68EEF9FEFE80EF91E9EEFE9169FEF88
:102F5000F90619F00BE010E0CECF8F8560E00E94FB
:102F600036328D8561E00E9436328D8560E00E94A8
:102F70003632DF91CF911F910F91FF90EF90DF904C
:102F8000CF900895DC0170E01396ED91FC911497B9
:102F9000E60FF71F8081882391F41196ED91FC9143
:102FA0001297E60FF71F808190E0880F991F159602
:102FB000ED91FC911697E80FF91F51834083CD01E5
:102FC0000E9467170895DC0140E01EC0242F30E006
:102FD0001396ED91FC911497E20FF31F80818823E3
:102FE00091F41196ED91FC911297E20FF31F8081FD
:102FF00090E0880F991F1596ED91FC911697E80FB8
:10300000F91F718360834F5F8C914817F8F2CD01EF
:103010000E946717089560E070E00E94E31708952A
:103020000F931F93CF93DF93EC018B0160E028C0D7
:10303000262F30E0E981FA81E20FF31F808190E0D2
:10304000880F991FAD81BE81A80FB91F4D915C916A
:103050001197EB81FC81E20FF31F8081882379F4C3
:10306000CA01800F911F97FF02C080E090E020E12D
:103070008030920714F08FEF9FE08D939C936F5FE9
:1030800088816817A8F2CE010E946717DF91CF915F
:103090001F910F9108951F93CF93DF93EC01162F8B
:1030A000888160E00E943632898160E00E94363279
:1030B0001EBD0DB407FEFDCF8EB5898161E00E9473
:1030C0003632DF91CF911F910895CF93DF93EC01BA
:1030D000662341F0613069F46EEA0E944B18CE011C
:1030E00065EA05C066EA0E944B18CE016FEA0E94AD
:1030F0004B18DF91CF9108951F93CF93DF93EC018D
:10310000162F888161E00E943632898160E00E943A
:1031100036321EBD0DB407FEFDCF8EB5898161E04C
:103120000E943632DF91CF911F910895EF92FF9266
:103130000F931F938C01F62EE42E65E10E944B182D
:10314000C8016F2D0E947C18C8016E2D0E947C184A
:103150001F910F91FF90EF900895EF92FF920F93C0
:103160001F938C01F62EE42E65E70E944B18C801D0
:103170006F2D0E947C18C8016E2D0E947C181F9133
:103180000F91FF90EF900895FF920F931F938C0182
:10319000F62E60EA0E944B18C8016F2D0E947C1821
:1031A0001F910F91FF900895CF92DF92EF92FF92BF
:1031B0000F931F937C016B01022F1EE7812F841B4D
:1031C000482FC701642F0E949618101BC701612F5A
:1031D000412F0E94AD18C7016CE50E944B18C70132
:1031E0006D2D0E947C18C7016C2D0E947C181F91C8
:1031F0000F91FF90EF90DF90CF900895BF92CF9204
:10320000DF92EF92FF920F931F93CF93DF93EC0126
:10321000B62EC72EF22ED02E47FD4DC027FD4BC037
:10322000822F90E08E0D911D813891051CF06FE783
:10323000E62EE21A842F90E08D0D911D81389105C4
:103240001CF05FE7D52ED41A10E8612F641B6D19AE
:103250000FE7802F841B482FCE010E9496181F195C
:103260001E190F19CE01612F402F0E94AD18CE01FB
:103270006CE50E944B18DE9C70011124888161E08E
:103280000E943632898160E00E94363280E090E010
:103290000BC0CEBC0DB407FEFDCF2EB5BEBC0DB429
:1032A00007FEFDCF2EB501968E159F0590F38981FF
:1032B00061E00E943632DF91CF911F910F91FF9014
:1032C000EF90DF90CF90BF900895CF92DF92EF9272
:1032D0000F936C016DEF0E944B18C60162E10E94D2
:1032E0007C18C6016DEF0E944B18C60161EB0E946D
:1032F0007C18C6016EEA0E944B18C60163EB0E945F
:103300004B18C60161EF0E947C18C6016AEC0E944E
:103310004B18C6016FE70E947C18C60162EA0E9442
:103320004B18C60160E00E947C18C60161EA0E9449
:103330004B18C60160E00E947C18C60165E70E9438
:10334000C418C60165EB0E944B18C60160E00E94DC
:103350007C18C6016BEA0E944B18C60161E00E940E
:103360007C18C60164EB0E944B18C60160EA0E94FB
:103370007C18C60165EB0E947C18C60165E50E94B9
:103380007C18C60161EC0E944B18C60168EC0E94D3
:103390007C18C60160E80E947C18C60168EC0E9497
:1033A0007C18C60167EC0E944B18C6016FE00E94B2
:1033B0007C18C60161EB0E944B18C60162E30E94B3
:1033C0007C18C6016BEB0E944B18C60162E30E9499
:1033D0007C18C60162EB0E944B18C60164EA0E9489
:1033E0007C18C60160E00E947C18C60160E00E9463
:1033F0007C18C60166EB0E944B18C60161E00E9472
:103400007C18C6016EEB0E944B18C60165E00E9455
:103410007C18C60166EA0E944B18C60160E070E0A5
:1034200040E020E000E8E0E8EE2E0E94FE18C60131
:103430006FEA0E944B180F91EF90DF90CF900895A4
:103440009F92AF92BF92CF92DF92EF92FF920F9333
:103450001F9384EDC82E81E0D82E85E18093D4019E
:1034600089E991E09093D6018093D50182E090E0C4
:1034700068E170E00E9418138093D901F6019683E9
:103480006091D40181E090E070E00E941813809375
:10349000D701F601948308E0902E9092E00189E034
:1034A0008093E10186E08093E20187E08093E3016D
:1034B00088E061E00E94F7318091E10161E00E94C3
:1034C000F7318091E20161E00E94F7318091E301E0
:1034D00061E00E94F7318091E10160E00E943632A4
:1034E0008091E00161E00E9436321AE0A12EA092A4
:1034F000E701B7EEEB2EB1E0FB2EA1E1BA2EF7010A
:10350000B2927F0180E18093E8018AE061E00E944D
:10351000F7318091E80161E00E94F731F701808185
:1035200061E00E94F7310DE512E0C8010E94192BFD
:10353000C8016CE271E00E94732B055110408FE0CE
:10354000F8018083B0924E0210924D021092520206
:1035500010925102D0925A02C0925902F0925C022B
:10356000E0925B02109258021092570210925002A1
:1035700081E380934F028FE061E00E94F731F80110
:10358000808160E00E9436321092650210926602DD
:10359000109267021092680210926902A0926A0269
:1035A0008EE180936B0290926C0283E080937C02A8
:1035B000F8EBEF2EFBE0FF2EF0927902E09278021A
:1035C00008EC10E010937B0200937A02E5E7F2E04A
:1035D000118210821292129212921292DD24D394CE
:1035E000D0927702129212921292129260E00E948E
:1035F000F73182E080938C02F0928902E092880297
:1036000010938B0200938A02E5E8F2E011821082A7
:103610001292129212921292D092870212921292E7
:103620001292129260E00E94F7311F910F91FF9069
:10363000EF90DF90CF90BF90AF909F900895CF9381
:10364000DF93EC018D81882361F4888161E00E9421
:10365000363281E08D830E94553169837A838B8372
:103660009C83DF91CF9108950F931F93CF93DF93A6
:10367000EC0189859A858E010B5E1F4F892B09F01D
:1036800046C0C8010E941A2B02970CF485C0C801DD
:103690000E94532B883909F07FC0C8010E94532B28
:1036A00089871A860E9455316B877C878D879E8714
:1036B00000D000D009EB13E0ADB7BEB712961C9353
:1036C0000E93119780E091E014969C938E9313973C
:1036D0000E94172F00D0EDB7FEB73196ADB7BEB739
:1036E00012961C930E93119789ED90E09383828339
:1036F00089859A85958384830E94172FEDB7FEB73D
:1037000036960FB6F894FEBF0FBEEDBF45C0C80198
:103710000E941A2B29853A858217930744F100D01D
:1037200000D089EB93E0ADB7BEB712969C938E9311
:10373000119784EC90E014969C938E9313970E94BB
:10374000172F0F900F900F900F9069857A85C80101
:103750000E941E2B893939F083E090E0988B8F8787
:103760001A86198622C01A86198681E01FC00E9417
:1037700055312B853C854D855E85621B730B840B13
:10378000950B695E73408040904030F082E090E09D
:10379000988B8F871A861986CE0145960E941A2B20
:1037A000892B19F488858F7E888780E0DF91CF91FF
:1037B0001F910F910895FF920F931F93CF93DF9363
:1037C000EC01F82E0D2F6EEA0E944B18CE0164E733
:1037D0000E94C418CE0168E249E50E949618CE0105
:1037E00067E249E50E94AD18CE016CE50E944B18D6
:1037F000888161E00E943632898160E00E94363221
:1038000052E362E35150569FC0011124880F991F63
:103810008C529E4E42E34150E42FF0E0EE0FFF1F2A
:10382000E80FF91F259134913EBD0DB407FEFDCF81
:103830007EB52EBD0DB407FEFDCF2EB5442359F73E
:10384000552301F7898161E00E9436328F2D902F38
:1038500065E70E94C4188F2D902F6FEA0E944B18C5
:1038600010E08F2D902F67EC0E944B188F2D902F1A
:10387000612F0E947C1862E470E080E090E00E947A
:1038800063311F5F103169F78B81883210F087E256
:103890008B838E81883210F087E28E838D8190E059
:1038A0008935910514F48EE58D838C8190E08935FE
:1038B000910514F48EE58C838FEF8F83DF91CF9188
:1038C0001F910F91FF9008952F923F924F925F9218
:1038D0006F927F928F929F92AF92BF92CF92DF9220
:1038E000EF92FF920F931F93DF93CF93CDB7DEB785
:1038F000E0970FB6F894DEBF0FBECDBF3C012DB7E9
:103900003EB73AA729A7B5E1CB2ED12CC80ED91EB8
:10391000C6010E94532B982E31E0831739F086E0C0
:10392000981621F097E0991609F0F1C2ADB7AFA74C
:10393000BEB7B8ABC6010E94532B88A7C6010E9430
:10394000532B8FA3C6010E94532B8EA3C6010E9446
:10395000532B182F00E0C6010E94532BE82FF0E0F4
:10396000E02BF12BFF8BEE8BC6010E94532BE82E30
:10397000FF24C70101962DB73EB7281B390B0FB6A0
:10398000F8943EBF0FBE2DBFADB6BEB60894A11CC5
:10399000B11C00E010E009C0C6010E94532BF501E4
:1039A000E00FF11F80830F5F1F4F0E151F05A4F35B
:1039B000EA0CFB1CD7011C92B1E09B1619F41DA266
:1039C0001CA20CC0E7E09E1629F422E030E03DA3E3
:1039D0002CA304C081E090E09DA38CA3D301539657
:1039E000ED90FC905497ADA6BEA628A42A94BFA142
:1039F000B150BBA3EEA1E23069F024E738E03C8F80
:103A00002B8F3CE03D8F8EE08E8F90E29F8FAFE753
:103A1000A8A30CC0ECE9F2E0FC8FEB8FFBE1FD8F7B
:103A200021E22E8F30E33F8F8AE388A32E8D2695E7
:103A3000269526952F5F9D8D299F202D11242F5F80
:103A40003DA54EA5832F942FDC0119A230E0EF8D08
:103A50004E2F552747FD509516C0992787FD909505
:103A6000841B950B289FF001299FF00D389FF00DC6
:103A700011248B8D9C8DE80FF91FE491EF5F99A1C4
:103A80009E0F99A311968C91882339F7ACA1BDA103
:103A9000119721F489A18695281A06C0ECA1FDA1F1
:103AA000329711F4F9A12F1A20E8221580F480E84A
:103AB000382F3219232ED70113961C92139715967F
:103AC0008C93159716961C92169714968C93BBA1FF
:103AD000B13880F080E8E82FEB1BEBA3D7011396F9
:103AE0001C92139715968C93159716961C92169701
:103AF00014968C93EBA6FCA6B8A1BC83EF8DEB8348
:103B0000FE8DFA832D8D29838B8D9C8D9E838D83D5
:103B1000DE011796FE01319686E001900D928150EC
:103B2000E1F798859A8F9E3039F08DA59EA59C016E
:103B30003D8B2C8B2B8A2AC18DA59EA59C015901FA
:103B4000C22CA7E04A2E512C4C0E5D1EFFE76F2EB3
:103B5000E0E83E2E762CABA17A1A96C0BEE0B8877C
:103B6000DE011D96F20186E001900D928150E1F791
:103B70001E852F8592170CF4922FD12ED694D694B1
:103B8000D694D3948D85D89E802D11248F5F682F75
:103B900070E04889892F49170CF4842F992787FDF5
:103BA0009095332727FD3095821B930BFC016E9F68
:103BB000C0016F9F900D7E9F900D1124E989FA89B5
:103BC000E80FF91F04914F010894811C911C662D88
:103BD0006C19601B432D4C198BA59CA50E9496184F
:103BE00011951258FBA11F1B8BA59CA5612F472D7A
:103BF0000E94AD188BA59CA56CE50E944B18D701BF
:103C00008C9161E00E943632F701818160E00E9470
:103C10003632402F26C03150FB01E30FF11DE80D75
:103C2000F91DE49128E0F0E02150CF01022E02C0FE
:103C3000959587950A94E2F780FD03C080E090E0B7
:103C400002C08E899F899EBD0DB407FEFDCF5EB573
:103C50008EBD0DB407FEFDCF8EB5222329F7332389
:103C6000D1F641504F3F29F04D9DB00111243D2D1B
:103C7000F6CFD70111968C9161E00E9436320F5F2A
:103C8000C00E0894A11CB11CF5019081992309F084
:103C900065CF82C0FA8DF887DE011D96FE0137964A
:103CA00086E001900D928150E1F72F85922F241725
:103CB0000CF4942F9E8496949694969493948D8568
:103CC000989E802D11248F5F682F70E04889892F7E
:103CD00049170CF4842F992787FD9095332727FDEA
:103CE0003095821B930B9C01629FC001639F900DD6
:103CF000729F900D1124E989FA89E80FF91F349019
:103D0000892D90E0998F888F5F010894A11CB11CC8
:103D1000662431C09B89960D9AA37BA065018824F7
:103D200023C0F601849100E010E0482E5524C20122
:103D3000002E02C0959587950A94E2F780FF09C08E
:103D4000272D200F8BA59CA56E897F894AA10E94F3
:103D5000D4180F5F1F4F0830110549F78394F8E01E
:103D60007F0E0894C11CD11C8914D8F26394288D4D
:103D7000398DA20EB31E631468F233943B89330D60
:103D80003B8B8C899D8901969D8B8C8BAC89BD89E1
:103D90004C91442309F07ECFF7018381281608F463
:103DA00023822CA13DA1232B21F4D70113961C9231
:103DB0002224F7018681FBA1F81718F4D701169683
:103DC000FC93F9A12F2F30E0220D311DD70115965C
:103DD0008C91159790E08217930724F48F2F820D12
:103DE00015968C93BE8D2B2F30E0EBA12E0F311D3D
:103DF000D70114968C9190E0821793072CF48E2FA4
:103E0000BE8D8B0FF7018483D70115968C91159782
:103E1000813850F013961C92139780E815968C9376
:103E200015978FEF17968C93F7018481813828F0CE
:103E3000168280E884838FEF8783D70117968C9151
:103E40008A3028F590E0F701E80FF91FB9A1B08793
:103E5000228A2BA1248FFC01EE0FFF1FE80FF91F10
:103E6000EE0FFF1FEE0DFF1D38A131A78F8D80A72C
:103E70009E8D97A3AD8DA6A32B8D3C8D33A722A736
:103E8000D70117968C9117978F5F17968C9300D058
:103E900000D000D0EDB7FEB7319609EB13E0ADB717
:103EA000BEB712961C930E9311978EE792E0938300
:103EB0008283BDA5B4832EA525830E94172F00D031
:103EC00000D000D0EDB7FEB73196ADB7BEB71296B1
:103ED0001C930E9311978FE592E093838283B8A58C
:103EE000B48315822FA1268317823EA130871186C5
:103EF0008E899F89938782870E94172F2FA538A9C3
:103F0000C9010FB6F8949EBF0FBE8DBFE2C092E00C
:103F1000991609F061C0D3015396CD90DC90549767
:103F2000F60187818A3058F4FC2C1D2D560157E28A
:103F3000652E712C6C0C7D1C8824992434C0D6010C
:103F400013964C91139716962C91169715960C91E3
:103F50001597041B1496EC90E21AC60160E070E01D
:103F60000E94FE1880E8F6018383148215828683FE
:103F700024C0D50151964C9151974F5F5B962C917F
:103F80005B972F5F8F2D912F60E070E017960C915B
:103F9000F301E0800E94FE180894811C911C26E029
:103FA00030E0620E731E0894A11CB11CD601179656
:103FB0008C9190E088169906E4F2F601178200D001
:103FC00000D089EB93E0ADB7BEB712969C938E9369
:103FD000119788E492E015C0B4E09B16E9F4F30170
:103FE000838994896EEA0E944B1800D000D089EB37
:103FF00093E0ADB7BEB712969C938E93119783E36F
:1040000092E014969C938E9313970E94172F0F9013
:104010000F900F900F905DC0B3E09B1699F4F301E1
:10402000838994896FEA0E944B1800D000D089EBF5
:1040300093E0ADB7BEB712969C938E9311978AE228
:1040400092E0DFCFB8E09B1691F4F3018389948965
:104050000E94DB1B00D000D089EB93E0ADB7BEB768
:1040600012969C938E9311978FE192E0CACFB5E0A0
:104070009B1679F500D000D089EB93E0EDB7FEB741
:104080009283818384E092E0948383830E94172F3C
:104090000F900F900F900F90C6010E94532BF82E97
:1040A000C6010E94532B082FC6010E94532B182FC4
:1040B000C6010E94532B712F60E090E0682B792B92
:1040C000D30153968D919C9154974F2D202F0E9490
:1040D000D418E9A5FAA50FB6F894FEBF0FBEEDBF40
:1040E000E0960FB6F894DEBF0FBECDBFCF91DF9143
:1040F0001F910F91FF90EF90DF90CF90BF90AF9006
:104100009F908F907F906F905F904F903F902F90F7
:104110000895CF92DF92EF92FF920F931F93CF9368
:10412000DF93EC016A017B01222339F066277727B0
:10413000601B710B0E94101802C00E940B1828818E
:1041400030E040E050E06F81788589859A850E9453
:104150002138CE014FEF5FE00E94C2172F813885D2
:1041600049855A852F5F3F4F4F4F5F4F2F833887C9
:1041700049875A87888190E0A0E0B0E082179307D2
:10418000A407B50740F481E090E0A0E0B0E08F83A1
:104190009887A987BA87288130E040E050E0C701BE
:1041A000B6010E94213880EF92E0BA01A9010E9475
:1041B000712A80E0DF91CF911F910F91FF90EF90D6
:1041C000DF90CF900895FC01138640818381948114
:1041D00060E070E050E00E94431380EF92E00E94A4
:1041E000132B08952F923F924F925F926F927F927E
:1041F0008F929F92AF92BF92CF92DF92EF92FF92F7
:104200000F931F93DF93CF93CDB7DEB764970FB6AD
:10421000F894DEBF0FBECDBF9E838D834F8358873A
:1042200069877A87EB86FC860D871E87AF86B88AFA
:10423000C98ADA8A8FEF9FE0B9010E94FA376B01D1
:104240008BA5882329F1ED81FE8187819085A18549
:10425000B2850197A105B105D9F4FAA5FF2329F488
:104260008D819E810E940B1806C08D819E816FEF0B
:104270007FE00E94E317ED81FE8187819085A18513
:10428000B2850196A11DB11D87839087A187B28752
:10429000AD81BE811796ED90FD900D911C911A97FE
:1042A000B2E0EB16F1040105110508F46DC0C6017A
:1042B000A0E0B0E089839A83AB83BC83E816F9065B
:1042C0000A071B0708F060C0BC01CD010E947036D0
:1042D0000E9403373B014C0189819A81AB81BC81EB
:1042E0008E199F09A00BB10B7C018D01BC01CD0182
:1042F0000E9470360E9403371B012C010894E108CC
:10430000F10801091109C801B7010E9470360E9425
:1043100003375B016C0160E070EF8FE795E4A40167
:1043200093010E94DC350E94443680E090E00E94B8
:1043300070367B018C01C201B101A60195010E947A
:1043400077359B01AC01C801B7010E9443370E9439
:1043500044369B01AC01CB01AAA5AA2321F48D818F
:104360009E81B90106C066277727681B790B8D816E
:104370009E810E9410186F81788589859A85298190
:104380003A814B815C8192C0160144245524E21489
:10439000F30404051505A9F4BAA5BB2339F48D81EE
:1043A0009E816FEF7FE00E94E31704C08D819E81A4
:1043B0000E940B1880EF92E04B855C856D857E85B1
:1043C0007BC02E143F044006510608F081C08FEFD9
:1043D0009FE0B4010E94FA376B8B7C8BEB89FC89E0
:1043E000CE0EDF1EC601A0E0B0E0E816F9060A070F
:1043F0001B0708F06DC0BF0180E090E00E9470369E
:104400000E9403373B014C01E218F3080409150927
:10441000C801B7010E9470360E9403371B012C01AE
:104420000894E108F10801091109C801B7010E94C7
:1044300070360E9403375B016C0160E070EF8FE71C
:1044400095E4A40193010E94DC350E94443680E08B
:1044500090E00E9470367B018C01C201B101A6017F
:1044600095010E9477359B01AC01C801B7010E94FC
:1044700043370E9444369B01AC01CB01FAA5FF23D0
:1044800039F466277727681B790B8D819E8103C0DD
:104490008D819E81B9010E9410188B899C899C0195
:1044A00040E050E06F85788989899A890E94213897
:1044B00080EF92E0BA01A9010E94712AED81FE818C
:1044C00087819085A185B2850196A11DB11D14C07B
:1044D00089A5882339F081E090E0A0E0B0E0ED818B
:1044E000FE810AC08D819E810E940B188D819E8164
:1044F0000E94E32081E005C087839087A187B2876F
:1045000080E064960FB6F894DEBF0FBECDBFCF91AA
:10451000DF911F910F91FF90EF90DF90CF90BF90B0
:10452000AF909F908F907F906F905F904F903F9053
:104530002F9008958F929F92AF92BF92CF92DF9269
:10454000EF92FF920F931F93CF93DF93EC018B8534
:10455000882321F4CE010E94E320ADC2863009F405
:104560002BC1873088F48330C1F1843030F481303E
:1045700019F1823009F09FC225C0843009F4C0C00F
:10458000853009F098C20CC1893099F08A3038F42E
:10459000873009F440C1883009F08DC292C18B3058
:1045A00009F4BBC18B3008F4B1C18C3009F083C26F
:1045B00029C240E051E082C1CE0140EE5EE260E0FF
:1045C00070E005C0CE0140E757E160E070E020E018
:1045D00008EE13E00E9489206FC28F819885A9851B
:1045E000BA850197A105B10571F4CE010E940B189F
:1045F0008F819885A985BA850196A11DB11D8F83EC
:104600009887A987BA87AF80B884C984DA8482E0A2
:10461000A816B104C104D10408F44FC094E1A9164E
:10462000B104C104D104B8F5B4E1EB2EF12C012D95
:10463000112DEA18FB080C091D09C801B7010E94D9
:1046400070360E9403375B016C010894E108F108A1
:1046500001091109C801B7010E9470360E94033791
:104660009B01AC01C601B5010E94773520E030EC1A
:104670004AEA54E40E9443370E9444369B01AC014D
:10468000CE01B9010E94101880EF92E044E650E09C
:1046900060E070E0ADC1A4E1AA16B104C104D10488
:1046A00061F4CE016FEF7FE00E94E31780EF92E0AC
:1046B00040E050E060E070E09BC1B5E1AB16B104B2
:1046C000C104D10408F4DAC02881822F90E0449616
:1046D000A0E0B0E0A816B906CA06DB0608F0CEC016
:1046E0008BEE9FEFAFEFBFEFA80EB91ECA1EDB1E09
:1046F00030E040E050E0C601B5010E94213877C0AB
:10470000CE010E940B18288130E040E050E06F811C
:10471000788589859A850E942138CE014FEF5FE028
:104720000E94C2171881212F30E040E050E06F81D5
:10473000788589859A850E9421381150161BCE01F3
:10474000612F4FEF5FE00E94C217288130E040E008
:1047500050E060ED77E080E090E00E94213880EF4B
:1047600092E0BA01A9010E94712A2F8138854985FA
:104770005A852F5F3F4F4F4F5F4F2F8338874987B1
:104780005A87888190E0A0E0B0E0281739074A07EF
:104790005B0708F490C182E090E0A0E0B0E087C140
:1047A00000D00F92EDB7FEB73196ADB7BEB71196F8
:1047B0001C92118281E090C02F81388549855A85ED
:1047C000213031054105510579F12230310541058E
:1047D000510508F453C0888190E0A0E0B0E02817AC
:1047E00039074A075B0708F049C0622F6250CE01C3
:1047F00040E050E00E94C217288130E040E050E0E5
:1048000060ED77E080E090E00E94213880EF92E058
:10481000BA01A901EDC02F81388549855A8521301B
:1048200031054105510561F4CE016FEF7FE00E9433
:10483000E31780EF92E048E853E160E070E0D8C011
:104840002230310541055105C8F08881869590E0F8
:104850000296AA2797FDA095BA2F281739074A076D
:104860005B0760F4622F6250CE0140E050E00E948E
:10487000C21768816F5F8F81681BB9CFCE010E941C
:104880000B18CE010E94E32081E016C1242F30E0F6
:10489000E981FA81E20FF31F808190E0880F991F70
:1048A000ED81FE81E80FF91F80819181892B29F428
:1048B000EB81FC81E20FF31F50834F5F8881481723
:1048C00028F300D00F92EDB7FEB7319681E0ADB777
:1048D000BEB711968C9311828283CE0140ED57E0D2
:1048E00060E070E028EC30E0EE24FF248701F0ED7A
:1048F000AF2EF7E0BF2EC12CD12CE8EC8E2E912CE0
:104900000E94F2200F900F900F90D6C0CE010E940F
:10491000E320CE010E940B18CEC01881212F30E079
:1049200040E050E060ED77E080E090E00E942138C8
:10493000022FF32EE42ED52E2F81388549855A85F6
:10494000213031054105510591F4CE010E940B182B
:10495000602F7F2D8E2D9D2D2AE030E040E050E02D
:104960000E94DB37AB01BC0180EF92E041C0612FB8
:1049700066956E5F223031054105510550F0862F56
:1049800090E0A0E0B0E082179307A407B50708F015
:104990007BC0862F90E0A0E0B0E082179307A407C9
:1049A000B50708F080C0862F90E0880F991FAA27CE
:1049B00097FDA095BA2F281739074A075B0708F01B
:1049C00072C0122F161B612F6250CE0140E050E0E2
:1049D0000E94C21768816F5F611BCE0140E050E00A
:1049E0000E94C21780EF92E0402F5F2D6E2D7D2D2B
:1049F0000E94712A8F819885A985BA850196A11D8B
:104A0000B11D55C01881212F30E040E050E060ED2D
:104A100077E080E090E00E942138022FF32EE42E10
:104A2000D52E2F81388549855A852130310541059C
:104A3000510521F4CE010E940B18D4CF223031054C
:104A40004105510580F116951E5F812F90E0049677
:104A5000AA2797FDA095BA2F82179307A407B50739
:104A600010F1CE0168E17CEF0E9410182F8138858B
:104A700049855A85812F90E0A0E0B0E08217930726
:104A8000A407B50708F4AECF622F6250CE014FEFF6
:104A90005FE00E94C21768816F5F8F81681BCE0143
:104AA0004FEF5FE09DCF81E090E0A0E0B0E08F832A
:104AB0009887A987BA8780E0DF91CF911F910F91E6
:104AC000FF90EF90DF90CF90BF90AF909F908F902E
:104AD0000895CF92DF92FF920F931F93CF93DF93AE
:104AE0006C01EC016596CE010E94532B8330C9F511
:104AF000CE010E94532BF82ECE010E94532B182F6B
:104B0000CE010E94532B312F20E0082F10E0022B02
:104B1000132BD60151968D919C9152976F2DA80120
:104B20000E94C217EDB7FEB738970FB6F894FEBFD4
:104B30000FBEEDBF319689EB93E0ADB7BEB71296CD
:104B40009C938E93119786EE91E093838283F482F7
:104B50001582178306830E94172FEDB7FEB738968C
:104B60008CC0843069F5CE010E94532B182FCE01E2
:104B70000E94532B312F20E0082F10E0022B132B23
:104B8000D60151968D919C915297B8010E94E317DE
:104B90008AE0F60182A300D000D000D0EDB7FEB7C6
:104BA000319689EB93E0ADB7BEB712969C938E9386
:104BB00011978AEC91E0938382831583048358C014
:104BC000813009F5D60151968D919C9152970E94A2
:104BD0000B188AE0F60182A300D000D089EB93E0A5
:104BE000ADB7BEB712969C938E93119785EB91E06B
:104BF00014969C938E9313970E94172F0F900F90EB
:104C00000F900F903FC08230E9F5CE010E94532BE8
:104C1000182FD6015196ED91FC915297838781E030
:104C200090E0A0E0B0E087839087A187B287CF01B2
:104C30000E949A22F60112A3112311F0193021F4D7
:104C40008AE0D60192968C9300D000D000D0EDB7C8
:104C5000FEB7319689EB93E0ADB7BEB712969C9341
:104C60008E93119786E991E0938382831483158252
:104C70000E94172FEDB7FEB736960FB6F894FEBF19
:104C80000FBEEDBFDF91CF911F910F91FF90DF908D
:104C9000CF900895FF920F931F93CF93DF93EC0172
:104CA0008C010B5E1F4FC8010E94532B833009F407
:104CB00083C0843038F4813009F452C0823009F066
:104CC00091C064C08639B1F0873909F08BC000D03B
:104CD00000D089EB93E0EDB7FEB7928381838DE737
:104CE00091E0948383830E94172F0F900F900F9071
:104CF0000F9078C000D000D009EB13E0EDB7FEB7FD
:104D00001283018383E691E0948383830E94172FAB
:104D10002EE088E190E00FB6F894A89580936000AB
:104D20000FBE209360000F900F900F900F90F02E09
:104D3000012FCCE0D1E000D000D0EDB7FEB7F1827A
:104D40000283D483C3830E946F2F0F900F900F9024
:104D50000F9064EF71E080E090E00E946331EBCF50
:104D600000D000D089EB93E0EDB7FEB7928381834A
:104D70008AE491E0948383830E94172F0F900F9011
:104D80000F900F90CE010E9469252CC000D000D05A
:104D900089EB93E0EDB7FEB79283818381E391E0E5
:104DA000948383830E94172F0F900F900F900F9082
:104DB000CE010E94641C16C000D000D089EB93E0A5
:104DC000EDB7FEB79283818387E191E0948383837B
:104DD0000E94172F0F900F900F900F90C8010E9404
:104DE000532B8BA3C8010E94532BDF91CF911F91AE
:104DF0000F91FF900895EF92FF920F931F93A89544
:104E000080914D028823D1F00E94553120914902B2
:104E100030914A0240914B0250914C0228533F4F2F
:104E20004F4F5F4F621773078407950738F0109252
:104E30004D028091480260E00E9436322091570274
:104E4000309158022115310511F100D000D000D069
:104E5000EDB7FEB7319689EB93E0ADB7BEB71296CA
:104E60009C938E9311978AE191E09383828335839B
:104E700024830E94872F1092580210925702EDB798
:104E8000FEB736960FB6F894FEBF0FBEEDBF88E4AE
:104E900092E00E94341B882309F450C010926502EE
:104EA0001092660210926702109268028091690265
:104EB000882339F180915B0290915C0260E00E944E
:104EC0006518E0915902F0915A0285E0838711E05C
:104ED000E12EF12C012D112DE782F086018712873A
:104EE000CF010E949A22E0915902F0915A028091DA
:104EF0006A028387E782F08601871287CF010E94CA
:104F00009A221092690288E492E00E944A2600D018
:104F100000D089EB93E0ADB7BEB712969C938E9309
:104F200011978DE291E014969C938E9313970E94B3
:104F3000572F0F900F900F900F9061C060916B02F0
:104F4000662309F45CC0E0906502F090660200916F
:104F500067021091680270E080E090E020E13BEE93
:104F600049E050E00E94DB376E157F05800791070E
:104F7000A8F51092650210926602109267021092D4
:104F8000680280915B0290915C0261E00E9465186A
:104F900080916A028430F1F0E0915902F0915A0256
:104FA00040818381948160E070E050E00E9443136F
:104FB000E0915902F0915A0280916C02838781E05E
:104FC00090E0A0E0B0E087839087A187B287CF010F
:104FD0000E949A2281E08093690211C08091690247
:104FE000882369F40894E11CF11C011D111DE09255
:104FF0006502F092660200936702109368021F91A7
:105000000F91FF90EF900895EF92FF920F931F93EF
:10501000CF93DF93EC0189A1882311F481E022C0B2
:1050200019A28B899C8960E00E946518E989FA8938
:1050300085E0838701E0E02EF12C012D112DE78220
:10504000F08601871287CF010E949A22E989FA89A6
:105050008AA18387E782F08601871287CF010E94A9
:105060009A2280E01D8E1E8E1F8E18A2DF91CF9196
:105070001F910F91FF90EF90089584ED91E00E94B1
:105080009A2208950F931F938C018FE393E0D80128
:1050900016966C910E94782C00D000D000D0EDB70D
:1050A000FEB7319689EB93E0ADB7BEB712969C93ED
:1050B0008E9311978CE595E293838283D80116969F
:1050C0008C91848315820E94172FEDB7FEB7369618
:1050D0000FB6F894FEBF0FBEEDBF1F910F9108955C
:1050E000CF92DF92EF92FF920F931F9314BE88E14D
:1050F0000FB6F89480936000109260000FBE29E212
:1051000088E190E00FB6F894A895809360000FBEF8
:105110002093600088E594E040E855E260E070E0AC
:105120000E946B3399EBE92E93E0F92EC70163E0FF
:1051300070E00E94642EC70166E677E10E946A2E45
:1051400000D000D0EDB7FEB7F282E18280E591E0B9
:10515000948383830E94572FEDB7FEB7F282E182DA
:1051600081E591E0948383830E94572F0F900F90E5
:105170000F900F9084ED91E00E940B188091E00158
:1051800060E00E94363200EF12E0C80148EE53E0C2
:1051900060E070E00E94EC2AC8016DE378E22FEF36
:1051A0003FEF4FEF5FEF0E94F42AC8010E94132BDC
:1051B0000E94B52F8CE00E949F2F84E00E94A42FB4
:1051C0008091E80161E00E94363264EF71E080E096
:1051D00090E00E9463318091E80160E00E943632E5
:1051E00064EF71E080E090E00E9463318091E8011B
:1051F00061E00E94363264EF71E080E090E00E944E
:10520000633186EEC82E81E0D82EC6010E94651952
:105210000FE313E0C80167E37AE20E94F02BC801B4
:105220006DEF79E20E94EB2B88E492E00E94422825
:1052300083E066EC79E241E050E00E94221682E0D1
:105240006FE879E241E050E00E942216C6010E9418
:10525000DB1B00D000D0EDB7FEB7F282E18289E619
:1052600091E0948383830E94572F0F900F900F90AB
:105270000F901F910F91FF90EF90DF90CF900895C6
:10528000EF92FF920F931F93CF93DF93EC010E9455
:105290005531688379838A839B836D857E8580E021
:1052A00090E00E9463310E9455318F850E948A32BE
:1052B000882361F588859985892B51F50E945531A0
:1052C0006C837D838E839F8381E090E01CC0888502
:1052D0009985892BE9F00E945531EC80FD800E8183
:1052E0001F812B853C8540E050E02E0D3F1D401F67
:1052F000511F621773078407950718F482E090E046
:1053000002C083E090E09987888702C08130F9F27B
:10531000DF91CF911F910F91FF90EF9008958DE74E
:1053200092E00E9440298091850290918602029726
:1053300099F4109286021092850288E492E00E940D
:105340000428882349F080915002846080935002A1
:1053500088E492E00E941F1B809185029091860252
:10536000039799F4109286021092850288E492E0E5
:105370000E940428882349F080915002886080931D
:10538000500288E492E00E941F1B08958DE692E08F
:105390000E9440298091750290917602029799F4BB
:1053A000109276021092750288E492E00E9404281E
:1053B000882349F08091500281608093500288E4F4
:1053C00092E00E941F1B80917502909176020397D4
:1053D00099F4109276021092750288E492E00E948D
:1053E0000428882349F08091500282608093500203
:1053F00088E492E00E941F1B0895EF92FF920F93A2
:105400001F93CF93DF93182F8FE393E00E94932B8A
:1054100080934F02C1E0D0E0012F10E021E0E22EA6
:10542000F12C10C08FE393E00E94932B682F8DE541
:1054300092E00E942F2B892B21F4F0925802E092E7
:1054400057022196C017D1076CF38DE592E00E94B8
:105450001A2B892B29F08091500280618093500291
:10546000DF91CF911F910F91FF90EF90089588E504
:1054700094E060E871E00E9464358FE393E060910E
:1054800050020E943D2C80914F02803311F4109203
:10549000500208951F920F920FB60F9211242F936E
:1054A0003F934F935F936F937F938F939F93AF93AC
:1054B000BF93EF93FF93E091F402F091F502099509
:1054C000FF91EF91BF91AF919F918F917F916F91DC
:1054D0005F914F913F912F910F900FBE0F901F90B2
:1054E0001895CF93DF93EC01CB01BA0120EA3FE09E
:1054F00040E050E00E94DB379B01AC01203080E0AF
:10550000380781E0480780E0580714F481E010C0B4
:1055100073E055954795379527957A95D1F72030C3
:1055200080E0380781E0480780E058071CF482E0FB
:105530008A8339C063E055954795379527956A95D5
:10554000D1F7203080E0380781E0480780E0580735
:1055500014F483E0EDCF92E0559547953795279564
:105560009A95D1F7203080E0380781E0480780E045
:10557000580714F484E0DCCF82E0559547953795C1
:1055800027958A95D1F7203080E0380781E04807D9
:1055900080E0580714F485E0CBCF85E08A832FEFB5
:1055A0003FEF40E050E08FB78B83F8943983288336
:1055B00030938700209386008B818FBF809181007C
:1055C000887F80938100809181009A81892B8093CC
:1055D0008100DF91CF9108951092800020E1209307
:1055E00081000E94712A08950F931F93CF93DF9338
:1055F000EC018B01121613061406150624F4BA01E9
:10560000A9010E94712A1D830C8381E080936F00A1
:10561000809181009A81892B80938100DF91CF91C5
:105620001F910F910895E1E8F0E08081887F8083E9
:1056300008950895FC01868197810895FC01CB01AE
:105640002481358162817381820F931F0E94FA3712
:105650000190F081E02DE80FF91F80810895CF932C
:10566000DF93EC01462F2E813F816A817B812617D3
:10567000370718F020E030E012C08C819D81820F46
:10568000931F0E94FA37E881F981E80FF91F4083E0
:105690008E819F8101969F838E8321E030E0C90136
:1056A000DF91CF910895CF93DF93EC012E813F815D
:1056B0002115310511F4E0E012C08C819D81E88153
:1056C000F981E80FF91FE0816A817B8101960E94D0
:1056D000FA379D838C83215030403F832E838E2F59
:1056E000DF91CF910895EF92FF920F931F938C015A
:1056F0007B01CB010E94CC2FF80180839183F38240
:10570000E28215821482178216821F910F91FF90F8
:10571000EF9008952091170330E080911603281B25
:105720003109C90108954091160380911703481764
:1057300018F02FEF3FEF0AC0E42FF0E0EA50FD4FE2
:105740008081282F30E04F5F40931603C9010895F0
:10575000E091160380911703E81718F0EFEFFFEFC1
:1057600006C0F0E0EA50FD4F8081E82FF0E0CF0165
:1057700008950895AC0120913D0330913E03211519
:105780003105E1F090911603809117039817B0F05E
:1057900090E008C0FA01EA0FFB1F8081AA50BD4FBC
:1057A0008C939F5FA92FB0E0A617B7079CF31092C8
:1057B000160360931703CB01F90109950895E09151
:1057C0003B03F0913C03309729F01092380310927C
:1057D00039030995089570933E0360933D0308953E
:1057E00070933C0360933B03089510924203109220
:1057F000410388EE93E0A0E0B0E0809343039093F0
:105800004403A0934503B093460388EB91E0909343
:10581000400380933F030895CF92DF92EF92FF926F
:105820000F931F93CF93DF937C016B018A018091CB
:105830003A038823A1F0C0E0D0E00DC0D701ED917C
:10584000FC91D601AC0FBD1F0190F081E02DC70186
:105850006C9109952196C017D10780F304C0CB0144
:10586000642F0E94902CC801DF91CF911F910F915E
:10587000FF90EF90DF90CF900895DF93CF930F923A
:10588000CDB7DEB7FC01698380913A038823C9F064
:1058900080913903803238F081E090E093838283F5
:1058A00020E030E015C080913803E82FF0E0E85E9A
:1058B000FC4F998190838F5F8093380380933903E5
:1058C00005C0CE01019661E00E94902C21E030E0FD
:1058D000C9010F90CF91DF91089510921603109295
:1058E000170310923803109239030E94462E089530
:1058F0000F931F938C01862F0E948C2C8FED9BE2BF
:105900000E94B02C8AEB9BE20E94AB2CC8010E9443
:105910006D2C1F910F910895880F8093BA00089500
:10592000482F613210F081E0089580914B0384305C
:1059300011F082E0089560939603A5E7B3E0842F09
:105940009C01F90102C081918D938E2F841B8617D3
:10595000D0F380E00895909352038093510308950B
:105960009093500380934F0308951F920F920FB6A8
:105970000F9211242F933F934F935F936F937F93D5
:105980008F939F93AF93BF93EF93FF938091B90051
:1059900090E0887F90708036910509F4F2C08136DE
:1059A0009105CCF58832910509F47BC089329105C7
:1059B000B4F48031910509F46FC0813191053CF454
:1059C000009709F447C1089709F04FC165C08831B5
:1059D000910509F466C0809709F047C182C0803400
:1059E000910509F4A4C08134910544F480339105F4
:1059F00009F482C0C89709F038C189C08035910583
:105A000009F489C08835910509F496C08834910558
:105A100009F02BC1AEC08839910509F413C1893949
:105A20009105ECF48837910509F4ABC089379105ED
:105A30004CF48836910509F4A4C08037910509F02B
:105A400014C19FC08838910509F4FCC080399105C4
:105A500009F49DC08038910509F007C198C0803BCA
:105A6000910509F4C6C0813B91054CF4803A91053B
:105A700009F49FC0883A910509F0F7C0BAC0803C8C
:105A8000910509F4E3C0883C910509F4DFC0883B27
:105A9000910509F0EAC0C2C080914C038093BB001D
:105AA000CFC09091730380917403981768F490911C
:105AB0007303E92FF0E0ED5AFC4F80818093BB0027
:105AC0009F5F90937303BCC080914D03882309F4BA
:105AD0004BC085ED8093BC008091BC0084FDFCCF61
