:100000000C94B4120C94DC120C94DC120C94BD16FB
:100010000C94E2160C9407170C94DC120C94DC126E
:100020000C94DC120C94DC120C94DC120C94DC1298
:100030000C94DC120C940C270C94DC120C94DC1243
:100040000C94C32D0C94DC120C94A02F0C94F22F62
:100050000C94DC120C94DC120C94DC120C94DC1268
:100060000C9477290C94DC129466496E7465726660
:100070006163653A204672616D6520656E640009B2
:10008000496E746572666163653A20457870656390
:1000900074696E67206672616D65206C656E677449
:1000A000683A20256400496E746572666163653A3A
:1000B000204672616D652073746172740009496E27
:1000C000746572666163653A204F4C454420636FE6
:1000D0006D6D616E640009496E7465726661636579
:1000E0003A2052494E4720636F6D6D616E6400097E
:1000F000496E746572666163653A20524553455492
:1001000020636F6D6D616E640009496E746572667F
:100110006163653A2053594E4320636F6D6D616E84
:10012000640009496E746572666163653A205374B0
:1001300061727420616E696D6174696F6E202564EF
:100140000009496E746572666163653A2052696E92
:1001500067206F66660009496E7465726661636543
:100160003A20536574206C65647320746F20256C8D
:10017000750009496E746572666163653A2053655E
:1001800074206C656420256420746F20256C7500D4
:1001900009496E746572666163653A204F6C6564E7
:1001A0002073657420706978656C00094F6C656414
:1001B000206C6F676F00094F6C6564206F6E0009DB
:1001C000496E746572666163653A204F6C656420A0
:1001D0006F66660009496E746572666163653A20F0
:1001E0004F6C656420636C656172000909783A257B
:1001F0006420793A25642073697A653A25642C2055
:10020000636F6C6F723A2025750009496E746572D0
:10021000666163653A204F6C656420736574207471
:100220006578743A202573001B0000000000000070
:10023000000000000000000000FEFF030080FFFF40
:100240000F00E0FFFF1F00F000003C0038000078C6
:10025000001C000070000C0000E000060000C0015F
:10026000060000C0010600008001060000800106B3
:1002700000008001060000800106000080010600E9
:10028000008001060000C001060000C0010C000053
:10029000E0001C000070003800007800F000003C16
:1002A00000E0FFFF1F0080FFFF0F0000FEFF0300C4
:1002B0000C00000000000000000000000000000032
:1002C000060000000006000000000600000000FE1E
:1002D000FFFFFF01FEFFFFFF01FEFFFFFF01000028
:1002E000000000000000000000000000000000000E
:1002F00000000000000000000000000000000000FE
:1003000000000000000000000000000000000000ED
:1003100000000000000000000000000000000000DD
:1003200000000000000000000000000000000000CD
:1003300000000000000000001600000000000000A7
:10034000008001060000C001060000E00106000078
:10035000F001060000FC01060000BE010600009F3F
:10036000010600808F010600E083010600F0810194
:100370000600F8800106007C800106001F8001064F
:10038000800F800106C007800106E00380010EF89F
:100390000080011E7C008001FC3F008001F81F00EE
:1003A0008001E00700800100000000000000000064
:1003B000000000000000000000000000000000003D
:1003C0001406000080010600008001060000800184
:1003D0000600038001060003800106000380010679
:1003E000000380010600038001060003800106006F
:1003F000038001060003800106000380010600035C
:10040000800106000380010E8007C0011EC00FE0BE
:10041000013CE01FF000F8FFFE7F00F07FFC3F0092
:10042000E03FF81F00000000000000000000000096
:1004300000000000000000000000000000000000BC
:1004400000000000000000001600001E00000080F8
:100450007F000000C07F000000E0E1000000F0C06D
:1004600000000078C00000003CC00000001EC0007A
:1004700000000FC000008007C00000C003C00000E3
:10048000E001C00000F000C000007800C000003CA7
:1004900000C000001E00C000000E00C00000FEFFF3
:1004A000FFFF01FEFFFFFF01FEFFFFFF010000C095
:1004B00000000000C000000000000000000000007C
:1004C000000000000000000000000000000000002C
:1004D0001700000000000000000000FC7F00800109
:1004E000FEFF008001FEFF00800106C000800106C3
:1004F000C000800106C000800106C000800106C067
:1005000000800106C000800106C000800106C00016
:10051000800106C000800106C000800106C0008086
:100520000106C000800106C001C00106C003E00151
:10053000068007F0000600FF7F000600FE3F000671
:1005400000FC1F0000000000000000000000000090
:100550000000000000000000190000000000000082
:100560000000000000000000C0FFFF1F00F0FFFFC0
:100570003F00F8FFFF7F003CC001F0001CE000E0FE
:10058000010E7000C00106300080010630008001BD
:100590000630008001063000800106300080010630
:1005A00030008001063000800106300080010630F6
:1005B0000080010E300080011C7000C0013CF00082
:1005C000E001F8E101F000F0C1FF7F00C081FF3FD2
:1005D000000000FF1F0000000000000000000000FD
:1005E00015060000000006000000000600000000E4
:1005F00006000000000600000000060000000006E3
:1006000000008001060000E001060000F80106007D
:1006100000FE010600807F000600E01F000600F8D3
:1006200007000600FE010006807F000006E01F00B4
:10063000000EF8070000FEFF010000FC7F00000034
:10064000F81F000000F0070000000000000000009C
:10065000000000000000000000000000000000009A
:100660000000000000000000190000000000000071
:1006700000000000000000000000FC1F000000FE61
:100680003F00E007FF7F00F88F07F000FCDF03E08A
:10069000011CF001C0010EE000800106C0008001D5
:1006A00006C000800106C000800106C0008001066F
:1006B000C000800106C000800106C000800106C0A5
:1006C0000080010EE00080011CF001C001FCDF038E
:1006D000E001F88F07F000E007FF7F000000FE3F19
:1006E000000000FC1F0000000000000000000000EF
:1006F00019000000000000000000000000000000E1
:10070000C07F000000F0FF010E00F8FF033E003C38
:1007100080077E001C000FF0000E000EE0010600B6
:100720000CC00106000C800106000C800106000CC4
:10073000800106000C800106000C800106000C8080
:100740000106000C800106000C800106000C8001EF
:100750000E000EC0011C0007E0013C8003F000F811
:10076000FFFF7F00F0FFFF3F00C0FFFF1F00000002
:100770000000000000000000080000000000000071
:1007800000000000000000000000000000007038C1
:1007900000000070380000000000000000000000B1
:1007A0000000000000000000000000000000000049
:1007B0000000000000000000000000000000000039
:1007C0000000000000000000000000000000000029
:1007D0000000000000000000000000000000000019
:1007E0000000000000000000000000000000000009
:1007F00000000000000000000000000000000000F9
:1008000004000000000000000000000000000000E4
:1008100000000000000000000001FC0900000000D2
:1008200000000000000000000000000000000000C8
:1008300000000204000400000000000000000000AE
:100840000000000000000000000000050000F003B0
:1008500020012001F0030000000000000000000063
:10086000000000000638044804FC0F880408050056
:100870000300000000000000000000000001000074
:100880000000000000000000000000000000000068
:10089000000000000000078007B8084408A40818FA
:1008A0000D0006000900000000000000000000012B
:1008B0000C0000000000000000000000000000002C
:1008C0000000000000000000040000F80704080415
:1008D0000800000000000000000000000000000010
:1008E000000304080408F8070000000000000000EE
:1008F0000000000000000000000004000018003CA0
:1009000000180000000000000000000000000000CF
:100910000000000680008000F0038000800080005E
:1009200000000000000000000000000001001800AE
:1009300000000000000000000000000000000000B7
:1009400000000000000500008000800080008000A2
:100950000000000000000000000000000000020095
:10096000000008000000000000000000000000007F
:100970000000000000000006000800068001600082
:10098000180004000000000000000000000000004B
:10099000080000F00318042408C408040B0804F03D
:1009A0000300000000000000000510080808FC0F0C
:1009B0000008000800000000000000000000000027
:1009C0000000070000180C040A0409C408240818D1
:1009D0000800000000000000000000060408840871
:1009E00084088408840878070000000000000000E4
:1009F000000000000680034002200210020C02FCEE
:100A00000F000000000000000000000000070000D0
:100A10007C08440844084408440884070000000097
:100A2000000000000000080000F807240824082443
:100A30000824082008C0070000000000000000068D
:100A400004000400040C0403E4001800000000008B
:100A50000000000000000000080000800778084443
:100A600008440844087808800700000000000000DF
:100A70000007000078068408840884088408F807C2
:100A800000000000000000000000020000800200E2
:100A90000000000000000000000000000000000056
:100AA00000000002000080030000000000000000C1
:100AB0000000000000000000000000000480004072
:100AC00001300320020000000000000000000000D0
:100AD0000000000000050000A000A000A000A00091
:100AE0000000000000000000000000000000040002
:100AF0000030022001C000000000000000000000E3
:100B000000000000000000060000840944004400CA
:100B10004400380000000000000000000000000059
:100B20000A0000F8070408C213721252125212F29D
:100B30001F0400F803000000000900080006E0019F
:100B4000180104013801C001000E00080000000077
:100B50000000080000FC0F440844084408440878DA
:100B60000880070000000000000000070000F003FC
:100B70000804040804080408040800000000000039
:100B800000000000080000FC0F040804080408042A
:100B9000080804F003000000000000000008000046
:100BA000FC0F4408440844084408440804080000B2
:100BB000000000000000080000FC0F440044004456
:100BC0000044004400040000000000000000000891
:100BD0000000F00308040408040884088804900353
:100BE0000000000000000000080000FC0F40004072
:100BF00000400040004000FC0F000000000000002A
:100C00000006000004080408FC0F040804080000A3
:100C100000000000000000000000040008000800C0
:100C200004FC0300000000000000000000000000C1
:100C3000000000080000FC0F40004000E000100130
:100C4000080604080000000000000000070000FC87
:100C50000F0008000800080008000800000000005D
:100C600000000000000A0000FC0F0C001000200033
:100C70004000200018000400FC0F000000000800E5
:100C800000FC0F1C006000800100060008FC0F0043
:100C900000000000000000080000F0030804040841
:100CA000040804080804F00300000000000000002D
:100CB000080000FC0F8400840084008400CC0078CD
:100CC000000000000000000000080000F00308041D
:100CD0000408040804080804F00B000000000000E9
:100CE0000000080000FC0F8400840084008401CC14
:100CF000067808000000000000000007180824081B
:100D00004408840804090409040E000000000000DF
:100D10000000000007040004000400FC0F040004AD
:100D200000040000000000000000000000080000B7
:100D3000FC0300040008000800080004FC03000095
:100D40000000000000000804003800C00100060098
:100D5000080007E0001C0000000000000000000C7C
:100D600000007C0080070008800760003C00C00392
:100D7000000C000FF0000C000800000C0C1002200A
:100D800001C0002003180404080000000000000057
:100D900000070C0010002000C00F200010000C0005
:100DA0000000000000000000000007040C040A849A
:100DB00009440824081C0804080000000000000082
:100DC000000000040000FC0F0408040800000000FC
:100DD000000000000000000000000000040C007093
:100DE000008003000C000000000000000000000074
:100DF00000000000000304080408FC0F00000000CD
:100E000000000000000000000000000000000610CC
:100E100000180004000C001000100000000000008A
:100E200000000000000000050000000800080008A5
:100E300000080000000000000000000000000000AA
:100E4000020000030000000000000000000000009D
:100E5000000000000000000000060000200620093D
:100E600020092009C00F0000000000000000000061
:100E70000000060000FC0F20082008600CC00700DE
:100E80000000000000000000000000050000C00796
:100E9000600C200820080000000000000000000096
:100EA0000000000005C007600C20082008FC0F00AF
:100EB000000000000000000000000000000600002C
:100EC000C007200920092009C0010000000000001F
:100ED000000000000000050000F80F24002400249A
:100EE00000000000000000000000000000000006FC
:100EF0000000C027202820282028E01F0000000034
:100F00000000000000000000060000FC0F40002070
:100F1000002000C00F0000000000000000000000E2
:100F200000020000D00F00000000000000000000E0
:100F3000000000000000000000000300200030F06E
:100F40001F00000000000000000000000000000082
:100F5000000000060000FC0F800080014006000831
:100F6000000000000000000000000000030000FC82
:100F70000F0008000000000000000000000000005A
:100F800000000000000A0000E00F20002000200008
:100F9000C00F200020002000C00F0000000006004D
:100FA00000E00F200020002000C00F000000000023
:100FB00000000000000000060000C0072008200814
:100FC0002008C00700000000000000000000000032
:100FD000060000E03F200820082008C007000000AD
:100FE00000000000000000000006C00760082008A4
:100FF0002008600CE03F000000000000000000003E
:101000000000050000C00F4000400040000000004C
:101010000000000000000000000000050000E008E3
:101020002009200A200C0000000000000000000041
:1010300000000000050000FC07200C20080008004C
:10104000000000000000000000000000000600009A
:10105000C007000800080008C00F000000000000E2
:101060000000000000000640008003000C000E801D
:101070000140000000000000000000000000000827
:101080000000C003000C0007C001000E000FC000EC
:101090000000000000000000050000C00C000380FC
:1010A00003400C00000000000000000000000000F1
:1010B00000060000C0000033000C80034000000068
:1010C00000000000000000000000050000200E20CD
:1010D00009E00820080000000000000000000000F7
:1010E00000000001000000000000000000000000FF
:1010F000000000000000000000000000020000FEF0
:101100001F000000000000000000000000000000C0
:1011100000000000000100000000000000000000CE
:1011200000000000000000000000000000000700B8
:10113000000000C00040008000800040000000006F
:101140000000000000000003FC0F0408FC0F00007A
:10115000000000000000000000000000000000008F
:10116000000000000000000000000000000000007F
:1011700000000000000000002000C629AA5CAA5C54
:10118000F41B730B97037703960377039603770398
:101190009603770397039703750BF402820001000F
:1011A000000000000000000000000000000000003F
:1011B000000000000000000000000000000000002F
:1011C000000000000000000000000000000000001F
:1011D00000000000000000000000000020118A7CD8
:1011E00004852485D054AB337803980377039603A2
:1011F0007703960377039603770396037703B80381
:101200000B1A43000000000800000000000000006E
:1012100000000000000000000000000000000000CE
:1012200000000000000000000000000000000000BE
:1012300000000000000000000000000000000000AE
:10124000E1420985047D057D2C6D294C77037703E8
:1012500097039703970397039703970397039703BE
:10126000970398031023C80000000000000000004E
:10127000000000000000000000000000000000006E
:10128000000000000000000000000000000000005E
:10129000000000000000000000000000000000004E
:1012A00000006008656C0785E57C057D0975C76CE5
:1012B0009603950B770397037703960377039603BB
:1012C0007703960377039703541BED01000000009A
:1012D000000000000000000000000000000000000E
:1012E00000000000000000000000000000000000FE
:1012F00000000000000000000000000000000000EE
:10130000000001000000A429267DE674057D067D0D
:10131000067D0775151C730B9703980397039703B6
:101320009703970397039703970397039513F40283
:10133000210001000000000000000000000000008B
:10134000000000000000000000000000000000009D
:10135000000000000000000000000000000000008D
:10136000000000000000000020006863267D057D6D
:10137000E67C057DE57C0585733C6E1B7803970351
:101380007703960377039603770396037703970310
:101390007703960BE508010000000008000000003C
:1013A000000000000000000000000000000000003D
:1013B000000000000000000000000000000000002D
:1013C00000000000000000000000000040118A7CC6
:1013D000257D0675067D0675057D057DF054AC2BD3
:1013E000980378039703970397039703970397034B
:1013F000970397039703B8032B1A240000000000FB
:1014000000000000000000000000000000000000DC
:1014100000000000000000000000000000000000CC
:1014200000000000000000000000000000000000BC
:10143000E1420985E67C057DE67C057DE57C058548
:101440000C65485477039703770396037703960355
:10145000770396037703960397039703F122C70058
:101460000000000800000000000000000000000074
:10147000000000000000000000000000000000006C
:10148000000000000000000000000000000000005C
:1014900000006108856C077D057D0675067D067573
:1014A000057D067D0875A864B60B76039703770360
:1014B000970397039703970397039703970398035B
:1014C000741BEE010000000000000000000000009E
:1014D000000000000000000000000000000000000C
:1014E00000000000000000000000000000000000FC
:1014F000000000000000C331077D067D067D057DEC
:10150000E67C057DE67C057DE67C067DF51B721399
:10151000770397037703960377039603770396037E
:1015200077039703760BF302010000000000000030
:1015300000000000000000000000000000000000AB
:10154000000000000000000000000000000000009B
:1015500000000000000000004000685B467D06754A
:10156000067D0675067D0675067DE674057D057D9E
:10157000933C6F1B98037803970397039703970394
:1015800097039703970397039603970305090200B0
:10159000000000000000000000000000000000004B
:1015A000000000000000000000000000000000003B
:1015B0000000000000000000000000004011AA84AC
:1015C000067D057DE67C057DE67C057DE67C057D6A
:1015D000E57C0485F054CB33780398039703970395
:1015E0009703970397039703970397037703B7032B
:1015F0000C1A23000000000800000000000000009A
:1016000000000000000000000000000000000000DA
:1016100000000000000000000000000000000000CA
:10162000E142EA84057D0675067DE674067DE67472
:10163000067DE674057D057D2C6D4954970377037F
:1016400097039703970397039703970397039703CA
:10165000970398031123C900000000000000000058
:10166000000000000000000000000000000000007A
:10167000000000000000000000000000000000006A
:1016800000004008656C0785067D057DE67C057DCC
:10169000E67C057DE67C057DE57C057D0A7D844B49
:1016A0001503760B77039703970397039703970325
:1016B0009703970397039703741BEE010000000044
:1016C000000000000000000000000000000000001A
:1016D000000000000000000000000000000000000A
:1016E000000001000000A429267DE674067D067531
:1016F000067D0675067D0675067D0675057D067DEB
:10170000CA7C6011710276139703980397039703BD
:101710009703970397039703970397039613F4028E
:101720002100010000000000000000000000000097
:1017300000000000000000000000000000000000A9
:10174000000000000000000020006763267D057D8A
:10175000067D057DE67C057DE67C057DE67C057DD8
:10176000067D2685686320002B015323970397038A
:10177000770396037703960377039603770396031D
:101780007703960BE608010000000000000000004F
:101790000000000000000000000000000000000049
:1017A00000000000000000000000000040118A7CE2
:1017B000257D0675067D0675067D0675067D067512
:1017C000067D0675067D277DE439000086008F22A0
:1017D000B803980397039703970397039703970317
:1017E00097039703970398034C22440000000000DE
:1017F00000000000000000000000000000000000E9
:1018000000000000000000000000000000000000D8
:10181000C13A0985067D057DE67C057DE67C057D72
:10182000E67C057DE67C057DE77C856C6008000034
:1018300003008811970396037703960377039603B3
:101840007703960377039603970397031123E80022
:101850000000000800000000000000000000000080
:101860000000000000000000000000000000000078
:1018700000004000656C087D057D0675067DE674F8
:10188000067DE674067DE674057D067509850243CE
:1018900000000000010063007503760397037703DF
:1018A0009703970397039703970397039703980367
:1018B000741B0F0200000000000000000000000088
:1018C0000000000000000000000000000000000018
:1018D000000000000000A331067D057DE67C057D4B
:1018E000E67C057DE67C057DE67C057D067D057D47
:1018F0008A7C401900000000000000007102741B87
:10190000770397037703960377039603770396038A
:1019100077039703760B14032100000000000000FA
:1019200000000000000000000000000000000000B7
:1019300000000000000001004000485B467D067585
:10194000067DE674067DE674067DE674067DE67423
:10195000057D267D88634000000001000000000036
:101960004A01532397039803970397039703970319
:1019700097039703970377039603970306090200DB
:101980000000000000000000000000000000000057
:1019900000000000000000000000000020118A7C10
:1019A000067D057DE67C057DE67C057DE67C057D86
:1019B000E67C057DE67C2685A43100000000000061
:1019C0000000000066008E229803970377039603B9
:1019D0007703960377039603770396037703B7039A
:1019E0002C1A440000000008000000000000000065
:1019F00000000000000000000000000000000000E7
:101A0000E142EA84057D0675067D0675067D06754C
:101A1000067D0675057D0675077D656C600800000E
:101A2000000000000000000022008811B7037703C7
:101A300097039703970397039703970397039703D6
:101A4000970398033123E900000000000000000024
:101A50000000000000000000000000000000000086
:101A600000006008656C0785E67C057DE67C057DE9
:101A7000E67C057DE67C057DE57C057DE984E1422B
:101A800000000000000000000000000001006200F3
:101A90005603960B77039703770396037703960312
:101AA0007703960377039703741B0E020000000070
:101AB0000000000000000000000000000000000026
:101AC000000000000000A429267DE67C067D067546
:101AD000067D0675067D0675067D0675057D06750F
:101AE0008A7C40110000010000000000000000009E
:101AF0000000000070027513970398039703970383
:101B0000970397039703970397039703960B150380
:101B10004100010000000000000000000000000083
:101B2000000000000000000020006763267D057DA6
:101B3000E67C057DE67C057DE67C057DE67C057D15
:101B4000067D2685685B4000000000000000000064
:101B500000000000000000004B0152239703970390
:101B60007703960377039603770396037703960329
:101B70007703970B26090200000000000000000018
:101B800000000000000000000000000040118A7CFE
:101B9000257D0675067D0675067D0675067D06752E
:101BA000067D0675067D077DC4310000000000003B
:101BB00000000000000000000000000065008E2210
:101BC000B803980397039703970397039703970323
:101BD000970397039703B8034C22450000000000C9
:101BE00000000000000000000000000000000000F5
:101BF000E1420985067D057D067D057D067D057D25
:101C0000067D057D067D057D077D646C400800002E
:101C100000000000000000000000000000000000C4
:101C200003006711970396037703960377039603E0
:101C3000770396037703960397039703122308010C
:101C4000000000080000000000000000000000008C
:101C500000006008856C087D067D0675067DE674CB
:101C6000067DE674067DE674057D06750985E13A14
:101C70000000000000000000000000000000000064
:101C800000000000010063005503970397039703CA
:101C90009703970397039703970397039703980373
:101CA000741B0F0200000000000000000000000094
:101CB000000000000000A331067D057D067D057D46
:101CC000E67C057DE67C057DE67C057D057D057D64
:101CD0008A7C4011000000000000000000000000AD
:101CE0000000000000000000000000005002741B13
:101CF0007703970377039603770396037703960397
:101D000077039703760B34032200000000000000E5
:101D100000000000000000004000685B467D067582
:101D2000067DE674067DE674067DE674067DE6743F
:101D3000057D267D88634000000001000000000052
:101D40000000000000000000000000000000000093
:101D50004A013223B7039803970397039703970326
:101D6000970397039703970397039703261102009E
:101D70000000000000000000000000004011AA84E4
:101D8000067D057DE67C057DE67C057DE67C057DA2
:101D9000E67C057DE67C0685A4310000000000009D
:101DA0000000000000000000000000000000000033
:101DB0000000000865008D229803970377039603BF
:101DC0007703960377039603770396037703B703A6
:101DD0002C1A440000000008000000000000000071
:101DE00000430985057D0675067D0675067D067529
:101DF000067D0675057D0675077D65646008000033
:101E000000000000000000000000000000000000D2
:101E1000000000000000000002006811B7039703F3
:101E200097039703970397039703970397039703E2
:101E3000970398033123090100000000000000000F
:101E400000000000856C0685E67C057DE67C057D4E
:101E5000E67C057DE67C057D067D057DE984E04226
:101E60000000000000000000000000000000000072
:101E700000000000000000000000000001006200FF
:101E80003503750B77039703770396037703960360
:101E90007703960377039703741B0F02000000007B
:101EA0000000000000000000057D0675067D067537
:101EB000067D0675067D0675067D0675057D06752B
:101EC0008A7C2009000001000000000000000000E2
:101ED0000000000000000000000000000000000002
:101EE00000000000500275139703980397039703AF
:101EF000970397039703970397039703960B35036D
:101F00004100010000000000000000006564277D22
:101F1000E67C057DE67C057DE67C057DE67C057D31
:101F2000E57C2685285B2000000000000000000002
:101F300000000000000000000000000000000000A1
:101F400000000000000000000901312B98039703F6
:101F50007703960377039603770396037703960335
:101F60007703B70B270902000000000800000000FB
:101F7000A3120E65057D0675057DE67C057DE6747C
:101F8000057DE674057D067DA42920004100220020
:101F900041002100410021004100210041002100B9
:101FA000410021004100210040002000C600AE1A7F
:101FB000B80398039703970397039703970397032F
:101FC00097039703B703B8036C2245000000000095
:101FD000000000000401303473157215521D721D8B
:101FE000521D521D521D521D521D521D920491042C
:101FF0009204B1049204B1049204B1049204B104B5
:102000009204B1049204B1049204B104B204D20C5B
:102010004F038C027703760B7703960377039603BF
:1020200077039603770396039703970332230901F7
:1020300000000008000000004100291AD60596059E
:1020400095059605950596059505960595059605BC
:10205000B505B605B505B605B505B605B505B605AC
:10206000B505B605B505B605B505B605D505D6055C
:1020700033256D03620042005503760B97039703E7
:10208000970397039703970397039703970398037F
:10209000741B30020000000000000000000061001E
:1020A000D204741595059505750594057505940577
:1020B00075059405750594057505940575059405D4
:1020C0007505940575059405750594059505B50583
:1020D0007515910404090000000000003002741B13
:1020E00077039703770396037703960377039603A3
:1020F00077039703760B34032200000000000000F2
:1021000000000000EB023425950595059505950521
:1021100095059505950595059505950595059505EF
:1021200095059505950595059505950595059505DF
:10213000B5055505691A8200000000000000000086
:102140002901322397039803970397039703970373
:102150009703970397039703970397034711020089
:102160000000000000000008E3000F34B6059505EC
:102170007505940575059405750594057505940513
:102180007505940575059405750594057505940503
:102190009505B505AE23A50100000008000000006C
:1021A0000000000845006D2298039703770396030B
:1021B0007703960377039603770396037703B703B2
:1021C0004D22440000000008000000004000C7113C
:1021D000B50595059505950595059505950595050F
:1021E000950595059505950595059505950595051F
:1021F000B505B605D224CB020000000000000000A7
:10220000000000000000000002004709B703970328
:1022100097039703970397039703970397039703EE
:102220009703980332230A01000000000000000019
:10223000000020009104741D950595057505940511
:102240007505940575059405750594057505940542
:102250009505B50555155004C308000000000000A1
:10226000000000000000000000000000010062000B
:102270003503960B7703970377039603770396034B
:10228000770396037703970375134F02000000004E
:1022900000000000000000008902142DB50595051E
:1022A000950595059505950595059505950595055E
:1022B00095059505B50D3405071A6200000000006C
:1022C000000000000000000000000000000000000E
:1022D00000000000500275139703980397039703BB
:1022E000970397039703970397039703960B350379
:1022F000620001000000000000000008C300CE33AF
:10230000B60595057505940575059405750594053F
:10231000750594059505B5054D2344010000000899
:1023200000000000000000000000000000000000AD
:1023300000000000000000000901312B9803970302
:102340007703960377039603770396037703960341
:102350007703B703471102000000000000000000EF
:102360002000860995057505950595059505950542
:1023700095059505B505D60591246A020000000073
:10238000000000000000000000000000000000004D
:1023900000000000000000000000000065006D1A51
:1023A000B70398039703970397039703970397033C
:1023B000970397039703B8038D22450000000000A0
:1023C00000000000000000005004741D95059505F4
:1023D000750594059505D505341DCE0382080000CA
:1023E00000000000000000000000000000000000ED
:1023F00000000000000000000000000000000000DD
:102400000200471197039603770396037703960319
:1024100077039603770396039703970332232901E3
:102420000000000000000000000800002702132D3B
:10243000B505B5059505D60554157104651141001E
:10244000000000000000000000000000000000008C
:10245000000000000000000000000000000000007C
:1024600000000000000062003403960B9703B703DE
:10247000960397039603970396039703970397038F
:10248000751B710200000000000000000000000049
:102490004200E8193405740DD314AE032509200059
:1024A000000000000000000000000000000000002C
:1024B000000000000000000000000000000000001C
:1024C0000000000000000000000000003002741B4B
:1024D00097037603970376039703760397037603B0
:1024E0009703760397035603496E746572666163BA
:1024F000653A206C697374656E696E67206174203B
:1025000030782532780000000000240027002A00DF
:1025100000000000250028002B0000000000230020
:102520002600290004040404040404040202020234
:102530000202030303030303010204081020408086
:102540000102040810200102040810200000000706
:10255000000201000003040600000000000000006B
:10256000111AB728452B583111241FBECFEFD8E0E0
:10257000DEBFCDBF11E0A0E0B1E0E0ECF5E602C0C7
:1025800005900D92A43DB107D9F714E0A4EDB1E098
:1025900001C01D92A637B107E1F715E2C8E6D5E202
:1025A00004C02297FE010E94A332C036D107C9F7AA
:1025B0000E94AF310C94DE320C9400000F931F93F5
:1025C000CF93DF93689F8001699F100D789F100D56
:1025D0001124C8010E948E2CEC01009729F060E0C4
:1025E00070E0A8010E940913CE01DF91CF911F91E5
:1025F0000F910895FB01DC014150504048F00590D7
:102600000D920020C9F701C01D9241505040E0F7E3
:102610000895DC0101C06D9341505040E0F70895EA
:10262000AEE0B0E0E6E1F3E10C94B5320D891E892D
:102630008F89988D97FF02C080E090E801979E8374
:102640008D831A83098386E08C839E01255E3F4F2C
:10265000CE010196698D7A8DA9010E946B134D817F
:102660005E8157FD0AC02F813885421753070CF44D
:102670009A01020F131FF80110822E96E4E00C94C9
:10268000D132AEE0B0E0E7E4F3E10C94B5328C0176
:1026900077FF02C060E070E8615070407E836D8318
:1026A0001A83098386E08C83CE010196BA01A901C1
:1026B0000E946B132D813E8137FD09C0EF81F885A3
:1026C0002E173F070CF4F901E00FF11F10822E9630
:1026D000E4E00C94D132ABE0B0E0E1E7F3E10C943C
:1026E000A7323C012B015A01FC011782168283811B
:1026F00081FD03C06FEF7FEFC6C19AE0892E1E01F6
:102700000894211C311CF3012381F20123FD8591E2
:1027100023FF81912F01882309F4B2C1853239F456
:1027200023FD859123FF81912F01853229F490E0CB
:10273000B3010E945E15E7CF982FFF24EE24992461
:10274000FFE1FF15D0F09B3269F09C3228F4903203
:1027500059F0933291F40EC09D3249F0903369F4F0
:1027600041E024C052E0F52A84E0F82A28C098E02D
:10277000F92A25C0E0E1FE2A22C0F7FC29C0892FF2
:1027800080538A3070F4F6FE05C0989C902C11247A
:10279000980E15C0E89CE02C1124E80EF0E2FF2A08
:1027A0000EC09E3229F4F6FC6BC140E4F42A07C047
:1027B0009C3619F450E8F52A02C0983649F4F20123
:1027C00023FD959123FF91912F01992309F0B8CF13
:1027D000892F8554833018F08052833038F444E0D8
:1027E00050E0A40EB51E5FE359830FC0933631F05D
:1027F000933779F0933509F056C020C0F5018081F8
:10280000898342E050E0A40EB51E610101E010E0B2
:1028100012C0F501C080D180F6FC03C06FEF7FEFDE
:1028200002C0692D70E042E050E0A40EB51EC60162
:102830000E9453158C015FE7F52214C0F501C0809A
:10284000D180F6FC03C06FEF7FEF02C0692D70E00E
:1028500042E050E0A40EB51EC6010E9448158C014E
:1028600050E8F52AF3FE07C01AC080E290E0B301F9
:102870000E945E15EA948E2D90E008171907A8F3C0
:102880000EC0F601F7FC8591F7FE81916F0190E093
:10289000B3010E945E15E110EA9401501040011549
:1028A000110579F7EAC0943611F0993669F5F7FE0B
:1028B00008C0F501208131814281538184E090E09C
:1028C0000AC0F501808191819C01442737FD409524
:1028D000542F82E090E0A80EB91E9FE6F92257FF20
:1028E00009C050954095309521953F4F4F4F5F4F10
:1028F000E0E8FE2ACA01B901A1012AE030E00E9405
:102900008A15D82ED21840C0953729F41F2D1F7E66
:102910002AE030E01DC01F2D197F9F3661F09037EF
:1029200020F4983509F0ACC00FC0903739F09837D3
:1029300009F0A6C004C028E030E00AC0106114FD10
:10294000146020E130E004C014FD166020E132E0A4
:1029500017FF08C0F501608171818281938144E095
:1029600050E008C0F50180819181BC0180E090E0D9
:1029700042E050E0A40EB51EA1010E948A15D82E97
:10298000D2188FE7F82EF122F6FE0BC05EEFF5228B
:10299000D91438F4F4FE07C0F2FC05C08FEEF8221B
:1029A00002C01D2D01C0192DF4FE0DC0FE01ED0D5C
:1029B000F11D8081803319F499EEF92208C01F5F60
:1029C000F2FE05C003C08F2D867809F01F5F0F2D22
:1029D000F3FC14C0F0FE0FC01E1510F09D2C0BC0B0
:1029E0009D2C9E0C911A1E2D06C080E290E0B30132
:1029F0000E945E151F5F1E15C0F304C01E1510F463
:102A0000E11A01C0EE2404FF0FC080E390E0B3019F
:102A10000E945E1502FF1DC001FD03C088E790E023
:102A20000EC088E590E00BC0802F867891F001FF02
:102A300002C08BE201C080E2F7FC8DE290E0B301BE
:102A40000E945E1506C080E390E0B3010E945E150F
:102A50009A94D914C0F3DA94F101ED0DF11D80813F
:102A600090E0B3010E945E15DD20A9F706C080E268
:102A700090E0B3010E945E15EA94EE20C1F743CEC8
:102A8000F30166817781CB012B96E2E10C94C3328E
:102A9000FC010590615070400110D8F78095909529
:102AA0008E0F9F1F0895FC0161507040019001102E
:102AB000D8F7809590958E0F9F1F08950F931F93C1
:102AC000CF93DF938C01EB018B8181FF1BC082FFD1
:102AD0000DC02E813F818C819D812817390764F4B8
:102AE000E881F9810193F983E88306C0E885F985D7
:102AF000802F0995892B31F48E819F8101969F83C8
:102B00008E8302C00FEF1FEFC801DF91CF911F919D
:102B10000F910895FA01AA27283051F1203181F14F
:102B2000E8946F936E7F6E5F7F4F8F4F9F4FAF4FD5
:102B3000B1E03ED0B4E03CD0670F781F891F9A1FE8
:102B4000A11D680F791F8A1F911DA11D6A0F711D9C
:102B5000811D911DA11D20D009F468943F912AE0A8
:102B6000269F11243019305D3193DEF6CF01089590
:102B7000462F4770405D4193B3E00FD0C9F7F6CFC1
:102B8000462F4F70405D4A3318F0495D31FD405289
:102B9000419302D0A9F7EACFB4E0A695979587951F
:102BA00077956795BA95C9F70097610571050895FE
:102BB0009B01AC010A2E06945795479537952795AA
:102BC000BA95C9F7620F731F841F951FA01D089542
:102BD000FF920F931F93CF93DF93282F8B01BA019E
:102BE000A82FB0E0CD01885C9A4DFC01F490AC5D5B
:102BF000BA4DFD018491882309F441C0382F325029
:102C0000432F50E0FA01EE0FFF1FED56FE4FC0813B
:102C1000D181CA01E3E0880F991FEA95E1F73130CD
:102C200011F42E5001C02770280F832F90E0880FD9
:102C3000991F825E9A4DFC01A591B4918C91FA0185
:102C4000EB57FD4F8083E22FF0E0EE0FFF1FDF0117
:102C5000A857BD4F6D937C93E854FD4F11830083BB
:102C600088818F2988832091680081E090E002C0EC
:102C7000880F991F4A95E2F7282B20936800DF916F
:102C8000CF911F910F91FF900895BF92CF92DF9245
:102C9000EF92FF920F931F93CF93DF93282F30E093
:102CA000C901880F991F825E9A4DFC01A591B491CC
:102CB0004C91F901EB57FD4F908194274083F90126
:102CC000EE0FFF1FED56FE4F0190F081E02D808149
:102CD000982309F448C0B22EBB0CBB0CBB0CC0E05F
:102CE000D0E051E0C52ED12CE92EFF24042F10E0B6
:102CF000C6010C2E02C0880F991F0A94E2F7282FF4
:102D000030E0C9018E219F21892B49F18B2D8C0F39
:102D100090E0FC01EE0FFF1FE857FD4F0190F0819E
:102D2000E02DE130F10571F0E330F10529F42023C5
:102D30003123232B39F413C0329789F42023312314
:102D4000232B69F4FC01EE0FFF1FE854FD4F808137
:102D50009181892B21F00190F081E02D0995219638
:102D6000C830D10529F6DF91CF911F910F91FF90C7
:102D7000EF90DF90CF90BF9008951F920F920FB603
:102D80000F9211242F933F934F935F936F937F93F1
:102D90008F939F93AF93BF93EF93FF9380E00E9435
:102DA0004516FF91EF91BF91AF919F918F917F91C8
:102DB0006F915F914F913F912F910F900FBE0F90A8
:102DC0001F9018951F920F920FB60F9211242F93F8
:102DD0003F934F935F936F937F938F939F93AF93A3
:102DE000BF93EF93FF9381E00E944516FF91EF910F
:102DF000BF91AF919F918F917F916F915F914F9113
:102E00003F912F910F900FBE0F901F9018951F921A
:102E10000F920FB60F9211242F933F934F935F930E
:102E20006F937F938F939F93AF93BF93EF93FF9392
:102E300082E00E944516FF91EF91BF91AF919F9163
:102E40008F917F916F915F914F913F912F910F9053
:102E50000FBE0F901F9018950895CF92DF92EF92BA
:102E6000FF920F931F93CF93DF93EC018D8560E06A
:102E70000E94F82EAEE2EA2EF12CF1E0CF2ED12CFA
:102E80002FC08F8560E00E94F82EC601002E02C080
:102E9000880F991F0A94E2F7ED81FE81EE0DFF1D68
:102EA0002081318182239323892B19F08E8561E063
:102EB00002C08E8560E00E94F82E8F8561E00E943E
:102EC000F82E015010408FEF0F3F1807D1F68EEF0C
:102ED0009FEFE80EF91E9EEFE9169FEFF90619F035
:102EE0000BE010E0CECF8F8560E00E94F82E8D853C
:102EF00061E00E94F82E8D8560E00E94F82EDF913F
:102F0000CF911F910F91FF90EF90DF90CF90089598
:102F1000DC0170E01396ED91FC911497E60FF71F1A
:102F20008081882391F41196ED91FC911297E60F20
:102F3000F71F808190E0880F991F1596ED91FC9105
:102F40001697E80FF91F51834083CD010E942D177A
:102F50000895DC0140E01EC0242F30E01396ED916F
:102F6000FC911497E20FF31F8081882391F411964E
:102F7000ED91FC911297E20FF31F808190E0880F92
:102F8000991F1596ED91FC911697E80FF91F718323
:102F900060834F5F8C914817F8F2CD010E942D1786
:102FA00008950F931F93CF93DF93EC018B0160E0A3
:102FB00024C0262F30E0E981FA81E20FF31F8081DF
:102FC00090E0880F991FAD81BE81A80FB91F4D9168
:102FD0005C911197EB81FC81E20FF31F80818823C4
:102FE00059F4CA01800F911F20E18030920710F040
:102FF0008FEF9FE08D939C936F5F88816817C8F275
:10300000CE010E942D17DF91CF911F910F9108954E
:103010001F93CF93DF93EC01162F888160E00E940D
:10302000F82E898160E00E94F82E1EBD0DB407FEC7
:10303000FDCF8EB5898161E00E94F82EDF91CF919E
:103040001F9108951F93CF93DF93EC01162F888172
:1030500061E00E94F82E898160E00E94F82E1EBD7A
:103060000DB407FEFDCF8EB5898161E00E94F82E78
:10307000DF91CF911F910895EF92FF920F931F93CD
:103080008C01F62EE42E65E10E940818C8016F2D10
:103090000E942218C8016E2D0E9422181F910F91C4
:1030A000FF90EF900895EF92FF920F931F938C0182
:1030B000F62EE42E65E70E940818C8016F2D0E94C5
:1030C0002218C8016E2D0E9422181F910F91FF90A7
:1030D000EF900895CF92DF92EF92FF920F931F939C
:1030E0007C016B01022F1EE7812F841B482FC70133
:1030F000642F0E943C18101BC701612F412F0E94B2
:103100005318C7016CE50E940818C7016D2D0E9475
:103110002218C7016C2D0E9422181F910F91FF9059
:10312000EF90DF90CF900895BF92CF92DF92EF9211
:10313000FF920F931F93CF93DF93EC01B62EC72E10
:10314000F22ED02E47FD4DC027FD4BC0822F90E0C0
:103150008E0D911D813891051CF06FE7E62EE21A65
:10316000842F90E08D0D911D813891051CF05FE753
:10317000D52ED41A10E8612F641B6D190FE7802F2C
:10318000841B482FCE010E943C181F191E190F19CD
:10319000CE01612F402F0E945318CE016CE50E9492
:1031A0000818DE9C70011124888161E00E94F82ECD
:1031B000898160E00E94F82E80E090E00BC0CEBCD8
:1031C0000DB407FEFDCF2EB5BEBC0DB407FEFDCF7E
:1031D0002EB501968E159F0590F3898161E00E94BE
:1031E000F82EDF91CF911F910F91FF90EF90DF901C
:1031F000CF90BF9008958F929F92AF92BF92CF923F
:10320000DF92EF92FF920F931F93CF93DF93EC0126
:103210008F818B3058F4FC2E1D2F6E0177E2872EA4
:10322000912C8C0E9D1EAA24BB2426C04B812E817E
:103230000D81041BEC80E21ACE0160E070E00E9478
:10324000941880E88B831C821D828E831DC0F6013A
:1032500041894F5F238D2F5F8F2D912F60E070E0AC
:103260000781F401E0800E9494180894A11CB11C0D
:1032700086E090E0880E991E0894C11CD11C8F81B5
:1032800090E0A816B9061CF31F82DF91CF911F9121
:103290000F91FF90EF90DF90CF90BF90AF909F90F5
:1032A0008F900895CF92DF92EF920F936C016DEFA4
:1032B0000E940818C60162E10E942218C6016DEF43
:1032C0000E940818C60161EB0E942218C6016EEA2E
:1032D0000E940818C60163EB0E940818C60161EF3E
:1032E0000E942218C6016AEC0E940818C6016FE706
:1032F0000E942218C60162EA0E940818C60160E016
:103300000E942218C60161EA0E940818C60160E006
:103310000E942218C60160EA0E940818C60165E7EB
:103320000E942218C60165EB0E940818C60160E0E1
:103330000E942218C6016BEA0E940818C60161E0CB
:103340000E942218C60164EB0E940818C60160EAB8
:103350000E942218C60165EB0E942218C60165E58D
:103360000E942218C60161EC0E940818C60168EC90
:103370000E942218C60160E80E942218C60168EC6B
:103380000E942218C60167EC0E940818C6016FE06F
:103390000E942218C60161EB0E940818C60162E370
:1033A0000E942218C6016BEB0E940818C60162E356
:1033B0000E942218C60162EB0E940818C60164EA46
:1033C0000E942218C60160E00E942218C60160E037
:1033D0000E942218C60166EB0E940818C60161E02F
:1033E0000E942218C6016EEB0E940818C60165E013
:1033F0000E942218C60166EA0E940818C60160E011
:1034000070E040E020E000E8E0E8EE2E0E94941832
:10341000C6016FEA0E9408180F91EF90DF90CF90DD
:103420000895BF92CF92DF92EF92FF920F931F9376
:1034300014EDC12E11E0D12E85E18093D40189E9EC
:1034400091E09093D6018093D50182E090E068E10D
:1034500070E00E94DE128093D901F601968360919C
:10346000D40181E090E070E00E94DE128093D701E9
:10347000F601948388E08093E00189E08093E10184
:1034800086E08093E20187E08093E30188E061E0D9
:103490000E94B92E8091E10161E00E94B92E8091D5
:1034A000E20161E00E94B92E8091E30161E00E9497
:1034B000B92E8091E10160E00E94F82E8091E00138
:1034C00061E00E94F82E8AE08093E701B7EEEB2ED0
:1034D000B1E0FB2EA1E1BA2EF701B2927F0180E1AB
:1034E0008093E8018AE061E00E94B92E8091E801B2
:1034F00061E00E94B92EF701808161E00E94B92E3F
:103500000DE512E0C8010E94DB27C8016CE271E002
:103510000E943528055110408FE0F8018083B09259
:103520004E0210924D021092520210925102D0920D
:103530005A02C0925902F0925C02E0925B02109231
:103540005802109257021092500281E380934F026A
:103550008FE061E00E94B92EF801808160E00E9456
:10356000F82E83E080937402F8EBEF2EFBE0FF2E41
:10357000F0927102E092700208EC10E01093730276
:1035800000937202EDE6F2E0118210821292129222
:1035900012921292DD24D394D0926F021292129260
:1035A0001292129260E00E94B92E82E0809384020F
:1035B000F0928102E09280021093830200938202D3
:1035C000EDE7F2E0118210821292129212921292A0
:1035D000D0927F02129212921292129260E00E9496
:1035E000B92E1F910F91FF90EF90DF90CF90BF9079
:1035F0000895CF93DF93EC018D81882361F4888156
:1036000061E00E94F82E81E08D830E94172E69836D
:103610007A838B839C83DF91CF9108950F931F93BF
:10362000CF93DF93EC0189859A858E010B5E1F4F46
:10363000892B09F046C0C8010E94DC2702970CF4D0
:1036400085C0C8010E941528883909F07FC0C801CB
:103650000E94152889871A860E94172E6B877C87FF
:103660008D879E8700D000D001EB13E0ADB7BEB7C9
:1036700012961C930E93119786EA90E014969C93F1
:103680008E9313970E94D92B00D0EDB7FEB73196D9
:10369000ADB7BEB712961C930E9311978FE790E0CB
:1036A0009383828389859A85958384830E94D92B0D
:1036B000EDB7FEB736960FB6F894FEBF0FBEEDBF5E
:1036C00045C0C8010E94DC2729853A8582179307E7
:1036D00044F100D000D081EB93E0ADB7BEB71296B5
:1036E0009C938E9311978AE690E014969C938E9308
:1036F00013970E94D92B0F900F900F900F90698510
:103700007A85C8010E94E027893939F083E090E08A
:10371000988B8F871A86198622C01A86198681E0AF
:103720001FC00E94172E2B853C854D855E85621B30
:10373000730B840B950B695E73408040904030F0B2
:1037400082E090E0988B8F871A861986CE01459685
:103750000E94DC27892B19F488858F7E888780E07A
:10376000DF91CF911F910F910895AF92BF92CF92A9
:10377000DF92EF92FF920F931F93CF93DF93EC01B1
:103780005C016EEA0E940818CE0160E070E040E043
:1037900020E000E8E0E8EE2E0E94941850E6E52EC6
:1037A00051E1F52E47E2C42E16C0F80165917491DF
:1037B0000E5F1F4FC5014D2D2C2D0E946A18D3940A
:1037C00089E5D81691F784E690E0E80EF91EC394D7
:1037D00099E5C91621F0870137E2D32EE6CFC5015E
:1037E0006FEA0E94081810E0C50167EC0E940818F3
:1037F000C501612F0E94221862E470E080E090E031
:103800000E94252E1F5F103179F78B81883210F0CE
:1038100087E28B838E81883210F087E28E838D81E0
:1038200090E08935910514F48EE58D838C8190E0CC
:103830008935910514F48EE58C838FEF8F83DF91AA
:10384000CF911F910F91FF90EF90DF90CF90BF909D
:10385000AF900895FC01138640818381948160E0DC
:1038600070E050E00E94091388EE92E00E94D52794
:103870000895EF92FF920F931F93CF93DF93EC0184
:103880007A018B0160E070E00E94A917288130E086
:1038900040E050E06F81788589859A850E947F326B
:1038A000CE014FEF5FE00E9488172F813885498550
:1038B0005A852F5F3F4F4F4F5F4F2F833887498780
:1038C0005A87888190E0A0E0B0E082179307A407B0
:1038D000B50740F481E090E0A0E0B0E08F839887E6
:1038E000A987BA87288130E040E050E0C801B701DD
:1038F0000E947F3288EE92E0BA01A9010E9433272C
:1039000080E0DF91CF911F910F91FF90EF9008958C
:103910002F923F924F925F926F927F928F929F92DF
:10392000AF92BF92CF92DF92EF92FF920F931F93CD
:10393000DF93CF93CDB7DEB72C970FB6F894DEBFE9
:103940000FBECDBF3C0149835A836B837C83290121
:10395000ED82FE820F831887A986BA86CB86DC8625
:1039600014018FEF9FE0B9010E9458326B018BA1C7
:10397000882309F1F30187819085A185B28501979C
:10398000A105B105C1F4FAA1FF2321F4C30160E050
:1039900070E003C0C3016FEF7FE00E94A917F3013D
:1039A00087819085A185B2850196A11DB11D878370
:1039B0009087A187B287F301078110852185328521
:1039C0000230110521053105E0F04601AA24BB248F
:1039D000081519052A053B05A0F4FAA1FF2319F4DF
:1039E000C301B20105C06627772764197509C301B1
:1039F0000E94D11769817A818B819C81A5019401F4
:103A000044C0C601A0E0B0E0081719072A073B0729
:103A100099F48AA1882321F4C3016FEF7FE003C0EA
:103A2000C30160E070E00E94A91788EE92E04D812A
:103A30005E816F8178852FC080179107A207B30739
:103A4000A8F58FEF9FE0B1010E9458327B01C60EAE
:103A5000D71EC601A0E0B0E0081719072A073B07E8
:103A600028F5EAA1EE2331F4662777276219730956
:103A7000C30102C0C301B1010E94D117970140E008
:103A800050E069857A858B859C850E947F3288EE1F
:103A900092E0BA01A9010E943327F3018781908542
:103AA000A185B2850196A11DB11D13C089A18823EE
:103AB00031F081E090E0A0E0B0E0F3010AC0C30182
:103AC00060E070E00E94A917C3010E942A1C81E0F7
:103AD00005C087839087A187B28780E02C960FB6B8
:103AE000F894DEBF0FBECDBFCF91DF911F910F9134
:103AF000FF90EF90DF90CF90BF90AF909F908F900E
:103B00007F906F905F904F903F902F9008958F928D
:103B10009F92AF92BF92CF92DF92EF92FF920F935C
:103B20001F93CF93DF93EC018B85882321F4CE0183
:103B30000E942A1CBCC1853009F4F4C0863070F4A0
:103B4000823009F1833020F4813009F0B0C115C012
:103B5000833009F1843009F0AAC192C0873009F49A
:103B600029C1873008F4EAC0883009F47BC1893064
:103B700009F09DC140E051E072C1CE0140EE5EE22D
:103B800060E070E005C0CE0140E757E160E070E022
:103B90000E94391C8DC18F819885A985BA850197AE
:103BA000A105B10581F4CE0160E070E00E94A91783
:103BB0008F819885A985BA850196A11DB11D8F8336
:103BC0009887A987BA87EF80F88409851A8582E0EB
:103BD000E816F1040105110580F194E1E916F104FC
:103BE00001051105C0F4E981FA81808190E0880F18
:103BF000991FED81FE81E80FF91F60817181685383
:103C00007F4FCE010E94A91788EE92E044E650E073
:103C100060E070E0C1C0A4E1EA16F10401051105FD
:103C200061F4CE016FEF7FE00E94A91788EE92E069
:103C300040E050E060E070E0AFC0B5E1EB16F104A9
:103C40000105110508F4E9C02881822F90E044960F
:103C5000A0E0B0E0E816F9060A071B0708F0DDC08F
:103C60008BEE9FEFAFEFBFEFE80EF91E0A1F1B1F91
:103C700030E040E050E0C801B7010E947F3279C0D7
:103C8000CE0160E070E00E94A917288130E040E09A
:103C900050E06F81788589859A850E947F32CE01B8
:103CA0004FEF5FE00E9488171881212F30E040E03D
:103CB00050E06F81788589859A850E947F32115006
:103CC000161BCE01612F4FEF5FE00E9488172881FD
:103CD00030E040E050E060ED77E080E090E00E946E
:103CE0007F3288EE92E0BA01A9010E9433272F812A
:103CF000388549855A852F5F3F4F4F4F5F4F2F8340
:103D0000388749875A87888190E0A0E0B0E028177B
:103D100039074A075B0708F4CAC082E090E0A0E0D8
:103D2000B0E043C000D00F92EDB7FEB73196ADB70B
:103D3000BEB711961C92118281E09FC02F813885F9
:103D400049855A852130310541055105E1F122307F
:103D500031054105510508F460C0888190E0A0E07C
:103D6000B0E0281739074A075B0708F056C0622FF2
:103D70006250CE0140E050E00E948817288130E078
:103D800040E050E060ED77E080E090E00E947F321C
:103D900088EE92E0BA01A9010E9433278F819885AD
:103DA000A985BA850196A11DB11D8F839887A98722
:103DB000BA877DC02F81388549855A8521303105E4
:103DC0004105510561F4CE016FEF7FE00E94A91714
:103DD00088EE92E048E853E160E070E0DDCF223009
:103DE000310541055105C8F08881869590E002961D
:103DF000AA2797FDA095BA2F281739074A075B070E
:103E000060F4622F6250CE0140E050E00E948817BB
:103E100068816F5F8F81681BACCFCE0160E070E07E
:103E20000E94A917CE010E942A1C81E041C0242FC4
:103E300030E0E981FA81E20FF31F808190E0880F82
:103E4000991FED81FE81E80FF91F80819181892BF7
:103E500029F4EB81FC81E20FF31F50834F5F8881CF
:103E6000481728F300D00F92EDB7FEB7319681E0E6
:103E7000ADB7BEB711968C9311828283CE0140ED0F
:103E800057E060E070E028EC30E0EE24FF2487018A
:103E9000A0EDAA2EA7E0BA2EC12CD12CF8EC8F2EC3
:103EA000912C0E94881C0F900F900F9001C080E011
:103EB000DF91CF911F910F91FF90EF90DF90CF9006
:103EC000BF90AF909F908F900895CF92DF92FF9216
:103ED0000F931F93CF93DF936C01EC016596CE0196
:103EE0000E9415288330C9F5CE010E941528F82EAE
:103EF000CE010E941528182FCE010E941528312FBF
:103F000020E0082F10E0022B132BD60151968D9143
:103F10009C9152976F2DA8010E948817EDB7FEB7AC
:103F200038970FB6F894FEBF0FBEEDBF319681EB08
:103F300093E0ADB7BEB712969C938E93119782E72C
:103F400091E093838283F4821582178306830E9413
:103F5000D92BEDB7FEB738967AC0843051F5CE0133
:103F60000E941528182FCE010E941528312F20E01D
:103F7000082F10E0022B132BD60151968D919C91A6
:103F80005297B8010E94A91700D000D000D0EDB719
:103F9000FEB7319681EB93E0ADB7BEB712969C9316
:103FA0008E93119786E591E0938382831583048332
:103FB00049C08130E1F4D60151968D919C91529780
:103FC00060E070E00E94A91700D000D081EB93E080
:103FD000EDB7FEB79283818381E491E0948383837C
:103FE0000E94D92B0F900F900F900F9035C0823008
:103FF00099F5CE010E941528182FD6015196ED9102
:10400000FC915297838781E090E0A0E0B0E0878345
:104010009087A187B287CF010E94871D00D000D072
:1040200000D0EDB7FEB7319681EB93E0ADB7BEB7E8
:1040300012969C938E93119782E291E093838283F0
:10404000148315820E94D92BEDB7FEB736960FB6B2
:10405000F894FEBF0FBEEDBFDF91CF911F910F917E
:10406000FF90DF90CF90089584ED91E00E94871D2E
:1040700008952F923F924F925F926F927F928F920C
:104080009F92AF92BF92CF92DF92EF92FF920F93E7
:104090001F93DF93CF93CDB7DEB7E0970FB6F894B9
:1040A000DEBF0FBECDBF3C012DB73EB73AA729A753
:1040B00065E1C62ED12CC80ED91EC6010E94152856
:1040C000982E31E0831739F086E0981621F097E0BA
:1040D000991609F0F2C2ADB7AFA7BEB7B8ABC6012B
:1040E0000E94152888A7C6010E9415288FA3C60123
:1040F0000E9415288EA3C6010E941528182F00E0E3
:10410000C6010E941528E82FF0E0E02BF12BFF8B71
:10411000EE8BC6010E941528E82EFF24C7010196E8
:104120002DB73EB7281B390B0FB6F8943EBF0FBE14
:104130002DBFADB6BEB60894A11CB11C00E010E0C6
:1041400009C0C6010E941528F501E00FF11F808308
:104150000F5F1F4F0E151F05A4F3EA0CFB1CD701C0
:104160001C92B1E09B1619F41DA21CA20CC0E7E042
:104170009E1629F422E030E03DA32CA304C081E088
:1041800090E09DA38CA3D3015396ED90FC9054979F
:10419000ADA6BEA628A42A94BFA1B150BBA3EEA190
:1041A000E23069F020E038E03C8F2B8F3CE03D8F1F
:1041B0008EE08E8F90E29F8FAFE7A8A30CC0E8E25D
:1041C000F2E0FC8FEB8FFBE1FD8F21E22E8F30E3DD
:1041D0003F8F8AE388A32E8D2695269526952F5FFF
:1041E0009D8D299F202D11242F5F3DA54EA5832F46
:1041F000942FDC0119A230E0EF8D4E2F552747FD9B
:10420000509516C0992787FD9095841B950B289F84
:10421000F001299FF00D389FF00D11248B8D9C8D9E
:10422000E80FF91FE491EF5F99A19E0F99A31196F2
:104230008C91882339F7ACA1BDA1119721F489A1F4
:104240008695281A06C0ECA1FDA1329711F4F9A1B8
:104250002F1A20E8221580F480E8382F3219232EF7
:10426000D70113961C92139715968C931597169653
:104270001C92169714968C93BBA1B13880F080E8FD
:10428000E82FEB1BEBA3D70113961C9213971596FF
:104290008C93159716961C92169714968C93EBA6F2
:1042A000FCA6B8A1BC83EF8DEB83FE8DFA832D8D28
:1042B00029838B8D9C8D9E838D83DE011796FE0155
:1042C000319686E001900D928150E1F798859A8FA2
:1042D0009E3039F08DA59EA59C013D8B2C8B2B8AA1
:1042E0002BC18DA59EA59C015901C22C57E0452EDE
:1042F000512C4C0E5D1E4FE7642E30E8332E762C89
:10430000ABA17A1A97C0BEE0B887DE011D96F20114
:1043100086E001900D928150E1F71E852F85922F46
:1043200023170CF4932FD12ED694D694D694D394ED
:104330008D85D89E802D11248F5F682F70E048896D
:10434000892F49170CF4842F992787FD90953327DF
:1043500027FD3095821B930BFC016E9FC0016F9F60
:10436000900D7E9F900D1124E989FA89E80FF91FBD
:1043700004914F010894811C911C662D6C19601BDF
:10438000432D4C198BA59CA50E943C1811951258E1
:10439000FBA11F1B8BA59CA5612F472D0E945318C5
:1043A0008BA59CA56CE50E940818D7018C9161E053
:1043B0000E94F82EF701818160E00E94F82E402FC4
:1043C00026C03150FB01E30FF11DE80DF91DE4910A
:1043D00028E0F0E02150CF01022E02C0959587958C
:1043E0000A94E2F780FD03C080E090E002C08E896D
:1043F0009F899EBD0DB407FEFDCF5EB58EBD0DB489
:1044000007FEFDCF8EB5222329F73323D1F6415085
:104410004F3F29F04D9DB00111243D2DF6CFD7011E
:1044200011968C9161E00E94F82E0F5FC00E0894E7
:10443000A11CB11CF5013081332309F064CF82C087
:10444000FA8DF887DE011D96FE01379686E0019011
:104450000D928150E1F72F85922F24170CF4942FA1
:104460009E8496949694969493948D85989E802D90
:1044700011248F5F682F70E04889892F49170CF449
:10448000842F992787FD9095332727FD3095821B30
:10449000930B9C01629FC001639F900D729F900DD2
:1044A0001124E989FA89E80FF91F3490892D90E0E9
:1044B000998F888F5F010894A11CB11C882431C09A
:1044C0009B89980D9AA36BA06501772423C0F60100
:1044D000849100E010E0482E5524C201002E02C055
:1044E000959587950A94E2F780FF09C0262D200F45
:1044F0008BA59CA56E897F894AA10E946A180F5FCF
:104500001F4F0830110549F77394F8E06F0E0894B7
:10451000C11CD11C7914D8F28394288D398DA20E38
:10452000B31E831468F233943B89330D3B8B8C8923
:104530009D8901969D8B8C8BAC89BD894C914423C0
:1045400009F07ECFF7018381281608F423822CA17D
:104550003DA1232B21F4D70113961C922224F701AD
:104560008681FBA1F81718F4D7011696FC93F9A1E0
:104570002F2F30E0220D311DD70115968C91159704
:1045800090E08217930724F48F2F820D15968C9359
:10459000BE8D2B2F30E0EBA12E0F311DD7011496CD
:1045A0008C9190E0821793072CF48E2FBE8D8B0F89
:1045B000F7018483D70115968C911597813850F0B7
:1045C00013961C92139780E815968C9315978FEF8E
:1045D00017968C93F7018481813828F0168280E841
:1045E00084838FEF8783D70117968C918A3028F5C3
:1045F00090E0F701E80FF91FB9A1B087228A2BA13B
:10460000248FFC01EE0FFF1FE80FF91FEE0FFF1FB5
:10461000EE0DFF1D38A131A78F8D80A79E8D97A32A
:10462000AD8DA6A32B8D3C8D33A722A7D70117965E
:104630008C9117978F5F17968C9300D000D000D085
:10464000EDB7FEB7319601EB13E0ADB7BEB71296EA
:104650001C930E9311978AE092E093838283BDA509
:10466000B4832EA525830E94D92B00D000D000D082
:10467000EDB7FEB73196ADB7BEB712961C930E9349
:1046800011978BEE91E093838283B8A5B483158252
:104690002FA1268317823EA1308711868E899F899C
:1046A000938782870E94D92B2FA538A9C9010FB6FD
:1046B000F8949EBF0FBE8DBF92C092E0991691F400
:1046C000D30153968D919C9154970E94FB1800D072
:1046D00000D081EB93E0EDB7FEB79283818384ED48
:1046E00091E015C0F4E09F16D9F4D30153968D9153
:1046F0009C9154976EEA0E94081800D000D081EB7C
:1047000093E0EDB7FEB7928381838FEB91E09483C2
:1047100083830E94D92B0F900F900F900F905FC052
:10472000F3E09F1699F4D30153968D919C91549781
:104730006FEA0E94081800D000D081EB93E0EDB73B
:10474000FEB79283818386EB91E0E1CFF8E09F167C
:1047500091F4D30153968D919C9154970E94B51B6F
:1047600000D000D081EB93E0EDB7FEB79283818358
:104770008BEA91E0CCCFF5E09F1689F500D000D010
:1047800081EB93E0ADB7BEB712969C938E931197D1
:1047900080E991E014969C938E9313970E94D92BF5
:1047A0000F900F900F900F90C6010E941528F82EC1
:1047B000C6010E941528082FC6010E941528182F2F
:1047C000C6010E941528712F60E090E0682B792BBC
:1047D000F301838994894F2D202F0E946A1829A5FF
:1047E0003AA50FB6F8943EBF0FBE2DBFE0960FB6A8
:1047F000F894DEBF0FBECDBFCF91DF911F910F9117
:10480000FF90EF90DF90CF90BF90AF909F908F90F0
:104810007F906F905F904F903F902F900895FF9200
:104820000F931F93CF93DF93EC018C010B5E1F4F0F
:10483000C8010E941528823009F46AC0833020F430
:10484000813009F07AC04EC08639B1F0873909F05D
:1048500074C000D000D081EB93E0EDB7FEB7928337
:10486000818389E091E0948383830E94D92B0F9008
:104870000F900F900F9061C000D000D001EB13E0BB
:10488000EDB7FEB7128301838FEE90E094838383AC
:104890000E94D92B2EE088E190E00FB6F894A895FD
:1048A000809360000FBE209360000F900F900F90D8
:1048B0000F90F02E012FCCE0D1E000D000D0EDB76A
:1048C000FEB7F1820283D483C3830E94312C0F9000
:1048D0000F900F900F9064EF71E080E090E00E94E5
:1048E000252EEBCF00D000D081EB93E0EDB7FEB7E3
:1048F0009283818386ED90E0948383830E94D92BF9
:104900000F900F900F900F90CE010E94651F15C061
:1049100000D000D081EB93E0EDB7FEB792838183A6
:104920008DEB90E0948383830E94D92B0F900F909E
:104930000F900F90CE010E943920C8010E941528C7
:10494000DF91CF911F910F91FF900895A8958091CD
:104950004D028823D1F00E94172E209149023091F8
:104960004A0240914B0250914C0228533F4F4F4F07
:104970005F4F621773078407950738F010924D0256
:104980008091480260E00E94F82E209157023091F9
:1049900058022115310511F100D000D000D0EDB73B
:1049A000FEB7319681EB93E0ADB7BEB712969C93FC
:1049B0008E9311978AE191E09383828335832483D8
:1049C0000E94492C1092580210925702EDB7FEB780
:1049D00036960FB6F894FEBF0FBEEDBF88E492E0A6
:1049E0000E940E1B8823D1F088E492E00E940F24DD
:1049F00000D000D081EB93E0ADB7BEB712969C9388
:104A00008E9311978DE291E014969C938E93139759
:104A10000E94192C0F900F900F900F9008950F93F4
:104A20001F938C0187E393E0D80116966C910E9446
:104A30003A2900D000D000D0EDB7FEB7319681EB17
:104A400093E0ADB7BEB712969C938E93119788EE04
:104A500094E293838283D80116968C918483158285
:104A60000E94D92BEDB7FEB736960FB6F894FEBF6D
:104A70000FBEEDBF1F910F910895CF92DF92EF927D
:104A8000FF920F931F9314BE88E10FB6F8948093A2
:104A90006000109260000FBE29E288E190E00FB63E
:104AA000F894A895809360000FBE2093600080E585
:104AB00094E040E855E260E070E00E942D30E1EBC8
:104AC000CE2EE3E0DE2EC60163E070E00E94262BCE
:104AD000C6016CE277E10E942C2B00D000D0EDB72C
:104AE000FEB7D282C18280E591E0948383830E94E5
:104AF000192CEDB7FEB7D282C18281E591E0948393
:104B000083830E94192C0F900F900F900F9084EDCB
:104B100091E060E070E00E94A9178091E00160E000
:104B20000E94F82E08EE12E0C80148EE53E060E063
:104B300070E00E94AE27C80164E370E22FEF3FEF00
:104B40004FEF5FEF0E94B627C8010E94D5270E9451
:104B5000772C8CE00E94612C84E00E94662C80916E
:104B6000E80161E00E94F82E64EF71E080E090E0DF
:104B70000E94252E8091E80160E00E94F82E64EFEB
:104B800071E080E090E00E94252E8091E80161E0D4
:104B90000E94F82E64EF71E080E090E00E94252EE4
:104BA00076EEE72E71E0F72EC7010E945219C70179
:104BB0006EEA0E940818C7010E94FB18C7016FEA3D
:104BC0000E94081807E313E0C80169EF76E20E942B
:104BD000B228C8016FEB76E20E94AD2888E492E02B
:104BE0000E940F2583E064E976E241E050E00E94F4
:104BF000E81582E069E676E241E050E00E94E815BF
:104C0000C7010E94B51B00D000D0EDB7FEB7D2821D
:104C1000C18289E691E0948383830E94192C0F90CE
:104C20000F900F900F901F910F91FF90EF90DF90DA
:104C3000CF900895EF92FF920F931F93CF93DF933E
:104C4000EC010E94172E688379838A839B836D858C
:104C50007E8580E090E00E94252E0E94172E8F8591
:104C60000E944C2F882361F588859985892B51F501
:104C70000E94172E6C837D838E839F8381E090E05A
:104C80001CC088859985892BE9F00E94172EEC803D
:104C9000FD800E811F812B853C8540E050E02E0D6C
:104CA0003F1D401F511F621773078407950718F4B3
:104CB00082E090E002C083E090E09987888702C09C
:104CC0008130F9F2DF91CF911F910F91FF90EF901A
:104CD000089585E792E00E941A2680917D029091C6
:104CE0007E02029769F410927E0210927D028091FA
:104CF000500284608093500288E492E00E94F91A86
:104D000080917D0290917E02039769F410927E0259
:104D100010927D028091500288608093500288E456
:104D200092E00E94F91A089585E692E00E941A2600
:104D300080916D0290916E02029769F410926E025A
:104D400010926D028091500281608093500288E43D
:104D500092E00E94F91A80916D0290916E02039781
:104D600069F410926E0210926D028091500282607E
:104D70008093500288E492E00E94F91A0895EF921D
:104D8000FF920F931F93CF93DF93182F87E393E046
:104D90000E94552880934F02C1E0D0E0012F10E01F
:104DA000F1E0EF2EF12C10C087E393E00E9455282C
:104DB000682F8DE592E00E94F127892B21F4F09273
:104DC0005802E09257022196C017D1076CF38DE587
:104DD00092E00E94DC27892B29F0809150028061AB
:104DE00080935002DF91CF911F910F91FF90EF9030
:104DF000089580E594E060E871E00E94263287E340
:104E000093E0609150020E94FF2880914F0280330E
:104E100011F41092500208951F920F920FB60F9244
:104E200011242F933F934F935F936F937F938F93AF
:104E30009F93AF93BF93EF93FF93E091EC02F091B8
:104E4000ED020995FF91EF91BF91AF919F918F91E5
:104E50007F916F915F914F913F912F910F900FBE76
:104E60000F901F901895CF93DF93EC01CB01BA01FF
:104E700020EA3FE040E050E00E9439329B01AC0163
:104E8000203080E0380781E0480780E0580714F4BC
:104E900081E010C073E055954795379527957A9531
:104EA000D1F7203080E0380781E0480780E05807DC
:104EB0001CF482E08A8339C063E0559547953795A5
:104EC00027956A95D1F7203080E0380781E04807C0
:104ED00080E0580714F483E0EDCF92E055954795B4
:104EE000379527959A95D1F7203080E0380781E0F3
:104EF000480780E0580714F484E0DCCF82E0559541
:104F00004795379527958A95D1F7203080E0380767
:104F100081E0480780E0580714F485E0CBCF85E0B6
:104F20008A832FEF3FEF40E050E08FB78B83F894F8
:104F30003983288330938700209386008B818FBF2D
:104F400080918100887F80938100809181009A8187
:104F5000892B80938100DF91CF910895109280007A
:104F600020E1209381000E94332708950F931F931F
:104F7000CF93DF93EC018B0112161306140615066E
:104F800024F4BA01A9010E9433271D830C8381E018
:104F900080936F00809181009A81892B809381009A
:104FA000DF91CF911F910F910895E1E8F0E08081AA
:104FB000887F808308950895FC01868197810895F4
:104FC000FC01CB012481358162817381820F931FA3
:104FD0000E9458320190F081E02DE80FF91F808186
:104FE0000895CF93DF93EC01462F2E813F816A8194
:104FF0007B812617370718F020E030E012C08C8143
:105000009D81820F931F0E945832E881F981E80F39
:10501000F91F40838E819F8101969F838E8321E0BB
:1050200030E0C901DF91CF910895CF93DF93EC0178
:105030002E813F812115310511F4E0E012C08C81F1
:105040009D81E881F981E80FF91FE0816A817B8108
:1050500001960E9458329D838C83215030403F83BB
:105060002E838E2FDF91CF910895EF92FF920F93B1
:105070001F938C017B01CB010E948E2CF801808351
:105080009183F382E28215821482178216821F9125
:105090000F91FF90EF90089520910F0330E08091E1
:1050A0000E03281B3109C901089540910E03809118
:1050B0000F03481718F02FEF3FEF0AC0E42FF0E07E
:1050C000E251FD4F8081282F30E04F5F40930E0367
:1050D000C9010895E0910E0380910F03E81718F0BD
:1050E000EFEFFFEF06C0F0E0E251FD4F8081E82FC7
:1050F000F0E0CF0108950895AC012091350330917F
:10510000360321153105E1F090910E0380910F03D4
:105110009817B0F090E008C0FA01EA0FFB1F8081F9
:10512000A251BD4F8C939F5FA92FB0E0A617B70780
:105130009CF310920E0360930F03CB01F9010995C4
:105140000895E0913303F0913403309729F01092E1
:1051500030031092310309950895709336036093DC
:1051600035030895709334036093330308951092C8
:105170003A031092390388EE93E0A0E0B0E0809308
:105180003B0390933C03A0933D03B0933E0388EB15
:1051900091E090933803809337030895CF92DF9284
:1051A000EF92FF920F931F93CF93DF937C016B01DC
:1051B0008A01809132038823A1F0C0E0D0E00DC0C5
:1051C000D701ED91FC91D601AC0FBD1F0190F0818C
:1051D000E02DC7016C9109952196C017D10780F386
:1051E00004C0CB01642F0E945229C801DF91CF91E6
:1051F0001F910F91FF90EF90DF90CF900895DF9374
:10520000CF930F92CDB7DEB7FC0169838091320353
:105210008823C9F080913103803238F081E090E03A
:105220009383828320E030E015C080913003E82F23
:10523000F0E0E05FFC4F998190838F5F80933003B3
:105240008093310305C0CE01019661E00E9452298E
:1052500021E030E0C9010F90CF91DF9108951092C5
:105260000E0310920F0310923003109231030E942C
:10527000082B08950F931F938C01862F0E944E29AF
:1052800081EA98E20E9472298CE798E20E946D29D7
:10529000C8010E942F291F910F910895880F8093B4
:1052A000BA000895482F613210F081E0089580918E
:1052B0004303843011F082E0089560938E03ADE6DD
:1052C000B3E0842F9C01F90102C081918D938E2F50
:1052D000841B8617D0F380E0089590934A0380934F
:1052E00049030895909348038093470308951F92BC
:1052F0000F920FB60F9211242F933F934F935F930A
:105300006F937F938F939F93AF93BF93EF93FF938D
:105310008091B90090E0887F90708036910509F403
:10532000F2C081369105CCF58832910509F47BC035
:1053300089329105B4F48031910509F46FC081314F
:1053400091053CF4009709F447C1089709F04FC153
:1053500065C08831910509F466C0809709F047C19E
:1053600082C08034910509F4A4C08134910544F4CD
:105370008033910509F482C0C89709F038C189C00B
:105380008035910509F489C08835910509F496C0E6
:105390008834910509F02BC1AEC08839910509F414
:1053A00013C189399105ECF48837910509F4ABC034
:1053B000893791054CF48836910509F4A4C08037EB
:1053C000910509F014C19FC08838910509F4FCC00B
:1053D0008039910509F49DC08038910509F007C115
:1053E00098C0803B910509F4C6C0813B91054CF4FF
:1053F000803A910509F49FC0883A910509F0F7C0F9
:10540000BAC0803C910509F4E3C0883C910509F4D9
:10541000DFC0883B910509F0EAC0C2C08091440317
:105420008093BB00CFC090916B0380916C03981761
:1054300068F490916B03E92FF0E0E55BFC4F80810D
:105440008093BB009F5F90936B03BCC0809145032A
:10545000882309F44BC085ED8093BC008091BC008B
:1054600084FDFCCFC2C080E28093B00385ED8093C1
:10547000BC008091BC0084FDFCCFB7C080E380936A
:10548000B00385ED8093BC008091BC0084FDFCCF0F
:10549000ACC088E38093B0039BC080916B03909174
:1054A000BB00E82FF0E0E55BFC4F90838F5F8093BB
:1054B0006B0390916B0380916C0382C080916B03AE
:1054C0009091BB00E82FF0E0E55BFC4F90838F5F8D
:1054D00080936B0380914503882341F085ED809391
:1054E000BC008091BC0084FDFCCF7FC081E0809334
:1054F000460384EA6EC085ED8093BC008091BC00B9
:1055000084FDFCCF72C083E0809343031092AF030D
:1055100059C08091AF03803208F056C08091AF032C
:105520009091BB00E82FF0E0E157FC4F90838F5F34
:105530008093AF0347C08091AF03803230F4E09195
:10554000AF03F0E0E157FC4F108285ED8093BC0083
:105550008091BC0084FDFCCF109243036091AF03A7
:10556000E0914903F0914A038FE893E070E00995D8
:105570001092AF032DC084E08093430310928D03FB
:1055800010928E03E0914703F091480309958091B2
:105590008E03882329F481E080938E0310926D039B
:1055A00090918D03E92FF0E0E359FC4F80818093C7
:1055B000BB009F5F90938D0390918D0380918E032C
:1055C000981710F485EC01C085E88093BC000FC0EB
:1055D00085EC8093BC0009C01092B00385ED8093E8
:1055E000BC008091BC0084FDFCCF10924303FF916E
:1055F000EF91BF91AF919F918F917F916F915F914B
:105600004F913F912F910F900FBE0F901F901895C3
:105610001092430381E0809345031092460382E198
:1056200061E00E94F82E83E161E00E94F82EE9EB30
:10563000F0E080818E7F808380818D7F808380E217
:105640008093B80085E48093BC000895FC017183C9
:105650006083138212820895DC0112968D919C91D1
:1056600013970296FC01EE0FFF1FEA0FFB1F7183D9
:105670006083019713969C938E931297059721F45C
:1056800013961C921E921297089583E090E09093D7
:10569000B2038093B10308958F929F92AF92BF920D
:1056A000CF92DF92EF92FF920F931F93DF93CF93EE
:1056B000CDB7DEB7C259D1400FB6F894DEBF0FBEEA
:1056C000CDBF5C017B01DA01FE01EF56FE4F518335
:1056D000408349018E010F5F1F4FC80168EC70E0E5
:1056E000A7019D010E9441138DB79EB708970FB681
:1056F000F8949EBF0FBE8DBFEDB7FEB7319639EC63
:10570000C32ED12CCC0EDD1EADB7BEB71296DC92E7
:10571000CE92119788EC90E09383828380E991E0A8
:1057200095838483178306830E941013EDB7FEB719
:1057300038960FB6F894FEBF0FBEEDBFD501129696
:105740008D919C911397892B21F0750100E010E059
:1057500010C080E594E0B6010E94263216C0D70141
:105760001296ED91FC911397C601B40109950F5F54
:105770001F4FE2E0F0E0EE0EFF1ED50112968D9174
:105780009C9113970817190754F3CE56DE4F0FB6A6
:10579000F894DEBF0FBECDBFCF91DF911F910F9167
:1057A000FF90EF90DF90CF90BF90AF909F908F9041
:1057B0000895EF92FF920F931F93DF93CF93CDB78E
:1057C000DEB7C85CD0400FB6F894DEBF0FBECDBFC9
:1057D000CF52DF4FE880F980C15DD040F701808172
:1057E00091810397C4F08E010F5F1F4FC801CD5206
:1057F000DF4F68817981C35DD04048EC50E00E9462
:10580000FA129E012B523F4FC701B801A90123E0B4
:1058100030E00E944C2BC853DF4F0FB6F894DEBF28
:105820000FBECDBFCF91DF911F910F91FF90EF90F1
:105830000895DF93CF93CDB7DEB7ED81FE818081F0
:10584000918103975CF09E01275F3F4FCF016F81ED
:105850007885A90123E030E00E944C2BCF91DF91A5
:105860000895DF93CF93CDB7DEB7ED81FE818081C0
:10587000918102975CF09E01275F3F4FCF016F81BE
:105880007885A90122E030E00E944C2BCF91DF9176
:105890000895DF93CF93CDB7DEB7ED81FE81808190
:1058A000918197FD0BC09E01275F3F4FCF016F8114
:1058B0007885A90120E030E00E944C2BCF91DF9148
:1058C00008959CB5937F982B9CBD08952CB5382FD7
:1058D00033702C7F322B3CBD2DB590E0959587958C
:1058E0009595879581702E7F822B8DBD08958AE0D6
:1058F00061E00E94F82E8AE061E00E94B92E8CB52A
:1059000080618CBD8CB580648CBD8DE061E00E94AF
:10591000B92E8BE061E00E94B92E08950F931F937A
:10592000CF93DF93BC018230910510F462E070E008
:10593000E0917404F0917504A0E0B0E040E050E024
:1059400024C08081918186179707D0F0861797072A
:1059500071F482819381109729F013969C938E9312
:1059600012972CC0909375048093740427C041153E
:10597000510519F08417950718F4EF018D01AC015A
:10598000DF01828193819C01F9013097D1F64115A5
:105990005105F9F0CA01861B970B8430910580F4FC
:1059A0008A819B810115110521F0F801938382837F
:1059B00004C09093750480937404FE01329645C030
:1059C000FE01E80FF91F6193719302979983888311
:1059D0003CC08091720490917304892B41F48091B2
:1059E000B0019091B101909373048093720440913F
:1059F000B2015091B3014115510541F44DB75EB765
:105A00008091AE019091AF01481B590B2091720417
:105A10003091730424173507B0F4CA01821B930B2D
:105A20008617970780F0AB014E5F5F4F841795078D
:105A300050F0420F531F5093730440937204F901C6
:105A40006193719302C0E0E0F0E0CF01DF91CF916C
:105A50001F910F910895CF93DF939C01009709F454
:105A60008FC0EC0122971B821A826091740470919E
:105A700075046115710581F488819981820F931FE6
:105A800020917204309173042817390739F5D093A7
:105A90007304C093720474C0DB0140E050E0AC17A3
:105AA000BD0708F1BB83AA83FE0121913191E20F6A
:105AB000F31FAE17BF0779F48D919C911197280FB2
:105AC000391F2E5F3F4F3983288312968D919C9109
:105AD00013979B838A834115510571F4D093750404
