:100000000C94E2010C940A020C940A020C940A0269
:100010000C940A020C946A1B0C940A020C94130AA6
:100020000C940A020C940A020C940A020C943F09E4
:100030000C940A020C940A020C9422070C940A02F3
:100040000C940A020C940A020C940C020C943A02CE
:100050000C940A020C940A020C940A020C940A02F0
:100060000C945B050C940A02D04AFF1B3B1C441CF9
:10007000681C941CBE1CF61C201D441D681D941D8C
:10008000C01D3A1E701EAC1EDE1E041F2E1F7C1FDC
:10009000A81FD61FFA1F0F1C151C151C151C151C9C
:1000A000151C6120151C151C151C901C6120271C9B
:1000B0006120612048200B1C0620501C561C561C39
:1000C000561C561C561C6120561C561C561C612082
:1000D00061206120021F8E1D4820781C7E1C7E1C22
:1000E0007E1C7E1C7E1C61207E1C7E1C7E1C901C47
:1000F0006120921C612061204820741C0620A01CF5
:10010000A61CA61CA61CA61CA61C6120A61CA61C20
:10011000A61C6120B81CBA1C612061204820CA1CA2
:10012000D01CD01CD01CD01CD01C6120D01CD01CDA
:10013000D01C6120E21C6120612061204820061D46
:100140000C1D0C1D0C1D0C1D0C1D61200C1D0C1D0F
:100150000C1D612061201E1D612061204820021DB0
:100160002C1D321D321D321D321D321D6120321DEB
:10017000321D321D612061206120E21C8E1D48204D
:10018000501D561D561D561D561D561D6120561DCF
:10019000561D561D6120741D61206120612048207C
:1001A000761D7C1D7C1D7C1D7C1D7C1D61207C1DA5
:1001B0007C1D7C1D612061206120741D8E1D4820E6
:1001C000A41DAA1DAA1DAA1DAA1DAA1D6120AA1D43
:1001D000AA1DAA1D6120BC1D6120A01DD41F48209E
:1001E000CB1DD11DE31D291E031EF11D6120161E0E
:1001F000661EDF1D61206120612061206120482092
:10020000461E4C1E4C1E4C1E4C1E641E6120161EAB
:10021000661E611E612061206120612061204820EE
:10022000801E861E861E861E861E861E6120861ED7
:10023000861E861E6120981E61207C1ED41F4820C9
:10024000B81EBE1EBE1EBE1EBE1EBE1E6120BE1E2F
:10025000BE1ED01E612061206120612061204820E7
:10026000EA1EF01EF01EF01EF01EF01E6120F01EB1
:10027000F01EF01E6120021F6120612061204820D5
:10028000101F161F161F161F161F161F6120161F80
:10029000161F161F6120281F612061206120482041
:1002A0008C1F921F921F921F921F921F6120921FFC
:1002B000921F921F6120A41F6120881FD41F482015
:1002C000B81FBE1FBE1FBE1FBE1FBE1F6120BE1FA8
:1002D000BE1FBE1F6120D01F6120B41FD41F482045
:1002E000E21FE81FE81FE81FE81FE81F6120E81F62
:1002F000E81FE81F6120062061206120612048205E
:100300001B202120212021202120212061202120AB
:1003100021202120612061206120062032204820F8
:1003200007634236B79BD8A71A39685618AEBAABDE
:10033000558C1D3CB7CC5763BD6DEDFD753EF61772
:100340007231BF000000803F08000000BE922449C7
:10035000123EABAAAA2ABECDCCCC4C3E00000080F7
:10036000BEABAAAAAA3E00000000BF000000803F6A
:100370000000000000084178D3BB4387D1133D192A
:100380000E3CC3BD4282AD2B3E68EC8276BED98F57
:10039000E1A93E4C80EFFFBE01C4FF7F3F0000009B
:1003A00000000000B4030000AE030000B103030628
:1003B00004030503080B02100E0F0807851B7120AC
:1003C000931B752011241FBECFEFD8E0DEBFCDBF39
:1003D00011E0A0E0B1E0EEECFAE402C005900D926D
:1003E000A230B107D9F725E0A2E0B1E001C01D922B
:1003F000A13EB207E1F713E0C0ECD3E004C02297BE
:10040000FE010E947B20CC3BD107C9F70E94371A1E
:100410000C945A250C9400001F920F920FB60F9265
:1004200011242F938F939F93EF93FF938091C0009C
:100430009091C6008871E0910401EF5FEF71209107
:100440000301E21739F0E0930401F0E0E95FFE4FA9
:10045000908301C082E090910201982B9093020159
:10046000FF91EF919F918F912F910F900FBE0F9061
:100470001F9018951F920F920FB60F9211248F9311
:100480009F93EF93FF939091060180910501981738
:1004900069F0E0910501EF5FEF71E0930501F0E095
:1004A000E95DFE4F80818093C60005C08091C10048
:1004B0008F7D8093C100FF91EF919F918F910F905D
:1004C0000FBE0F901F9018954F925F926F927F9280
:1004D0008F929F92AF92BF92CF92DF92EF92FF9254
:1004E0000F931F93CF93DF934B01D82FC92F29016F
:1004F0003A019B01482F592FB201C3010E94C62126
:1005000087FF03C04201D62DC72D94014D2F5C2FCC
:10051000B701C8010E94C62187FF03C04701D02F41
:10052000C12F94014D2F5C2FB501C6010E94C62139
:1005300087FF03C04501DC2DCD2DB4018D2F9C2FED
:10054000DF91CF911F910F91FF90EF90DF90CF90AF
:10055000BF90AF909F908F907F906F905F904F90E3
:10056000089528E0FB01DC0101900D922A95E1F746
:100570000895FB0120813181FC013183208308959E
:10058000FC0110821182128213821482158216825B
:100590001782108611861286138614861586168693
:1005A0001786108A08950895CF93DF93EC011416EF
:1005B00015061606170684F4CB01BA010E946022C4
:1005C00020E030E04AE754E40E94CA21688379833E
:1005D0008A839B8380E001C086E0DF91CF910895FC
:1005E000CF93DF93EC01141615061606170654F484
:1005F000CB01BA010E9460226C837D838E839F832E
:1006000080E001C085E0DF91CF910895CF93DF9323
:10061000EC01141615061606170684F4CB01BA0170
:100620000E94602220E034E244E759E40E9454230F
:10063000688779878A879B8780E001C082E0DF91A5
:10064000CF910895CF93DF93EC011416150616068B
:10065000170654F4CB01BA010E9460226C877D8793
:100660008E879F8780E001C083E0DF91CF9108955E
:100670002FEF260F263050F4622F21E001C0220F09
:100680006A95EAF7FC01208B80E0089584E00895E4
:10069000CF92DF92EF92FF92CF93DF93EC01288904
:1006A00088E691E0289FB001299F700D11248827CA
:1006B00077FD8095982F0E9460226B017C012C8130
:1006C0003D814E815F81688179818A819B810E9411
:1006D00054239B01AC01C701B6010E94CA21DF91DE
:1006E000CF91FF90EF90DF90CF900895FC0160854F
:1006F0007185828593850895FC016485758586855D
:1007000097850895CF93DF93EC0120E030E0A901B5
:10071000688579858A859B850E94C621882331F169
:1007200020E030E0A9016C857D858E859F850E9443
:10073000C6218823E9F088898823E1F020E030E0B1
:10074000A9016C817D818E819F810E94C6218823B1
:1007500099F020E030E0A901688179818A819B814C
:100760000E94C62181110AC086E009C082E007C04C
:1007700083E005C084E003C085E001C080E0DF9134
:10078000CF910895FC01108211821282138214828B
:10079000158208950895FC0160830895FC0180810D
:1007A0000895FC0161830895FC0181810895FB0196
:1007B0002181428150E060E070E0BA015527442772
:1007C000522B2081422B2381722BFC0142835383C5
:1007D000648375830895FC016281738184819581AE
:1007E0000895FC01E058FF4F108231961082319637
:1007F00026E020833196108208950895FC01EF577A
:10080000FF4F2081DC01A20FB11D8C91208130E0CF
:100810002F5F3F4F2F77332720830895CF92DF92AA
:10082000EF92FF920F931F93CF93DF9300D000D0EE
:10083000CDB7DEB78C017B016C0183E8C80ED11CFB
:10084000F6018081882341F1C8010E94FE03682FD0
:10085000C7010E94CB03C8010E94FE03682FC70195
:100860000E94D103C8010E94FE038983C8010E942F
:10087000FE038A83C8010E94FE038B83C8010E9485
:10088000FE038C83BE016F5F7F4FC7010E94D703B9
:10089000F6018081815080830F900F900F900F9010
:1008A000DF91CF911F910F91FF90EF90DF90CF904C
:1008B00008959FE5980F9530B8F4823A89F0843A0C
:1008C00089F0E82FF0E0EE0FFF1FEE59FD4F859104
:1008D0009491662349F0FC012491621738F004C01A
:1008E0008AE0089589E0089580E00895FC01E60F0C
:1008F000F11D84910895FC011082118208950895DC
:100900000F931F93CF93DF9300D000D01F92CDB7EA
:10091000DEB709831A832B833C834D83FC0140811E
:1009200050E09A012F5F3F4F2F703327718172176C
:10093000C1F0E40FF51FEE5AFF4F608335E0349F9E
:10094000D001359FB00D1124A80FB91F1296FE01DA
:10095000319601900D923A95E1F7FC01208380E0F9
:1009600001C08AE00F900F900F900F900F90DF91D1
:10097000CF911F910F910895CF93DF93EC0199814F
:1009800088818917D9F085E0FE01899FE00DF11D6E
:1009900011243296DA0101900D928A95E1F789814E
:1009A000FE01E80FF11DEE5AFF4F8081FB018083AD
:1009B000898190E001968F7099278983DF91CF918B
:1009C0000895FC01108211820895FC0181E02081CC
:1009D0009181291380E00895CF93DF93DC01AD5717
:1009E000BF4F3C91209100013217D1F0FC01E0583B
:1009F000FF4F208130E02F5F3F4F2F77332730812B
:100A0000EC01C30FD11D6883208332968081815011
:100A10008083811105C08C918F5F8C9386E08083E9
:100A2000DF91CF9108951F93CF93DF93EC01162FA1
:100A3000603331F4FC01EE57FF4F8081863039F18D
:100A40008FEF810F8730E0F4FE01EE57FF4F80817A
:100A50008630B1F461EACE010E94EC04612FCE0130
:100A60000E94EC0460E0CE010E94EC0460E0CE0144
:100A70000E94EC0460E0CE010E94EC0460E001C042
:100A8000612FCE01DF91CF911F910C94EC04DF9187
:100A9000CF911F9108959093480180934701ECEB0B
:100AA000F0E080818460808380818164808380E243
:100AB0008093BA0008951F920F920FB60F921124DF
:100AC0002F933F934F935F936F937F938F939F9356
:100AD000AF93BF93EF93FF938091B900887F8039E4
:100AE00039F1A8F4803709F43FC050F48036E1F1C1
:100AF0008836D1F181113DC08091BC00856D37C031
:100B00008038B1F0883801F1883799F52DC0803BE5
:100B1000F9F038F4803A41F1883AD1F0883949F552
:100B200013C0803C09F1883CF9F0883B11F510C0F6
:100B30006091BB008BEC94E00E94130590914E05F0
:100B400080910001981310C08091BC0085680FC08F
:100B5000E0914701F091480181A58093BB0080910D
:100B6000BC0085688093BC008091BC00856C80933C
:100B7000BC00FF91EF91BF91AF919F918F917F91B9
:100B80006F915F914F913F912F910F900FBE0F90FA
:100B90001F901895CF93DF93EC01509A589A549870
:100BA00052985C9A5A9AE8E6F0E0808184608083EB
:100BB000EDE6F0E080818F7E808380818B7F808373
:100BC000CE010E948507CE010E94DC15DF91CF91F6
:100BD0000C943E1958982FE788E391E0215080400B
:100BE0009040E1F700C00000589A0895FF920F93DB
:100BF0001F93CF93DF9300D000D000D0CDB7DEB7E6
:100C0000F82ECA01762F432F582F692F233011F168
:100C100048F42130C9F0223009F03FC0C8010E94D9
:100C2000F00215C0243059F12530B9F5C8012696D7
:100C30000FB6F894DEBF0FBECDBFDF91CF911F91ED
:100C40000F91FF900C942203C8010E94D4028111DD
:100C500025C00BC0632FC8013E830E9438034E811C
:100C600081111CC0842F0E946207C8010E944803A2
:100C7000AB01BC018F2D0E94F31580E00FC0C801AD
:100C800026960FB6F894DEBF0FBECDBFDF91CF9191
:100C90001F910F91FF900C94060387E026960FB6E4
:100CA000F894DEBF0FBECDBFDF91CF911F910F91A2
:100CB000FF9008950C9419190C9420198F929F920B
:100CC000AF92BF92CF92DF92EF92FF920F931F935A
:100CD000CF93DF93CDB7DEB72A970FB6F894DEBF78
:100CE0000FBECDBF082F6A017B014901C9010E94D7
:100CF0008203811168C01092490110924A0110923A
:100D00004B0110924C0110924D0110924E01109225
:100D10004F011092500140E050E0BA010E94E815E6
:100D200040E050E0BA0181E00E94E815CE01019652
:100D30005C0188E0F50111928A95E9F710E0C7019E
:100D4000B6010E9460226B017C01000F111F000F91
:100D5000111F0A0D1B1DF801C082D182E282F382AD
:100D600020E030E0A90169817A818B819C810E9419
:100D7000C621881F8827881F898720E030E0A901C5
:100D80006D817E818F8198850E94C621881F88276A
:100D9000881F8A87E894F7F8F801C082D182E2823E
:100DA000F382C4010E9476036B017C01C4010E949E
:100DB0007C039B01AC0187017601BE01675F7F4F19
:100DC000C5010E94FE152A960FB6F894DEBF0FBE2D
:100DD000CDBFDF91CF911F910F91FF90EF90DF90EA
:100DE000CF90BF90AF909F908F9008954C9B0DC077
:100DF00020916D00206120936D009A012F5F3F4F7D
:100E0000AB01BC0180E00C945E0681E0FA0180A792
:100E100080E008954A9B0DC020916D0024602093CE
:100E20006D009A012E5E3F4FAB01BC0181E00C9436
:100E30005E0681E0FA0180A780E008950E943E19D5
:100E40000C9431191F920F920FB60F9211242F9309
:100E50003F934F935F936F937F938F939F93AF9342
:100E6000BF93EF93FF9385B58E7F85BD809155012C
:100E70008130B9F40E94031A833099F01092550121
:100E800080916D0190916E01A0916F01B091700100
:100E9000892B8A2B8B2B29F48091B1008160809360
:100EA000B100FF91EF91BF91AF919F918F917F9191
:100EB0006F915F914F913F912F910F900FBE0F90C7
:100EC0001F901895833089F028F4813049F08230E2
:100ED00049F00895853079F050F0863071F008952A
:100EE0002C9801C02C9A2B9804C02C9801C02C9AE5
:100EF0002B9A2D9808952C9801C02C9A2B982D9AF6
:100F0000089541980895419A0895909352018093CD
:100F100051011092800088E08093810022E02093AC
:100F20006F0088EC90E09093890080938800209374
:100F3000B0001092B1002093700083E68093B3005C
:100F400024BD15BC20936E0087BD389A399A3A9A11
:100F5000249A239A259A229A519A569A579A409AF5
:100F60004298429A0E9483078AE1EDE6F1E0DF01B0
:100F7000982F1D929A95E9F7E3E5F1E0DF011D92C4
:100F80008A95E9F781E0809355010895AF92BF9269
:100F9000CF92DF92EF92FF920F931F93CF938C012A
:100FA0005B0169017A01C0915501C13009F097C018
:100FB000842F880F852F881F8F3F09F492C02CEA59
:100FC00035EC47E257E3C701B6010E94C62187FD11
:100FD0008AC010925601F50180818093670120E05C
:100FE00030E543EC57E4F80160817181828193819F
:100FF0000E9454239F770E94322260936301709372
:1010000064018093650190936601F501818180936D
:101010006C0120E030E543EC57E4F8016481758110
:10102000868197810E9454239F770E943222609389
:1010300068017093690180936A0190936B0120E0CD
:1010400034E244E759E4C701B6010E94CA2120E016
:1010500030E44CE157E40E9454230E9432226B0199
:101060007C0160935B0170935C0180935D019093C0
:101070005E010E945E2220E030E543EC57E40E94CE
:1010800054230E94322260935F0170936001809329
:10109000610190936201B701A601440F551F661FBD
:1010A000771F8091570190915801A0915901B091FB
:1010B0005A01481759076A077B0710F4C093560175
:1010C000C0925701D0925801E0925901F0925A0112
:1010D00081E0809353018093540180E005C084E156
:1010E00003C08CE301C08DE3CF911F910F91FF905E
:1010F000EF90DF90CF90BF90AF9008951092530182
:1011000081E080935401089580915501813019F454
:1011100085B5816085BD089580916D0190916E01C6
:10112000A0916F01B0917001892B8A2B8B2B09F054
:10113000A5C080915501882339F0E0915101F091CB
:10114000520181E083A3089580915301813009F019
:101150008EC040915B0150915C0160915D01709186
:101160005E0140936D0150936E0160936F01709327
:10117000700180915F0190916001A0916101B09137
:1011800062018093710190937201A0937301B093F7
:1011900074018091630190916401A0916501B09107
:1011A00066018093750190937601A0937701B093C7
:1011B000780120915601213079F470956095509511
:1011C00041955F4F6F4F7F4F4093790150937A0164
:1011D00060937B0170937C01892B8A2B8B2B39F0D8
:1011E00080916701811102C0599801C0599A80917C
:1011F000680190916901A0916A01B0916B0180939F
:101200007E0190937F01A0938001B0938101209192
:1012100056012130B9F440916D0150916E016091F9
:101220006F017091700170956095509541955F4F79
:101230006F4F7F4F409382015093830160938401ED
:1012400070938501892B8A2B8B2B39F080916C014F
:10125000811102C05F9801C05F9AB19A1092850017
:10126000109284008091810081608093810081E0F0
:1012700080935501109254010C94840808951F9294
:101280000F920FB60F9211242F933F934F935F93BA
:101290006F937F938F939F93AF93BF93EF93FF933E
:1012A0008091790190917A01A0917B01B0917C01AC
:1012B00040917501509176016091770170917801AC
:1012C000840F951FA61FB71F8093790190937A0111
:1012D000A0937B01B0937C01181619061A061B0611
:1012E0004CF52A9A409171015091720160917301FD
:1012F00070917401841B950BA60BB70B8093790139
:1013000090937A01A0937B01B0937C012A988091FD
:10131000490190914A01A0914B01B0914C01019675
:10132000A11DB11D8093490190934A01A0934B01E7
:10133000B0934C018091820190918301A09184012E
:10134000B091850140917E0150917F0160918001B3
:1013500070918101840F951FA61FB71F8093820192
:1013600090938301A0938401B09385011816190608
:101370001A061B064CF55E9A40917101509172015C
:101380006091730170917401841B950BA60BB70BD0
:101390008093820190938301A0938401B09385018F
:1013A0005E9880914D0190914E01A0914F01B091B6
:1013B00050010196A11DB11D80934D0190934E01E6
:1013C000A0934F01B093500180916D0190916E01F7
:1013D000A0916F01B09170010197A109B1098093AB
:1013E0006D0190936E01A0936F01B0937001892BF2
:1013F0008A2B8B2B39F4809181008E7F8093810022
:101400000E948C08FF91EF91BF91AF919F918F91B6
:101410007F916F915F914F913F912F910F900FBEF0
:101420000F901F9018951F920F920FB60F921124D4
:101430002F933F934F935F936F937F938F939F93DC
:10144000AF93BF93EF93FF93E1EBF0E080818E7F4A
:1014500080830E948C08FF91EF91BF91AF919F9183
:101460008F917F916F915F914F913F912F910F904D
:101470000FBE0F901F9018954F925F926F927F92C0
:101480008F929F92AF92BF92CF92DF92EF92FF9294
:101490006B017C0129013A012091D9013091DA01D7
:1014A0004091DB015091DC0160E070E080E89FE357
:1014B0000E94CA210E9445244B015C01A7019601AC
:1014C000C301B2010E947F20A50194010E94542310
:1014D0006093ED017093EE018093EF019093F00122
:1014E0009B01AC010E9480206093F1017093F20196
:1014F0008093F3019093F401C092E901D092EA0144
:10150000E092EB01F092EC01FF90EF90DF90CF9032
:10151000BF90AF909F908F907F906F905F904F9013
:101520000895CF92DF92EF92FF92CF93DF93CDB7E2
:10153000DEB728970FB6F894DEBF0FBECDBF81305F
:1015400089F58091DD019091DE01A091DF01B091DC
:10155000E0010197A105B10529F5809101028130D3
:1015600009F580918B0190918C01A0918D01B09132
:101570008E0180939B0190939C01A0939D01B09359
:101580009E0180918F0190919001A0919101B09165
:10159000920180939F019093A001A093A101B09329
:1015A000A20152C02091E1013091E2014091E3019A
:1015B0005091E4016091E9017091EA018091EB01A1
:1015C0009091EC010E9454236B017C012091A301B6
:1015D0003091A4014091A5015091A6010E9454238D
:1015E0009B01AC01609193017091940180919501F0
:1015F000909196010E94802060939B0170939C01C2
:1016000080939D0190939E012091A7013091A801A4
:101610004091A9015091AA01C701B6010E9454232B
:101620009B01AC01609197017091980180919901A3
:1016300090919A010E94802060939F017093A00175
:101640008093A1019093A201209193013091940184
:10165000409195015091960160919B0170919C0180
:1016600080919D0190919E010E947F209B01AC0181
:101670006091AD017091AE018091AF019091B00188
:101680000E94542369837A838B839C8320919701E2
:10169000309198014091990150919A0160919F0178
:1016A0007091A0018091A1019091A2010E947F20E0
:1016B0009B01AC016091B1017091B2018091B301C5
:1016C0009091B4010E9454236D837E838F83988709
:1016D0002091E5013091E6014091E7015091E80148
:1016E0006BEA71E0CE0101960E94C607811106C027
:1016F0006BE971E083E991E00E94B1028091DD0124
:101700009091DE01A091DF01B091E0010197A10964
:10171000B1098093DD019093DE01A093DF01B093C6
:10172000E001892B8A2B8B2B11F484E001C082E02D
:1017300028960FB6F894DEBF0FBECDBFDF91CF91D4
:10174000FF90EF90DF90CF9008954F925F926F924D
:101750007F928F929F92AF92BF92CF92DF92EF9241
:10176000FF92CF93DF9300D000D0CDB7DEB780914A
:101770008A01813009F0A8C0C090BD01D090BE019F
:10178000E090BF01F090C001C701B6019F772CEA3D
:1017900035EC47E257E30E94C62187FF02C080E094
:1017A00034C18091C5019091C601A091C701B0914B
:1017B000C80189839A83AB83BC832091C90130918E
:1017C000CA014091CB015091CC01BC01CD010E94D6
:1017D000802020E030E040E05FE30E9454234B0192
:1017E0005C016093D1017093D2018093D3019093F7
:1017F000D4019B01AC01C701B6010E94CA212B0193
:101800003C016093CD017093CE018093CF01909302
:10181000D00120EC31EE44E65CE40E94542320E049
:1018200030E44CE156E40E94CA210E94B3216B01CE
:101830007C016093D9017093DA018093DB0190936E
:10184000DC019B01AC010E9480209B01AC01C30123
:10185000B2010E94CA212B013C016093E101709307
:10186000E2018093E3019093E401C701B6010E9475
:1018700032226093DD017093DE018093DF0190934B
:10188000E00120EC31EE44E65CE4C301B2010E94C9
:1018900054236093E5017093E6018093E7019093F0
:1018A000E80120E030E44CE155E40E94C62187FDC8
:1018B000A9C0A501940169817A818B819C810E94D4
:1018C0003C0A82E080938A0180918A01823009F08B
:1018D00061C02091ED013091EE014091EF015091F6
:1018E000F0016091E9017091EA018091EB01909122
:1018F000EC010E9480206093E9017093EA018093DB
:10190000EB019093EC0180E00E94910A843039F55C
:101910006091D9017091DA018091DB019091DC0135
:101920000E9432226093DD017093DE018093DF011B
:101930009093E00183E080938A018091F10190917E
:10194000F201A091F301B091F401B0588093F1013C
:101950009093F201A093F301B093F40155C020914C
:10196000F1013091F2014091F3015091F401609145
:10197000ED017091EE018091EF019091F0010E94D4
:1019800080206093ED017093EE018093EF019093BE
:10199000F0013AC08330C1F5C090ED01D090EE0166
:1019A000E090EF01F090F001A70196016091E9014C
:1019B0007091EA018091EB019091EC010E948020EE
:1019C0006093E9017093EA018093EB019093EC013D
:1019D0002091F1013091F2014091F3015091F40115
:1019E000C701B6010E9480206093ED017093EE0163
:1019F0008093EF019093F00181E00E94910A84307E
:101A000019F4CDCE8EE301C082E00F900F900F90BD
:101A10000F90DF91CF91FF90EF90DF90CF90BF902C
:101A2000AF909F908F907F906F905F904F900895B0
:101A3000CF92DF92EF92FF920F931F936B017C0185
:101A4000CA01B9012BEA3AEA4AE25FE30E94B723EE
:101A5000F801EC5AFF4F20813181428153810E946D
:101A60005423A70196010E9480201F910F91FF909F
:101A7000EF90DF90CF900895CF92DF92EF92FF9298
:101A80000F931F930E947F206B017C01E894F7F86D
:101A9000F801E05BFF4F2081318142815381C70112
:101AA000B6010E9454230E9407249B01AC01C70188
:101AB000B6010E9454231F910F91FF90EF90DF9089
:101AC000CF9008952F923F924F925F926F927F92A4
:101AD0008F929F92AF92BF92CF92DF92EF92FF923E
:101AE0000F931F93CF93DF93CDB7DEB762970FB6F7
:101AF000F894DEBF0FBECDBF9A8B898BDC015C965C
:101B00001D921D921D921C925F97FC0110A211A2C2
:101B100012A213A294961D921D921D921C92979749
:101B2000D4962D913D914D915C91D7972D833E8315
:101B30004F8358879C962D913D914D915C919F9735
:101B400029833A834B835C838C012D813E814F81B5
:101B5000588569817A818B819C810E943C0D4B0163
:101B60005C01F801C0A4D1A4E2A4F3A440A851A848
:101B700062A873A82EE333EC4EE258E3C301B2012E
:101B80000E9454236D877E878F87988B9B01AC01C1
:101B9000C501B4010E9480209B01AC01C701B601C0
:101BA0000E94C62118160CF4C5C02D813E814F81BC
:101BB000588569817A818B819C810E9450231816F7
:101BC0000CF046C027E137EB41ED58E3C501B40105
:101BD0000E947F209B01AC01C701B6010E94C62173
:101BE00087FF0FC0A70196016D817E818F81988547
:101BF0000E94180DD8019C966D937D938D939C93B4
:101C00009F97E989FA8984A495A4A6A4B7A480AA79
:101C100091AAA2AAB3AA2D813E814F815885C50100
:101C2000B4010E9480202EE333EC4EE258E30E9480
:101C300054239B01AC01C701B6010E94502387FDCC
:101C40005BC0E989FA89C4A2D5A2E6A2F7A20DC3B6
:101C50002D813E814F81588569817A818B819C815C
:101C60000E94C62187FF66C027E137EB41ED58E3AC
:101C7000C501B4010E947F209B01AC01C701B601E0
:101C80000E94C62187FF11C009891A89A701960100
:101C900069817A818B819C810E94180DD801D4962C
:101CA0006D937D938D939C93D797E989FA8984A846
:101CB00095A8A6A8B7A880AA91AAA2AAB3AA298182
:101CC0003A814B815C81C501B4010E9480202EE3E2
:101CD00033EC4EE258E30E9454239B01AC01C70150
:101CE000B6010E94502387FD07C0E989FA89C48E96
:101CF000D58EE68EF78EB9C22EE333EC4EE258E372
:101D0000C501B4010E9454239B01AC01C701B60177
:101D10000E94502318164CF4A989BA899096CD9246
:101D2000DD92ED92FC929397A0C287E0E989FA894F
:101D300080879BC209891A89A301920169817A81EE
:101D40008B819C810E943C0D69877A878B879C8759
:101D5000D8015C966D937D938D939C935F97A301BF
:101D600092016D817E818F8198850E943C0D4B018F
:101D70005C01F80164A375A386A397A329813A8126
:101D80004B815C81C301B2010E9480202EE333ECC1
:101D90004EE258E30E9454239B01AC0169857A8589
:101DA0008B859C850E94C62187FF07C0D8015C9661
:101DB0001D921D921D921C925F972D813E814F8135
:101DC0005885C301B2010E9480202EE333EC4EE21D
:101DD00058E30E9454239B01AC01C501B4010E9449
:101DE000C62187FF06C0E989FA8914A215A216A2A6
:101DF00017A2A989BA895C968D909D90AD90BC90F0
:101E00005F9794964D905D906D907C909797A3010D
:101E10009201C501B4010E9480209B01AC01C70161
:101E2000B6010E94C62187FF7CC12D813E814F8172
:101E3000588569817A818B819C810E947F204B012A
:101E40005C01E894B7F820E030E048EC52E46981A6
:101E50007A818B819C810E94CA21562E672E782E12
:101E6000492E20E030E040E050E40E94C62187FF88
:101E700005C0512C612C712C80E401C0842D252DCE
:101E8000362D472D582FC501B4010E94C621E9897E
:101E9000FA89A4ACB5AC36AC27AC87FF3DC020E0D6
:101EA00030E040E05FE3C701B6010E9454239B018C
:101EB000AC01A989BA895C966D937D938D939C93AF
:101EC0005F97FD0164A375A386A397A38D01698124
:101ED0007A818B819C810E94180D6B017C019B0192
:101EE000AC01B501832D922D0E94C62187FF03C04E
:101EF0009A2D8B2D04C09C2D8D2D3E2C2F2C492FDF
:101F0000582F632D722DA989BA89D0964D935D9370
:101F10006D937C93D397A9C1A986BD8689859D853C
:101F2000A32DB22DE989FA8980AB91ABA2ABB3ABFB
:101F30008F019C01432D522D69817A818B819C8177
:101F40000E943C0D4B015C01D8015C966D937D9322
:101F50008D939C935F9729853D85432D522D6D81EF
:101F60007E818F8198850E943C0D2B013C01F801F8
:101F700064A375A386A397A39B01AC01C501B4011B
:101F80000E945023A30192011816E4F4C501B40184
:101F90000E9480209B01AC01C501B4010E94CA21AE
:101FA000A70196010E9454239B01AC01D8015C96C5
:101FB0006D937D938D939C935F9769817A818B81DB
:101FC0009C811BC0C501B4010E9480209B01AC0113
:101FD000C301B2010E94CA21A70196010E945423A5
:101FE0009B01AC01E989FA8964A375A386A397A331
:101FF0008F016D817E818F8198850E94180D3B0134
:10200000582E492E9B01482F592F69857D85832D98
:10201000922D0E947F209F779301452D542D0E9481
:10202000CA212DEC3CEC4CEC5DE30E9450231816C9
:1020300024F469867D86120171CFC301A52DB42DCC
:10204000E989FA8980AB91ABA2ABB3AB8F01930165
:10205000452D542D69817A818B819C810E943C0D94
:102060004B015C01D8015C966D937D938D939C939D
:102070005F9729813A814B815C81B301852D942D35
:102080000E9480202EE333EC4EE258E30E9454235A
:102090009B01AC01C501B4010E94C62187FD0CC0A3
:1020A000A5019401C701B6010E947F20F80164A335
:1020B00075A386A397A30DC0A989BA899496CD92DA
:1020C000DD92ED92FC929797FD01148E158E168E7F
:1020D000178E2D813E814F815885B301852D942D1A
:1020E0000E9480202EE333EC4EE258E30E945423FA
:1020F0009B01AC01A989BA8994966D917D918D91CE
:102100009C9197970E94C62187FFAFC0E989FA8901
:10211000C48ED58EE68EF78E14A215A216A217A233
:10212000A4C0A5019401C701B6010E947F20A301AC
:1021300092010E947F206B017C01E989FA8960A3EA
:1021400071A382A393A32D853E854F8558890E9454
:10215000C621A50194015F772D833E834F83588765
:1021600087FF60C02CEA35EC47E257E3C701B601B0
:102170009F770E94502318160CF054C02CEA35ECBF
:1021800047E257E36D817E818F8198850E945023BD
:1021900018169CF52CEA35EC47E257E3C301B2016F
:1021A0009F770E9450231816CCF420E030E040E0E6
:1021B0005FE3C701B6010E9454236B017C019B01C0
:1021C000AC01C501B4010E948020A989BA895C963E
:1021D0006D937D938D939C935F970FC0A70196019C
:1021E000C501B4010E948020A989BA895C966D93CB
:1021F0007D938D939C935F970CC0A7019601C301BB
:10220000B2010E948020E989FA8964A375A386A39C
:1022100097A3A989BA8990961D921D921D921C922E
:10222000939723C02CEA35EC47E257E36D817E811A
:102230008F8198850E94C62187FF17C0C301B20114
:102240009F772CEA35EC47E257E30E94C62187FFCF
:102250000CC029813A814B815C81A989BA89D096C9
:102260002D933D934D935C93D39762960FB6F8945C
:10227000DEBF0FBECDBFDF91CF911F910F91FF90B9
:10228000EF90DF90CF90BF90AF909F908F907F9016
:102290006F905F904F903F902F9008952F923F92B4
:1022A0004F925F926F927F928F929F92AF92BF9266
:1022B000CF92DF92EF92FF920F931F93CF93DF9312
:1022C0004C011B01EC010990D881C02DC815D9051E
:1022D00009F496C08985882309F492C0EA81FB81BC
:1022E000A0ACB1ACC2ACD3ACE85BFF4FE080F180F6
:1022F000028113819701A801B501C6010E94C62180
:1023000087FF02C0750101C068018E01085B1F4F85
:10231000FE01EC5BFF4F2081318142815381B70187
:10232000C6010E948020D8016D937D938D939C936C
:102330001397C9CFE815F90509F06CC088AD99ADC0
:10234000AAADBBAD8CA79DA7AEA7BFA7F101108218
:102350008CAD9DADAEADBFAD88AB99ABAAABBBAB01
:102360006A807B802E01F4E44F0E511CD2012D9126
:102370003D914D915C916CA57DA58EA59FA50E9478
:1023800080205B016C01F301E0ACF1AC02AD13AD58
:10239000E85BFF4F20813181428153813E01F0E4AF
:1023A0006F0E711CD3016D917D918D919C910E9456
:1023B00064026CAB7DAB8EAB9FABCE010E94620D15
:1023C000CCA8DDA8EEA8FFA8F301208131814281CD
:1023D0005381C701B6010E94C6218823E1F1EA8139
:1023E000FB8120AD31AD42AD53ADC701B6010E94B6
:1023F000C621882381F1E881F98181858823C1F094
:102400000A80DB81C02DE881F981C815D90509F062
:1024100091CF23C0D1018C91813009F48FCF84A951
:1024200095A9A6A9B7A98CA79DA7AEA7BFA790CF2E
:10243000D2012D913D914D915C916CA57DA58EA50C
:102440009FA50E9480209B01AC01C701B6010E949C
:10245000C6218111D5CF1986D3CF84A995A9A6A964
:10246000B7A98CA79DA7AEA7BFA78CAD9DADAEADFC
:10247000BFAD88AB99ABAAABBBAB1CAA1DAA1EAA69
:102480001FAACE01DF91CF911F910F91FF90EF9086
:10249000DF90CF90BF90AF909F908F907F906F9084
:1024A0005F904F903F902F900C94620D0E94131AF2
:1024B000009761F0FC0131E031870280F381E02D6B
:1024C000E817F90719F020852111F6CF08954F92EA
:1024D0005F926F927F928F929F92AF92BF92CF92B4
:1024E000DF92EF92FF92CF93C0918A01C13009F041
:1024F00099C0C090B901D090BA01E090BB01F090B2
:10250000BC01C701B6019F772CEA35EC47E257E3DF
:102510000E94C62187FF17C086E080938901E09161
:102520008701F0918801C4A3CF91FF90EF90DF90D5
:10253000CF90BF90AF909F908F907F906F905F9063
:102540004F900C94A50B4090C5015090C60160902F
:10255000C7017090C801A3019201C701B6010E9492
:10256000CA214B015C016093CD017093CE01809331
:10257000CF019093D00120EC31EE44E65CE40E9460
:10258000542320E030E44CE955E40E94CA210E9423
:10259000B3216B017C016093D9017093DA018093C0
:1025A000DB019093DC019B01AC01C501B4010E94E9
:1025B000CA214B015C016093E1017093E2018093B9
:1025C000E3019093E4014092E9015092EA016092A4
:1025D000EB017092EC01C701B6010E9432226093B8
:1025E000DD017093DE018093DF019093E00120EC28
:1025F00031EE44E65CE4C501B4010E9454236093CB
:10260000E5017093E6018093E7019093E80120E0F3
:1026100030E44CE155E40E94C62187FD2DC082E0E4
:1026200080938A0180918A01823041F580E00E9486
:10263000910A843019F58091BD019091BE01A0915D
:10264000BF01B091C001BC01CD019F772CEA35ECF0
:1026500047E257E30E94C62187FD0CC086E08093C5
:102660008901E0918701F091880181E084A3809342
:102670008A0104C080E003C08EE301C082E0CF91F4
:10268000FF90EF90DF90CF90BF90AF909F908F9092
:102690007F906F905F904F9008954F925F926F92EE
:1026A0007F928F929F92AF92BF92CF92DF92EF92E2
:1026B000FF920F931F93CF93DF9300D000D01F9210
:1026C000CDB7DEB78C01DC0118968C911897882362
:1026D00009F45BC28091890181119DC08091020241
:1026E000843009F452C219961C92199798968D91CC
:1026F0009D910D90BC91A02DBC01CD019F772CEA3E
:1027000035EC47E257E30E94C62187FF0FC01092C5
:10271000890110928A01D8011296ED91FC911397CC
:1027200011860E947E080E94B2192FC282E0F80131
:10273000808784E08093890181E080938A01E45B53
:10274000FF4F80819181A281B3818093D5019093C5
:10275000D601A093D701B093D801F801848D958D4F
:10276000A68DB78D8093B5019093B601A093B70164
:10277000B093B80180A191A1A2A1B3A18093B901A6
:102780009093BA01A093BB01B093BC0184A195A121
:10279000A6A1B7A18093BD019093BE01A093BF01F4
:1027A000B093C00184A595A5A6A5B7A58093C10146
:1027B0009093C201A093C301B093C40180A991A9D1
:1027C000A2A9B3A98093C5019093C601A093C701A4
:1027D000B093C80184A995A9A6A9B7A98093C901F6
:1027E0009093CA01A093CB01B093CC01B8016E5E67
:1027F0007F4F83EA91E00E94B102B801665F7F4F8C
:102800008BE891E00E94B102B801665E7F4F8BEACF
:1028100091E00E94B90280918901853009F483C159
:10282000863009F483C1843009F083C180918A0124
:10283000813009F0AAC0C090B501D090B601E090F7
:10284000B701F090B801C701B6019F772CEA35ECCB
:1028500047E257E30E94C62187FF04C085E08093CA
:10286000890161C18091C1019091C201A091C30110
:10287000B091C40189839A83AB83BC832091C50145
:102880003091C6014091C7015091C801BC01CD01F2
:102890000E94802020E030E040E05FE30E9454236B
:1028A0004B015C016093D1017093D2018093D301FD
:1028B0009093D4019B01AC01C701B6010E94CA21CB
:1028C0002B013C016093CD017093CE018093CF0129
:1028D0009093D00120EC31EE44E65CE40E94542356
:1028E00020E030E44CE156E40E94CA210E94B3216A
:1028F0006B017C016093D9017093DA018093DB0155
:102900009093DC019B01AC010E9480209B01AC01F3
:10291000C301B2010E94CA212B013C016093E10175
:102920007093E2018093E3019093E401C701B60143
:102930000E9432226093DD017093DE018093DF01FB
:102940009093E00120EC31EE44E65CE4C301B20177
:102950000E9454236093E5017093E6018093E701A0
:102960009093E80120E030E44CE155E40E94C62158
:1029700087FDD7C0A501940169817A818B819C81F3
:102980000E943C0A82E080938A0180918A01823011
:1029900009F061C02091ED013091EE014091EF010D
:1029A0005091F0016091E9017091EA018091EB0191
:1029B0009091EC010E9480206093E9017093EA01FC
:1029C0008093EB019093EC0180E00E94910A8430A7
:1029D00039F56091D9017091DA018091DB01909114
:1029E000DC010E9432226093DD017093DE0180934E
:1029F000DF019093E00183E080938A018091F101EF
:102A00009091F201A091F301B091F401B05880933C
:102A1000F1019093F201A093F301B093F4017FC010
:102A20002091F1013091F2014091F3015091F401B4
:102A30006091ED017091EE018091EF019091F001B4
:102A40000E9480206093ED017093EE018093EF016E
:102A50009093F00164C0833009F061C0C090ED0133
:102A6000D090EE01E090EF01F090F001A701960107
:102A70006091E9017091EA018091EB019091EC0184
:102A80000E9480206093E9017093EA018093EB013A
:102A90009093EC012091F1013091F2014091F3010A
:102AA0005091F401C701B6010E9480206093ED01AE
:102AB0007093EE018093EF019093F00180E00E940B
:102AC000910A843061F58091B9019091BA01A09189
:102AD000BB01B091BC01BC01CD019F772CEA35EC64
:102AE00047E257E30E94C62187FF13C08091BD01D2
:102AF0009091BE01A091BF01B091C001BC01CD0178
:102B00009F772CEA35EC47E257E30E94C62187FD08
:102B100010C085E08093890181E080938A0182E082
:102B200009C08EE307C00E94671204C00E94A50B73
:102B300001C080E090910202913019F492E09093EC
:102B4000020290910202933049F4811107C094E08F
:102B50009093020292E09093010202C0823099F0B9
:102B60001092890110928A01D8011296ED91FC9180
:102B70001397118618969C91923041F48D830E9490
:102B8000B2198D8103C082E001C083E00F900F90E5
:102B90000F900F900F90DF91CF911F910F91FF90A9
:102BA000EF90DF90CF90BF90AF909F908F907F90ED
:102BB0006F905F904F900895909388018093870164
:102BC0008AE7E9E8F1E0DF011D928A95E9F70895C7
:102BD00094E0899FF0011124E757FE4F4287538705
:102BE00064877587089594E0899FF0011124E35567
:102BF000FE4F408351836283738308954F925F92A7
:102C00006F927F928F929F92AF92BF92CF92DF92FC
:102C1000EF92FF920F931F93CF93DF93CDB7DEB761
:102C200027970FB6F894DEBF0FBECDBF6C0127010A
:102C300038012C833D834E835F836A837B830E94AC
:102C4000CE195C012C813D814E815F816A817B813F
:102C5000009709F421C18DE493E1F5019583848304
:102C60008501045B1F4FF8014082518262827382AA
:102C7000F50124AF35AF46AF57AFC5014A960E9464
:102C8000B902F6014080518062807380C301B201B5
:102C90009F772CEA35EC47E257E30E945023181641
:102CA000C4F4F50140A651A662A673A680E090E0A8
:102CB000A0E8BFE3828B938BA48BB58BF601808158
:102CC0009181A281B381F50182879387A487B5871B
:102CD00028C0F6014480558066807780C301B20128
:102CE0009F772CEA35EC47E257E30E9450231816F1
:102CF0000CF0D4C0F50140A651A662A673A680E0F0
:102D000090E0A0E8BFE3868B978BA08FB18FF60190
:102D100084819581A681B781F50186879787A08BED
:102D2000B18BF801C080D180E280F3802091F50161
:102D30003091F6014091F7015091F801C701B601B9
:102D40000E947F209F7720E030E04AE754E40E9411
:102D5000C62195012C5A3F4F49018501005B1F4F49
:102D600087FF1BC08091FD019091FE01A091FF01A2
:102D7000B0910002F90180839183A283B383809193
:102D8000F9019091FA01A091FB01B091FC01F801C9
:102D900080839183A283B38330C0C701B6010E94B0
:102DA000EF202B013C01F4016083718382839383C4
:102DB000A701960160E070E080E89FE30E94CA21CD
:102DC000F8016083718382839383C092F501D0926E
:102DD000F601E092F701F092F8014092FD01509265
:102DE000FE016092FF01709200026093F9017093FE
:102DF000FA018093FB019093FC0181E0F50181874A
:102E000064AC75AC86AC97ACC301D40180AF91AF14
:102E1000A2AFB3AF20A531A542A553A5850160E0BF
:102E200070E0CB010E94180D6B017C01F501EC5B99
:102E3000FF4F60837183828393839B01AC01B30155
:102E4000C4010E9480202B018C019B01AC01B301C5
:102E5000C4010E94C62187FD02C032014801F5016C
:102E6000E05CFF4FC301D40180839183A283B383CD
:102E70003896C082D182E282F38281E0809301029F
:102E80001982BE016F5F7F4FC5010E944E1181E024
:102E90000E94A21980E003C088E001C081E027966B
:102EA0000FB6F894DEBF0FBECDBFDF91CF911F915B
:102EB0000F91FF90EF90DF90CF90BF90AF909F90D9
:102EC0008F907F906F905F904F9008952F923F92D8
:102ED0004F925F926F927F928F929F92AF92BF922A
:102EE000CF92DF92EF92FF920F931F93CF93DF93D6
:102EF00000D0CDB7DEB780910202823011F083E0BE
:102F000083C10E94F2195C010097C9F381E08983B3
:102F10002091930130919401409195015091960137
:102F200060918B0170918C0180918D0190918E0147
:102F30000E947F200E9445246B017C012091970113
:102F4000309198014091990150919A0160918F01BF
:102F50007091900180919101909192010E947F2047
:102F60000E9445249B01AC01C701B6010E9480204C
:102F70000E9407242B013C0180918901853049F48E
:102F8000C090E901D090EA01E090EB01F090EC01F3
:102F900014C02091ED013091EE014091EF0150916C
:102FA000F0016091E9017091EA018091EB0190914B
:102FB000EC010E9480206B017C01850120E030E063
:102FC000A901C701B6010E943C0D1B014C019201F1
:102FD000A3010E945023181694F4F50184A995A921
:102FE000A6A9B7A9BC01CD019F772CEA35EC47E231
:102FF00057E30E94C62187FF02C0120143019201DC
:10300000A301B101C4010E94C62118160CF442C0EC
:103010001092C9011092CA011092CB011092CC01FA
:10302000C101D4018093BD019093BE01A093BF0163
:10303000B093C001C092C501D092C601E092C70111
:10304000F092C80186E080938901FF24F394F09206
:103050008A019101A401B201C3010E947F209B015A
:10306000AC01F50160A771A782A793A7850160E075
:1030700070E0CB010E94180DF501EC5BFF4F6083FF
:10308000718382839383F50110AE11AE12AE13AE3D
:10309000F086ADC086E080938901F1E0F0938A016B
:1030A000C201D3018093BD019093BE01A093BF01E3
:1030B000B093C001C092C501D092C601E092C70191
:1030C000F092C80185019201A30160E070E0CB019C
:1030D0000E94180D9B01AC01C701B6010E947F2020
:1030E0006B017C016093C9017093CA018093CB018D
:1030F0009093CC0181E0F5018087E8E0EA83F50157
:1031000062817381C5010E948D19F501878181302B
:1031100089F5F501C0AED1AEE2AEF3AE850120E097
:1031200030E0A901C701B6010E943C0D1B014C0112
:10313000F50140A451A462A473A4A30192010E94CA
:1031400050231816F4F4A301920160E070E0CB0163
:103150000E94180D9B01AC01C701B6010E947F209F
:103160006B017C01F501E05CFF4F6083718382831A
:103170009383F501A280B380FA81F150FA83F111B3
:10318000BECFC101D401F50180A791A7A2A7B3A723
:10319000E05CFF4F1082118212821382F501E280FF
:1031A000F380F70110AE11AE12AE13AE9101A4017F
:1031B00060A571A582A593A50E947F209B01AC010B
:1031C000F70160A771A782A793A7870160E070E06D
:1031D000CB010E94180DF701EC5BFF4F60837183F8
:1031E00082839383349760837183828393830E9465
:1031F00056120E94151ABE016F5F7F4F0E944E113A
:1032000083E08093020280E00F900F90DF91CF91D6
:103210001F910F91FF90EF90DF90CF90BF90AF90F4
:103220009F908F907F906F905F904F903F902F90E6
:10323000089582E08093010281E080930202089564
:10324000109202020E94F219892B21F410920102BD
:1032500083E0089581E0809301020E94840880E069
:10326000089510920102109202021092E901109248
:10327000EA011092EB011092EC010895CF9387ECD4
:1032800092E0E3E0F2E0DF019C011D92215030402A
:10329000E1F78AE092E09093050280930402909314
:1032A0000702809306029093090280930802FC01B2
:1032B00081E090E022E734E0C8E5883011F0BC01FD
:1032C00002C060E070E0BE2FAF2FC69FA001C79F75
:1032D000500D1124465F5D4F538342833183208319
:1032E0000196E85AFF4F8930910519F02B2F3A2F9C
:1032F000E4CF88E080930302CF910895FC012281FE
:1033000033818081918148E5DF011D924A95E9F77B
:1033100033832283918380830895CF93DF93EC01DD
:103320002A813B818881998148E5FB01DE0101907A
:103330000D924A95E1F73B832A8399838883DF9135
:10334000CF910895A6E0B2E0ED91FC9111978783AB
:1033500081E0808782E08683828193818D939C9334
:103360000C94840880910802909109020E947E19B1
:10337000E0910802F09109020280F381E02DF093C0
:103380000902E09308028681823011F483E086838B
:10339000809103028F5F809303020895E0910402FD
:1033A000F09105028681811119C08281938120816B
:1033B000318148E5DF011D924A95E9F793838283C5
:1033C0003183208321E02683209103022150209322
:1033D0000302909305028093040202C0E0E0F0E053
:1033E000CF010895E0910802F09109028681825090
:1033F000823010F484E086838681843011F0E0E02E
:10340000F0E0CF0108950E94F219009741F0DC012D
:103410001496ED91FC911597309719F0099483E07B
:10342000089584E108950C94F2190E94F21900970E
:1034300069F0FC01A281B38118962C911897222380
:1034400041F0A817B90729F0FD01F4CF80E090E022
:103450000895CF0108958BEC94E00E94FD0381E66E
:1034600095E00E94D30280E595E00C94D302CF93BF
:10347000DF93CDB7DEB7CA58D1090FB6F894DEBFD7
:103480000FBECDBFF8948FE495E00E944B058FE40A
:1034900095E00E94CA05789463E18FE495E00E946C
:1034A000D51B10E3CE0101967C0184E8D82E99E06B
:1034B000C92EBB24B3942BE0A22E809176058823DD
:1034C000B1F100914F05F701812F11928A95E9F72B
:1034D000CE0102960E94C002CE0143960E94C00215
:1034E0001AA6F701AFE4B5E0812F01900D928A95FD
:1034F000E1F7CE0143960E94D302CE0102960E94CC
:10350000D30200934F058FE495E00E94CA05C701DE
:103510000E94F103F701ABECB4E08D2D01900D9208
:103520008A95E1F7C7010E94FD030E94AF1B8091BD
:103530007505882361F01092750501E129813A81B2
:103540004B815C816D818FE495E00E94D81B909146
:103550004E058091000198130CC0C092780501E1DE
:1035600029813A814B815C816D818FE495E00E94D5
:10357000D81B8091CA04882361F01092CA040CE021
:1035800029813A814B815C816D818FE495E00E94B5
:10359000D81B0E94661780917205882361F01092F3
:1035A00072050DE029813A814B815C816D818FE448
:1035B00095E00E94D81B80917705882361F01092D6
:1035C000770503E129813A814B815C816D818FE42C
:1035D00095E00E94D81B80917305882361F01092BA
:1035E000730502E129813A814B815C816D818FE411
:1035F00095E00E94D81B80917405882399F0109261
:10360000740500917E052091790530917A054091ED
:103610007B0550917C0560917D058FE495E00E94CB
:10362000D81B4BCF80914E05882309F446CFC701A4
:103630000E94C203B7018BEC94E00E940E04C70104
:103640000E94D403682FC701C657DF4F6883CA584A
:10365000D0400E94CE03C657DF4F6881CA58D04081
:103660000E945904082F811105C0B0927505A092DF
:1036700078052CC0C7010E94D403CB57DF4F888345
:10368000C558D040C7010E94EB03362FCA57DF4F01
:103690006883C658D040C957DF4F7883C758D04099
:1036A000C857DF4F8883C858D040C757DF4F98832B
:1036B000C958D040CB57DF4F2881C558D040472F3D
:1036C000582F692F8FE495E00E94D81BC7010E94F4
:1036D000CA03F3CE1F920F920FB60F9211248F934D
:1036E000EF93FF9381E08093CA04EDE6F0E08081E0
:1036F0008F7E808380818B7F8083FF91EF918F917C
:103700000F900FBE0F901F90189580E595E00E94D6
:10371000C00281E695E00E94C002109278058BEC11
:1037200094E00C94F1030C942B1ACF93DF93EC01EB
:103730008FE795E00E94E50481110EC081E08DA322
:10374000AE01465D5F4FBE01615D7F4F8FE795E043
:10375000DF91CF910C94BC04DF91CF910895CF936A
:10376000DF93CDB7DEB7C256D1090FB6F894DEBFEE
:103770000FBECDBFCE0101960E947B0482E6FE0102
:103780003196AFE7B5E001900D928A95E1F7CE0151
:1037900001960E947F04CE59DF4F0FB6F894DEBF2A
:1037A0000FBECDBFDF91CF910895FC0160830895D6
:1037B0008F929F92AF92BF92EF92FF920F931F93BF
:1037C000CF93DF9300D000D01F92CDB7DEB77C013E
:1037D00029833A834B835C836D83502F6A817B817D
:1037E0008C819D81F7018080912CF4013297E63124
:1037F000F10508F061C4EB5CFF4F0C947920802F39
:1038000090E0FC013297E231F10508F05AC4E55B23
:10381000FF4F0C94792086E0F701808352C483E146
:10382000F701808381E087A34CC409811A812B8131
:103830003C814D81652F8FE795E00E9480048823AD
:1038400009F43FC4F70181A781E086A33AC485E16A
:10385000F70180830F900F900F900F900F90DF91E2
:10386000CF911F910F91FF90EF90BF90AF909F90DD
:103870008F900C945A06023009F00EC383E1F701D1
:10388000808381E087A31DC4802F90E0FC013297E4
:10389000E031F10508F015C4E35AFF4F0C9479208C
:1038A00083E1F701808381E087A30BC409811A813A
:1038B0002B813C814D81652F8FE795E00E9480042C
:1038C000882309F4FEC3F70181A781E086A3F9C329
:1038D000802F90E0FC013297E231F10508F0F1C34E
:1038E000E359FF4F0C94792086E0F7018083E9C308
:1038F00083E1F701808381E087A3E3C309811A8113
:103900002B813C814D81652F8FE795E00E948004DB
:10391000882309F4D6C3F70181A781E086A3D1C328
:1039200086E096CF8CE094CF802F90E0FC01329718
:10393000E031F10508F0C5C3E158FF4F0C94792040
:1039400083E1F701808381E087A3BBC309811A81EA
:103950002B813C814D81652F8FE795E00E9480048B
:10396000882309F4AEC3F70181A781E086A3A9C328
:103970008DE06FC28FE0F7018083A3C3802F90E0BA
:10398000FC013297E031F10508F09BC3E157FF4F8E
:103990000C94792083E1F701808381E087A391C3B0
:1039A00009811A812B813C814D81652F8FE795E03C
:1039B0000E948004882309F484C3F70181A781E071
:1039C00086A37FC385E0F70180830F900F900F904F
:1039D0000F900F90DF91CF911F910F91FF90EF907B
:1039E000BF90AF909F908F900C945C06802F90E0DA
:1039F000FC013297E131F10508F063C3E156FF4F56
:103A00000C94792086E0F70180835BC383E1F701A2
:103A1000808381E087A355C309811A812B813C8172
:103A20004D81652F8FE795E00E948004882309F47B
:103A300048C3F70181A781E086A343C384E108CF8F
:103A4000802F90E0FC013297E031F10508F039C396
:103A5000E055FF4F0C94792083E1F701808381E0EA
:103A600087A32FC309811A812B813C814D81652F4A
:103A70008FE795E00E948004882309F422C3F701B0
:103A800081A781E086A31DC3802F90E0FC013297BF
:103A9000E031F10508F015C3E054FF4F0C94792094
:103AA00083E1F701808381E087A30BC309811A8139
:103AB0002B813C814D81652F8FE795E00E9480042A
:103AC000882309F4FEC2F70181A781E086A3F9C229
:103AD000802F90E0FC013297E031F10508F0F1C24F
:103AE000E053FF4F0C94792088E06DCF83E1F7011C
:103AF000808381E087A3E5C209811A812B813C8103
:103B00004D81652F8FE795E00E948004882309F49A
:103B1000D8C2F70181A781E086A3D3C28EE0F70166
:103B200080830E941E07A1C2802F90E0FC01329783
:103B3000E031F10508F0C5C2E052FF4F0C94792046
:103B400087E0F7018083BDC283E1F701808381E0D4
:103B500087A3B7C209811A812B813C814D81652FD2
:103B60008FE795E00E948004882309F4AAC2F70138
:103B700081A781E086A3A5C289E0F7018083A1C265
:103B800010E0F8013297E031F10508F09AC2E051F7
:103B9000FF4F0C94792083E1F701808381E087A3B4
:103BA00090C222E0F7012083A7010E94F606882335
:103BB00009F487C2F70181A781E086A382C28EE063
:103BC000F70180837EC025E0F7012083A7010E94D2
:103BD0000A07882309F475C2F70181A781E086A34B
:103BE00070C209811A812B813C814D8167E08FE78A
:103BF00095E00E948004882309F463C2F70181A73D
:103C000081E086A35EC228E0F701208397012E5E43
:103C10003F4FAB01BC0181E00E945E06882309F49E
:103C200050C2F70181A781E086A34BC287010F5FD5
:103C30001F4F29813A814B815C816D8180E00E9418
:103C4000F605882309F4E5C1F70181A781E086A381
:103C5000E0C148E0F70141939F01AB01BC0180E066
:103C60000E945E06882309F42CC2F70181A781E037
:103C700086A327C2802F90E0FC013297E031F10546
:103C800008F01FC2E050FF4F0C94792083E1F70148
:103C9000808381E087A315C280E1F70180830981D9
:103CA0001A812B813C814D81652F8FE795E00E9421
:103CB0008004882309F405C2F70181A781E086A367
:103CC00000C20E94EA05A5C183E1E3C187010E5E3F
:103CD0001F4F29813A814B815C816D8181E0AFCF9B
:103CE000802F90E0FC013297E031F10508F0E9C146
:103CF000E05FFE4F0C94792086E1F7018083E1C1FB
:103D000083E1F701808381E087A3DBC109811A8108
:103D10002B813C814D81652F8FE795E00E948004C7
:103D2000882309F4CEC1F70181A781E086A3C9C128
:103D300087E1F70180830F900F900F900F900F9005
:103D4000DF91CF911F910F91FF90EF90BF90AF90B7
:103D50009F908F900C941E07802F90E0FC0132976B
:103D6000E031F10508F0ADC1E05EFE4F0C94792022
:103D700083E1F701808381E087A3A3C109811A81D0
:103D80002B813C814D81652F8FE795E00E94800457
:103D9000882309F496C1F70181A781E086A391C128
:103DA0008DE0F701808309811A812B813C814D814F
:103DB0006BE08FE795E00E94800443CF802F90E076
:103DC000FC013297E031F10508F07BC1E05DFE4F68
:103DD0000C94792083E1F701808381E087A371C18E
:103DE00009811A812B813C814D81652F8FE795E0F8
:103DF0000E948004882309F464C1F70181A781E04F
:103E000086A35FC182E0DFCD802F90E0FC01329776
:103E1000E031F10508F055C1E05CFE4F0C947920CB
:103E200083E1F701808381E087A34BC109811A8177
:103E30002B813C814D81652F8FE795E00E948004A6
:103E4000882309F43EC1F70181A781E086A339C127
:103E50008EE0F70180830E941E07DBC0093031F13C
:103E6000C8F40230E9F0083009F02BC18EE0F70108
:103E700080830F900F900F900F900F90DF91CF9154
:103E80001F910F91FF90EF90BF90AF909F908F90F8
:103E90000C9481070A30E9F0513109F4F9C011C1DD
:103EA00083E1F701808381E087A30BC187010F5F66
:103EB0001F4F29813A814B815C816D8180E00E9496
:103EC000F605882309F4FDC0F70181A781E086A3E8
:103ED000F8C087010E5E1F4F29813A814B815C81BA
:103EE0006D8181E00E94F605882309F4EAC0F7019C
:103EF00081A781E086A3E5C0802F90E0FC01329786
:103F0000E031F10508F0DDC0E05BFE4F0C94792054
:103F10008AE0F7018083D5C083E1F701808381E0E7
:103F200087A3CFC009811A812B813C814D81652FE8
:103F30008FE795E00E948004882309F4C2C0F7014E
:103F400081A781E086A3BDC08BE0F7018083B9C063
:103F5000802F90E0FC013297E031F10508F0B1C00C
:103F6000E05AFE4F0C94792081E1F7018083A9C0CB
:103F700083E1F701808381E087A3A3C009811A81CF
:103F80002B813C814D81652F8FE795E00E94800455
:103F9000882309F496C0F70181A781E086A391C028
:103FA00084E0F70180838DC082E15DC0802F90E0C6
:103FB000FC013297E031F10508F083C0E059FE4F73
:103FC0000C94792083E1F701808381E087A379C095
:103FD00009811A812B813C814D81652F8FE795E006
:103FE0000E948004882309F46CC0F70181A781E056
:103FF00086A367C0802F90E0FC013297E031F10585
:1040000008F05FC0E058FE4F0C9479208DE0F70176
:104010008083C7010F900F900F900F900F90DF914A
:10402000CF911F910F91FF90EF90BF90AF909F9015
:104030008F900C94951B83E1F701808381E087A327
:1040400040C009811A812B813C814D81652F8FE70A
:1040500095E00E9480048823A1F1F70181A781E007
:1040600086A32FC08EE0F70180838FE795E00F9045
:104070000F900F900F900F90DF91CF911F910F91A4
:10408000FF90EF90BF90AF909F908F900C94E104C1
:1040900083E0F70180830F900F900F900F900F90A7
:1040A000DF91CF911F910F91FF90EF90BF90AF9054
:1040B0009F908F900C9483078CE0F70181A781E09B
:1040C00086A30F900F900F900F900F90DF91CF91DC
:1040D0001F910F91FF90EF90BF90AF909F908F90A6
:1040E00008958FE795E00C947B048FE795E00C949E
:1040F0007F04EE0FFF1F0590F491E02D09945058B6
:10410000BB27AA270ED07BC26CD230F071D220F030
:1041100031F49F3F11F41EF461C20EF4E095E7FB09
:104120002EC2E92F7DD280F3BA1762077307840786
:10413000950718F071F49EF5ACC20EF4E0950B2EC5
:10414000BA2FA02D0B01B90190010C01CA01A001E9
:104150001124FF27591B99F0593F50F4503E68F144
:104160001A16F040A22F232F342F4427585FF3CF85
:10417000469537952795A795F0405395C9F77EF456
:104180001F16BA0B620B730B840BBAF09150A1F09F
:10419000FF0FBB1F661F771F881FC2F70EC0BA0F25
:1041A000621F731F841F48F4879577956795B795AD
:1041B000F7959E3F08F0B3CF9395880F08F09927A5
:1041C000EE0F979587950895492FE5E593959E9F66
:1041D000912DE3E0E99F4019EE270895F1C128D21F
:1041E000E8F39923D9F3DF93CF931F930F93FF92B3
:1041F000EF92DF92CF92BF92AF929F928F929F5792
:1042000080F4919588232AF09395660F771F881F75
:10421000DAF7DADF4A951AF009F44E5F9395919533
:1042200001C0D2DF91589F93FF27FF248F019F0188
:104230004F01DF01EF01660F771F881FAA1F4A9504
:10424000D2F798E0000F111F000F111FEE0FA80109
:10425000AA244E0F511DA11C6A01EA2C440F551FC0
:10426000AA1C4C0D5D1DAE1C4160A41BB50BCA09F8
:1042700020F4A40FB51FCA1D07C0AF01440F551F7E
:10428000040F151F0160E16043E0660F771F881F70
:10429000AA1FBB1FCC1F4A95C1F79A9599F690E1CA
:1042A000000F111F221F331F881C991C1094C1F787
:1042B000EE0FFF1FFF1C0024A00150016001EE243F
:1042C000400F511FA21EB31EC81CD91CE11C4E0F6B
:1042D0005F1FAF1CB11CC11CD11CE11C009441F03C
:1042E000440F551FAA1CBB1CCC1CDD1CEE1CE8CFC8
:1042F000A41BB50BCA09DB096C097D098E0940F4C2
:10430000A40FB51FCA1DDB1D6C1D7D1D8E1D0AC0AF
:104310000E0F1F1F2F1D311D811C911C0094C1F712
:104320000160E16043E0AA0FBB1FCC1FDD1F661FC9
:10433000771F881F4A95B9F79A9509F0B1CFBF0149
:104340008F2D9F91880F9695879597F98F909F90C5
:10435000AF90BF90CF90DF90EF90FF900F911F91A3
:10436000CF91DF9108957ED180F09F3740F4911175
:104370000EF490C160E070E080E89FE3089526F0BD
:104380001B16611D711D811D00C11AC1D4D008F416
:1043900081E008950CD033C12BD140F022D130F010
:1043A00021F45F3F19F0EBC0511174C117C138D12E
:1043B00098F39923C9F35523B1F3951B550BBB27EC
:1043C000AA2762177307840738F09F5F5F4F220F99
:1043D000331F441FAA1FA9F333D00E2E3AF0E0E892
:1043E00030D091505040E695001CCAF729D0FE2FDE
:1043F00027D0660F771F881FBB1F26173707480770
:10440000AB07B0E809F0BB0B802DBF01FF27935825
:104410005F4F2AF09E3F510568F0B1C03BC15F3F3E
:10442000ECF3983EDCF3869577956795B795F7950D
:104430009F5FC9F7880F911D9695879597F9089505
:10444000E1E0660F771F881FBB1F621773078407A1
:10445000BA0720F0621B730B840BBA0BEE1F88F7B0
:10446000E0950895E5D088F09F5790F0B92F9927EF
:10447000B751A0F0D1F0660F771F881F991F1AF06F
:10448000BA95C9F712C0B13081F003D1B1E00895F7
:1044900000C1672F782F8827B85F39F0B93FCCF378
:1044A000869577956795B395D9F73EF49095809565
:1044B000709561957F4F8F4F9F4F0895E89409C085
:1044C00097FB3EF490958095709561957F4F8F4F47
:1044D0009F4F9923A9F0F92F96E9BB279395F6955D
:1044E000879577956795B795F111F8CFFAF4BB0FDB
:1044F00011F460FF1BC06F5F7F4F8F4F9F4F16C03F
:10450000882311F096E911C0772321F09EE8872FC8
:10451000762F05C0662371F096E8862F70E060E084
:104520002AF09A95660F771F881FDAF7880F9695FD
:10453000879597F90895990F0008550FAA0BE0E8A1
:10454000FEEF16161706E807F907C0F01216130655
:10455000E407F50798F0621B730B840B950B39F495
:104560000A2661F0232B242B252B21F408950A26FB
:1045700009F4A140A6958FEF811D811D089597F93B
:104580009F6780E870E060E00895882371F47723E6
:1045900021F09850872B762F07C0662311F49927B6
:1045A0000DC09051862B70E060E02AF09A95660F5E
:1045B000771F881FDAF7880F9695879597F90895E2
:1045C0009F3F31F0915020F4879577956795B79587
:1045D000880F911D9695879597F908959FEF80EC28
:1045E000089500240A941616170618060906089559
:1045F00000240A9412161306140605060895092EBF
:104600000394000C11F4882352F0BB0F40F4BF2B2D
:1046100011F460FF04C06F5F7F4F8F4F9F4F08956D
:1046200057FD9058440F551F59F05F3F71F0479563
:10463000880F97FB991F61F09F3F79F08795089548
:10464000121613061406551FF2CF4695F1DF08C067
:10465000161617061806991FF1CF86957105610584
:1046600008940895E5DFA0F0BEE7B91788F4BB27EA
:104670009F3860F41616B11D672F782F8827985F32
:10468000F7CF869577956795B11D93959639C8F3C1
:104690000895E894BB2766277727CB0197F90895FB
:1046A0004ADF08F48FEF08950BD0A9CF9ADF28F0E6
:1046B0009FDF18F0952309F062CF90CF1124EACF45
:1046C000AFDFA0F3959FD1F3950F50E0551F629F88
:1046D000F001729FBB27F00DB11D639FAA27F00D5B
:1046E000B11DAA1F649F6627B00DA11D661F829F82
:1046F0002227B00DA11D621F739FB00DA11D621F67
:10470000839FA00D611D221F749F3327A00D611D83
:10471000231F849F600D211D822F762F6A2F112465
:104720009F5750408AF0E1F088234AF0EE0FFF1FB8
:10473000BB1F661F771F881F91505040A9F79E3FEF
:10474000510570F01CCFA6CF5F3FECF3983EDCF331
:10475000869577956795B795F795E7959F5FC1F72C
:10476000FE2B880F911D9695879597F90895FA016C
:10477000EE0FFF1F30962105310599F16115710586
:1047800061F48038BFE39B0749F168949038810554
:1047900061F08038BFEF9B0741F0992342F5FF3F5E
:1047A000E1053105210511F1E8940894E795D90157
:1047B000AA2329F4AB2FBE2FF85FD0F310C0FF5F00
:1047C00070F4A695E0F7F73950F019F0FF3A38F495
:1047D0009F779F930CD00F9007FC905808953EF060
:1047E000FDCE60E070E080E89FE308954FE79F779B
:1047F0005F934F933F932F93EAD02F913F914F9127
:104800005F9152DF4AC011F40EF4E8CED9CE10DF2A
:10481000D0F39923D9F3CEF39F57550B87FF69D077
:104820000024A0E640EA900180585695979528F418
:10483000805C660F771F881F20F026173707480710
:1048400030F4621B730B840B202931294A2BA69567
:1048500017940794202531254A2758F7660F771FAC
:10486000881F20F026173707480730F4620B730BB8
:10487000840B200D311D411DA09581F7B901842FB6
:104880009158880F9695879508959B01AC010CCFA0
:1048900019F40EF074CEFDCEA1CECADEC8F3963860
:1048A000C0F707F80F92E8942BE33AEA48EB5FE78A
:1048B00009DF0F920F920F924DB75EB70F92C7D0DC
:1048C000E0E2F3E01DD04F915F91EF91FF91E5950C
:1048D000EE1FFF1F49F0FE57E0684427EE0F441F0C
:1048E000FA95E1F74195550B39D00F9007FE2DC091
:1048F000089591505040660F771F881FD2F7089592
:10490000DF93CF931F930F93FF92EF92DF927B0180
:104910008C01689405C0DA2EEF01D2DEFE01E89426
:10492000A5912591359145915591AEF3EF01F9DBB4
:10493000FE019701A801DA9479F7DF90EF90FF90DC
:104940000F911F91CF91DF9108959B01AC0160E021
:1049500070E080E89FE31ECD12CE32CE69DEE8F330
:104960009923D9F3940F511DBBF39150504094F00B
:1049700059F0882332F0660F771F881F91505040FE
:10498000C1F79E3F510544F7880F911D9695879575
:1049900097F908955F3FACF0983E9CF0BB27869551
:1049A00077956795B79508F4B1609395C1F7BB0FFC
:1049B00058F711F460FFE8CF6F5F7F4F8F4F9F4F25
:1049C000E3CF68CE0EF0FCCD09CE6894D8CD30DEB2
:1049D000C8F39923D1F3C6F3DF93CF931F930F93BB
:1049E000FF92C92FDD2788232AF02197660F771FB2
:1049F000881FDAF720E030E040E85FEB9FE388397A
:104A000020F0803E30F021968F777ADBE8E4F3E007
:104A100003C076DBE5E7F3E073DF8B01BE01EC0159
:104A2000FB2E6F5771097595771F880B990B48DD21
:104A300028E132E741E35FE343DEAF2D9801AE01A9
:104A4000FF900F911F91CF91DF916BDBD8CDFA01D1
:104A5000DC01AA0FBB1F9B01AC01BF5728F4222722
:104A60003327442750781FC0B75188F4AB2F002458
:104A7000469537952795011CA395D2F3002069F040
:104A8000220F331F441FB395DAF30DD038CB6130BA
:104A90007105A0E88A07B94630F49B01AC0166278E
:104AA000772788279078309621F0208331834283BE
:104AB0005383089513E0C0ECD3E004C0FE010E94CC
:104AC0007B202296C43CD107C9F7F894FFCF15008C
:00000001FF
