:100000000C9497000C94BF000C94BF000C94BF009C
:100010000C94BF000C94BF000C94BF000C94BF0064
:100020000C94BF000C94BF000C94BF000C94BF0054
:100030000C94BF000C94BF000C94BF000C94BF0044
:100040000C947A140C94BF000C94BF000C94BF0065
:100050000C94BF000C94BF000C94BF000C94BF0024
:100060000C947F120C94BF00C62C3D113B11500C18
:100070003F062D093B11F9093B113B113B113B1187
:100080003B113B113B113B113B11A70E3B11B50935
:1000900067083B11E7083B1127083B113B11A708F4
:1000A0003B113B113B113B113B113B113B11530CDD
:1000B0003B063B113B11FC093B111E083B113B1158
:1000C0003B11FE1022083B113B11AA0E3B11710996
:1000D0003D1100000000240027002A00000000005D
:1000E000250028002B000000000023002600290026
:1000F00004040404040404040202020202020303CE
:1001000003030303010204081020408001020408D5
:100110001020010204081020000000070002010066
:10012000000304060000000000000000BC111124C0
:100130001FBECFEFD8E0DEBFCDBF11E0A0E0B1E041
:10014000E6E3FCE202C005900D92A039B107D9F7B1
:1001500012E0A0E9B1E001C01D92AA38B107E1F7B1
:1001600011E0CEE2D1E004C02297FE010E941516F4
:10017000CC32D107C9F70E94C1150C9419160C9402
:10018000000081E08093900108950F931F938330C6
:1001900069F1843028F4813059F08230A9F418C014
:1001A000853009F440C0853078F1863069F449C063
:1001B00081E090E0A0E0B0E080937C0190937D012D
:1001C000A0937E01B0937F0160E000E010E048C0A2
:1001D00082E090E0A0E0B0E080937C0190937D010C
:1001E000A0937E01B0937F0161E0EFCF84E090E0C7
:1001F000A0E0B0E080937C0190937D01A0937E010C
:10020000B0937F0160E00DC088E090E0A0E0B0E036
:1002100080937C0190937D01A0937E01B0937F0138
:1002200061E001E0D3CF80E190E0A0E0B0E0809316
:100230007C0190937D01A0937E01B0937F0160E0EB
:100240000DC080E290E0A0E0B0E080937C0190934C
:100250007D01A0937E01B0937F0161E000E011E099
:100260008CE00E9454148BE0602F0E9454148DE0A7
:10027000612F0E9454141F910F910895CF93DF9323
:1002800087E092E060E170E00E94531287E092E024
:100290006BE471E10E94B711C2E0D0E08C2F60E006
:1002A0000E9454148C2F61E00E942E142196CE30AF
:1002B000D105A1F787B1836087B98AB18160589A67
:1002C0008B7E8AB961E070E080E090E00E94CE14FD
:1002D00088B1876088B98AB182688AB98BB18D7715
:1002E0008BB986E00E94C500DF91CF910895589A9E
:1002F00068EC70E080E090E00E94CE145898089579
:1003000004C087E092E00E945A1187E092E00E94C8
:100310005111892BB1F708952F923F924F925F921E
:100320006F927F928F929F92AF92BF92CF92DF9205
:10033000EF92FF920F931F93DF93CF93CDB7DEB76A
:1003400060970FB6F894DEBF0FBECDBF6B017C0186
:1003500029013A0160917C0170917D0180917E01BB
:1003600090917F0120E931E040E050E00E94D215F9
:100370004B015C01C701B60128EE33E040E050E0DC
:100380000E94D2156B017C0160E07AE285E795E17D
:10039000A50194010E94F115C701B6010E94F11553
:1003A000122FF32EE42ED52E60E077E883E993E058
:1003B000A30192010E94F115CA01B901A50194019E
:1003C0000E94F11549015A01D501C4018C599F4F72
:1003D000AF4FBF4F89879A87AB87BC8787E0602F75
:1003E0000E94541481E090E00E942715D501C401B9
:1003F000B695A795979587951C01812F9F2DAE2DBA
:10040000BD2D2C013D011D821E821F82188619827E
:100410001A821B821C82D301C201C297A109B109B1
:100420008D879E87AF87B88B59C0089441085108C3
:10043000610871088D859E85AF85B8894816590673
:100440006A067B06E8F08D819E81AF81B8850196B2
:10045000A11DB11D8D839E83AF83B8875E9A8D8168
:100460009E81AF81B885880F991FAA1FBB1FE984A1
:10047000FA840B851C85E81AF90A0A0B1B0B23C0AA
:1004800093E3491651046104710438F05E9AC10186
:100490000E9427155E98C1011FC089819A81AB8196
:1004A000BC810196A11DB11D89839A83AB83BC8356
:1004B0005E9A7C018D01EE0CFF1C001F111FE80CE1
:1004C000F91C0A1D1B1D16950795F794E794C701A3
:1004D0000E9427155E98C7010E94271541145104F8
:1004E0006104710409F0A1CF60960FB6F894DEBFE5
:1004F0000FBECDBFCF91DF911F910F91FF90EF9075
:10050000DF90CF90BF90AF909F908F907F906F9033
:100510005F904F903F902F900895CF92DF92EF928F
:10052000FF920F931F932091240130912501409158
:1005300026015091270160E472E48FE090E00E9470
:10054000F11579018A0160917C0170917D018091A2
:100550007E0190917F0128EC30E040E050E00E9465
:10056000D21520ED37E040E050E00E94F115C801BF
:10057000B7010E94F11569017A014A9909C022C0A8
:1005800068EE73E080E090E000E010E00E948C01F3
:1005900020912C0130912D0140912E0150912F017D
:1005A0004A99EECF609192017091930180919401EC
:1005B0009091950100E010E00E948C0185E090E0B0
:1005C0000E942715609130017091310180913201B4
:1005D0009091330120912C0130912D0140912E01F9
:1005E00050912F0101E010E00E948C0185E090E025
:1005F0000E942715599881E090E00E942715F694F3
:10060000E794D794C794860108C02A9AC8010E942B
:1006100027152A98C8010E9427154C99F6CF1092E9
:10062000BA011092BB011092BC011092BD011F9142
:100630000F91FF90EF90DF90CF9008954F925F92CF
:100640006F927F928F929F92AF92BF92CF92DF92E2
:10065000EF92FF920F931F932B013C0169017A01E6
:1006600060917C0170917D0180917E0190917F016C
:1006700028EC30E040E050E00E94D215A301920146
:100680000E94D21520ED37E040E050E00E94F115C5
:10069000C901DA014C015D01C301B20128EE33E06A
:1006A00040E050E00E94D215A70196010E94F1158A
:1006B000CA01B90128EE33E040E050E00E94D215B3
:1006C000A50194010E94F11569017A0181E0602F72
:1006D0000E94541485E090E00E942715012BD1F56B
:1006E0004C9B2FC08091BA019091BB01A091BC019D
:1006F000B091BD0184199509A609B7098093BA0183
:100700009093BB01A093BC01B093BD01F694E79414
:10071000D794C79486010FC02A9AC8010E94271552
:100720002A98C8010E9427154C9B0BC00894810889
:100730009108A108B10881149104A104B10461F7E2
:100740004FC01092BA011092BB011092BC011092DE
:10075000BD0146C02091BA013091BB014091BC015E
:100760005091BD01240D351D461D571D2093BA0122
:100770003093BB014093BC015093BD0180913C017B
:1007800090913D01A0913E01B0913F0182179307E6
:10079000A407B507C8F0F694E794D794C7948601E8
:1007A0000DC02A9AC8010E9427152A98C8010E94E4
:1007B0002715089481089108A108B10881149104B3
:1007C000A104B10471F70CC0241935094609570971
:1007D0002093BA013093BB014093BC015093BD01FB
:1007E0001F910F91FF90EF90DF90CF90BF90AF904F
:1007F0009F908F907F906F905F904F9008950F9390
:100800001F936091AE017091AF018091B001909102
:10081000B1010E94CE1460917801709179018091AC
:100820007A0190917B01209168013091690140919A
:100830006A0150916B0101E010E00E948C0185E09B
:1008400090E00E942715609114017091150180912C
:100850001601909117012091700130917101409122
:1008600072015091730100E010E00E941E0360913C
:10087000B2017091B3018091B4019091B5010E94D1
:10088000CE14609178017091790180917A019091F4
:100890007B0120916C0130916D0140916E0150916E
:1008A0006F010E948C0185E090E00E942715609105
:1008B00018017091190180911A0190911B012091EA
:1008C000740130917501409176015091770101E0FA
:1008D00010E00E941E036091B6017091B7018091F3
:1008E000B8019091B9010E94CE141F910F91089503
:1008F0000F931F936091A2017091A3018091A401B5
:100900009091A5010E94CE146091640170916501DF
:1009100080916601909167012091540130915501B9
:10092000409156015091570101E010E00E948C0166
:1009300085E090E00E94271560910C0170910D01F7
:1009400080910E0190910F0120915C0130915D0129
:1009500040915E0150915F0100E010E00E941E0393
:100960006091A6017091A7018091A8019091A901C1
:100970000E94CE14609164017091650180916601BE
:1009800090916701209158013091590140915A018D
:1009900050915B010E948C0185E090E00E94271538
:1009A00060911001709111018091120190911301D9
:1009B0002091600130916101409162015091630189
:1009C00001E010E00E941E036091AA017091AB014A
:1009D0008091AC019091AD010E94CE141F910F91B6
:1009E00008950F931F9360919601709197018091E4
:1009F0009801909199010E94CE14609150017091DC
:100A00005101809152019091530120914001309108
:100A10004101409142015091430101E010E00E94E8
:100A20008C0185E090E00E94271560910001709193
:100A300001018091020190910301209148013091C0
:100A4000490140914A0150914B0100E010E00E94A1
:100A50001E0360919A0170919B0180919C0190917D
:100A60009D010E94CE1460915001709151018091BE
:100A700052019091530120914401309145014091E0
:100A80004601509147010E948C0185E090E00E9450
:100A90002715609108017091090180910A019091D8
:100AA0000B0120914C0130914D0140914E0150912C
:100AB0004F0101E010E00E941E0360919E017091C1
:100AC0009F018091A0019091A1010E94CE141F91DD
:100AD0000F9108950F931F930E948D0285E090E07F
:100AE0000E94271560911C0170911D0180911E01CB
:100AF00090911F0120912401309125014091260100
:100B00005091270101E010E00E941E0385E090E073
:100B10000E9427156091300170913101809132015E
:100B20009091330120912C0130912D0140912E01A3
:100B300050912F0100E010E00E948C0185E090E0D0
:100B40000E9427156091200170912101809122015E
:100B500090912301209128013091290140912A018F
:100B600050912B0101E010E00E941E0385E090E00F
:100B70000E9427151F910F9108959F92AF92BF92E7
:100B8000CF92DF92EF92FF920F931F93CF93DF9359
:100B90002091040130910501409106015091070117
:100BA0008091000190910101A0910201B091030197
:100BB000821B930BA40BB50B809308019093090142
:100BC000A0930A01B0930B0180910C0190910D014B
:100BD000A0910E01B0910F01821B930BA40BB50BDA
:100BE0008093100190931101A0931201B09313010F
:100BF0008091140190911501A0911601B0911701F7
:100C0000821B930BA40BB50B8093180190931901D1
:100C1000A0931A01B0931B0180919101882311F0D8
:100C20000E94770181E08093910187E092E061EC7E
:100C300070E00E94B211809190018823E1F310923C
:100C4000900187E092E00E945A1187E092E00E94B2
:100C50005A11419890E0FC01E054F040E433F10572
:100C600010F00C943B11EB5CFF4FEE0FFF1F059053
:100C7000F491E02D09940E946A050C943D1187E0DF
:100C800092E00E945A11843609F4D8C0853658F48F
:100C9000823609F453C0833608F090C0813611F0D3
:100CA0000C943D110BC0863609F448C1863608F411
:100CB00005C1873611F00C943D1180C1C0E0D0E031
:100CC00061E0A62EB12CC12CD12CEE24FF2487018B
:100CD00087E092E00E945A11982E80538A3020F0CB
:100CE000AA24BB24650115C0C801B7012AE030E081
:100CF00040E050E00E94D215292D30E020533040D2
:100D000079010027F7FC0095102FE60EF71E081F4B
:100D1000191F2196C630D105D9F6A114B104C1041A
:100D2000D10411F40C943D11E0921C01F0921D01CC
:100D300000931E0110931F010C943D11C0E0D0E000
:100D400051E0A52EB12CC12CD12CEE24FF2487011B
:100D500087E092E00E945A11982E80538A3020F04A
:100D6000AA24BB24650115C0C801B7012AE030E000
:100D700040E050E00E94D215292D30E02053304051
:100D800079010027F7FC0095102FE60EF71E081FCB
:100D9000191F2196C630D105D9F6A114B104C1049A
:100DA000D10411F40C943D11E0922001F092210144
:100DB00000932201109323010C943D11C0E0D0E078
:100DC00041E0A42EB12CC12CD12CEE24FF248701AC
:100DD00087E092E00E945A11982E80538A3020F0CA
:100DE000AA24BB24650115C0C801B7012AE030E080
:100DF00040E050E00E94D215292D30E020533040D1
:100E000079010027F7FC0095102FE60EF71E081F4A
:100E1000191F2196C630D105D9F6A114B104C10419
:100E2000D10411F40C943D11E0922401F0922501BB
:100E300000932601109327010C943D11C0E0D0E0EF
:100E400031E0A32EB12CC12CD12CEE24FF2487013C
:100E500087E092E00E945A11982E80538A3020F049
:100E6000AA24BB24650115C0C801B7012AE030E0FF
:100E700040E050E00E94D215292D30E02053304050
:100E800079010027F7FC0095102FE60EF71E081FCA
:100E9000191F2196C630D105D9F6A114B104C10499
:100EA000D10411F40C943D11E0922801F092290133
:100EB00000932A0110932B010C943D11C0E0D0E067
:100EC00021E0A22EB12CC12CD12CEE24FF248701CD
:100ED00087E092E00E945A11982E80538A3020F0C9
:100EE000AA24BB24650115C0C801B7012AE030E07F
:100EF00040E050E00E94D215292D30E020533040D0
:100F000079010027F7FC0095102FE60EF71E081F49
:100F1000191F2196C630D105D9F6A114B104C10418
:100F2000D10411F40C943D11E0922C01F0922D01AA
:100F300000932E0110932F010C943D11C0E0D0E0DE
:100F400091E0A92EB12CC12CD12CEE24FF248701D5
:100F500087E092E00E945A11982E80538A3020F048
:100F6000AA24BB24650115C0C801B7012AE030E0FE
:100F700040E050E00E94D215292D30E0205330404F
:100F800079010027F7FC0095102FE60EF71E081FC9
:100F9000191F2196C630D105D9F6A114B104C10498
:100FA000D10411F40C943D11E0923001F092310122
:100FB00000933201109333010C943D11C0E0D0E056
:100FC00081E0A82EB12CC12CD12CEE24FF24870166
:100FD00087E092E00E945A11982E80538A3020F0C8
:100FE000AA24BB24650115C0C801B7012AE030E07E
:100FF00040E050E00E94D215292D30E020533040CF
:1010000079010027F7FC0095102FE60EF71E081F48
:10101000191F2196C630D105D9F6A114B104C10417
:10102000D10411F40C943D11E0929201F0929301DD
:1010300000939401109395010C943D110E948D0230
:101040000C943D1180E00E94C5000C943D11C0E05D
:10105000D0E001E0A02EB12CC12CD12CEE24FF2435
:10106000870187E092E00E945A11982E80538A30BF
:1010700020F0AA24BB24650115C0C801B7012AE0ED
:1010800030E040E050E00E94D215292D30E020539E
:10109000304079010027F7FC0095102FE60EF71E6F
:1010A000081F191F2196C630D105D9F6A114B10425
:1010B000C104D10411F40C943D11E0923401F0927A
:1010C000350100933601109337010C943D11C0E0B7
:1010D000D0E011E0A12EB12CC12CD12CEE24FF24A4
:1010E000870187E092E00E945A11982E80538A303F
:1010F00020F0AA24BB24650115C0C801B7012AE06D
:1011000030E040E050E00E94D215292D30E020531D
:10111000304079010027F7FC0095102FE60EF71EEE
:10112000081F191F2196C630D105D9F6A114B104A4
:10113000C104D10411F40C943D11E0923801F092F5
:10114000390100933A0110933B010C943D11C0E02A
:10115000D0E0B1E0AB2EB12CC12CD12CEE24FF2479
:10116000870187E092E00E945A11982E80538A30BE
:1011700020F0AA24BB24650115C0C801B7012AE0EC
:1011800030E040E050E00E94D215292D30E020539D
:10119000304079010027F7FC0095102FE60EF71E6E
:1011A000081F191F2196C630D105D9F6A114B10424
:1011B000C104D10411F40C943D11E0923C01F09271
:1011C0003D0100933E0110933F010C943D11C0E09E
:1011D000D0E0A1E0AA2EB12CC12CD12CEE24FF240A
:1011E000870187E092E00E945A11982E80538A303E
:1011F00020F0AA24BB24650115C0C801B7012AE06C
:1012000030E040E050E00E94D215292D30E020531C
:10121000304079010027F7FC0095102FE60EF71EED
:10122000081F191F2196C630D105D9F6A114B104A3
:10123000C104D10411F40C943D1120913801309176
:10124000390140913A0150913B01C801B70100E0DA
:1012500010E00E941E030C943D11C0E0D0E0F1E0CC
:10126000AF2EB12CC12CD12CEE24FF24870187E0B6
:1012700092E00E945A11982E80538A3020F0AA24BE
:10128000BB24650115C0C801B7012AE030E040E089
:1012900050E00E94D215292D30E0205330407901D2
:1012A0000027F7FC0095102FE60EF71E081F191FE8
:1012B0002196C630D105D9F6A114B104C104D104D8
:1012C00009F4DBC7209138013091390140913A018E
:1012D00050913B01C801B70101E010E00E941E03DC
:1012E000CCC7C0E0D0E0E1E0AE2EB12CC12CD12CB7
:1012F000EE24FF24870187E092E00E945A11982E85
:1013000080538A3020F0AA24BB24650115C0C8018F
:10131000B7012AE030E040E050E00E94D215292DCC
:1013200030E02053304079010027F7FC0095102F62
:10133000E60EF71E081F191F2196C630D105D9F6F3
:10134000A114B104C104D10409F497C72091340158
:10135000309135014091360150913701C801B701F4
:1013600000E010E00E948C0188C7C0E0D0E071E08E
:10137000A72EB12CC12CD12CEE24FF24870187E0AD
:1013800092E00E945A11982E80538A3020F0AA24AD
:10139000BB24650115C0C801B7012AE030E040E078
:1013A00050E00E94D215292D30E0205330407901C1
:1013B0000027F7FC0095102FE60EF71E081F191FD7
:1013C0002196C630D105D9F6A114B104C104D104C7
:1013D00009F453C720913401309135014091360111
:1013E00050913701C801B70101E010E00E948C0163
:1013F00044C70E94F10441C787E092E00E945A115D
:10140000853609F417C1863680F4823609F458C04F
:10141000833620F4813609F030C714C0833609F4CE
:101420008DC0843609F029C7C7C0873609F47EC14C
:10143000873608F43DC1883609F4B6C1893609F00B
:101440001CC7F0C1C0E0D0E061E0A62EB12CC12CD9
:10145000D12CEE24FF24870187E092E00E945A11EC
:10146000982E80538A3020F0AA24BB24650115C031
:10147000C801B7012AE030E040E050E00E94D215F8
:10148000292D30E02053304079010027F7FC0095EA
:10149000102FE60EF71E081F191F2196C630D10522
:1014A000D9F6A114B104C104D10409F4E6C6E0924E
:1014B0004001F09241010093420110934301DDC6C7
:1014C000C0E0D0E051E0A52EB12CC12CD12CEE24EF
:1014D000FF24870187E092E00E945A11982E8053E2
:1014E0008A3020F0AA24BB24650115C0C801B701C9
:1014F0002AE030E040E050E00E94D215292D30E093
:101500002053304079010027F7FC0095102FE60E9C
:10151000F71E081F191F2196C630D105D9F6A11450
:10152000B104C104D10409F4A8C6E0924401F092C8
:10153000450100934601109347019FC6C0E0D0E0EB
:1015400041E0A42EB12CC12CD12CEE24FF24870124
:1015500087E092E00E945A11982E80538A3020F042
:10156000AA24BB24650115C0C801B7012AE030E0F8
:1015700040E050E00E94D215292D30E02053304049
:1015800079010027F7FC0095102FE60EF71E081FC3
:10159000191F2196C630D105D9F6A114B104C10492
:1015A000D10409F46AC6E0920001F09201010093AF
:1015B00002011093030161C6C0E0D0E031E0A32E28
:1015C000B12CC12CD12CEE24FF24870187E092E0BE
:1015D0000E945A11982E80538A3020F0AA24BB24EE
:1015E000650115C0C801B7012AE030E040E050E0D5
:1015F0000E94D215292D30E0205330407901002778
:10160000F7FC0095102FE60EF71E081F191F2196F4
:10161000C630D105D9F6A114B104C104D10409F42E
:101620002CC6E0924801F092490100934A011093C0
:101630004B0123C6C0E0D0E021E0A22EB12CC12C8A
:10164000D12CEE24FF24870187E092E00E945A11FA
:10165000982E80538A3020F0AA24BB24650115C03F
:10166000C801B7012AE030E040E050E00E94D21506
:10167000292D30E02053304079010027F7FC0095F8
:10168000102FE60EF71E081F191F2196C630D10530
:10169000D9F6A114B104C104D10409F4EEC5E09255
:1016A0004C01F0924D0100934E0110934F01E5C59E
:1016B000C0E0D0E091E0A92EB12CC12CD12CEE24B9
:1016C000FF24870187E092E00E945A11982E8053F0
:1016D0008A3020F0AA24BB24650115C0C801B701D7
:1016E0002AE030E040E050E00E94D215292D30E0A1
:1016F0002053304079010027F7FC0095102FE60EAB
:10170000F71E081F191F2196C630D105D9F6A1145E
:10171000B104C104D10409F4B0C5E0925001F092C3
:1017200051010093520110935301A7C5C0E0D0E0CE
:1017300081E0A82EB12CC12CD12CEE24FF248701EE
:1017400087E092E00E945A11982E80538A3020F050
:10175000AA24BB24650115C0C801B7012AE030E006
:1017600040E050E00E94D215292D30E02053304057
:1017700079010027F7FC0095102FE60EF71E081FD1
:10178000191F2196C630D105D9F6A114B104C104A0
:10179000D10409F472C5E0929601F092970100938A
:1017A00098011093990169C5C0E0D0E001E0A02E36
:1017B000B12CC12CD12CEE24FF24870187E092E0CC
:1017C0000E945A11982E80538A3020F0AA24BB24FC
:1017D000650115C0C801B7012AE030E040E050E0E3
:1017E0000E94D215292D30E0205330407901002786
:1017F000F7FC0095102FE60EF71E081F191F219603
:10180000C630D105D9F6A114B104C104D10409F43C
:1018100034C5E0929A01F0929B0100939C011093D1
:101820009D012BC5C0E0D0E011E0A12EB12CC12C50
:10183000D12CEE24FF24870187E092E00E945A1108
:10184000982E80538A3020F0AA24BB24650115C04D
:10185000C801B7012AE030E040E050E00E94D21514
:10186000292D30E02053304079010027F7FC009506
:10187000102FE60EF71E081F191F2196C630D1053E
:10188000D9F6A114B104C104D10409F4F6C4E0925C
:101890009E01F0929F010093A0011093A101EDC45D
:1018A0000E947804EAC487E092E00E945A118536CB
:1018B00009F417C1863680F4823609F458C083369D
:1018C00020F4813609F0D9C414C0833609F48DC0E0
:1018D000843609F0D2C4C7C0873609F47EC1873682
:1018E00008F43DC1883609F4B6C1893609F0C5C48B
:1018F000F0C1C0E0D0E0B1E0AB2EB12CC12CD12CB6
:10190000EE24FF24870187E092E00E945A11982E6E
:1019100080538A3020F0AA24BB24650115C0C80179
:10192000B7012AE030E040E050E00E94D215292DB6
:1019300030E02053304079010027F7FC0095102F4C
:10194000E60EF71E081F191F2196C630D105D9F6DD
:10195000A114B104C104D10409F48FC4E09254016C
:10196000F0925501009356011093570186C4C0E0D0
:10197000D0E0A1E0AA2EB12CC12CD12CEE24FF2462
:10198000870187E092E00E945A11982E80538A3096
:1019900020F0AA24BB24650115C0C801B7012AE0C4
:1019A00030E040E050E00E94D215292D30E0205375
:1019B000304079010027F7FC0095102FE60EF71E46
:1019C000081F191F2196C630D105D9F6A114B104FC
:1019D000C104D10409F451C4E0925801F0925901B4
:1019E00000935A0110935B0148C4C0E0D0E0F1E0DD
:1019F000AF2EB12CC12CD12CEE24FF24870187E01F
:101A000092E00E945A11982E80538A3020F0AA2426
:101A1000BB24650115C0C801B7012AE030E040E0F1
:101A200050E00E94D215292D30E02053304079013A
:101A30000027F7FC0095102FE60EF71E081F191F50
:101A40002196C630D105D9F6A114B104C104D10440
:101A500009F413C4E0920C01F0920D0100930E0101
:101A600010930F010AC4C0E0D0E0E1E0AE2EB12C2B
:101A7000C12CD12CEE24FF24870187E092E00E9444
:101A80005A11982E80538A3020F0AA24BB24650175
:101A900015C0C801B7012AE030E040E050E00E94E4
:101AA000D215292D30E02053304079010027F7FC72
:101AB0000095102FE60EF71E081F191F2196C6303D
:101AC000D105D9F6A114B104C104D10409F4D5C3D8
:101AD000E0925C01F0925D0100935E0110935F0162
:101AE000CCC3C0E0D0E071E0A72EB12CC12CD12C2A
:101AF000EE24FF24870187E092E00E945A11982E7D
:101B000080538A3020F0AA24BB24650115C0C80187
:101B1000B7012AE030E040E050E00E94D215292DC4
:101B200030E02053304079010027F7FC0095102F5A
:101B3000E60EF71E081F191F2196C630D105D9F6EB
:101B4000A114B104C104D10409F497C3E092600167
:101B5000F092610100936201109363018EC3C0E0B3
:101B6000D0E061E0A62EB12CC12CD12CEE24FF24B4
:101B7000870187E092E00E945A11982E80538A30A4
:101B800020F0AA24BB24650115C0C801B7012AE0D2
:101B900030E040E050E00E94D215292D30E0205383
:101BA000304079010027F7FC0095102FE60EF71E54
:101BB000081F191F2196C630D105D9F6A114B1040A
:101BC000C104D10409F459C3E0926401F0926501A3
:101BD000009366011093670150C3C0E0D0E051E06C
:101BE000A52EB12CC12CD12CEE24FF24870187E037
:101BF00092E00E945A11982E80538A3020F0AA2435
:101C0000BB24650115C0C801B7012AE030E040E0FF
:101C100050E00E94D215292D30E020533040790148
:101C20000027F7FC0095102FE60EF71E081F191F5E
:101C30002196C630D105D9F6A114B104C104D1044E
:101C400009F41BC3E092A201F092A3010093A40146
:101C50001093A50112C3C0E0D0E041E0A42EB12C46
:101C6000C12CD12CEE24FF24870187E092E00E9452
:101C70005A11982E80538A3020F0AA24BB24650183
:101C800015C0C801B7012AE030E040E050E00E94F2
:101C9000D215292D30E02053304079010027F7FC80
:101CA0000095102FE60EF71E081F191F2196C6304B
:101CB000D105D9F6A114B104C104D10409F4DDC2DF
:101CC000E092A601F092A7010093A8011093A90148
:101CD000D4C2C0E0D0E031E0A32EB12CC12CD12C75
:101CE000EE24FF24870187E092E00E945A11982E8B
:101CF00080538A3020F0AA24BB24650115C0C80196
:101D0000B7012AE030E040E050E00E94D215292DD2
:101D100030E02053304079010027F7FC0095102F68
:101D2000E60EF71E081F191F2196C630D105D9F6F9
:101D3000A114B104C104D10409F49FC2E092AA0124
:101D4000F092AB010093AC011093AD0196C20E94DA
:101D5000FF0393C287E092E00E945A11853609F48E
:101D600017C1863680F4823609F458C0833620F4D1
:101D7000813609F082C214C0833609F48DC08436DE
:101D800009F07BC2C7C0873609F47EC1873608F4E4
:101D90003DC1883609F4B6C1893609F06EC2F0C17A
:101DA000C0E0D0E021E0A22EB12CC12CD12CEE2439
:101DB000FF24870187E092E00E945A11982E8053F9
:101DC0008A3020F0AA24BB24650115C0C801B701E0
:101DD0002AE030E040E050E00E94D215292D30E0AA
:101DE0002053304079010027F7FC0095102FE60EB4
:101DF000F71E081F191F2196C630D105D9F6A11468
:101E0000B104C104D10409F438C2E0926801F0922F
:101E1000690100936A0110936B012FC2C0E0D0E00A
:101E200091E0A92EB12CC12CD12CEE24FF248701E6
:101E300087E092E00E945A11982E80538A3020F059
:101E4000AA24BB24650115C0C801B7012AE030E00F
:101E500040E050E00E94D215292D30E02053304060
:101E600079010027F7FC0095102FE60EF71E081FDA
:101E7000191F2196C630D105D9F6A114B104C104A9
:101E8000D10409F4FAC1E0926C01F0926D01009363
:101E90006E0110936F01F1C1C0E0D0E081E0A82E87
:101EA000B12CC12CD12CEE24FF24870187E092E0D5
:101EB0000E945A11982E80538A3020F0AA24BB2405
:101EC000650115C0C801B7012AE030E040E050E0EC
:101ED0000E94D215292D30E020533040790100278F
:101EE000F7FC0095102FE60EF71E081F191F21960C
:101EF000C630D105D9F6A114B104C104D10409F446
:101F0000BCC1E0921401F0921501009316011093E8
:101F10001701B3C1C0E0D0E001E0A02EB12CC12C6C
:101F2000D12CEE24FF24870187E092E00E945A1111
:101F3000982E80538A3020F0AA24BB24650115C056
:101F4000C801B7012AE030E040E050E00E94D2151D
:101F5000292D30E02053304079010027F7FC00950F
:101F6000102FE60EF71E081F191F2196C630D10547
:101F7000D9F6A114B104C104D10409F47EC1E092E0
:101F80007001F0927101009372011093730175C199
:101F9000C0E0D0E011E0A12EB12CC12CD12CEE2458
:101FA000FF24870187E092E00E945A11982E805307
:101FB0008A3020F0AA24BB24650115C0C801B701EE
:101FC0002AE030E040E050E00E94D215292D30E0B8
:101FD0002053304079010027F7FC0095102FE60EC2
:101FE000F71E081F191F2196C630D105D9F6A11476
:101FF000B104C104D10409F440C1E0927401F0922B
:102000007501009376011093770137C1C0E0D0E0ED
:10201000B1E0AB2EB12CC12CD12CEE24FF248701D2
:1020200087E092E00E945A11982E80538A3020F067
:10203000AA24BB24650115C0C801B7012AE030E01D
:1020400040E050E00E94D215292D30E0205330406E
:1020500079010027F7FC0095102FE60EF71E081FE8
:10206000191F2196C630D105D9F6A114B104C104B7
:10207000D10409F402C1E0927801F0927901009351
:102080007A0110937B01F9C0C0E0D0E0A1E0AA2E54
:10209000B12CC12CD12CEE24FF24870187E092E0E3
:1020A0000E945A11982E80538A3020F0AA24BB2413
:1020B000650115C0C801B7012AE030E040E050E0FA
:1020C0000E94D215292D30E020533040790100279D
:1020D000F7FC0095102FE60EF71E081F191F21961A
:1020E000C630D105D9F6A114B104C104D10409F454
:1020F000C4C0E092AE01F092AF010093B001109322
:10210000B101BBC0C0E0D0E0F1E0AF2EB12CC12CDA
:10211000D12CEE24FF24870187E092E00E945A111F
:10212000982E80538A3020F0AA24BB24650115C064
:10213000C801B7012AE030E040E050E00E94D2152B
:10214000292D30E02053304079010027F7FC00951D
:10215000102FE60EF71E081F191F2196C630D10555
:10216000D9F6A114B104C104D10409F486C0E092E7
:10217000B201F092B3010093B4011093B5017DC098
:10218000C0E0D0E0E1E0AE2EB12CC12CD12CEE2489
:10219000FF24870187E092E00E945A11982E805315
:1021A0008A3020F0AA24BB24650115C0C801B701FC
:1021B0002AE030E040E050E00E94D215292D30E0C6
:1021C0002053304079010027F7FC0095102FE60ED0
:1021D000F71E081F191F2196C630D105D9F6A11484
:1021E000B104C104D10409F448C0E092B601F092F0
:1021F000B7010093B8011093B9013FC0C0E0D0E02F
:10220000EE24FF24870171E0A72EB12CC12CD12C24
:1022100087E092E00E945A11982E80538A3020F075
:10222000AA24BB24650115C0C801B7012AE030E02B
:1022300040E050E00E94D215292D30E0205330407C
:1022400079010027F7FC0095102FE60EF71E081FF6
:10225000191F2196C430D105D9F6A114B104C104C7
:10226000D10459F0E0920401F092050100930601B7
:102270001093070102C0109291010E948001DF912A
:10228000CF911F910F91FF90EF90DF90CF90BF9073
:10229000AF909F90089587E092E060E00E94041262
:1022A00008952091DF0130E08091DE01281B310983
:1022B000C90108954091DE018091DF01481718F0AF
:1022C0002FEF3FEF0AC0E42FF0E0E254FE4F808191
:1022D000282F30E04F5F4093DE01C9010895E0915F
:1022E000DE018091DF01E81718F0EFEFFFEF06C085
:1022F000F0E0E254FE4F8081E82FF0E0CF01089536
:102300000895AC0120910502309106022115310596
:10231000E1F09091DE018091DF019817B0F090E03C
:1023200008C0FA01EA0FFB1F8081A254BE4F8C93B4
:102330009F5FA92FB0E0A617B7079CF31092DE01AC
:102340006093DF01CB01F90109950895E091030243
:10235000F0910402309729F01092000210920102CD
:10236000099508957093060260930502089570938D
:10237000040260930302089510920A021092090267
:1023800088EE93E0A0E0B0E080930B0290930C0203
:10239000A0930D02B0930E0284E891E0909308029E
:1023A000809307020895CF92DF92EF92FF920F93EE
:1023B0001F93CF93DF937C016B018A01809102020E
:1023C0008823A1F0C0E0D0E00DC0D701ED91FC91D1
:1023D000D601AC0FBD1F0190F081E02DC7016C91BB
:1023E00009952196C017D10780F304C0CB01642F53
:1023F0000E945A12C801DF91CF911F910F91FF9057
:10240000EF90DF90CF900895DF93CF930F92CDB7E9
:10241000DEB7FC016983809102028823C9F08091B4
:102420000102803238F081E090E09383828320E0E3
:1024300030E015C080910002E82FF0E0E052FE4F3E
:10244000998190838F5F809300028093010205C081
:10245000CE01019661E00E945A1221E030E0C901EC
:102460000F90CF91DF9108951092DE011092DF015D
:1024700010920002109201020E94101408950F930E
:102480001F938C01862F0E94561286EA91E10E94CA
:102490007A1281E891E10E947512C8010E943412FB
:1024A0001F910F9108950E943F120895880F809305
:1024B000BA000895482F613210F081E008958091AC
:1024C0001302843011F082E0089560935E02ADE360
:1024D000B2E0842F9C01F90102C081918D938E2F6F
:1024E000841B8617D0F380E0089590931A0280939E
:1024F00019020895909318028093170208951F926D
:102500000F920FB60F9211242F933F934F935F9327
:102510006F937F938F939F93AF93BF93EF93FF93AB
:102520008091B90090E0887F90708036910509F421
:10253000F2C081369105CCF58832910509F47BC053
:1025400089329105B4F48031910509F46FC081316D
:1025500091053CF4009709F447C1089709F04FC171
:1025600065C08831910509F466C0809709F047C1BC
:1025700082C08034910509F4A4C08134910544F4EB
:102580008033910509F482C0C89709F038C189C029
:102590008035910509F489C08835910509F496C004
:1025A0008834910509F02BC1AEC08839910509F432
:1025B00013C189399105ECF48837910509F4ABC052
:1025C000893791054CF48836910509F4A4C0803709
:1025D000910509F014C19FC08838910509F4FCC029
:1025E0008039910509F49DC08038910509F007C133
:1025F00098C0803B910509F4C6C0813B91054CF41D
:10260000803A910509F49FC0883A910509F0F7C016
:10261000BAC0803C910509F4E3C0883C910509F4F7
:10262000DFC0883B910509F0EAC0C2C08091140266
:102630008093BB00CFC090913B0280913C029817E1
:1026400068F490913B02E92FF0E0E55EFD4F808158
:102650008093BB009F5F90933B02BCC080911502AA
:10266000882309F44BC085ED8093BC008091BC00A9
:1026700084FDFCCFC2C080E28093800285ED809310
:10268000BC008091BC0084FDFCCFB7C080E3809388
:10269000800285ED8093BC008091BC0084FDFCCF5E
:1026A000ACC088E3809380029BC080913B029091F4
:1026B000BB00E82FF0E0E55EFD4F90838F5F8093D5
:1026C0003B0290913B0280913C0282C080913B0290
:1026D0009091BB00E82FF0E0E55EFD4F90838F5FA7
:1026E00080933B0280911502882341F085ED809311
:1026F000BC008091BC0084FDFCCF7FC081E0809352
:10270000160284EA6EC085ED8093BC008091BC0007
:1027100084FDFCCF72C083E08093130210927F028D
:1027200059C080917F02803208F056C080917F02AC
:102730009091BB00E82FF0E0E15AFD4F90838F5F4E
:1027400080937F0247C080917F02803230F4E09115
:102750007F02F0E0E15AFD4F108285ED8093BC00CE
:102760008091BC0084FDFCCF1092130260917F0227
:10277000E0911902F0911A028FE592E070E009955C
:1027800010927F022DC084E08093130210925D02AC
:1027900010925E02E0911702F09118020995809163
:1027A0005E02882329F481E080935E0210923D024C
:1027B00090915D02E92FF0E0E35CFD4F8081809312
:1027C000BB009F5F90935D0290915D0280915E02DD
:1027D000981710F485EC01C085E88093BC000FC009
:1027E00085EC8093BC0009C01092800285ED809337
:1027F000BC008091BC0084FDFCCF10921302FF91BD
:10280000EF91BF91AF919F918F917F916F915F9168
:102810004F913F912F910F900FBE0F901F901895E1
:102820001092130281E0809315021092160282E149
:1028300061E00E946C1583E161E00E946C15E9EB98
:10284000F0E080818E7F808380818D7F808380E235
:102850008093B80085E48093BC000895482F50E031
:10286000CA018C5F9E4FFC01249140515F4FFA01D9
:1028700084918823C1F0E82FF0E0EE0FFF1FEE52A5
:10288000FF4FA591B491662341F49FB7F8948C91C2
:10289000209582238C939FBF08959FB7F8948C91C5
:1028A000822B8C939FBF0895482F50E0CA018C5F04
:1028B0009E4FFC01249140515F4FFA01849188237F
:1028C000C1F0E82FF0E0EE0FFF1FE452FF4FA5919B
:1028D000B491662341F49FB7F8948C91209582239C
:1028E0008C939FBF08959FB7F8948C91822B8C9303
:1028F0009FBF08951F920F920FB60F9211242F932E
:102900003F934F935F936F937F938F939F93AF9377
:10291000BF932091850230918602409187025091A9
:10292000880270918902DA01C9010296A11DB11DC8
:10293000672F6A5F6D3730F06D57DA01C901039672
:10294000A11DB11D60938902809385029093860238
:10295000A0938702B09388028091810290918202B5
:10296000A0918302B09184020196A11DB11D8093B4
:10297000810290938202A0938302B0938402BF915C
:10298000AF919F918F917F916F915F914F913F9107
:102990002F910F900FBE0F901F9018959B01AC01C7
:1029A0007FB7F8948091810290918202A091830276
:1029B000B091840266B5A89B05C06F3F19F00196DF
:1029C000A11DB11D7FBFBA2FA92F982F8827860F71
:1029D000911DA11DB11D63E0880F991FAA1FBB1F88
:1029E0006A95D1F7BC012DC0FFB7F89480918102A0
:1029F00090918202A0918302B0918402E6B5A89BD7
:102A000005C0EF3F19F00196A11DB11DFFBFBA2F00
:102A1000A92F982F88278E0F911DA11DB11DE3E0CE
:102A2000880F991FAA1FBB1FEA95D1F7861B970B2A
:102A3000885E9340C8F22150304040405040685179
:102A40007C4F211531054105510571F60895019717
:102A500039F0019729F0880F991F01970197F1F735
:102A60000895789484B5826084BD84B5816084BD06
:102A700085B5826085BD85B5816085BDEEE6F0E0F7
:102A8000808181608083E1E8F0E010828081826053
:102A90008083808181608083E0E8F0E080818160D4
:102AA0008083E1EBF0E0808184608083E0EBF0E004
:102AB000808181608083EAE7F0E0808184608083A8
:102AC0008081826080838081816080838081806852
:102AD00080831092C1000895482F50E0CA01885E9B
:102AE0009E4FFC012491CA018C5F9E4FFC01949182
:102AF00040515F4FFA013491332309F440C022233F
:102B000051F1233071F0243028F42130A1F022302B
:102B100011F514C02630B1F02730C1F02430D9F4BB
:102B200004C0809180008F7703C0809180008F7DEA
:102B30008093800010C084B58F7702C084B58F7DEC
:102B400084BD09C08091B0008F7703C08091B00030
:102B50008F7D8093B000E32FF0E0EE0FFF1FE45273
:102B6000FF4FA591B4912FB7F894662321F48C916F
:102B70009095892302C08C91892B8C932FBF089547
:102B80000895CF93DF930E9431150E94C0150E94D3
:102B90003E01C0E0D0E00E94BD052097E1F30E9415
:102BA0000000F9CF629FD001739FF001829FE00D7A
:102BB000F11D649FE00DF11D929FF00D839FF00DBC
:102BC000749FF00D659FF00D9927729FB00DE11D68
:102BD000F91F639FB00DE11DF91FBD01CF01112445
:102BE0000895A1E21A2EAA1BBB1BFD010DC0AA1F4E
:102BF000BB1FEE1FFF1FA217B307E407F50720F066
:102C0000A21BB30BE40BF50B661F771F881F991FE0
:102C10001A9469F760957095809590959B01AC0129
:102C2000BD01CF010895EE0FFF1F0590F491E02D37
:102C30000994F894FFCFD007000019000000B707EF
:102C40000000D0070000B7070000D0070000B7075A
:102C50000000007102008813000094110000C409F4
:102C600000000600000060EA00000F000000941160
:102C7000000088840200060000000600000088139F
:102C800000008813000060EA00000B0000000B0049
:102C90000000941100009411000060EA00000C0094
:102CA00000000C000000941100009411000060EA84
:102CB000000001000000000000000412D3115111B7
:062CC0005A116F11801192
:00000001FF
