:100000000C9466010C948E010C948E010C948E015C
:100010000C948E010C94C01B0C948E010C9406144D
:100020000C948E010C948E010C948E010C9432135E
:100030000C948E010C948E010C942F140C948E0150
:100040000C948E010C948E010C9443150C94711534
:100050000C948E010C948E010C948E010C948E01E4
:100060000C94A3010C948E01064A551C8C1CB61CE2
:10007000F31C351D6C1DAA1DD41D3F1E901ECB1EEA
:10008000F51E311F401F981F651C6B1C6B1C6B1CE1
:100090006B1C6B1CD41F6B1C6B1C6B1CD41F7D1C3E
:1000A000D41F611CC31E881C981C9E1C9E1C9E1C79
:1000B0009E1C9E1CD41F9E1C9E1C9E1CD41FBA1FDF
:1000C000B01CD41FD41FB21CC21CC81CC81CC81C26
:1000D000C81CC81CD41FC81CC81CDA1CD41FD41FC1
:1000E000D41FD41FD41FEF1C011D071D071D071DA2
:1000F000071D071DD41F071D071D071DD41FD41F73
:10010000D41FFF1C191D311D451D4B1D4B1D4B1DC3
:100110004B1D4B1DD41F4B1D4B1D4B1DD41F5D1D77
:10012000D41F411DC31E681D781D7E1D7E1D7E1DB2
:100130007E1D7E1DD41F7E1D7E1D7E1D901DBA1F3F
:10014000A41DD41FD41FA61DB81DBE1DBE1DBE1DDF
:10015000BE1DBE1DD41FBE1DBE1DBE1DD41FD41F7F
:10016000D41FB61D191DD01DDF1DE51DF71D2E1E48
:10017000171E051ED41F821F8C1FF31DD41FD41FF2
:10018000D41FD41FD41F2A1EA01EA61EA61EA61E44
:10019000A61EA61ED41FA61EA61EA61ED41FB81ECF
:1001A000D41F9C1EC31EC71ED71EDD1EDD1EDD1EF6
:1001B000DD1EDD1ED41FDD1EDD1EDD1E901DBA1FDF
:1001C000EF1ED41FD41FF11E151F1B1F1B1F1B1F4B
:1001D0001B1F1B1FD41F1B1F1B1F1B1FD41FD41F24
:1001E000D41F011F191D2D1F4C1F521F521F521FBC
:1001F000521F6A1FD41F821F8C1F671FD41FD41F5A
:10020000D41FD41FD41F7E1FA31FA91FA91FA91F5E
:10021000A91FA91FD41FA91FA91FA91FD41FBA1F37
:10022000D41FD41FD41FD11F07634236B79BD8A752
:100230001A39685618AEBAAB558C1D3CB7CC57630B
:10024000BD6DEDFD753EF6177231BF000000803FB9
:1002500008000000BE922449123EABAAAA2ABECDD5
:10026000CCCC4C3E00000080BEABAAAAAA3E000047
:100270000000BF000000803F00000000000841783F
:10028000D3BB4387D1133D190E3CC3BD4282AD2B76
:100290003E68EC8276BED98FE1A93E4C80EFFFBE6E
:1002A00001C4FF7F3F00000000000000BC0200000E
:1002B000B6020000B902030604030503080B02108E
:1002C0000E0F0807DB1BE41FE91BE81F11241FBEEC
:1002D000CFEFD8E0DEBFCDBF11E0A0E0B1E0E4E0B9
:1002E000FAE402C005900D92A230B107D9F725E0DB
:1002F000A2E0B1E001C01D92A83FB207E1F712E011
:10030000C8ECD2E004C02297FE010E940220C43C47
:10031000D107C9F70E949C1B0C94F5240C94000093
:100320009093030180930201ECEBF0E08081846004
:10033000808380818160808380818064808380E28B
:100340008093BA0008951F920F920FB60F92112456
:100350002F933F935F936F937F938F939F93AF936D
:10036000BF93EF93FF938091B900887F803991F11B
:10037000D0F4803709F47DC068F4803609F479C080
:10038000883609F476C081117AC08091BC008F70E4
:10039000806D73C08038F1F0883809F444C0883724
:1003A00009F06DC066C0803B09F442C048F4803A51
:1003B00009F45FC0883AE1F1883909F060C033C0C0
:1003C000803C09F456C0883C09F453C0883B09F0CE
:1003D00056C02EC03091BB00809165052091000170
:1003E0008217E9F08091620590E001968F77992756
:1003F000E0916205F0E0EE51FB4F3083809362059F
:1004000080916405815080936405811108C08091BA
:1004100065058F5F8093650586E080936405809114
:100420006505821326C08091BC008F70806825C04E
:100430008091620590E0019760E870E00E94EC1FF7
:10044000FC01FF27EE51FB4F908180936205809164
:1004500064058F5F80936405E0910201F0910301D0
:1004600081A58093BB008091BC008F7080688093D1
:10047000BC008091BC008F70806C8093BC00FF91A9
:10048000EF91BF91AF919F918F917F916F915F910C
:100490003F912F910F900FBE0F901F9018954F9284
:1004A0005F926F927F928F929F92AF92BF92CF9204
:1004B000DF92EF92FF926B017C0129013A012091BA
:1004C0005A0130915B0140915C0150915D0160E007
:1004D00070E080E89FE30E9465210E94E0234B01C9
:1004E0005C01A7019601C301B2010E941A20A50177
:1004F00094010E94EF2260937201709373018093C4
:100500007401909375019B01AC010E941B206093C4
:100510007601709377018093780190937901C0926E
:100520006E01D0926F01E0927001F0927101FF9024
:10053000EF90DF90CF90BF90AF909F908F907F9083
:100540006F905F904F900895CF92DF92EF92FF925D
:10055000CF93DF93CDB7DEB728970FB6F894DEBF01
:100560000FBECDBF8130A9F580915E0190915F01F2
:10057000A0916001B09161010197A105B10549F514
:100580008091DF04813029F58091DE04813009F506
:100590008091100190911101A0911201B09113016D
:1005A0008093200190932101A0932201B093230115
:1005B0008091140190911501A0911601B09117013D
:1005C0008093240190932501A0932601B0932701E5
:1005D00052C02091620130916301409164015091B9
:1005E000650160916E0170916F0180917001909131
:1005F00071010E94EF226B017C0120912801309152
:10060000290140912A0150912B010E94EF229B0168
:10061000AC01609118017091190180911A019091BB
:100620001B010E941B206093200170932101809385
:1006300022019093230120912C0130912D014091B2
:100640002E0150912F01C701B6010E94EF229B019C
:10065000AC0160911C0170911D0180911E0190916F
:100660001F010E941B206093240170932501809339
:100670002601909327012091180130911901409192
:100680001A0150911B01609120017091210180910C
:100690002201909123010E941A209B01AC016091DC
:1006A00004017091050180910601909107010E945B
:1006B000EF2269837A838B839C8320911C01309184
:1006C0001D0140911E0150911F0160912401709104
:1006D000250180912601909127010E941A209B01FB
:1006E000AC01609108017091090180910A0190911B
:1006F0000B010E94EF226D837E838F839887209168
:10070000660130916701409168015091690160E391
:1007100071E0CE0101960E948514811106C060E24D
:1007200071E088E191E00E94211680915E01909134
:100730005F01A0916001B09161010197A109B10928
:1007400080935E0190935F01A0936001B09361017B
:10075000892B8A2B8B2B11F484E001C082E0289630
:100760000FB6F894DEBF0FBECDBFDF91CF91FF90E3
:10077000EF90DF90CF9008954F925F926F927F92AB
:100780008F929F92AF92BF92CF92DF92EF92FF92A1
:10079000CF93DF9300D000D0CDB7DEB780910F01AB
:1007A000813009F0A8C0C0903A01D0903B01E090A0
:1007B0003C01F0903D01C701B6019F772CEA35EC72
:1007C00047E257E30E94612187FF02C080E034C105
:1007D0008091420190914301A0914401B091450163
:1007E00089839A83AB83BC83209146013091470172
:1007F0004091480150914901BC01CD010E941B204C
:1008000020E030E040E05FE30E94EF224B015C011A
:10081000609352017093530180935401909355015A
:100820009B01AC01C701B6010E9465212B013C016F
:1008300060934E0170934F0180935001909351014A
:1008400020EC31EE44E65CE40E94EF2220E030E44C
:100850004CE156E40E9465210E944E216B017C010F
:1008600060935A0170935B0180935C0190935D01EA
:100870009B01AC010E941B209B01AC01C301B20192
:100880000E9465212B013C0160936201709363011A
:100890008093640190936501C701B6010E94CD2148
:1008A00060935E0170935F0180936001909361019A
:1008B00020EC31EE44E65CE4C301B2010E94EF2279
:1008C000609366017093670180936801909369015A
:1008D00020E030E44CE155E40E94612187FDA9C08D
:1008E000A501940169817A818B819C810E944F02CC
:1008F00082E080930F0180910F01823009F061C086
:1009000020917201309173014091740150917501F1
:1009100060916E0170916F018091700190917101F1
:100920000E941B2060936E0170936F018093700191
:100930009093710180E00E94A402843039F56091A7
:100940005A0170915B0180915C0190915D010E9460
:10095000CD2160935E0170935F018093600190935D
:10096000610183E080930F0180917601909177017E
:10097000A0917801B0917901B0588093760190935D
:100980007701A0937801B093790155C02091760149
:100990003091770140917801509179016091720115
:1009A0007091730180917401909175010E941B20D8
:1009B0006093720170937301809374019093750139
:1009C0003AC08330C1F5C0907201D0907301E090BD
:1009D0007401F0907501A701960160916E0170910C
:1009E0006F0180917001909171010E941B206093B2
:1009F0006E0170936F01809370019093710120914B
:100A00007601309177014091780150917901C701C9
:100A1000B6010E941B206093720170937301809352
:100A200074019093750181E00E94A402843019F44E
:100A3000CDCE8EE301C082E00F900F900F900F900B
:100A4000DF91CF91FF90EF90DF90CF90BF90AF906C
:100A50009F908F907F906F905F904F900895CF926E
:100A6000DF92EF92FF920F931F936B017C01CA01FB
:100A7000B9012BEA3AEA4AE25FE30E945223F80105
:100A8000EB5AFF4F20813181428153810E94EF2236
:100A9000A70196010E941B201F910F91FF90EF90DC
:100AA000DF90CF900895CF92DF92EF92FF920F9355
:100AB0001F930E941A206B017C01E894F7F8F8015B
:100AC000EF5AFF4F2081318142815381C701B60126
:100AD0000E94EF220E94A2239B01AC01C701B60134
:100AE0000E94EF221F910F91FF90EF90DF90CF9027
:100AF00008952F923F924F925F926F927F928F92C2
:100B00009F92AF92BF92CF92DF92EF92FF920F939C
:100B10001F93CF93DF93CDB7DEB762970FB6F894EC
:100B2000DEBF0FBECDBF9A8B898BDC015D961D9217
:100B30001D921D921C929097FC0111A212A213A269
:100B400014A295961D921D921D921C929897D5966F
:100B50002D913D914D915C91D8972D833E834F838C
:100B600058879D962D913D914D915C91D097298309
:100B70003A834B835C838C012D813E814F81588564
:100B800069817A818B819C810E9453054B015C01B4
:100B9000F801C1A4D2A4E3A4F4A441A852A863A874
:100BA00074A82EE333EC4EE258E3C301B2010E9475
:100BB000EF226D877E878F87988B9B01AC01C501E3
:100BC000B4010E941B209B01AC01C701B6010E9429
:100BD000612118160CF4C5C02D813E814F815885C6
:100BE00069817A818B819C810E94EB2218160CF01E
:100BF00046C027E137EB41ED58E3C501B4010E943F
:100C00001A209B01AC01C701B6010E94612187FF38
:100C10000FC0A70196016D817E818F8198850E940A
:100C20002F05D8019D966D937D938D939C93D097BE
:100C3000E989FA8985A496A4A7A4B0A881AA92AA52
:100C4000A3AAB4AA2D813E814F815885C501B40164
:100C50000E941B202EE333EC4EE258E30E94EF2269
:100C60009B01AC01C701B6010E94EB2287FD5BC06E
:100C7000E989FA89C5A2D6A2E7A2F0A615C32D81FB
:100C80003E814F81588569817A818B819C810E9448
:100C9000612187FF66C027E137EB41ED58E3C501CD
:100CA000B4010E941A209B01AC01C701B6010E9449
:100CB000612187FF11C009891A89A70196016981FD
:100CC0007A818B819C810E942F05D801D5966D93E6
:100CD0007D938D939C93D897E989FA8985A896A8E6
:100CE000A7A8B0AC81AA92AAA3AAB4AA29813A81E2
:100CF0004B815C81C501B4010E941B202EE333ECC3
:100D00004EE258E30E94EF229B01AC01C701B601FD
:100D10000E94EB2287FD07C0E989FA89C58ED68E2D
:100D2000E78EF0A2C1C22EE333EC4EE258E3C501D8
:100D3000B4010E94EF229B01AC01C701B6010E94E1
:100D4000EB2218164CF4A989BA899196CD92DD92BE
:100D5000ED92FC929497A8C287E0E989FA8981878D
:100D6000A3C209891A89A301920169817A818B81C1
:100D70009C810E94530569877A878B879C87D8015D
:100D80005D966D937D938D939C939097A3019201B3
:100D90006D817E818F8198850E9453054B015C0196
:100DA000F80165A376A387A390A729813A814B8197
:100DB0005C81C301B2010E941B202EE333EC4EE2A2
:100DC00058E30E94EF229B01AC0169857A858B85EF
:100DD0009C850E94612187FF07C0D8015D961D9206
:100DE0001D921D921C9290972D813E814F815885B6
:100DF000C301B2010E941B202EE333EC4EE258E304
:100E00000E94EF229B01AC01C501B4010E94612147
:100E100087FF06C0E989FA8915A216A217A210A6B3
:100E2000A989BA895D968D909D90AD90BC90909760
:100E300095964D905D906D907C909897A30192014E
:100E4000C501B4010E941B209B01AC01C701B60182
:100E50000E94612187FF84C12D813E814F81588589
:100E600069817A818B819C810E941A204B015C01EF
:100E7000E894B7F820E030E048EC52E469817A81E8
:100E80008B819C810E946521562E672E782E492EDB
:100E900020E030E040E050E40E94612187FF05C07F
:100EA000512C612C712C80E401C0842D252D362D10
:100EB000472D582FC501B4010E94612109891A8963
:100EC000035C1F4F87FF3FC020E030E040E05FE35E
:100ED000C701B6010E94EF229B01AC01E989FA89A2
:100EE000658F768F878F90A3DF0195966D937D93A5
:100EF0008D939C939897F801E080F180A280B38055
:100F00008D0169817A818B819C810E942F056B0103
:100F10008C019B01AC01B701C5010E94612187FFD3
:100F200003C09A2D8B2D03C07601902F812FA7012E
:100F3000692F782FA989BA89D1964D935D936D93C6
:100F40007C93D497B1C1F801F081F987D80111964B
:100F5000BC91BD87F8013280238089859D85A32DB2
:100F6000B22DE989FA8981AB92ABA3ABB4AB8F0107
:100F70009C01432D522D69817A818B819C810E9435
:100F800053054B015C01D8015D966D937D938D9364
:100F90009C93909729853D85432D522D6D817E81AF
:100FA0008F8198850E9453052B013C01F80165A3B0
:100FB00076A387A390A79B01AC01C501B4010E9451
:100FC000EB22A30192011816E4F4C501B4010E94BA
:100FD0001B209B01AC01C501B4010E946521A70142
:100FE00096010E94EF229B01AC01D8015D966D93A2
:100FF0007D938D939C93909769817A818B819C815D
:101000001BC0C501B4010E941B209B01AC01C301A0
:10101000B2010E946521A70196010E94EF229B0167
:10102000AC01E989FA8965A376A387A390A78F010C
:101030006D817E818F8198850E942F053B01582EFE
:10104000492E9B01482F592F69857D85832D922D2F
:101050000E941A209F779301452D542D0E946521EF
:101060002DEC3CEC4CEC5DE30E94EB22181624F4D2
:1010700069867D86120171CFC301A52DB42DE98942
:10108000FA8981AB92ABA3ABB4AB8F019301452D31
:10109000542D69817A818B819C810E9453054B017B
:1010A0005C01D8015D966D937D938D939C93909791
:1010B00029813A814B815C81B301852D942D0E9459
:1010C0001B202EE333EC4EE258E30E94EF229B01FB
:1010D000AC01C501B4010E94612187FD0CC0A501CE
:1010E0009401C701B6010E941A20F80165A376A3F6
:1010F00087A390A70DC0A989BA899596CD92DD9254
:10110000ED92FC929897FD01158E168E178E10A207
:101110002D813E814F815885B301852D942D0E94EC
:101120001B202EE333EC4EE258E30E94EF229B019A
:10113000AC01A989BA8995966D917D918D919C910B
:1011400098970E94612187FFAFC0E989FA89C58E0F
:10115000D68EE78EF0A215A216A217A210A6A4C0E2
:10116000A5019401C701B6010E941A20A3019201B2
:101170000E941A206B017C01E989FA8961A372A39C
:1011800083A394A32D853E854F8558890E946121B4
:10119000A50194015F772D833E834F83588787FF96
:1011A00060C02CEA35EC47E257E3C701B6019F77F0
:1011B0000E94EB2218160CF054C02CEA35EC47E2E2
:1011C00057E36D817E818F8198850E94EB221816EE
:1011D0009CF52CEA35EC47E257E3C301B2019F7757
:1011E0000E94EB221816CCF420E030E040E05FE3F0
:1011F000C701B6010E94EF226B017C019B01AC018B
:10120000C501B4010E941B20A989BA895D966D931E
:101210007D938D939C9390970FC0A7019601C50174
:10122000B4010E941B20A989BA895D966D937D93B4
:101230008D939C9390970CC0A7019601C301B201B6
:101240000E941B20E989FA8965A376A387A390A74A
:10125000A989BA8991961D921D921D921C9294970C
:1012600023C02CEA35EC47E257E36D817E818F8104
:1012700098850E94612187FF17C0C301B2019F7743
:101280002CEA35EC47E257E30E94612187FF0CC04E
:1012900029813A814B815C81A989BA89D1962D93A4
:1012A0003D934D935C93D49762960FB6F894DEBF4E
:1012B0000FBECDBFDF91CF911F910F91FF90EF90A7
:1012C000DF90CF90BF90AF909F908F907F906F9066
:1012D0005F904F903F902F9008952F923F924F92A2
:1012E0005F926F927F928F929F92AF92BF92CF92B6
:1012F000DF92EF92FF920F931F93CF93DF934C01F6
:101300001B01EC010990D881C02DC815D90509F43D
:1013100097C08A85882309F493C0EA81FB81A1AC38
:10132000B2ACC3ACD4ACE75BFF4FE080F18002818C
:1013300013819701A801B501C6010E94612187FFB1
:1013400002C0750101C068018E01075B1F4FFE01DD
:10135000EB5BFF4F2081318142815381B701C60190
:101360000E941B20F8016083718382839383CACF1C
:10137000A815B90509F071C089AD9AADABADBCAD8A
:101380008DA79EA7AFA7B8ABF1011082F9018081AC
:101390009181A281B38189AB9AABABABBCAB6A80C4
:1013A0007B802E01F5E44F0E511CF201208131812A
:1013B000428153816DA57EA58FA598A90E941B200F
:1013C0005B016C01F301E1ACF2AC03AD14ADE75B82
:1013D000FF4F20813181428153813E01F1E46F0E44
:1013E000711CF30160817181828193810E94D41507
:1013F0006DAB7EAB8FAB98AFCE010E947905CDA8C7
:10140000DEA8EFA8F8ACF30120813181428153813D
:10141000C701B6010E946121882309F441C0EA8115
:10142000FB8121AD32AD43AD54ADC701B6010E9481
:1014300061218823A9F1E881F98182858823E9F077
:101440000A80DB81C02D9E01235C3F4FA881B981BA
:10145000C815D90509F08CCF25C0F10180818130F4
:1014600009F48ACFD5968D919D910D90BC91A02DB8
:101470008DA79EA7AFA7B8AB89CFF201208131819C
:10148000428153816DA57EA58FA598A90E941B203E
:101490009B01AC01C701B6010E9461218111D0CF2F
:1014A0001A86CECFD5968D919D910D90BC91A02D91
:1014B0008DA79EA7AFA7B8ABF90180819181A281CA
:1014C000B38189AB9AABABABBCAB1DAA1EAA1FAA5A
:1014D00018AECE01DF91CF911F910F91FF90EF9049
:1014E000DF90CF90BF90AF909F908F907F906F9044
:1014F0005F904F903F902F900C9479050E941F129F
:10150000009761F0FC0131E032870280F381E02D29
:10151000E817F90719F021852111F6CF08954F92A8
:101520005F926F927F928F929F92AF92BF92CF9273
:10153000DF92EF92FF9280910F01813009F093C00A
:10154000C0903601D0903701E0903801F090390119
:10155000C701B6019F772CEA35EC47E257E30E94BA
:10156000612187FF11C086E080930E01FF90EF900C
:10157000DF90CF90BF90AF909F908F907F906F90B3
:101580005F904F900C94BC034090420150904301F7
:101590006090440170904501A3019201C701B6011A
:1015A0000E9465214B015C0160934E0170934F01D5
:1015B000809350019093510120EC31EE44E65CE4BD
:1015C0000E94EF2220E030E44CE955E40E946521BE
:1015D0000E944E216B017C0160935A0170935B0164
:1015E00080935C0190935D019B01AC01C501B40146
:1015F0000E9465214B015C0160936201709363015D
:10160000809364019093650140926E0150926F0146
:101610006092700170927101C701B6010E94CD21E4
:1016200060935E0170935F0180936001909361010C
:1016300020EC31EE44E65CE4C501B4010E94EF22E7
:1016400060936601709367018093680190936901CC
:1016500020E030E44CE155E40E94612187FD28C080
:1016600082E080930F0180910F01823019F580E0B4
:101670000E94A4028430F1F480913A0190913B01E0
:10168000A0913C01B0913D01BC01CD019F772CEAB6
:1016900035EC47E257E30E94612187FD07C086E0F1
:1016A00080930E0181E080930F0104C080E003C0AD
:1016B0008EE301C082E0FF90EF90DF90CF90BF906B
:1016C000AF909F908F907F906F905F904F90089514
:1016D0004F925F926F927F928F929F92AF92BF9242
:1016E000CF92DF92EF92FF920F931F93CF93DF93EE
:1016F00000D000D01F92CDB7DEB78C01DC01199667
:101700008C911997882309F45BC280910E01811195
:101710009DC08091E004843009F452C21A961C9254
:101720001A9799968D919D910D90BC91A02DBC0119
:10173000CD019F772CEA35EC47E257E30E94612107
:1017400087FF0FC010920E0110920F01D801129660
:10175000ED91FC91139712860E943D150E9446124E
:101760002FC282E0F801818784E080930E0181E03E
:1017700080930F01E35BFF4F80819181A281B38150
:101780008093560190935701A0935801B09359014B
:10179000F801858D968DA78DB0A18093320190932D
:1017A0003301A0933401B093350181A192A1A3A18B
:1017B000B4A18093360190933701A0933801B09380
:1017C000390185A196A1A7A1B0A580933A01909374
:1017D0003B01A0933C01B0933D0185A596A5A7A52B
:1017E000B0A980933E0190933F01A0934001B09334
:1017F000410181A992A9A3A9B4A980934201909320
:101800004301A0934401B093450185A996A9A7A9D6
:10181000B0AD8093460190934701A0934801B093E7
:101820004901B8016D5E7F4F88E291E00E94211668
:10183000B801655F7F4F80E191E00E942116B801F9
:10184000655E7F4F80E391E00E94291680910E0132
:10185000853009F483C1863009F483C1843009F0EE
:1018600083C180910F01813009F0AAC0C09032017C
:10187000D0903301E0903401F0903501C701B601FA
:101880009F772CEA35EC47E257E30E94612187FFFE
:1018900004C085E080930E0161C180913E0190916A
:1018A0003F01A0914001B091410189839A83AB83AC
:1018B000BC832091420130914301409144015091F9
:1018C0004501BC01CD010E941B2020E030E040E03A
:1018D0005FE30E94EF224B015C0160935201709321
:1018E000530180935401909355019B01AC01C701B2
:1018F000B6010E9465212B013C0160934E0170935B
:101900004F01809350019093510120EC31EE44E659
:101910005CE40E94EF2220E030E44CE156E40E94B7
:1019200065210E944E216B017C0160935A017093E6
:101930005B0180935C0190935D019B01AC010E946F
:101940001B209B01AC01C301B2010E9465212B0148
:101950003C016093620170936301809364019093F2
:101960006501C701B6010E94CD2160935E017093AD
:101970005F01809360019093610120EC31EE44E6B9
:101980005CE4C301B2010E94EF2260936601709390
:101990006701809368019093690120E030E44CE195
:1019A00055E40E94612187FDD7C0A501940169819A
:1019B0007A818B819C810E944F0282E080930F018B
:1019C00080910F01823009F061C020917201309145
:1019D0007301409174015091750160916E01709195
:1019E0006F0180917001909171010E941B206093A2
:1019F0006E0170936F01809370019093710180E08C
:101A00000E94A402843039F560915A0170915B0103
:101A100080915C0190915D010E94CD2160935E01F7
:101A200070935F01809360019093610183E08093E4
:101A30000F018091760190917701A0917801B0918A
:101A40007901B0588093760190937701A093780143
:101A5000B09379017FC02091760130917701409158
:101A600078015091790160917201709173018091B8
:101A70007401909175010E941B2060937201709314
:101A80007301809374019093750164C0833009F0F1
:101A900061C0C0907201D0907301E0907401F09029
:101AA0007501A701960160916E0170916F0180919F
:101AB0007001909171010E941B2060936E017093E0
:101AC0006F018093700190937101209176013091A4
:101AD00077014091780150917901C701B6010E94C8
:101AE0001B20609372017093730180937401909333
:101AF000750180E00E94A402843061F58091360176
:101B000090913701A0913801B0913901BC01CD010C
:101B10009F772CEA35EC47E257E30E94612187FF6B
:101B200013C080913A0190913B01A0913C01B0918A
:101B30003D01BC01CD019F772CEA35EC47E257E32C
:101B40000E94612187FD10C085E080930E0181E035
:101B500080930F0182E009C08EE307C00E948F0AC4
:101B600004C00E94BC0301C080E09091E004913069
:101B700019F492E09093E0049091E004933049F4DA
:101B8000811107C094E09093E00492E09093DF0409
:101B900002C0823099F010920E0110920F01D8010C
:101BA0001296ED91FC911397128619969C919230A2
:101BB00041F48D830E9446128D8103C082E001C0F2
:101BC00083E00F900F900F900F900F90DF91CF91C7
:101BD0001F910F91FF90EF90DF90CF90BF90AF904B
:101BE0009F908F907F906F905F904F90089594E0BA
:101BF000899FF0011124EC5FFE4F40835183628383
:101C00007383089510926E0110926F01109270010B
:101C10001092710108954F925F926F927F928F920E
:101C20009F92AF92BF92CF92DF92EF92FF920F936B
:101C30001F93CF93DF93CDB7DEB727970FB6F894F6
:101C4000DEBF0FBECDBF4C0129013A01670178010B
:101C50006E837F830E94B6115C016E817F81009745
:101C600009F43DC188E69BE0D50115969C938E93BF
:101C70001497C5014B960E942916D4012D913D91D0
:101C80004D915C912A833B834C835D83CA01B901EA
:101C90009F772CEA35EC47E257E30E94EB221816B7
:101CA000FCF42A813B814C815D81D50199962D936D
:101CB0003D934D935C939C9780E090E0A0E8BFE358
:101CC000F501838B948BA58BB68BF4018081918178
:101CD000A281B381F50183879487A587B68735C034
:101CE000D40114962D913D914D915C9117972A83C3
:101CF0003B834C835D83CA01B9019F772CEA35ECA5
:101D000047E257E30E94EB2218160CF0EAC02A8142
:101D10003B814C815D81D50199962D933D934D93E7
:101D20005C939C9780E090E0A0E8BFE3F501878B8F
:101D3000908FA18FB28FF40184819581A681B781A4
:101D4000F5018787908BA18BB28BF501E35BFF4F89
:101D5000C082D182E282F38220917C0130917D01A8
:101D600040917E0150917F01C701B6010E941A2067
:101D70009F7720E030E04AE754E40E94612195011A
:101D80002B5A3F4F490185010F5A1F4F87FF1BC038
:101D90008091840190918501A0918601B091870185
:101DA000F90180839183A283B38380918001909114
:101DB0008101A0918201B0918301F8018083918318
:101DC000A283B38337C0C701B6010E948A206A8309
:101DD0007B838C839D83D4016D937D938D939C93A2
:101DE0001397A701960160E070E080E89FE30E94EE
:101DF0006521F8016083718382839383C0927C01A3
:101E0000D0927D01E0927E01F0927F012A813B8198
:101E10004C815D812093840130938501409386013C
:101E200050938701609380017093810180938201B8
:101E30009093830181E0D5011A968C93F501FD966C
:101E40004082518262827382F50141AE52AE63AE2E
:101E500074AE21A532A543A554A5850160E070E0CC
:101E6000CB010E942F059B01AC016501F5E4CF0E6B
:101E7000D11CD6016D937D938D939C931397C301D1
:101E8000B2010E941B209B01AC011EE4E12E11E671
:101E9000F12E0CE31BE4C301B2010E949B15F50176
:101EA000EF5BFF4F60837183828393839501275B90
:101EB0003F4FF60180819181A281B381F901808336
:101EC0009183A283B3831982BE016F5F7F4FC501E7
:101ED0000E946D0981E00E94DC1180E003C088E06F
:101EE00001C081E027960FB6F894DEBF0FBECDBFCC
:101EF000DF91CF911F910F91FF90EF90DF90CF90E6
:101F0000BF90AF909F908F907F906F905F904F9019
:101F100008952F923F924F925F926F927F928F928D
:101F20009F92AF92BF92CF92DF92EF92FF920F9368
:101F30001F93CF93DF9300D0CDB7DEB78091E0043D
:101F4000823011F083E083C10E94EC115C010097A4
:101F5000C9F381E0898320911801309119014091E2
:101F60001A0150911B016091100170911101809133
:101F70001201909113010E941A200E94E0236B012C
:101F80007C0120911C0130911D0140911E01509156
:101F90001F016091140170911501809116019091BB
:101FA00017010E941A200E94E0239B01AC01C70187
:101FB000B6010E941B200E94A2232B013C018091AC
:101FC0000E01853049F4C0906E01D0906F01E09011
:101FD0007001F090710114C0209172013091730171
:101FE000409174015091750160916E0170916F0183
:101FF00080917001909171010E941B206B017C0106
:10200000850120E030E0A901C701B6010E94530517
:102010001B014C019201A3010E94EB22181694F4BB
:10202000F50185A996A9A7A9B0ADBC01CD019F77FF
:102030002CEA35EC47E257E30E94612187FF02C09A
:10204000120143019201A301B101C4010E94612167
:1020500018160CF442C010924601109247011092DB
:10206000480110924901C101D40180933A01909333
:102070003B01A0933C01B0933D01C0924201D0923C
:102080004301E0924401F092450186E080930E0105
:10209000FF24F394F0920F019101A401B201C30156
:1020A0000E941A209B01AC01F50161A772A783A7CA
:1020B00094A7850160E070E0CB010E942F05F50137
:1020C000EB5BFF4F6083718382839383F50111AED5
:1020D00012AE13AE14AEF186ADC086E080930E0151
:1020E000F1E0F0930F01C201D30180933A01909384
:1020F0003B01A0933C01B0933D01C0924201D092BC
:102100004301E0924401F092450185019201A3014F
:1021100060E070E0CB010E942F059B01AC01C7017C
:10212000B6010E941A206B017C01609346017093F6
:102130004701809348019093490181E0F50181872F
:10214000E8E0EA83F50162817381C5010E946212B1
:10215000F5018781813089F5F501C1AED2AEE3AEDC
:10216000F4AE850120E030E0A901C701B6010E946C
:1021700053051B014C01F50141A452A463A474A4AE
:10218000A30192010E94EB221816F4F4A30192011C
:1021900060E070E0CB010E942F059B01AC01C701FC
:1021A000B6010E941A206B017C01F501EF5BFF4F25
:1021B0006083718382839383F501A280B380FA8167
:1021C000F150FA83F111BECFC101D401F50181A70D
:1021D00092A7A3A7B4A7EF5BFF4F108211821282D0
:1021E0001382F501E280F380F70111AE12AE13AE57
:1021F00014AE9101A40161A572A583A594A50E94C6
:102200001A209B01AC01F70161A772A783A794A7CD
:10221000870160E070E0CB010E942F05F701EB5BC6
:10222000FF4F6083718382839383349760837183CC
:10223000828393830E947E0A0E942112BE016F5FF7
:102240007F4F0E946D0983E08093E00480E00F904F
:102250000F90DF91CF911F910F91FF90EF90DF9042
:10226000CF90BF90AF909F908F907F906F905F9036
:102270004F903F902F9008958091E004853079F43D
:102280001092E0040E94EC11892B21F41092DF04DB
:1022900083E0089581E08093DF040E94771280E05C
:1022A000089594E0899FF0011124E85EFE4F408379
:1022B0005183628373830895CF9383ED92E0E8E8BE
:1022C000F1E0DF019C011D9221503040E1F78FEEDB
:1022D00092E1909389018093880190935A048093AE
:1022E000590481E991E090938C0180938B01909344
:1022F0008E0180938D019093900180938F01FC015A
:1023000081E090E020E034E0C9E5883011F0BC01C4
:1023100002C060E070E0BE2FAF2FC69FA001C79F34
:10232000500D11244F565E4F5383428331832083D7
:102330000196E75AFF4F8930910519F02B2F3A2F5C
:10234000E4CF88E080938A01CF91089580E7ECE0A4
:10235000F1E0DF011D928A95E9F78CE0ECE7F1E00E
:10236000DF011D928A95E9F70C945C11E0918B01D5
:10237000F0918C01868181111BC022813381808183
:10238000918149E5DF011D924A95E9F73383228364
:102390009183808381E0868380918A01815080933C
:1023A0008A018281938190938C0180938B0102C07A
:1023B000E0E0F0E0CF010895ADE8B1E0ED91FC91EF
:1023C0001197878381E0818782E086838281938170
:1023D0008D939C930C947712E0918F01F091900172
:1023E00086818250823010F484E086838681843036
:1023F00011F0E0E0F0E0CF0108950E94EC110097A9
:10240000D1F0DC0117962C91213069F43091DE0473
:10241000311102C02093DE042091DF04211103C09A
:1024200021E02093DF04DC011496ED91FC911597D7
:10243000309719F0099483E0089584E108950C948D
:10244000EC110E94EC11009769F0FC01A281B381AC
:1024500019962C911997222341F0A817B90729F052
:10246000FD01F4CF80E090E00895CF010895FC01D4
:10247000228133818081918149E5DF011D924A9556
:10248000E9F73383228391838083089580918F01BC
:10249000909190010E943712E0918F01F09190018C
:1024A0000280F381E02DF0939001E0938F0186810B
:1024B000823011F483E0868380918A018F5F80935C
:1024C0008A010895CF93DF93EC012A813B818881B3
:1024D000998149E5FB01DE0101900D924A95E1F7F2
:1024E0003B832A8399838883DF91CF9108958091DC
:1024F0006704813019F485B5816085BD08958091A8
:102500007F0490918004A0918104B0918204892B72
:102510008A2B8B2B09F0A5C080916704882339F0A2
:10252000E0916304F091640481E083A308958091B5
:102530006504813009F08EC040916D0450916E04A5
:1025400060916F047091700440937F0450938004F5
:10255000609381047093820480917104909172045D
:10256000A0917304B09174048093830490938404C5
:10257000A0938504B09386048091750490917604AD
:10258000A0917704B0917804809387049093880495
:10259000A0938904B0938A0420916804213079F4CF
:1025A00070956095509541955F4F6F4F7F4F409369
:1025B0008B0450938C0460938D0470938E04892B4C
:1025C0008A2B8B2B39F080917904811102C05998A4
:1025D00001C0599A80917A0490917B04A0917C0467
:1025E000B0917D048093900490939104A093920401
:1025F000B0939304209168042130B9F440917F0492
:10260000509180046091810470918204709560956E
:10261000509541955F4F6F4F7F4F40939404509377
:1026200095046093960470939704892B8A2B8B2BC7
:1026300039F080917E04811102C05F9801C05F9AD9
:10264000B19A10928500109284008091810081607F
:102650008093810081E080936704109266040C945B
:10266000771208951F920F920FB60F9211242F9395
:102670003F934F935F936F937F938F939F93AF930A
:10268000BF93EF93FF9380918B0490918C04A09162
:102690008D04B0918E04409187045091880460911C
:1026A000890470918A04840F951FA61FB71F809319
:1026B0008B0490938C04A0938D04B0938E04181611
:1026C00019061A061B064CF52A9A4091830450916C
:1026D00084046091850470918604841B950BA60B7D
:1026E000B70B80938B0490938C04A0938D04B093CC
:1026F0008E042A9880915B0490915C04A0915D0403
:10270000B0915E040196A11DB11D80935B0490936E
:102710005C04A0935D04B0935E0480919404909156
:102720009504A0919604B091970440919004509123
:1027300091046091920470919304840F951FA61FD9
:10274000B71F8093940490939504A0939604B0933C
:102750009704181619061A061B064CF55E9A409146
:102760008304509184046091850470918604841BD5
:10277000950BA60BB70B8093940490939504A093AC
:102780009604B09397045E9880915F0490916004E2
:10279000A0916104B09162040196A11DB11D8093C6
:1027A0005F0490936004A0936104B09362048091ED
:1027B0007F0490918004A0918104B09182040197DC
:1027C000A109B10980937F0490938004A0938104B0
:1027D000B0938204892B8A2B8B2B39F48091810052
:1027E0008E7F809381000E947F12FF91EF91BF91B5
:1027F000AF919F918F917F916F915F914F913F9199
:102800002F910F900FBE0F901F9018951F920F924F
:102810000FB60F9211242F933F934F935F936F93B3
:102820007F938F939F93AF93BF93EF93FF93E1EBCE
:10283000F0E080818E7F80830E947F12FF91EF9174
:10284000BF91AF919F918F917F916F915F914F91C8
:102850003F912F910F900FBE0F901F9018951F92D0
:102860000F920FB60F9211242F933F934F935F93C4
:102870006F937F938F939F93AF93BF93EF93FF9348
:1028800085B58E7F85BD809167048130B9F40E9443
:10289000FD11833099F01092670480917F0490912C
:1028A0008004A0918104B0918204892B8A2B8B2B08
:1028B00029F48091B10081608093B100FF91EF9184
:1028C000BF91AF919F918F917F916F915F914F9148
:1028D0003F912F910F900FBE0F901F9018959093DE
:1028E0006404809363048AE1EFE7F4E0DF01982F4A
:1028F0001D929A95E9F7E5E6F4E0DF011D928A95CD
:10290000E9F781E0809367040895AF92BF92CF9278
:10291000DF92EF92FF920F931F93CF938C015B0195
:1029200069017A01C0916704C13009F097C0842F12
:10293000880F852F881F8F3F09F492C02CEA35EC51
:1029400047E257E3C701B6010E94612187FD8AC0B3
:1029500010926804F50180818093790420E030E5CD
:1029600043EC57E4F80160817181828193810E9478
:10297000EF229F770E94CD216093750470937604B7
:102980008093770490937804F501818180937E048D
:1029900020E030E543EC57E4F801648175818681DD
:1029A00097810E94EF229F770E94CD2160937A0445
:1029B00070937B0480937C0490937D0420E034E248
:1029C00044E759E4C701B6010E94652120E030E4E4
:1029D0004CE157E40E94EF220E94CD216B017C0163
:1029E00060936D0470936E0480936F0490937004F1
:1029F0000E94F92120E030E543EC57E40E94EF22E9
:102A00000E94CD21609371047093720480937304CB
:102A100090937404B701A601440F551F661F771FDA
:102A20008091690490916A04A0916B04B0916C0448
:102A3000481759076A077B0710F4C0936804C092CF
:102A40006904D0926A04E0926B04F0926C0481E015
:102A5000809365048093660480E005C084E103C030
:102A60008CE301C08DE3CF911F910F91FF90EF9008
:102A7000DF90CF90BF90AF9008951092650481E0F1
:102A80008093660408951F920F920FB60F9211243F
:102A90002F938F939F93EF93FF938091C00090911A
:102AA000C6008871E0919B04EF5FEF7120919A045A
:102AB000E21739F0E0939B04F0E0E256FB4F90837D
:102AC00001C082E090919904982B90939904FF9112
:102AD000EF919F918F912F910F900FBE0F901F90AC
:102AE00018951F920F920FB60F9211248F939F93F8
:102AF000EF93FF9390919D0480919C04981769F047
:102B0000E0919C04EF5FEF71E0939C04F0E0E254ED
:102B1000FB4F80818093C60005C08091C1008F7DEE
:102B20008093C100FF91EF919F918F910F900FBE05
:102B30000F901F9018958F929F92AF92BF92CF9255
:102B4000DF92EF92FF920F931F93CF93DF936B016E
:102B5000D82FC92F49015A019B01482F592FB40181
:102B6000C5010E94612187FF03C06401DA2DCB2DCE
:102B700096014D2F5C2FB701C8010E94612187FF8C
:102B800003C06701D02FC12FB6018D2F9C2FDF917D
:102B9000CF911F910F91FF90EF90DF90CF90BF905A
:102BA000AF909F908F9008954F925F926F927F9217
:102BB0008F929F92AF92BF92CF92DF92EF92FF924D
:102BC0000F931F93CF93DF934B01D82FC92F290168
:102BD0003A019B01482F592FB201C3010E94612184
:102BE00087FF03C04201D62DC72D94014D2F5C2FC6
:102BF000B701C8010E94612187FF03C04701D02FA0
:102C0000C12F94014D2F5C2FB501C6010E94612197
:102C100087FF03C04501DC2DCD2DB4018D2F9C2FE6
:102C2000DF91CF911F910F91FF90EF90DF90CF90A8
:102C3000BF90AF909F908F907F906F905F904F90DC
:102C4000089528E0FB01DC0101900D922A95E1F73F
:102C50000895FB0120813181FC0131832083089597
:102C6000FC01108211821282138214821582168254
:102C7000178210861186128613861486158616868C
:102C80001786108A08950895CF93DF93EC011416E8
:102C900015061606170684F4CB01BA010E94FB2123
:102CA00020E030E04AE754E40E946521688379839C
:102CB0008A839B8380E001C086E0DF91CF910895F5
:102CC000CF93DF93EC01141615061606170654F47D
:102CD000CB01BA010E94FB216C837D838E839F838D
:102CE00080E001C085E0DF91CF910895CF93DF931D
:102CF000EC01141615061606170684F4CB01BA016A
:102D00000E94FB2120E034E244E759E40E94EF22D4
:102D1000688779878A879B8780E001C082E0DF919E
:102D2000CF910895CF93DF93EC0114161506160684
:102D3000170654F4CB01BA010E94FB216C877D87F2
:102D40008E879F8780E001C083E0DF91CF91089557
:102D50002FEF260F263050F4622F21E001C0220F02
:102D60006A95EAF7FC01208B80E0089584E00895DD
:102D7000CF92DF92EF92FF92CF93DF93EC012889FD
:102D800088E691E0289FB001299F700D11248827C3
:102D900077FD8095982F0E94FB216B017C012C818F
:102DA0003D814E815F81688179818A819B810E940A
:102DB000EF229B01AC01C701B6010E946521DF91A2
:102DC000CF91FF90EF90DF90CF900895FC01608548
:102DD0007185828593850895FC0164857585868556
:102DE00097850895CF93DF93EC0120E030E0A901AF
:102DF000688579858A859B850E946121882331F1C8
:102E000020E030E0A9016C857D858E859F850E943C
:102E100061218823E9F088898823E1F020E030E00F
:102E2000A9016C817D818E819F810E94612188230F
:102E300099F020E030E0A901688179818A819B8145
:102E40000E94612181110AC086E009C082E007C0AA
:102E500083E005C084E003C085E001C080E0DF912D
:102E6000CF910895FC011082118212821382148284
:102E7000158208950895FC0160830895FC01808106
:102E80000895FC0161830895FC0181810895FB018F
:102E90002181428150E060E070E0BA01552744276B
:102EA000522B2081422B2381722BFC0142835383BE
:102EB000648375830895FC016281738184819581A7
:102EC0000895FC01E058FF4F108231961082319630
:102ED00026E020833196108208950895FC01EF5773
:102EE000FF4F2081DC01A20FB11D8C91208130E0C9
:102EF0002F5F3F4F2F77332720830895CF92DF92A4
:102F0000EF92FF920F931F93CF93DF9300D000D0E7
:102F1000CDB7DEB78C017B016C0183E8C80ED11CF4
:102F2000F6018081882341F1C8010E946E17682F45
:102F3000C7010E943B17C8010E946E17682FC70186
:102F40000E944117C8010E946E178983C8010E9420
:102F50006E178A83C8010E946E178B83C8010E9476
:102F60006E178C83BE016F5F7F4FC7010E944717AA
:102F7000F6018081815080830F900F900F900F9009
:102F8000DF91CF911F910F91FF90EF90DF90CF9045
:102F900008959FEF980F9530B8F4823089F084300F
:102FA00089F0E82FF0E0EE0FFF1FE655FD4F859109
:102FB0009491662349F0FC012491621738F004C013
:102FC0008AE0089589E0089580E00895FC01E60F05
:102FD000F11D84910895FC011082118208950895D5
:102FE0000F931F93CF93DF9300D000D01F92CDB7E4
:102FF000DEB709831A832B833C834D83FC01408118
:1030000050E09A012F5F3F4F2F7033277181721765
:10301000C1F0E40FF51FEE5AFF4F608335E0349F97
:10302000D001359FB00D1124A80FB91F1296FE01D3
:10303000319601900D923A95E1F7FC01208380E0F2
:1030400001C08AE00F900F900F900F900F90DF91CA
:10305000CF911F910F910895CF93DF93EC01998148
:1030600088818917D9F085E0FE01899FE00DF11D67
:1030700011243296DA0101900D928A95E1F7898147
:10308000FE01E80FF11DEE5AFF4F8081FB018083A6
:10309000898190E001968F7099278983DF91CF9184
:1030A0000895FC01108211820895FC0181E02081C5
:1030B0009181291380E00895509A589A5498529813
:1030C0005C9A5A9AE8E6F0E0208124602083EDE6DD
:1030D000F0E020812F7E208320812B7F20830E949F
:1030E000EF190E94A6111092DE041092DF041092D4
:1030F000E004089558982FE788E391E0215080403C
:103100009040E1F700C00000589A0895FF920F9395
:103110001F93CF93DF9300D000D000D0CDB7DEB7A0
:10312000F82ECA01762F432F582F692F233011F123
:1031300048F42130C9F0223009F03FC0C8010E9494
:10314000601615C0243059F12530B9F5C80126960E
:103150000FB6F894DEBF0FBECDBFDF91CF911F91A8
:103160000F91FF900C949216C8010E944416811191
:1031700025C00BC0632FC8013E830E94A8164E8154
:1031800081111CC0842F0E94CC19C8010E94B8165E
:10319000AB01BC018F2D0E94F70D80E00FC0C8016C
:1031A00026960FB6F894DEBF0FBECDBFDF91CF914C
:1031B0001F910F91FF900C94761687E026960FB61C
:1031C000F894DEBF0FBECDBFDF91CF911F910F915D
:1031D000FF90089582E08093DF0481E08093E00413
:1031E000089585E08093E0040C943C118F929F92A7
:1031F000AF92BF92CF92DF92EF92FF920F931F9305
:10320000CF93DF93CDB7DEB72A970FB6F894DEBF22
:103210000FBECDBF082F6A017B014901C9010E9481
:10322000F21681116FC010925B0410925C04109230
:103230005D0410925E0410925F041092600410927C
:1032400061041092620440E050E0BA010E94511102
:1032500040E050E0BA0181E00E9451118091DE040B
:10326000811103C081E08093DE04CE0101965C01F0
:1032700088E0F50111928A95E9F710E0C701B601DF
:103280000E94FB216B017C01000F111F000F111F19
:103290000A0D1B1DF801C082D182E282F38220E078
:1032A00030E0A90169817A818B819C810E94612132
:1032B000881F8827881F898720E030E0A9016D8159
:1032C0007E818F8198850E946121881F8827881FB1
:1032D0008A87E894F7F8F801C082D182E282F3820B
:1032E000C4010E94E6166B017C01C4010E94EC1629
:1032F0009B01AC0187017601BE01675F7F4FC5016D
:103300000E940B0E2A960FB6F894DEBF0FBECDBFFB
:10331000DF91CF911F910F91FF90EF90DF90CF90B1
:10332000BF90AF909F908F9008954C9B0DC02091BF
:103330006D00206120936D009A012F5F3F4FAB011C
:10334000BC0180E00C94F61881E0FA0183A380E0D0
:1033500008954A9B0DC020916D00246020936D005C
:103360009A012E5E3F4FAB01BC0181E00C94F61830
:1033700081E0FA0183A380E008950E945C118091AE
:10338000DE04813041F41092DF041092DE041092CA
:10339000E0040C94020E0895833089F028F4813003
:1033A00049F0823049F00895853079F050F0863048
:1033B00071F008952C9801C02C9A2B9804C02C9879
:1033C00001C02C9A2B9A2D9808952C9801C02C9A04
:1033D0002B982D9A089541980895419A08950E9436
:1033E0006F141092800088E08093810022E0209387
:1033F0006F0088EC90E09093890080938800209380
:10340000B0001092B1002093700083E68093B30067
:1034100024BD15BC20936E0087BD389A399A3A9A1C
:10342000249A239A259A229A519A569A579A409A00
:103430004298429A0C94ED1982EE94E00E946D1726
:1034400088E795E00E94431687E695E00C944316C2
:103450000F93CF93DF9300D000D01F92CDB7DEB78C
:103460008091E104882361F01092E1040CE029814D
:103470003A814B815C816D8186E695E00E942E1C2D
:103480000F900F900F900F900F90DF91CF910F91B1
:1034900008950F93CF93DF93CDB7DEB72C970FB678
:1034A000F894DEBF0FBECDBF809165058823E1F1A2
:1034B000CE0101960E943217BE016F5F7F4F82EEF0
:1034C00094E00E947E17CE0101960E944417682F57
:1034D000CE0101966C870E943E176C850E94C91729
:1034E000082F811107C081E080938D058BE08093C8
:1034F0008F0516C0CE0101960E9444178F83CE011E
:1035000001960E945B17362F688779878A879B8789
:103510002F81472F582F692F86E695E00E942E1C99
:10352000CE0101960E943A172C960FB6F894DEBF92
:103530000FBECDBFDF91CF910F9108950F93CF9321
:10354000DF9300D000D01F92CDB7DEB78091890500
:10355000882361F0109289050DE029813A814B8121
:103560005C816D8186E695E00E942E1C0F900F9085
:103570000F900F900F90DF91CF910F9108950F93BF
:10358000CF93C0918A05CC2391F010928A050091C7
:1035900095052091900530919105409192055091AB
:1035A00093056091940586E695E00E942E1C8C2F71
:1035B000CF910F9108950F93CF93DF9300D000D058
:1035C0001F92CDB7DEB780918C05882361F01092F1
:1035D0008C050FE029813A814B815C816D8186E603
:1035E00095E00E942E1C0F900F900F900F900F905F
:1035F000DF91CF910F9108950F93CF93DF9300D078
:1036000000D01F92CDB7DEB780918D05882361F081
:1036100010928D0501E129813A814B815C816D8198
:1036200086E695E00E942E1C0F900F900F900F9051
:103630000F90DF91CF910F910895EF92FF920F932A
:103640001F93CF93DF93CDB7DEB7C458D1090FB620
:10365000F894DEBF0FBECDBF80918E058823D1F1D7
:10366000E090660580E3F82E8E010F5F1F4FF80192
:103670008F2D11928A95E9F7CE0102960E9430169D
:10368000CE0143960E9430161AA6F801A6E6B5E0D0
:1036900001900D92FA94E1F7CE0143960E944316F1
:1036A000CE0102960E944316E092660586E695E0FA
:1036B0000E945C18C8010E94611784E8F801A2EE1C
:1036C000B4E001900D928A95E1F7C8010E946D1750
:1036D0000E94051CCC57DF4F0FB6F894DEBF0FBE1B
:1036E000CDBFDF91CF911F910F91FF90EF90089583
:1036F0000F93CF93DF9300D000D01F92CDB7DEB7EA
:10370000909165058091000198130DC089E0809328
:103710008F0501E129813A814B815C816D8186E6CB
:1037200095E00E942E1C0F900F900F900F900F901D
:10373000DF91CF910F910895F89486E695E00E946D
:10374000900186E695E00E945C1878946AE086E62F
:1037500095E00E942B1C0E941D1B0E94FC1A0E94D7
:10376000781B0E94281A0E94890F0E949E1A0E94AC
:10377000DB1A0E94BF1A8111EECF0E94491AEBCFCB
:103780001F920F920FB60F9211248F93EF93FF9316
:1037900081E08093E104EDE6F0E080818F7E80831C
:1037A00080818B7F8083FF91EF918F910F900FBE6F
:1037B0000F901F90189587E695E00E94301688E7D5
:1037C00095E00E94301610928F0582EE94E00C94E2
:1037D00061170C941C1ACF93DF93EC0186E995E0F6
:1037E0000E94551881110EC081E08CA3AE01465D88
:1037F0005F4FBE01615D7F4F86E995E0DF91CF911C
:103800000C942C18DF91CF910895CF93DF93CDB70F
:10381000DEB7C256D1090FB6F894DEBF0FBECDBFDA
:10382000CE0101960E94EB1782E6FE013196A6E9D1
:10383000B5E001900D928A95E1F7CE0101960E94C4
:10384000EF17CE59DF4F0FB6F894DEBF0FBECDBFD6
:10385000DF91CF910895FC01608308958F929F922C
:10386000AF92BF92EF92FF920F931F93CF93DF938C
:1038700000D000D01F92CDB7DEB77C0129833A83F8
:103880004B835C836D83502F6A817B818C819D810A
:10389000F7018080912CF4013297EF30F10508F0A8
:1038A00083C3EB5CFF4F0C940020802F90E0FC0161
:1038B0003297E031F10508F077C3EC5BFF4F0C94D1
:1038C000002081E0F70185A36FC38AE0F7018083C0
:1038D00081E080A769C309811A812B813C814D81D8
:1038E000652F86E995E00E94F017882309F45CC3F0
:1038F000F70181A781E087A357C385E0F7018083A3
:1039000085A1882309F450C315A281E086A34CC386
:103910008EE0F701808348C3802F90E0FC0132974E
:10392000E031F10508F040C3EC5AFF4F0C94002041
:103930008AE0F701808381E080A736C309811A817C
:103940002B813C814D81652F86E995E00E94F0171F
:10395000882309F429C3F70181A781E087A324C341
:1039600086E0DFC08EE0F70180831EC3802F90E0E9
:10397000FC013297E031F10508F016C3EC59FF4F16
:103980000C9400208AE0F701808381E080A70CC3BB
:1039900009811A812B813C814D81652F86E995E053
:1039A0000E94F017882309F4FFC2F70181A781E084
:1039B00087A3FAC289E0F701808309811A812B81EC
:1039C0003C814D816BE086E995E00E94F0178823E9
:1039D00009F4D5C2F70181A781E087A3D0C28EE0A8
:1039E000F7018083E1C2802F90E0FC013297E03143
:1039F000F10508F0D9C2EC58FF4F0C9400208CE080
:103A000001C28AE0F701808381E080A7CDC20981ED
:103A10001A812B813C814D81652F86E995E00E94BA
:103A2000F017882309F4C0C2F70181A781E087A3BA
:103A3000BBC28FE0F70180830E94BD1986E995E043
:103A40000F900F900F900F900F90DF91CF911F91DB
:103A50000F91FF90EF90BF90AF909F908F900C943C
:103A600051188EE0F70180839FC2802F90E0FC0107
:103A70003297E031F10508F097C2EC57FF4F0C94F4
:103A8000002081E0F70185A38FC28AE0F7018083DF
:103A900081E080A789C209811A812B813C814D81F7
:103AA000652F86E995E00E94F017882309F47CC20F
:103AB000F70181A781E087A377C288E0F7018083BF
:103AC00085A1882309F470C215A281E086A36CC287
:103AD0008EE0F701808368C2802F90E0FC0132976E
:103AE000E031F10508F060C2EC56FF4F0C94002065
:103AF0008AE0F701808381E080A756C209811A819C
:103B00002B813C814D81652F86E995E00E94F0175D
:103B1000882309F449C2F70181A781E087A344C241
:103B200080E1F70180830F900F900F900F900F901E
:103B3000DF91CF911F910F91FF90EF90BF90AF90C9
:103B40009F908F900C94EA188BE0EBCF8EE0F701FA
:103B500080832AC2802F90E0FC013297E031F1058A
:103B600008F022C2EC55FF4F0C94002083E04AC1BC
:103B70008AE0F701808381E080A716C209811A815B
:103B80002B813C814D81652F86E995E00E94F017DD
:103B9000882309F409C2F70181A781E087A304C241
:103BA0008EE0F701808300C210E0F8013297E03127
:103BB000F10508F0F9C1EC54FF4F0C9400208AE0A5
:103BC000F701808381E080A7EFC127E0F701208320
:103BD000A7010E949519882309F4E6C1F70181A77E
:103BE00081E087A3E1C18FE0F701808370C12CE001
:103BF000F7012083A7010E94A919882309F4D4C1E1
:103C0000F70181A781E087A3CFC109811A812B81A8
:103C10003C814D8167E086E995E00E94F01788239A
:103C200009F4C2C1F70181A781E087A3BDC123E0E8
:103C3000F701208397012E5E3F4FAB01BC0181E06D
:103C40000E94F618882309F4AFC1F70181A781E02B
:103C500087A3AAC18EE0F7018083A6C143E0F701E4
:103C600041939F01AB01BC0180E00E94F6188823BC
:103C700009F49AC1F70181A781E087A395C10930B2
:103C800049F1C8F4023001F1083009F08DC18FE02C
:103C9000F70180830F900F900F900F900F90DF919E
:103CA000CF911F910F91FF90EF90BF90AF909F9099
:103CB0008F900C94EB190A3001F1013109F074C1B5
:103CC0008EE0F701808370C18AE0F701808381E094
:103CD00080A76AC187010F5F1F4F29813A814B81FD
:103CE0005C816D8180E00E948618882309F45CC1A4
:103CF000F70181A781E087A357C187010E5E1F4F9F
:103D000029813A814B815C816D8181E00E94861816
:103D1000882309F449C1F70181A781E087A344C141
:103D2000802F90E0FC013297E031F10508F03CC1B2
:103D3000EC53FF4F0C94002081E0F70185A334C1C0
:103D40008AE0F701808381E080A72EC109811A8172
:103D50002B813C814D81652F86E995E00E94F0170B
:103D6000882309F421C1F70181A781E087A31CC141
:103D70008DE0F701808385A1882309F415C115A280
:103D800081E086A311C180E1F701808357CE8EE0E8
:103D9000F701808309C1802F90E0FC013297E03168
:103DA000F10508F001C1EC52FF4F0C9400208AE0AD
:103DB000F701808381E080A7F7C009811A812B81F8
:103DC0003C814D81652F86E995E00E94F01788239C
:103DD00009F4EAC0F70181A781E087A3E5C082E08A
:103DE000A0CE8EE0F7018083DFC0802F90E0FC0141
:103DF0003297E031F10508F0D7C0EC51FF4F0C9439
:103E0000002087E0F70180830F900F900F900F90B4
:103E10000F90DF91CF911F910F91FF90EF90BF9086
:103E2000AF909F908F900C94F1188AE0F7018083F7
:103E300081E080A7B9C009811A812B813C814D8125
:103E4000652F86E995E00E94F017882309F4ACC03D
:103E5000F70181A781E087A3A7C08EE0F7018083E7
:103E6000A3C0023039F0013109F09EC08EE0F701A5
:103E700080839AC08AE0F701808381E080A794C0A4
:103E8000802F90E0FC013297E031F10508F08CC002
:103E9000EC50FF4F0C9400208AE0F701808381E012
:103EA00080A782C084E0F701808309811A812B8179
:103EB0003C814D81652F86E995E00E94F0178823AB
:103EC00009F472C0F70181A781E087A36DC00E9449
:103ED0007A1855C08AE0F70180830F900F900F90F9
:103EE0000F900F90DF91CF911F910F91FF90EF9066
:103EF000BF90AF909F908F900C94ED198EE0F701DA
:103F0000808352C087010F5F1F4F29813A814B8107
:103F10005C816D8180E009C087010E5E1F4F2981A1
:103F20003A814B815C816D8181E00E9486184FCD82
:103F3000802F90E0FC013297E031F105A8F5EC5FAD
:103F4000FE4F0C9400208AE0F701808381E080A777
:103F50002BC009811A812B813C814D81652F86E917
:103F600095E00E94F0178823F9F0F70181A781E01E
:103F700087A31AC089E0F70180830E94BD19C70199
:103F80000F900F900F900F900F90DF91CF911F9196
:103F90000F91FF90EF90BF90AF909F908F900C94F7
:103FA000EB1B8EE0F70180830F900F900F900F9026
:103FB0000F90DF91CF911F910F91FF90EF90BF90E5
:103FC000AF909F908F90089586E995E00C94EB1741
:103FD00086E995E00C94EF1797FB072E16F40094F2
:103FE00007D077FD09D00E94062007FC05D03EF4DB
:103FF000909581959F4F0895709561957F4F089595
:10400000EE0FFF1F0590F491E02D0994AA1BBB1B36
:1040100051E107C0AA1FBB1FA617B70710F0A61BC8
:10402000B70B881F991F5A95A9F780959095BC01E9
:10403000CD0108955058BB27AA270ED07BC26CD261
:1040400030F071D220F031F49F3F11F41EF461C2C0
:104050000EF4E095E7FB2EC2E92F7DD280F3BA176C
:10406000620773078407950718F071F49EF5ACC2D8
:104070000EF4E0950B2EBA2FA02D0B01B901900183
:104080000C01CA01A0011124FF27591B99F0593FC7
:1040900050F4503E68F11A16F040A22F232F342F0F
:1040A0004427585FF3CF469537952795A795F0405D
:1040B0005395C9F77EF41F16BA0B620B730B840B72
:1040C000BAF09150A1F0FF0FBB1F661F771F881F2A
:1040D000C2F70EC0BA0F621F731F841F48F4879582
:1040E00077956795B795F7959E3F08F0B3CF939571
:1040F000880F08F09927EE0F979587950895492F17
:10410000E5E593959E9F912DE3E0E99F4019EE2709
:104110000895F1C128D2E8F39923D9F3DF93CF931F
:104120001F930F93FF92EF92DF92CF92BF92AF92C5
:104130009F928F929F5780F4919588232AF09395B0
:10414000660F771F881FDAF7DADF4A951AF009F44D
:104150004E5F9395919501C0D2DF91589F93FF27B1
:10416000FF248F019F014F01DF01EF01660F771FD1
:10417000881FAA1F4A95D2F798E0000F111F000F61
:10418000111FEE0FA801AA244E0F511DA11C6A0198
:10419000EA2C440F551FAA1C4C0D5D1DAE1C41603E
:1041A000A41BB50BCA0920F4A40FB51FCA1D07C074
:1041B000AF01440F551F040F151F0160E16043E07C
:1041C000660F771F881FAA1FBB1FCC1F4A95C1F718
:1041D0009A9599F690E1000F111F221F331F881C3A
:1041E000991C1094C1F7EE0FFF1FFF1C0024A001C3
:1041F00050016001EE24400F511FA21EB31EC81CC7
:10420000D91CE11C4E0F5F1FAF1CB11CC11CD11C7F
:10421000E11C009441F0440F551FAA1CBB1CCC1C90
:10422000DD1CEE1CE8CFA41BB50BCA09DB096C0929
:104230007D098E0940F4A40FB51FCA1DDB1D6C1D3E
:104240007D1D8E1D0AC00E0F1F1F2F1D311D811CCD
:10425000911C0094C1F70160E16043E0AA0FBB1F0D
:10426000CC1FDD1F661F771F881F4A95B9F79A95E7
:1042700009F0B1CFBF018F2D9F91880F969587953B
:1042800097F98F909F90AF90BF90CF90DF90EF9075
:10429000FF900F911F91CF91DF9108957ED180F013
:1042A0009F3740F491110EF490C160E070E080E817
:1042B0009FE3089526F01B16611D711D811D00C12D
:1042C0001AC1D4D008F481E008950CD033C12BD1A9
:1042D00040F022D130F021F45F3F19F0EBC05111D2
:1042E00074C117C138D198F39923C9F35523B1F399
:1042F000951B550BBB27AA2762177307840738F055
:104300009F5F5F4F220F331F441FAA1FA9F333D0B3
:104310000E2E3AF0E0E830D091505040E695001C67
:10432000CAF729D0FE2F27D0660F771F881FBB1F23
:10433000261737074807AB07B0E809F0BB0B802DFD
:10434000BF01FF2793585F4F2AF09E3F510568F049
:10435000B1C03BC15F3FECF3983EDCF386957795A7
:104360006795B795F7959F5FC9F7880F911D96954B
:10437000879597F90895E1E0660F771F881FBB1FA7
:10438000621773078407BA0720F0621B730B840B54
:10439000BA0BEE1F88F7E0950895E5D088F09F5797
:1043A00090F0B92F9927B751A0F0D1F0660F771F81
:1043B000881F991F1AF0BA95C9F712C0B13081F061
:1043C00003D1B1E0089500C1672F782F8827B85F27
:1043D00039F0B93FCCF3869577956795B395D9F7C2
:1043E0003EF490958095709561957F4F8F4F9F4FCC
:1043F0000895E89409C097FB3EF4909580957095D8
:1044000061957F4F8F4F9F4F9923A9F0F92F96E920
:10441000BB279395F695879577956795B795F11195
:10442000F8CFFAF4BB0F11F460FF1BC06F5F7F4F32
:104430008F4F9F4F16C0882311F096E911C0772344
:1044400021F09EE8872F762F05C0662371F096E84D
:10445000862F70E060E02AF09A95660F771F881F1C
:10446000DAF7880F9695879597F90895990F0008C0
:10447000550FAA0BE0E8FEEF16161706E807F90736
:10448000C0F012161306E407F50798F0621B730BD1
:10449000840B950B39F40A2661F0232B242B252B52
:1044A00021F408950A2609F4A140A6958FEF811DF5
:1044B000811D089597F99F6780E870E060E0089596
:1044C000882371F4772321F09850872B762F07C02B
:1044D000662311F499270DC09051862B70E060E09F
:1044E0002AF09A95660F771F881FDAF7880F96953E
:1044F000879597F908959F3F31F0915020F4879563
:1045000077956795B795880F911D9695879597F93B
:1045100008959FEF80EC089500240A94161617065C
:1045200018060906089500240A94121613061406A4
:1045300005060895092E0394000C11F4882352F007
:10454000BB0F40F4BF2B11F460FF04C06F5F7F4FBF
:104550008F4F9F4F089557FD9058440F551F59F0A6
:104560005F3F71F04795880F97FB991F61F09F3F60
:1045700079F087950895121613061406551FF2CF89
:104580004695F1DF08C0161617061806991FF1CFD9
:1045900086957105610508940895E5DFA0F0BEE7F2
:1045A000B91788F4BB279F3860F41616B11D672F22
:1045B000782F8827985FF7CF869577956795B11DF7
:1045C00093959639C8F30895E894BB276627772713
:1045D000CB0197F908954ADF08F48FEF08950BD0C7
:1045E000A9CF9ADF28F09FDF18F0952309F062CF5A
:1045F00090CF1124EACFAFDFA0F3959FD1F3950FB1
:1046000050E0551F629FF001729FBB27F00DB11D56
:10461000639FAA27F00DB11DAA1F649F6627B00DE6
:10462000A11D661F829F2227B00DA11D621F739FCF
:10463000B00DA11D621F839FA00D611D221F749FDD
:104640003327A00D611D231F849F600D211D822F24
:10465000762F6A2F11249F5750408AF0E1F088236B
:104660004AF0EE0FFF1FBB1F661F771F881F915078
:104670005040A9F79E3F510570F01CCFA6CF5F3F79
:10468000ECF3983EDCF3869577956795B795F795AB
:10469000E7959F5FC1F7FE2B880F911D9695879533
:1046A00097F90895FA01EE0FFF1F309621053105A5
:1046B00099F16115710561F48038BFE39B0749F1F9
:1046C00068949038810561F08038BFEF9B0741F016
:1046D000992342F5FF3FE1053105210511F1E894E9
:1046E0000894E795D901AA2329F4AB2FBE2FF85FD0
:1046F000D0F310C0FF5F70F4A695E0F7F73950F0E3
:1047000019F0FF3A38F49F779F930CD00F9007FC75
:10471000905808953EF0FDCE60E070E080E89FE3A1
:1047200008954FE79F775F934F933F932F93EAD07E
:104730002F913F914F915F9152DF4AC011F40EF4D7
:10474000E8CED9CE10DFD0F39923D9F3CEF39F571B
:10475000550B87FF69D00024A0E640EA90018058FD
:104760005695979528F4805C660F771F881F20F078
:1047700026173707480730F4621B730B840B202978
:1047800031294A2BA69517940794202531254A27CD
:1047900058F7660F771F881F20F02617370748073E
:1047A00030F4620B730B840B200D311D411DA0955D
:1047B00081F7B901842F9158880F969587950895B0
:1047C0009B01AC010CCF19F40EF074CEFDCEA1CE3E
:1047D000CADEC8F39638C0F707F80F92E8942BE3C7
:1047E0003AEA48EB5FE709DF0F920F920F924DB75D
:1047F0005EB70F92C7D0E8E2F2E01DD04F915F9113
:10480000EF91FF91E595EE1FFF1F49F0FE57E0681D
:104810004427EE0F441FFA95E1F74195550B39D027
:104820000F9007FE2DC0089591505040660F771FDE
:10483000881FD2F70895DF93CF931F930F93FF92B2
:10484000EF92DF927B018C01689405C0DA2EEF01B4
:10485000D2DEFE01E894A5912591359145915591BF
:10486000AEF3EF01F9DBFE019701A801DA9479F7C5
:10487000DF90EF90FF900F911F91CF91DF910895FE
:104880009B01AC0160E070E080E89FE31ECD12CE9A
:1048900032CE69DEE8F39923D9F3940F511DBBF3AF
:1048A0009150504094F059F0882332F0660F771FF2
:1048B000881F91505040C1F79E3F510544F7880F23
:1048C000911D9695879597F908955F3FACF0983EB6
:1048D0009CF0BB27869577956795B79508F4B160EE
:1048E0009395C1F7BB0F58F711F460FFE8CF6F5FE6
:1048F0007F4F8F4F9F4FE3CF68CE0EF0FCCD09CE98
:104900006894D8CD30DEC8F39923D1F3C6F3DF9392
:10491000CF931F930F93FF92C92FDD2788232AF08F
:104920002197660F771F881FDAF720E030E040E814
:104930005FEB9FE3883920F0803E30F021968F773F
:104940007ADBE0E5F2E003C076DBEDE7F2E073DF6F
:104950008B01BE01EC01FB2E6F5771097595771F16
:10496000880B990B48DD28E132E741E35FE343DE42
:10497000AF2D9801AE01FF900F911F91CF91DF9164
:104980006BDBD8CDFA01DC01AA0FBB1F9B01AC0188
:10499000BF5728F422273327442750781FC0B75128
:1049A00088F4AB2F0024469537952795011CA395D5
:1049B000D2F3002069F0220F331F441FB395DAF3BE
:1049C0000DD038CB61307105A0E88A07B94630F4C4
:1049D0009B01AC016627772788279078309621F0D5
:1049E0002083318342835383089512E0C8ECD2E0E0
:1049F00004C0FE010E9402202296CC3CD107C9F7D8
:064A0000F894FFCF150041
:00000001FF
