:100000000C946B010C9493010C9493010C94930148
:100010000C9493010C94241C0C9493010C941B14C9
:100020000C9493010C9493010C9493010C9447133A
:100030000C9493010C9493010C9444140C9493012C
:100040000C9493010C9493010C9458150C94861500
:100050000C9493010C9493010C9493010C949301D0
:100060000C94A8010C9493019647B91CC71CD51C8D
:10007000F61C1C1D2A1D4C1D5A1D921DC81DE71D76
:10008000FD1D1D1E231E4E1E5A1E601E601E601E7C
:10009000601E601E9C1E601E601E601E9C1EC51C95
:1000A0009C1ED41DE31D881E5A1E601E601E601E0D
:1000B000601E601E9C1E601E601E601E9C1E9C1E9C
:1000C000D31C9C1E9C1E881EF31D5A1E601E601EA3
:1000D000601E601E601E9C1E601E601EE11C9C1E39
:1000E0009C1E9C1E9C1E9C1E881E5A1E601E601E0E
:1000F000601E601E601E9C1E601E601E601E9C1E98
:100100009C1E9C1E021D041D881E5A1E601E601E21
:10011000601E601E601E9C1E601E601E601E9C1E77
:10012000281D9C1ED41DE31D881E5A1E601E601EC5
:10013000601E601E601E9C1E601E601E601E361DBE
:100140009C1E4A1D9C1E9C1E881EF31DF71D5A1ED8
:10015000601E601E601E601E601E9C1E601E601E73
:10016000601E9C1E9C1E9C1E581D041D881E5A1E2F
:10017000651D701D881D7E1D771D9C1E381E421E2C
:100180006C1D9C1E9C1E9C1E9C1E9C1E881E5A1E26
:10019000601E601E601E601E601E9C1E601E601E33
:1001A000601E9C1ED81D9C1ED41DE31D881E5A1E59
:1001B000601E601E601E601E601E9C1E601E601E13
:1001C000601E361D9C1EFB1D9C1E9C1E881EF31D62
:1001D000F71D5A1E601E601E601E601E601E9C1E63
:1001E000601E601E601E9C1E9C1E9C1E091E041D1F
:1001F000881E5A1E2F1E2F1E2F1E2F1E361E9C1E9F
:10020000381E421E331E9C1E9C1E9C1E9C1E9C1E45
:10021000881E5A1E601E601E601E601E601E9C1E90
:10022000601E601E601E9C1E711E9C1E9C1E9C1EDD
:10023000881E07634236B79BD8A71A39685618AE8E
:10024000BAAB558C1D3CB7CC5763BD6DEDFD753E0B
:10025000F6177231BF000000803F08000000BE9218
:100260002449123EABAAAA2ABECDCCCC4C3E0000FB
:100270000080BEABAAAAAA3E00000000BF0000009A
:10028000803F0000000000084178D3BB4387D113B2
:100290003D190E3CC3BD4282AD2B3E68EC8276BE5A
:1002A000D98FE1A93E4C80EFFFBE01C4FF7F3F0024
:1002B000000000000000C6020000C0020000C302EF
:1002C000030604030503080B02100E0F08073F1C6A
:1002D000AC1E4D1CB01E11241FBECFEFD8E0DEBFF8
:1002E000CDBF11E0A0E0B1E0E4E9F7E402C0059081
:1002F0000D92A230B107D9F725E0A2E0B1E001C02C
:100300001D92AC3FB207E1F712E0C2EDD2E004C0AB
:100310002297FE010E94CA1ECE3CD107C9F70E9457
:10032000FC1B0C94BD230C9400009093030180935C
:100330000201ECEBF0E08081846080838081816049
:10034000808380818064808380E28093BA000895F6
:100350001F920F920FB60F9211242F933F935F932A
:100360006F937F938F939F93AF93BF93EF93FF937D
:100370008091B900887F803991F1D0F4803709F4F9
:100380007DC068F4803609F479C0883609F476C0F7
:1003900081117AC08091BC008F70806D73C08038ED
:1003A000F1F0883809F444C0883709F06DC066C0A0
:1003B000803B09F442C048F4803A09F45FC0883AAF
:1003C000E1F1883909F060C033C0803C09F456C0BF
:1003D000883C09F453C0883B09F056C02EC03091C8
:1003E000BB0080916705209100018217E9F08091A0
:1003F000640590E001968F779927E0916405F0E01D
:10040000EC51FB4F308380936405809166058150E9
:1004100080936605811108C0809167058F5F809386
:10042000670586E08093660580916705821326C084
:100430008091BC008F70806825C08091640590E039
:10044000019760E870E00E94B41EFC01FF27EC51A8
:10045000FB4F908180936405809166058F5F809348
:100460006605E0910201F091030183A58093BB0032
:100470008091BC008F7080688093BC008091BC002C
:100480008F70806C8093BC00FF91EF91BF91AF9112
:100490009F918F917F916F915F913F912F910F90DD
:1004A0000FBE0F901F9018954F925F926F927F92A0
:1004B0008F929F92AF92BF92CF92DF92EF92FF9274
:1004C0006B017C0129013A012091540130915501C1
:1004D000409156015091570160E070E080E89FE341
:1004E0000E942D200E94A8224B015C01A7019601C9
:1004F000C301B2010E94E21EA50194010E94B7212E
:1005000060936C0170936D0180936E0190936F0105
:100510009B01AC010E94E31E609370017093710116
:100520008093720190937301C0926801D092690127
:10053000E0926A01F0926B01FF90EF90DF90CF9014
:10054000BF90AF909F908F907F906F905F904F90F3
:100550000895CF92DF92EF92FF92CF93DF93CDB7C2
:10056000DEB728970FB6F894DEBF0FBECDBF81303F
:10057000A9F58091580190915901A0915A01B0912B
:100580005B010197A105B10549F58091E104813036
:1005900029F58091E004813009F580910A0190915C
:1005A0000B01A0910C01B0910D0180931A01909361
:1005B0001B01A0931C01B0931D0180910E0190912D
:1005C0000F01A0911001B091110180931E01909331
:1005D0001F01A0932001B093210152C020915C0122
:1005E00030915D0140915E0150915F016091680121
:1005F0007091690180916A0190916B010E94B7210D
:100600006B017C0120912201309123014091240152
:10061000509125010E94B7219B01AC01609112010C
:100620007091130180911401909115010E94E31EB5
:1006300060931A0170931B0180931C0190931D011C
:1006400020912601309127014091280150912901E4
:10065000C701B6010E94B7219B01AC016091160150
:100660007091170180911801909119010E94E31E69
:1006700060931E0170931F018093200190932101CC
:1006800020911201309113014091140150911501F4
:1006900060911A0170911B0180911C0190911D01C4
:1006A0000E94E21E9B01AC01609182017091830166
:1006B00080918401909185010E94B72169837A839A
:1006C0008B839C8320911601309117014091180172
:1006D0005091190160911E0170911F0180912001BC
:1006E000909121010E94E21E9B01AC016091860164
:1006F0007091870180918801909189010E94B721B2
:100700006D837E838F839887209160013091610192
:1007100040916201509163016AE271E0CE0101965D
:100720000E949A14811106C06AE171E082E191E0B1
:100730000E9436168091580190915901A0915A015A
:10074000B0915B010197A109B10980935801909381
:100750005901A0935A01B0935B01892B8A2B8B2BF3
:1007600011F484E001C082E028960FB6F894DEBF51
:100770000FBECDBFDF91CF91FF90EF90DF90CF9074
:1007800008954F925F926F927F928F929F92AF9255
:10079000BF92CF92DF92EF92FF92CF93DF9300D080
:1007A00000D0CDB7DEB780910901813009F0A8C033
:1007B000C0903401D0903501E0903601F0903701BF
:1007C000C701B6019F772CEA35EC47E257E30E9458
:1007D000292087FF02C080E034C180913C019091C4
:1007E0003D01A0913E01B0913F0189839A83AB8383
:1007F000BC832091400130914101409142015091D0
:100800004301BC01CD010E94E31E20E030E040E046
:100810005FE30E94B7214B015C0160934C01709330
:100820004D0180934E0190934F019B01AC01C70194
:10083000B6010E942D202B013C016093480170936A
:10084000490180934A0190934B0120EC31EE44E63C
:100850005CE40E94B72120E030E44CE156E40E94C1
:100860002D200E9416206B017C016093540170932F
:10087000550180935601909357019B01AC010E9452
:10088000E31E9B01AC01C301B2010E942D202B018C
:100890003C0160935C0170935D0180935E019093D5
:1008A0005F01C701B6010E949520609358017093C3
:1008B000590180935A0190935B0120EC31EE44E69C
:1008C0005CE4C301B2010E94B721609360017093A0
:1008D0006101809362019093630120E030E44CE178
:1008E00055E40E94292087FDA9C0A50194016981D2
:1008F0007A818B819C810E94540282E0809309015D
:1009000080910901823009F061C020916C01309121
:100910006D0140916E0150916F016091680170917D
:10092000690180916A0190916B010E94E31E6093BE
:1009300068017093690180936A0190936B0180E074
:100940000E94A902843039F56091540170915501DB
:1009500080915601909157010E9495206093580113
:100960007093590180935A0190935B0183E08093C7
:1009700009018091700190917101A0917201B09173
:100980007301B0588093700190937101A09372012C
:10099000B093730155C02091700130917101409165
:1009A00072015091730160916C0170916D018091A1
:1009B0006E0190916F010E94E31E60936C01709331
:1009C0006D0180936E0190936F013AC08330C1F541
:1009D000C0906C01D0906D01E0906E01F0906F01BD
:1009E000A7019601609168017091690180916A0187
:1009F00090916B010E94E31E6093680170936901FE
:100A000080936A0190936B01209170013091710184
:100A10004091720150917301C701B6010E94E31E1B
:100A200060936C0170936D0180936E0190936F01E0
:100A300081E00E94A902843019F4CDCE8EE301C07A
:100A400082E00F900F900F900F90DF91CF91FF9069
:100A5000EF90DF90CF90BF90AF909F908F907F905E
:100A60006F905F904F900895CF92DF92EF92FF9238
:100A70000F931F936B017C01CA01B9012BEA3AEA7B
:100A80004AE25FE30E941A22F801EB5AFF4F2081ED
:100A90003181428153810E94B721A70196010E94B2
:100AA000E31E1F910F91FF90EF90DF90CF9008957C
:100AB000CF92DF92EF92FF920F931F930E94E21E5C
:100AC0006B017C01E894F7F8F801EF5AFF4F2081A1
:100AD000318142815381C701B6010E94B7210E9432
:100AE0006A229B01AC01C701B6010E94B7211F9188
:100AF0000F91FF90EF90DF90CF9008952F923F924B
:100B00004F925F926F927F928F929F92AF92BF921D
:100B1000CF92DF92EF92FF920F931F93CF93DF93C9
:100B2000CDB7DEB762970FB6F894DEBF0FBECDBF6C
:100B30009A8B898BDC015D961D921D921D921C92F1
:100B40009097FC0111A212A213A214A295961D92D5
:100B50001D921D921C929897D5962D913D914D9185
:100B60005C91D8972D833E834F8358879D962D9116
:100B70003D914D915C91D09729833A834B835C835F
:100B80008C012D813E814F81588569817A818B81CD
:100B90009C810E9458054B015C01F801C1A4D2A4BC
:100BA000E3A4F4A441A852A863A874A82EE333ECEC
:100BB0004EE258E3C301B2010E94B7216D877E87E0
:100BC0008F87988B9B01AC01C501B4010E94E31E85
:100BD0009B01AC01C701B6010E94292018160CF434
:100BE000C5C02D813E814F81588569817A818B8175
:100BF0009C810E94B32118160CF046C027E137EB08
:100C000041ED58E3C501B4010E94E21E9B01AC0115
:100C1000C701B6010E94292087FF0FC0A7019601D6
:100C20006D817E818F8198850E943405D8019D96C3
:100C30006D937D938D939C93D097E989FA8985A4D0
:100C400096A4A7A4B0A881AA92AAA3AAB4AA2D8107
:100C50003E814F815885C501B4010E94E31E2EE3F9
:100C600033EC4EE258E30E94B7219B01AC01C7016F
:100C7000B6010E94B32187FD5BC0E989FA89C5A24C
:100C8000D6A2E7A2F0A615C32D813E814F815885DB
:100C900069817A818B819C810E94292087FF66C0AF
:100CA00027E137EB41ED58E3C501B4010E94E21E94
:100CB0009B01AC01C701B6010E94292087FF11C02A
:100CC00009891A89A701960169817A818B819C81A2
:100CD0000E943405D801D5966D937D938D939C9396
:100CE000D897E989FA8985A896A8A7A8B0AC81AA5F
:100CF00092AAA3AAB4AA29813A814B815C81C50139
:100D0000B4010E94E31E2EE333EC4EE258E30E944E
:100D1000B7219B01AC01C701B6010E94B32187FD39
:100D200007C0E989FA89C58ED68EE78EF0A2C1C2C6
:100D30002EE333EC4EE258E3C501B4010E94B72123
:100D40009B01AC01C701B6010E94B32118164CF4F7
:100D5000A989BA899196CD92DD92ED92FC929497F1
:100D6000A8C287E0E989FA898187A3C209891A891B
:100D7000A301920169817A818B819C810E9458052F
:100D800069877A878B879C87D8015D966D937D9361
:100D90008D939C939097A30192016D817E818F81A9
:100DA00098850E9458054B015C01F80165A376A364
:100DB00087A390A729813A814B815C81C301B2014D
:100DC0000E94E31E2EE333EC4EE258E30E94B7216B
:100DD0009B01AC0169857A858B859C850E942920C1
:100DE00087FF07C0D8015D961D921D921D921C922F
:100DF00090972D813E814F815885C301B2010E9499
:100E0000E31E2EE333EC4EE258E30E94B7219B0130
:100E1000AC01C501B4010E94292087FF06C0E98901
:100E2000FA8915A216A217A210A6A989BA895D96F9
:100E30008D909D90AD90BC90909795964D905D90C3
:100E40006D907C909897A3019201C501B4010E9416
:100E5000E31E9B01AC01C701B6010E94292087FF58
:100E600084C12D813E814F81588569817A818B8132
:100E70009C810E94E21E4B015C01E894B7F820E0DF
:100E800030E048EC52E469817A818B819C810E9438
:100E90002D20562E672E782E492E20E030E040E09F
:100EA00050E40E94292087FF05C0512C612C712C31
:100EB00080E401C0842D252D362D472D582FC501E6
:100EC000B4010E94292009891A89035C1F4F87FFFA
:100ED0003FC020E030E040E05FE3C701B6010E9480
:100EE000B7219B01AC01E989FA89658F768F878FDD
:100EF00090A3DF0195966D937D938D939C93989726
:100F0000F801E080F180A280B3808D0169817A814F
:100F10008B819C810E9434056B018C019B01AC018B
:100F2000B701C5010E94292087FF03C09A2D8B2D90
:100F300003C07601902F812FA701692F782FA989EF
:100F4000BA89D1964D935D936D937C93D497B1C13B
:100F5000F801F081F987D8011196BC91BD87F8019D
:100F60003280238089859D85A32DB22DE989FA8958
:100F700081AB92ABA3ABB4AB8F019C01432D522D3F
:100F800069817A818B819C810E9458054B015C01AB
:100F9000D8015D966D937D938D939C939097298551
:100FA0003D85432D522D6D817E818F8198850E94D4
:100FB00058052B013C01F80165A376A387A390A7F0
:100FC0009B01AC01C501B4010E94B321A3019201B0
:100FD0001816E4F4C501B4010E94E31E9B01AC01A4
:100FE000C501B4010E942D20A70196010E94B721DE
:100FF0009B01AC01D8015D966D937D938D939C937D
:10100000909769817A818B819C811BC0C501B40155
:101010000E94E31E9B01AC01C301B2010E942D207E
:10102000A70196010E94B7219B01AC01E989FA89C9
:1010300065A376A387A390A78F016D817E818F81A1
:1010400098850E9434053B01582E492E9B01482F5C
:10105000592F69857D85832D922D0E94E21E9F77F1
:101060009301452D542D0E942D202DEC3CEC4CEC91
:101070005DE30E94B321181624F469867D8612016F
:1010800071CFC301A52DB42DE989FA8981AB92AB4B
:10109000A3ABB4AB8F019301452D542D69817A81A7
:1010A0008B819C810E9458054B015C01D8015D96A3
:1010B0006D937D938D939C93909729813A814B8179
:1010C0005C81B301852D942D0E94E31E2EE333EC49
:1010D0004EE258E30E94B7219B01AC01C501B40167
:1010E0000E94292087FD0CC0A5019401C701B6010B
:1010F0000E94E21EF80165A376A387A390A70DC006
:10110000A989BA899596CD92DD92ED92FC92989735
:10111000FD01158E168E178E10A22D813E814F81F6
:101120005885B301852D942D0E94E31E2EE333ECE8
:101130004EE258E30E94B7219B01AC01A989BA890C
:1011400095966D917D918D919C9198970E94292003
:1011500087FFAFC0E989FA89C58ED68EE78EF0A2E7
:1011600015A216A217A210A6A4C0A5019401C7013A
:10117000B6010E94E21EA30192010E94E21E6B01D1
:101180007C01E989FA8961A372A383A394A32D85C5
:101190003E854F8558890E942920A50194015F77DB
:1011A0002D833E834F83588787FF60C02CEA35EC40
:1011B00047E257E3C701B6019F770E94B321181693
:1011C0000CF054C02CEA35EC47E257E36D817E8188
:1011D0008F8198850E94B32118169CF52CEA35EC76
:1011E00047E257E3C301B2019F770E94B32118166B
:1011F000CCF420E030E040E05FE3C701B6010E949C
:10120000B7216B017C019B01AC01C501B4010E94B7
:10121000E31EA989BA895D966D937D938D939C9306
:1012200090970FC0A7019601C501B4010E94E31E6B
:10123000A989BA895D966D937D938D939C939097C0
:101240000CC0A7019601C301B2010E94E31EE98907
:10125000FA8965A376A387A390A7A989BA899196ED
:101260001D921D921D921C92949723C02CEA35EC7E
:1012700047E257E36D817E818F8198850E94292006
:1012800087FF17C0C301B2019F772CEA35EC47E214
:1012900057E30E94292087FF0CC029813A814B81A6
:1012A0005C81A989BA89D1962D933D934D935C9326
:1012B000D49762960FB6F894DEBF0FBECDBFDF9114
:1012C000CF911F910F91FF90EF90DF90CF90BF9043
:1012D000AF909F908F907F906F905F904F903F90D6
:1012E0002F9008952F923F924F925F926F927F922C
:1012F0008F929F92AF92BF92CF92DF92EF92FF9226
:101300000F931F93CF93DF934C011B01EC010990C6
:10131000D881C02DC815D90509F497C08A858823BE
:1013200009F493C0EA81FB81A1ACB2ACC3ACD4ACEC
:10133000E75BFF4FE080F180028113819701A801F4
:10134000B501C6010E94292087FF02C0750101C0B6
:1013500068018E01075B1F4FFE01EB5BFF4F208191
:10136000318142815381B701C6010E94E31EF80119
:101370006083718382839383CACFA815B90509F06E
:1013800071C089AD9AADABADBCAD8DA79EA7AFA71F
:10139000B8ABF1011082F90180819181A281B38102
:1013A00089AB9AABABABBCAB6A807B802E01F5E41A
:1013B0004F0E511CF20120813181428153816DA574
:1013C0007EA58FA598A90E94E31E5B016C01F30125
:1013D000E1ACF2AC03AD14ADE75BFF4F208131818E
:1013E000428153813E01F1E46F0E711CF301608173
:1013F0007181828193810E94E9156DAB7EAB8FABC9
:1014000098AFCE010E947E05CDA8DEA8EFA8F8AC6B
:10141000F3012081318142815381C701B6010E94CD
:101420002920882309F441C0EA81FB8121AD32AD36
:1014300043AD54ADC701B6010E9429208823A9F10C
:10144000E881F98182858823E9F00A80DB81C02D5B
:101450009E01235C3F4FA881B981C815D90509F0C9
:101460008CCF25C0F1018081813009F48ACFD596D7
:101470008D919D910D90BC91A02D8DA79EA7AFA79A
:10148000B8AB89CFF20120813181428153816DA5B2
:101490007EA58FA598A90E94E31E9B01AC01C70100
:1014A000B6010E9429208111D0CF1A86CECFD596C1
:1014B0008D919D910D90BC91A02D8DA79EA7AFA75A
:1014C000B8ABF90180819181A281B38189AB9AABDC
:1014D000ABABBCAB1DAA1EAA1FAA18AECE01DF91F2
:1014E000CF911F910F91FF90EF90DF90CF90BF9021
:1014F000AF909F908F907F906F905F904F903F90B4
:101500002F900C947E050E943412009761F0FC012C
:1015100031E032870280F381E02DE817F90719F0F6
:1015200021852111F6CF08954F925F926F927F929D
:101530008F929F92AF92BF92CF92DF92EF92FF92E3
:10154000CF93C0910901C13009F099C0C09030011A
:10155000D0903101E0903201F0903301C701B60123
:101560009F772CEA35EC47E257E30E94292087FF5A
:1015700017C086E080930801E0910401F091050115
:10158000C4A3CF91FF90EF90DF90CF90BF90AF902A
:101590009F908F907F906F905F904F900C94C103BD
:1015A00040903C0150903D0160903E0170903F01A1
:1015B000A3019201C701B6010E942D204B015C01DD
:1015C000609348017093490180934A0190934B01C5
:1015D00020EC31EE44E65CE40E94B72120E030E4E8
:1015E0004CE955E40E942D200E9416206B017C01DD
:1015F0006093540170935501809356019093570165
:101600009B01AC01C501B4010E942D204B015C017E
:1016100060935C0170935D0180935E0190935F0124
:10162000409268015092690160926A0170926B0168
:10163000C701B6010E94952060935801709359012B
:1016400080935A0190935B0120EC31EE44E65CE418
:10165000C501B4010E94B7216093600170936101DC
:10166000809362019093630120E030E44CE155E403
:101670000E94292087FD2DC082E08093090180917E
:101680000901823041F580E00E94A902843019F5F9
:101690008091340190913501A0913601B0913701CC
:1016A000BC01CD019F772CEA35EC47E257E30E945D
:1016B000292087FD0CC086E080930801E091040199
:1016C000F091050181E084A38093090104C080E0CA
:1016D00003C08EE301C082E0CF91FF90EF90DF90D6
:1016E000CF90BF90AF909F908F907F906F905F90C2
:1016F0004F9008954F925F926F927F928F929F9238
:10170000AF92BF92CF92DF92EF92FF920F931F930F
:10171000CF93DF9300D000D01F92CDB7DEB78C01FE
:10172000DC0119968C911997882309F45BC280918A
:10173000080181119DC08091E204843009F452C2F5
:101740001A961C921A9799968D919D910D90BC9125
:10175000A02DBC01CD019F772CEA35EC47E257E381
:101760000E94292087FF0FC01092080110920901E2
:10177000D8011296ED91FC91139712860E94521592
:101780000E945B122FC282E0F801818784E080937F
:10179000080181E080930901E35BFF4F8081918123
:1017A000A281B3818093500190935101A093520183
:1017B000B0935301F801858D968DA78DB0A18093CC
:1017C0002C0190932D01A0932E01B0932F0181A1A4
:1017D00092A1A3A1B4A18093300190933101A09371
:1017E0003201B093330185A196A1A7A1B0A5809342
:1017F000340190933501A0933601B093370185A54C
:1018000096A5A7A5B0A98093380190933901A0931C
:101810003A01B0933B0181A992A9A3A9B4A98093ED
:101820003C0190933D01A0933E01B0933F0185A9F7
:1018300096A9A7A9B0AD8093400190934101A093D0
:101840004201B0934301B8016D5E7F4F82E291E0A7
:101850000E943616B801655F7F4F8AE091E00E94D2
:101860003616B801655E7F4F8AE291E00E943E160F
:1018700080910801853009F483C1863009F483C161
:10188000843009F083C180910901813009F0AAC038
:10189000C0902C01D0902D01E0902E01F0902F01EE
:1018A000C701B6019F772CEA35EC47E257E30E9467
:1018B000292087FF04C085E08093080161C18091E1
:1018C000380190913901A0913A01B0913B0189838F
:1018D0009A83AB83BC8320913C0130913D014091C0
:1018E0003E0150913F01BC01CD010E94E31E20E06A
:1018F00030E040E05FE30E94B7214B015C01609360
:101900004C0170934D0180934E0190934F019B01C8
:10191000AC01C701B6010E942D202B013C01609350
:1019200048017093490180934A0190934B0120EC48
:1019300031EE44E65CE40E94B72120E030E44CE163
:1019400056E40E942D200E9416206B017C016093BA
:1019500054017093550180935601909357019B0158
:10196000AC010E94E31E9B01AC01C301B2010E94C5
:101970002D202B013C0160935C0170935D018093ED
:101980005E0190935F01C701B6010E9495206093AC
:1019900058017093590180935A0190935B0120EC98
:1019A00031EE44E65CE4C301B2010E94B7216093CA
:1019B000600170936101809362019093630120E064
:1019C00030E44CE155E40E94292087FDD7C0A501F1
:1019D000940169817A818B819C810E94540282E00A
:1019E0008093090180910901823009F061C0209142
:1019F0006C0130916D0140916E0150916F016091C9
:101A000068017091690180916A0190916B010E9457
:101A1000E31E609368017093690180936A0190935B
:101A20006B0180E00E94A902843039F56091540175
:101A30007091550180915601909157010E94952017
:101A4000609358017093590180935A0190935B0100
:101A500083E0809309018091700190917101A091C0
:101A60007201B0917301B05880937001909371012D
:101A7000A0937201B09373017FC0209170013091E7
:101A80007101409172015091730160916C017091EC
:101A90006D0180916E0190916F010E94E31E609331
:101AA0006C0170936D0180936E0190936F0164C01F
:101AB000833009F061C0C0906C01D0906D01E0905E
:101AC0006E01F0906F01A70196016091680170911D
:101AD000690180916A0190916B010E94E31E6093FD
:101AE00068017093690180936A0190936B01209162
:101AF0007001309171014091720150917301C701E1
:101B0000B6010E94E31E60936C0170936D01809397
:101B10006E0190936F0180E00E94A902843061F50C
:101B20008091300190913101A0913201B091330147
:101B3000BC01CD019F772CEA35EC47E257E30E94C8
:101B4000292087FF13C08091340190913501A09125
:101B50003601B0913701BC01CD019F772CEA35ECFD
:101B600047E257E30E94292087FD10C085E080935B
:101B7000080181E08093090182E009C08EE307C07B
:101B80000E94940A04C00E94C10301C080E09091A9
:101B9000E204913019F492E09093E2049091E2040F
:101BA000933049F4811107C094E09093E20492E0ED
:101BB0009093E10402C0823099F0109208011092D3
:101BC0000901D8011296ED91FC911397128619968E
:101BD0009C91923041F48D830E945B128D8103C0F1
:101BE00082E001C083E00F900F900F900F900F9054
:101BF000DF91CF911F910F91FF90EF90DF90CF90E9
:101C0000BF90AF909F908F907F906F905F904F901C
:101C10000895909305018093040180E7E6E0F1E0E8
:101C2000DF011D928A95E9F78CE0E6E7F1E0DF013C
:101C30001D928A95E9F7089594E0899FF001112497
:101C4000EE57FE4F4083518362837383089594E07F
:101C5000899FF0011124EE5EFE4F40835183628321
:101C600073830895109268011092690110926A01BD
:101C700010926B0108954F925F926F927F928F92B4
:101C80009F92AF92BF92CF92DF92EF92FF920F930B
:101C90001F93CF93DF93CDB7DEB727970FB6F89496
:101CA000DEBF0FBECDBF4C0129013A0167017801AB
:101CB0006E837F830E94CB115C016E817F810097D0
:101CC00009F43DC18AE79BE0D50115969C938E935C
:101CD0001497C5014B960E943E16D4012D913D915B
:101CE0004D915C912A833B834C835D83CA01B9018A
:101CF0009F772CEA35EC47E257E30E94B321181690
:101D0000FCF42A813B814C815D81D50199962D930C
:101D10003D934D935C939C9780E090E0A0E8BFE3F7
:101D2000F501838B948BA58BB68BF4018081918117
:101D3000A281B381F50183879487A587B68735C0D3
:101D4000D40114962D913D914D915C9117972A8362
:101D50003B834C835D83CA01B9019F772CEA35EC44
:101D600047E257E30E94B32118160CF0EAC02A811B
:101D70003B814C815D81D50199962D933D934D9387
:101D80005C939C9780E090E0A0E8BFE3F501878B2F
:101D9000908FA18FB28FF40184819581A681B78144
:101DA000F5018787908BA18BB28BF501E35BFF4F29
:101DB000C082D182E282F382209176013091770154
:101DC0004091780150917901C701B6010E94E21E4D
:101DD0009F7720E030E04AE754E40E9429209501F3
:101DE0002B5A3F4F490185010F5A1F4F87FF1BC0D8
:101DF00080917E0190917F01A0918001B09181013D
:101E0000F90180839183A283B38380917A019091B9
:101E10007B01A0917C01B0917D01F80180839183C9
:101E2000A283B38337C0C701B6010E94521F6A83E1
:101E30007B838C839D83D4016D937D938D939C9341
:101E40001397A701960160E070E080E89FE30E948D
:101E50002D20F8016083718382839383C092760181
:101E6000D0927701E0927801F09279012A813B814A
:101E70004C815D8120937E0130937F0140938001EE
:101E80005093810160937A0170937B0180937C0170
:101E900090937D0181E0D5011A968C93F501FD9612
:101EA0004082518262827382F50141AE52AE63AECE
:101EB00074AE21A532A543A554A5850160E070E06C
:101EC000CB010E9434059B01AC016501F5E4CF0E06
:101ED000D11CD6016D937D938D939C931397C30171
:101EE000B2010E94E31E9B01AC011EE4E12E11E64B
:101EF000F12E0CE31BE4C301B2010E94B015F50101
:101F0000EF5BFF4F60837183828393839501275B2F
:101F10003F4FF60180819181A281B381F9018083D5
:101F20009183A283B3831982BE016F5F7F4FC50186
:101F30000E94720981E00E94F11180E003C088E0F4
:101F400001C081E027960FB6F894DEBF0FBECDBF6B
:101F5000DF91CF911F910F91FF90EF90DF90CF9085
:101F6000BF90AF909F908F907F906F905F904F90B9
:101F700008952F923F924F925F926F927F928F922D
:101F80009F92AF92BF92CF92DF92EF92FF920F9308
:101F90001F93CF93DF9300D0CDB7DEB78091E204DB
:101FA000823011F083E083C10E9401125C0100972E
:101FB000C9F381E08983209112013091130140918E
:101FC00014015091150160910A0170910B018091EB
:101FD0000C0190910D010E94E21E0E94A8226B014B
:101FE0007C01209116013091170140911801509108
:101FF000190160910E0170910F0180911001909173
:1020000011010E94E21E0E94A8229B01AC01C7019F
:10201000B6010E94E31E0E946A222B013C018091BE
:102020000801853049F4C0906801D0906901E090C2
:102030006A01F0906B0114C020916C0130916D0128
:1020400040916E0150916F0160916801709169013A
:1020500080916A0190916B010E94E31E6B017C01EB
:10206000850120E030E0A901C701B6010E945805B2
:102070001B014C019201A3010E94B321181694F494
:10208000F50185A996A9A7A9B0ADBC01CD019F779F
:102090002CEA35EC47E257E30E94292087FF02C073
:1020A000120143019201A301B101C4010E94292040
:1020B00018160CF442C01092400110924101109287
:1020C000420110924301C101D401809334019093E5
:1020D0003501A0933601B0933701C0923C01D092F4
:1020E0003D01E0923E01F0923F0186E080930801BD
:1020F000FF24F394F09209019101A401B201C301FC
:102100000E94E21E9B01AC01F50161A772A783A7A3
:1021100094A7850160E070E0CB010E943405F501D1
:10212000EB5BFF4F6083718382839383F50111AE74
:1021300012AE13AE14AEF186ADC086E080930801F6
:10214000F1E0F0930901C201D3018093340190932F
:102150003501A0933601B0933701C0923C01D09273
:102160003D01E0923E01F0923F0185019201A30101
:1021700060E070E0CB010E9434059B01AC01C70117
:10218000B6010E94E21E6B017C01609340017093D6
:102190004101809342019093430181E0F5018187E1
:1021A000E8E0EA83F50162817381C5010E9477123C
:1021B000F5018781813089F5F501C1AED2AEE3AE7C
:1021C000F4AE850120E030E0A901C701B6010E940C
:1021D00058051B014C01F50141A452A463A474A449
:1021E000A30192010E94B3211816F4F4A3019201F5
:1021F00060E070E0CB010E9434059B01AC01C70197
:10220000B6010E94E21E6B017C01F501EF5BFF4FFE
:102210006083718382839383F501A280B380FA8106
:10222000F150FA83F111BECFC101D401F50181A7AC
:1022300092A7A3A7B4A7EF5BFF4F1082118212826F
:102240001382F501E280F380F70111AE12AE13AEF6
:1022500014AE9101A40161A572A583A594A50E9465
:10226000E21E9B01AC01F70161A772A783A794A7A7
:10227000870160E070E0CB010E943405F701EB5B61
:10228000FF4F60837183828393833497608371836C
:10229000828393830E94830A0E943612BE016F5F7D
:1022A0007F4F0E94720983E08093E20480E00F90E8
:1022B0000F90DF91CF911F910F91FF90EF90DF90E2
:1022C000CF90BF90AF909F908F907F906F905F90D6
:1022D0004F903F902F9008958091E204853079F4DB
:1022E0001092E2040E940112892B21F41092E10461
:1022F00083E0089581E08093E1040E948C1280E0E5
:102300000895CF9383ED92E0EAE8F1E0DF019C01CC
:102310001D9221503040E1F78FEE92E190938B01B6
:1023200080938A0190935C0480935B0483E991E03D
:1023300090938E0180938D019093900180938F01F3
:102340009093920180939101FC0181E090E022E062
:1023500034E0C9E5883011F0BC0102C060E070E0F3
:10236000BE2FAF2FC69FA001C79F500D11244D5601
:102370005E4F53834283318320830196E75AFF4F98
:102380008930910519F02B2F3A2FE4CF88E0809304
:102390008C01CF910895E0918D01F0918E0186819D
:1023A00081111BC0228133818081918149E5DF0148
:1023B0001D924A95E9F7338322839183808381E0DC
:1023C000868380918C01815080938C0182819381DE
:1023D00090938E0180938D0102C0E0E0F0E0CF0188
:1023E0000895AFE8B1E0ED91FC911197878381E00A
:1023F000818782E08683828193818D939C930C9464
:102400008C12E0919101F09192018681825082308C
:1024100010F484E086838681843011F0E0E0F0E0FF
:10242000CF0108950E9401120097D1F0DC011796A8
:102430002C91213069F43091E004311102C02093D5
:10244000E0042091E104211103C021E02093E10484
:10245000DC011496ED91FC911597309719F00994D1
:1024600083E0089584E108950C9401120E94011202
:10247000009769F0FC01A281B38119962C911997FC
:10248000222341F0A817B90729F0FD01F4CF80E01D
:1024900090E00895CF010895FC012281338180816D
:1024A000918149E5DF011D924A95E9F73383228343
:1024B00091838083089580919101909192010E946F
:1024C0004C12E0919101F09192010280F381E02D94
:1024D000F0939201E09391018681823011F483E0C0
:1024E000868380918C018F5F80938C010895CF93B8
:1024F000DF93EC012A813B818881998149E5FB01C9
:10250000DE0101900D924A95E1F73B832A8399837E
:102510008883DF91CF91089580916904813019F407
:1025200085B5816085BD0895809181049091820474
:10253000A0918304B0918404892B8A2B8B2B09F002
:10254000A5C080916904882339F0E0916504F09179
:10255000660481E083A3089580916704813009F0C7
:102560008EC040916F04509170046091710470911D
:1025700072044093810450938204609383047093A7
:1025800084048091730490917404A0917504B091B7
:1025900076048093850490938604A0938704B09377
:1025A00088048091770490917804A0917904B09187
:1025B0007A048093890490938A04A0938B04B09347
:1025C0008C0420916A04213079F4709560955095BF
:1025D00041955F4F6F4F7F4F40938D0450938E0412
:1025E00060938F0470939004892B8A2B8B2B39F086
:1025F00080917B04811102C0599801C0599A809141
:102600007C0490917D04A0917E04B0917F0480931E
:10261000920490939304A0939404B0939504209112
:102620006A042130B9F44091810450918204609190
:1026300083047091840470956095509541955F4F27
:102640006F4F7F4F40939604509397046093980484
:1026500070939904892B8A2B8B2B39F080918004FD
:10266000811102C05F9801C05F9AB19A10928500F3
:10267000109284008091810081608093810081E0CC
:1026800080936904109268040C948C1208951F9230
:102690000F920FB60F9211242F933F934F935F9396
:1026A0006F937F938F939F93AF93BF93EF93FF931A
:1026B00080918D0490918E04A0918F04B09190042C
:1026C0004091890450918A0460918B0470918C042C
:1026D000840F951FA61FB71F80938D0490938E04BF
:1026E000A0938F04B0939004181619061A061B06BF
:1026F0004CF52A9A40918504509186046091870494
:1027000070918804841B950BA60BB70B80938D04E6
:1027100090938E04A0938F04B09390042A98809194
:102720005D0490915E04A0915F04B09160040196F5
:10273000A11DB11D80935D0490935E04A0935F047E
:10274000B09360048091960490919704A0919804AE
:10275000B091990440919204509193046091940433
:1027600070919504840F951FA61FB71F8093960440
:1027700090939704A0939804B0939904181619069F
:102780001A061B064CF55E9A40918504509186040A
:102790006091870470918804841B950BA60BB70B7E
:1027A0008093960490939704A0939804B09399040F
:1027B0005E988091610490916204A0916304B0914D
:1027C00064040196A11DB11D80936104909362047D
:1027D000A0936304B0936404809181049091820477
:1027E000A0918304B09184040197A109B109809359
:1027F000810490938204A0938304B0938404892B72
:102800008A2B8B2B39F4809181008E7F80938100FD
:102810000E949412FF91EF91BF91AF919F918F9180
:102820007F916F915F914F913F912F910F900FBECC
:102830000F901F9018951F920F920FB60F921124B0
:102840002F933F934F935F936F937F938F939F93B8
:10285000AF93BF93EF93FF93E1EBF0E080818E7F26
:1028600080830E949412FF91EF91BF91AF919F914D
:102870008F917F916F915F914F913F912F910F9029
:102880000FBE0F901F9018951F920F920FB60F92C8
:1028900011242F933F934F935F936F937F938F9365
:1028A0009F93AF93BF93EF93FF9385B58E7F85BDC5
:1028B000809169048130B9F40E941212833099F03A
:1028C000109269048091810490918204A091830404
:1028D000B0918404892B8A2B8B2B29F48091B10031
:1028E00081608093B100FF91EF91BF91AF919F9173
:1028F0008F917F916F915F914F913F912F910F90A9
:102900000FBE0F901F9018959093660480936504F6
:102910008AE1E1E8F4E0DF01982F1D929A95E9F74A
:10292000E7E6F4E0DF011D928A95E9F781E0809304
:1029300069040895AF92BF92CF92DF92EF92FF9217
:102940000F931F93CF938C015B0169017A01C091B2
:102950006904C13009F097C0842F880F852F881F24
:102960008F3F09F492C02CEA35EC47E257E3C701E8
:10297000B6010E94292087FD8AC010926A04F501E1
:10298000808180937B0420E030E543EC57E4F8013C
:1029900060817181828193810E94B7219F770E941B
:1029A00095206093770470937804809379049093D2
:1029B0007A04F50181818093800420E030E543ECC6
:1029C00057E4F80164817581868197810E94B7215F
:1029D0009F770E94952060937C0470937D04809380
:1029E0007E0490937F0420E034E244E759E4C70179
:1029F000B6010E942D2020E030E44CE157E40E9413
:102A0000B7210E9495206B017C0160936F04709345
:102A1000700480937104909372040E94C12020E09E
:102A200030E543EC57E40E94B7210E949520609363
:102A30007304709374048093750490937604B701C3
:102A4000A601440F551F661F771F80916B0490915C
:102A50006C04A0916D04B0916E04481759076A0781
:102A60007B0710F4C0936A04C0926B04D0926C048C
:102A7000E0926D04F0926E0481E08093670480938D
:102A8000680480E005C084E103C08CE301C08DE3ED
:102A9000CF911F910F91FF90EF90DF90CF90BF905B
:102AA000AF9008951092670481E0809368040895C0
:102AB0001F920F920FB60F9211242F938F939F9313
:102AC000EF93FF938091C0009091C6008871E091D0
:102AD0009D04EF5FEF7120919C04E21739F0E093C1
:102AE0009D04F0E0E056FB4F908301C082E090919E
:102AF0009B04982B90939B04FF91EF919F918F9152
:102B00002F910F900FBE0F901F9018951F920F924C
:102B10000FB60F9211248F939F93EF93FF93909191
:102B20009F0480919E04981769F0E0919E04EF5FE6
:102B3000EF71E0939E04F0E0E054FB4F80818093BE
:102B4000C60005C08091C1008F7D8093C100FF91B8
:102B5000EF919F918F910F900FBE0F901F9018953E
:102B60008F929F92AF92BF92CF92DF92EF92FF929D
:102B70000F931F93CF93DF936B01D82FC92F490178
:102B80005A019B01482F592FB401C5010E942920E9
:102B900087FF03C06401DA2DCB2D96014D2F5C2FEA
:102BA000B701C8010E94292087FF03C06701D02F09
:102BB000C12FB6018D2F9C2FDF91CF911F910F91C7
:102BC000FF90EF90DF90CF90BF90AF909F908F904D
:102BD00008954F925F926F927F928F929F92AF92E1
:102BE000BF92CF92DF92EF92FF920F931F93CF93FA
:102BF000DF934B01D82FC92F29013A019B01482FA0
:102C0000592FB201C3010E94292087FF03C042014E
:102C1000D62DC72D94014D2F5C2FB701C8010E94FE
:102C2000292087FF03C04701D02FC12F94014D2FCA
:102C30005C2FB501C6010E94292087FF03C0450112
:102C4000DC2DCD2DB4018D2F9C2FDF91CF911F91C5
:102C50000F91FF90EF90DF90CF90BF90AF909F903B
:102C60008F907F906F905F904F90089528E0FB01C8
:102C7000DC0101900D922A95E1F70895FB01208176
:102C80003181FC01318320830895FC01108211827F
:102C90001282138214821582168217821086118680
:102CA000128613861486158616861786108A08954E
:102CB0000895CF93DF93EC01141615061606170638
:102CC00084F4CB01BA010E94C32020E030E04AE73F
:102CD00054E40E942D20688379838A839B8380E05B
:102CE00001C086E0DF91CF910895CF93DF93EC018F
:102CF000141615061606170654F4CB01BA010E94E5
:102D0000C3206C837D838E839F8380E001C085E038
:102D1000DF91CF910895CF93DF93EC011416150640
:102D20001606170684F4CB01BA010E94C32020E0E6
:102D300034E244E759E40E94B721688779878A879B
:102D40009B8780E001C082E0DF91CF910895CF930F
:102D5000DF93EC01141615061606170654F4CB0182
:102D6000BA010E94C3206C877D878E879F8780E091
:102D700001C083E0DF91CF9108952FEF260F263019
:102D800050F4622F21E001C0220F6A95EAF7FC019E
:102D9000208B80E0089584E00895CF92DF92EF9237
:102DA000FF92CF93DF93EC01288988E691E0289F7A
:102DB000B001299F700D1124882777FD8095982FE9
:102DC0000E94C3206B017C012C813D814E815F817B
:102DD000688179818A819B810E94B7219B01AC0126
:102DE000C701B6010E942D20DF91CF91FF90EF9097
:102DF000DF90CF900895FC01608571858285938571
:102E00000895FC0164857585868597850895CF931F
:102E1000DF93EC0120E030E0A901688579858A859F
:102E20009B850E942920882331F120E030E0A90110
:102E30006C857D858E859F850E9429208823E9F0F9
:102E400088898823E1F020E030E0A9016C817D8150
:102E50008E819F810E942920882399F020E030E014
:102E6000A901688179818A819B810E942920811131
:102E70000AC086E009C082E007C083E005C084E0A4
:102E800003C085E001C080E0DF91CF910895FC018F
:102E9000108211821282138214821582089508957D
:102EA000FC0160830895FC0180810895FC01618329
:102EB0000895FC0181810895FB012181428150E048
:102EC00060E070E0BA0155274427522B2081422B45
:102ED0002381722BFC01428353836483758308959D
:102EE000FC0162817381848195810895FC01E05821
:102EF000FF4F108231961082319626E02083319662
:102F0000108208950895FC01EF57FF4F2081DC01E6
:102F1000A20FB11D8C91208130E02F5F3F4F2F77A2
:102F2000332720830895CF92DF92EF92FF920F9381
:102F30001F93CF93DF9300D000D0CDB7DEB78C01C5
:102F40007B016C0183E8C80ED11CF60180818823C7
:102F500041F1C8010E948317682FC7010E945017D2
:102F6000C8010E948317682FC7010E945617C80125
:102F70000E9483178983C8010E9483178A83C8012E
:102F80000E9483178B83C8010E9483178C83BE0124
:102F90006F5F7F4FC7010E945C17F60180818150EF
:102FA00080830F900F900F900F90DF91CF911F9122
:102FB0000F91FF90EF90DF90CF9008959FEF980FC3
:102FC0009530B8F4823089F0843089F0E82FF0E051
:102FD000EE0FFF1FEC54FD4F85919491662349F04D
:102FE000FC012491621738F004C08AE0089589E05A
:102FF000089580E00895FC01E60FF11D8491089585
:10300000FC0110821182089508950F931F93CF93AE
:10301000DF9300D000D01F92CDB7DEB709831A83AB
:103020002B833C834D83FC01408150E09A012F5F4C
:103030003F4F2F70332771817217C1F0E40FF51FD6
:10304000EE5AFF4F608335E0349FD001359FB00DBD
:103050001124A80FB91F1296FE01319601900D920E
:103060003A95E1F7FC01208380E001C08AE00F90EF
:103070000F900F900F900F90DF91CF911F910F91B4
:103080000895CF93DF93EC01998188818917D9F056
:1030900085E0FE01899FE00DF11D11243296DA01D1
:1030A00001900D928A95E1F78981FE01E80FF11DEB
:1030B000EE5AFF4F8081FB018083898190E0019669
:1030C0008F7099278983DF91CF910895FC01108239
:1030D00011820895FC0181E020819181291380E013
:1030E0000895CF93DF93EC01509A589A54985298D0
:1030F0005C9A5A9AE8E6F0E0808184608083EDE68D
:10310000F0E080818F7E808380818B7F8083CE0101
:103110000E940D1ACE010E94090E0E948111109288
:10312000E0041092E1041092E204DF91CF9108953F
:1031300058982FE788E391E0215080409040E1F7D4
:1031400000C00000589A0895FF920F931F93CF93E9
:10315000DF9300D000D000D0CDB7DEB7F82ECA0183
:10316000762F432F582F692F233011F148F4213047
:10317000C9F0223009F03FC0C8010E94751615C081
:10318000243059F12530B9F5C80126960FB6F894C8
:10319000DEBF0FBECDBFDF91CF911F910F91FF908A
:1031A0000C94A716C8010E945916811125C00BC0A6
:1031B000632FC8013E830E94BD164E8181111CC041
:1031C000842F0E94EA19C8010E94CD16AB01BC01F0
:1031D0008F2D0E941C0E80E00FC0C80126960FB6EE
:1031E000F894DEBF0FBECDBFDF91CF911F910F913D
:1031F000FF900C948B1687E026960FB6F894DEBFEE
:103200000FBECDBFDF91CF911F910F91FF90089519
:1032100082E08093E10481E08093E204089585E0F8
:103220008093E2040C946C118F929F92AF92BF92A4
:10323000CF92DF92EF92FF920F931F93CF93DF9382
:10324000CDB7DEB72A970FB6F894DEBF0FBECDBF5D
:10325000082F6A017B014901C9010E9407178111EA
:103260006FC010925D0410925E0410925F04109281
:103270006004109261041092620410926304109230
:10328000640440E050E0BA010E94270E40E050E0A4
:10329000BA0181E00E94270E8091E004811103C0F1
:1032A00081E08093E004CE0101965C0188E0F501A5
:1032B00011928A95E9F710E0C701B6010E94C32078
:1032C0006B017C01000F111F000F111F0A0D1B1D48
:1032D000F801C082D182E282F38220E030E0A901CD
:1032E00069817A818B819C810E942920881F88278F
:1032F000881F898720E030E0A9016D817E818F8160
:1033000098850E942920881F8827881F8A87E8942B
:10331000F7F8F801C082D182E282F382C4010E94F0
:10332000FB166B017C01C4010E9401179B01AC01DB
:1033300087017601BE01675F7F4FC5010E943B0E8A
:103340002A960FB6F894DEBF0FBECDBFDF91CF91A6
:103350001F910F91FF90EF90DF90CF90BF90AF90B3
:103360009F908F9008954C9B0DC020916D0020611F
:1033700020936D009A012F5F3F4FAB01BC0180E0AD
:103380000C94141981E0FA0182A780E008954A9B09
:103390000DC020916D00246020936D009A012E5E77
:1033A0003F4FAB01BC0181E00C94141981E0FA019C
:1033B00082A780E008950E9481118091E00481300D
:1033C00041F41092E1041092E0041092E2040C9493
:1033D000320E0895833089F028F4813049F082302C
:1033E00049F00895853079F050F0863071F00895F5
:1033F0002C9801C02C9A2B9804C02C9801C02C9AB0
:103400002B9A2D9808952C9801C02C9A2B982D9AC0
:10341000089541980895419A08950E948414109245
:10342000800088E08093810022E020936F0088EC88
:1034300090E090938900809388002093B0001092D0
:10344000B1002093700083E68093B30024BD15BCC7
:1034500020936E0087BD389A399A3A9A249A239A13
:10346000259A229A519A569A579A409A4298429A85
:103470000C940B1A84EE94E00E9482178AE795E080
:103480000E94581689E695E00C9458160F93CF9336
:10349000DF9300D000D01F92CDB7DEB78091E30458
:1034A000882361F01092E3040CE029813A814B817A
:1034B0005C816D8188E695E00E94921C0F900F90D0
:1034C0000F900F900F90DF91CF910F9108950F9370
:1034D000CF93DF93CDB7DEB72C970FB6F894DEBF4E
:1034E0000FBECDBF809167058823E1F1CE01019623
:1034F0000E944717BE016F5F7F4F84EE94E00E94E9
:103500009317CE0101960E945917682FCE0101969C
:103510006C870E9453176C850E94DE17082F81115B
:1035200007C081E0809390058BE08093930516C0DF
:10353000CE0101960E9459178F83CE0101960E94F9
:103540007017362F688779878A879B872F81472F47
:10355000582F692F88E695E00E94921CCE010196B3
:103560000E944F172C960FB6F894DEBF0FBECDBF4A
:10357000DF91CF910F9108950F93CF93DF9300D0F8
:1035800000D01F92CDB7DEB780918B05882361F004
:1035900010928B050DE029813A814B815C816D8110
:1035A00088E695E00E94921C0F900F900F900F906C
:1035B0000F90DF91CF910F9108950F93CF93C0910A
:1035C0008D05CC2391F010928D05009199052091E5
:1035D000940530919505409196055091970560911D
:1035E000980588E695E00E94921C8C2FCF910F9150
:1035F00008950F93CF93DF9300D000D01F92CDB7E3
:10360000DEB780918F05882361F010928F050FE05F
:1036100029813A814B815C816D8188E695E00E9429
:10362000921C0F900F900F900F900F90DF91CF9101
:103630000F9108950F93CF93DF9300D000D01F9286
:10364000CDB7DEB780919005882361F01092900588
:1036500001E129813A814B815C816D8188E695E0A9
:103660000E94921C0F900F900F900F900F90DF917F
:10367000CF910F910895EF92FF920F931F93CF93E5
:10368000DF93CDB7DEB7C458D1090FB6F894DEBFCB
:103690000FBECDBF809191058823D1F1E0906805E0
:1036A00082E3F82E8E010F5F1F4FF8018F2D1192CC
:1036B0008A95E9F7CE0102960E944516CE014396FF
:1036C0000E9445161CA6F801A8E6B5E001900D92EF
:1036D000FA94E1F7CE0143960E945816CE01029665
:1036E0000E945816E092680588E695E00E947118DD
:1036F000C8010E94761784E8F801A4EEB4E00190B6
:103700000D928A95E1F7C8010E9482170E94691CF8
:10371000CC57DF4F0FB6F894DEBF0FBECDBFDF91A1
:10372000CF911F910F91FF90EF9008950F93CF933A
:10373000DF9300D000D01F92CDB7DEB79091670520
:103740008091000198130DC089E08093930501E1F9
:1037500029813A814B815C816D8188E695E00E94E8
:10376000921C0F900F900F900F900F90DF91CF91C0
:103770000F9108950F93CF93DF9300D000D01F9245
:10378000CDB7DEB780918C05882361F010928C054F
:1037900002E129813A814B815C816D8188E695E067
:1037A0000E94921C0F900F900F900F900F90DF913E
:1037B000CF910F9108950F93CF93DF9300D000D056
:1037C0001F92CDB7DEB780919205882361F01092E9
:1037D000920503E129813A814B815C816D8188E604
:1037E00095E00E94921C0F900F900F900F900F90F9
:1037F000DF91CF910F910895F89488E695E00E94AB
:10380000950188E695E00E94711878946AE088E650
:1038100095E00E948F1C0E943B1B0E941A1B0E9475
:10382000961B0E94461A0E94B90F0E94BC1A0E9461
:10383000F91A0E94DB1B0E94BA1B0E94DD1A81113B
:10384000EACF0E94671AE7CF1F920F920FB60F922E
:1038500011248F93EF93FF9381E08093E304EDE6CF
:10386000F0E080818F7E808380818B7F8083FF91D9
:10387000EF918F910F900FBE0F901F90189589E6D2
:1038800095E00E9445168AE795E00E944516109241
:10389000930584EE94E00C9476170C943A1ACF9327
:1038A000DF93EC018AE995E00E946A1881110EC04D
:1038B00081E08DA3AE01445D5F4FBE016F5C7F4F21
:1038C0008AE995E0DF91CF910C944118DF91CF9177
:1038D0000895CF93DF93CDB7DEB7C256D1090FB6A7
:1038E000F894DEBF0FBECDBFCE0101960E94001836
:1038F00082E6FE013196AAE9B5E001900D928A9523
:10390000E1F7CE0101960E940418CE59DF4F0FB6A1
:10391000F894DEBF0FBECDBFDF91CF910895FC01BB
:10392000608308958F929F92AF92BF92EF92FF9221
:103930000F931F93CF93DF9300D000D01F92CDB78A
:10394000DEB77C0129833A834B835C836D83502FE0
:103950006A817B818C819D81F7018080912CF401AB
:103960003297EF30F10508F0E7C1EB5CFF4F0C94A4
:10397000C81E802F90E0FC013297E031F10508F07D
:10398000DBC1EC5BFF4F0C94C81E85E012C1802F99
:1039900090E0FC013297E131F10508F0CDC1EC5A1D
:1039A000FF4F0C94C81E86E062C0802F90E0FC019F
:1039B0003297E031F10508F0BFC1EB59FF4F0C948D
:1039C000C81E89E0F701808309811A812B813C811F
:1039D0004D816BE08AE995E00E940518882309F47F
:1039E00085C1F70183A781E080A780C1802F90E087
:1039F000FC013297E031F10508F09EC1EB58FF4F12
:103A00000C94C81E8CE006C18FE0F70180830E94F1
:103A1000DB198AE995E00F900F900F900F900F90AF
:103A2000DF91CF911F910F91FF90EF90BF90AF90DA
:103A30009F908F900C946618802F90E0FC01329735
:103A4000E031F10508F078C1EB57FF4F0C94C81E28
:103A500088E0AFC0802F90E0FC013297E231F105A1
:103A600008F06AC1EB56FF4F0C94C81E80E1F701C5
:103A700080830F900F900F900F900F90DF91CF9158
:103A80001F910F91FF90EF90BF90AF909F908F90FC
:103A90000C9408198BE0EBCF802F90E0FC0132975B
:103AA000E031F10508F048C1E955FF4F0C94C81EFC
:103AB00083E0B0C010E0F8013297E031F10508F082
:103AC0003BC1E954FF4F0C94C81E27E0F701208347
:103AD000A7010E94B319FEC08FE0F7018083C3C025
:103AE0002CE0F7012083A7010E94C719F3C00981C8
:103AF0001A812B813C814D8167E0E8C023E0F7010A
:103B0000208397012E5E3F4FAB01BC0181E007C0CF
:103B100043E0F70141939F01AB01BC0180E00E94AB
:103B20001419D8C0093041F1D0F4023009F4C2C0F0
:103B3000083009F001C18FE0F70180830F900F90EA
:103B40000F900F900F90DF91CF911F910F91FF90E9
:103B5000EF90BF90AF909F908F900C94091A0A300D
:103B600009F06DC087010E5E1F4F29813A814B819C
:103B70005C816D8181E009C087010F5F1F4F298142
:103B80003A814B815C816D8180E00E94A418A2C0C3
:103B9000802F90E0FC013297E031F10508F0CCC0B5
:103BA000E953FF4F0C94C81E81E0F70186A3C4C0FF
:103BB0008DE0F701808386A1882309F4BDC016A299
:103BC00081E087A3B9C080E1F701808322CF802FF5
:103BD00090E0FC013297E231F10508F0ADC0E95206
:103BE000FF4F0C94C81E80E1F7018083A5C089E0D7
:103BF000F70180837BC082E03ACF802F90E0FC0108
:103C00003297E031F10508F097C0E751FF4F0C946F
:103C1000C81E87E0F70180830F900F900F900F90E0
:103C20000F90DF91CF911F910F91FF90EF90BF9078
:103C3000AF909F908F900C940F190230D9F15131B1
:103C400009F466C079C0802F90E0FC013297E03122
:103C5000F10508F071C0E750FF4F0C94C81E84E0D6
:103C6000F70180832DC00E94981840C08AE051C09F
:103C700087010F5F1F4F29813A814B815C816D81E4
:103C800080E009C087010E5E1F4F29813A814B8178
:103C90005C816D8181E00E94A418A0CE802F90E00D
:103CA000FC013297E031F10508F046C0E75FFE4FB6
:103CB0000C94C81E8AE0F701808381E081A73CC094
:103CC00009811A812B813C814D81652F8AE995E01C
:103CD0000E940518882381F1F70183A781E080A75E
:103CE0002BC089E0F70180830E94DB19C7010F9088
:103CF0000F900F900F900F90DF91CF911F910F9128
:103D0000FF90EF90BF90AF909F908F900C944F1CBE
:103D10008EE0F70180830F900F900F900F900F901F
:103D2000DF91CF911F910F91FF90EF90BF90AF90D7
:103D30009F908F900C940B1A0F900F900F900F90F4
:103D40000F90DF91CF911F910F91FF90EF90BF9057
:103D5000AF909F908F9008958AE995E00C94001899
:103D60008AE995E00C94041897FB072E16F400944A
:103D700007D077FD09D00E94CE1E07FC05D03EF487
:103D8000909581959F4F0895709561957F4F089507
:103D9000EE0FFF1F0590F491E02D0994AA1BBB1BA9
:103DA00051E107C0AA1FBB1FA617B70710F0A61B3B
:103DB000B70B881F991F5A95A9F780959095BC015C
:103DC000CD0108955058BB27AA270ED07BC26CD2D4
:103DD00030F071D220F031F49F3F11F41EF461C233
:103DE0000EF4E095E7FB2EC2E92F7DD280F3BA17DF
:103DF000620773078407950718F071F49EF5ACC24B
:103E00000EF4E0950B2EBA2FA02D0B01B9019001F5
:103E10000C01CA01A0011124FF27591B99F0593F39
:103E200050F4503E68F11A16F040A22F232F342F81
:103E30004427585FF3CF469537952795A795F040CF
:103E40005395C9F77EF41F16BA0B620B730B840BE4
:103E5000BAF09150A1F0FF0FBB1F661F771F881F9C
:103E6000C2F70EC0BA0F621F731F841F48F48795F4
:103E700077956795B795F7959E3F08F0B3CF9395E3
:103E8000880F08F09927EE0F979587950895492F89
:103E9000E5E593959E9F912DE3E0E99F4019EE277C
:103EA0000895F1C128D2E8F39923D9F3DF93CF9392
:103EB0001F930F93FF92EF92DF92CF92BF92AF9238
:103EC0009F928F929F5780F4919588232AF0939523
:103ED000660F771F881FDAF7DADF4A951AF009F4C0
:103EE0004E5F9395919501C0D2DF91589F93FF2724
:103EF000FF248F019F014F01DF01EF01660F771F44
:103F0000881FAA1F4A95D2F798E0000F111F000FD3
:103F1000111FEE0FA801AA244E0F511DA11C6A010A
:103F2000EA2C440F551FAA1C4C0D5D1DAE1C4160B0
:103F3000A41BB50BCA0920F4A40FB51FCA1D07C0E6
:103F4000AF01440F551F040F151F0160E16043E0EE
:103F5000660F771F881FAA1FBB1FCC1F4A95C1F78A
:103F60009A9599F690E1000F111F221F331F881CAC
:103F7000991C1094C1F7EE0FFF1FFF1C0024A00135
:103F800050016001EE24400F511FA21EB31EC81C39
:103F9000D91CE11C4E0F5F1FAF1CB11CC11CD11CF2
:103FA000E11C009441F0440F551FAA1CBB1CCC1C03
:103FB000DD1CEE1CE8CFA41BB50BCA09DB096C099C
:103FC0007D098E0940F4A40FB51FCA1DDB1D6C1DB1
:103FD0007D1D8E1D0AC00E0F1F1F2F1D311D811C40
:103FE000911C0094C1F70160E16043E0AA0FBB1F80
:103FF000CC1FDD1F661F771F881F4A95B9F79A955A
:1040000009F0B1CFBF018F2D9F91880F96958795AD
:1040100097F98F909F90AF90BF90CF90DF90EF90E7
:10402000FF900F911F91CF91DF9108957ED180F085
:104030009F3740F491110EF490C160E070E080E889
:104040009FE3089526F01B16611D711D811D00C19F
:104050001AC1D4D008F481E008950CD033C12BD11B
:1040600040F022D130F021F45F3F19F0EBC0511144
:1040700074C117C138D198F39923C9F35523B1F30B
:10408000951B550BBB27AA2762177307840738F0C7
:104090009F5F5F4F220F331F441FAA1FA9F333D026
:1040A0000E2E3AF0E0E830D091505040E695001CDA
:1040B000CAF729D0FE2F27D0660F771F881FBB1F96
:1040C000261737074807AB07B0E809F0BB0B802D70
:1040D000BF01FF2793585F4F2AF09E3F510568F0BC
:1040E000B1C03BC15F3FECF3983EDCF3869577951A
:1040F0006795B795F7959F5FC9F7880F911D9695BE
:10410000879597F90895E1E0660F771F881FBB1F19
:10411000621773078407BA0720F0621B730B840BC6
:10412000BA0BEE1F88F7E0950895E5D088F09F5709
:1041300090F0B92F9927B751A0F0D1F0660F771FF3
:10414000881F991F1AF0BA95C9F712C0B13081F0D3
:1041500003D1B1E0089500C1672F782F8827B85F99
:1041600039F0B93FCCF3869577956795B395D9F734
:104170003EF490958095709561957F4F8F4F9F4F3E
:104180000895E89409C097FB3EF49095809570954A
:1041900061957F4F8F4F9F4F9923A9F0F92F96E993
:1041A000BB279395F695879577956795B795F11108
:1041B000F8CFFAF4BB0F11F460FF1BC06F5F7F4FA5
:1041C0008F4F9F4F16C0882311F096E911C07723B7
:1041D00021F09EE8872F762F05C0662371F096E8C0
:1041E000862F70E060E02AF09A95660F771F881F8F
:1041F000DAF7880F9695879597F90895990F000833
:10420000550FAA0BE0E8FEEF16161706E807F907A8
:10421000C0F012161306E407F50798F0621B730B43
:10422000840B950B39F40A2661F0232B242B252BC4
:1042300021F408950A2609F4A140A6958FEF811D67
:10424000811D089597F99F6780E870E060E0089508
:10425000882371F4772321F09850872B762F07C09D
:10426000662311F499270DC09051862B70E060E011
:104270002AF09A95660F771F881FDAF7880F9695B0
:10428000879597F908959F3F31F0915020F48795D5
:1042900077956795B795880F911D9695879597F9AE
:1042A00008959FEF80EC089500240A9416161706CF
:1042B00018060906089500240A9412161306140617
:1042C00005060895092E0394000C11F4882352F07A
:1042D000BB0F40F4BF2B11F460FF04C06F5F7F4F32
:1042E0008F4F9F4F089557FD9058440F551F59F019
:1042F0005F3F71F04795880F97FB991F61F09F3FD3
:1043000079F087950895121613061406551FF2CFFB
:104310004695F1DF08C0161617061806991FF1CF4B
:1043200086957105610508940895E5DFA0F0BEE764
:10433000B91788F4BB279F3860F41616B11D672F94
:10434000782F8827985FF7CF869577956795B11D69
:1043500093959639C8F30895E894BB276627772785
:10436000CB0197F908954ADF08F48FEF08950BD039
:10437000A9CF9ADF28F09FDF18F0952309F062CFCC
:1043800090CF1124EACFAFDFA0F3959FD1F3950F23
:1043900050E0551F629FF001729FBB27F00DB11DC9
:1043A000639FAA27F00DB11DAA1F649F6627B00D59
:1043B000A11D661F829F2227B00DA11D621F739F42
:1043C000B00DA11D621F839FA00D611D221F749F50
:1043D0003327A00D611D231F849F600D211D822F97
:1043E000762F6A2F11249F5750408AF0E1F08823DE
:1043F0004AF0EE0FFF1FBB1F661F771F881F9150EB
:104400005040A9F79E3F510570F01CCFA6CF5F3FEB
:10441000ECF3983EDCF3869577956795B795F7951D
:10442000E7959F5FC1F7FE2B880F911D96958795A5
:1044300097F90895FA01EE0FFF1F30962105310517
:1044400099F16115710561F48038BFE39B0749F16B
:1044500068949038810561F08038BFEF9B0741F088
:10446000992342F5FF3FE1053105210511F1E8945B
:104470000894E795D901AA2329F4AB2FBE2FF85F42
:10448000D0F310C0FF5F70F4A695E0F7F73950F055
:1044900019F0FF3A38F49F779F930CD00F9007FCE8
:1044A000905808953EF0FDCE60E070E080E89FE314
:1044B00008954FE79F775F934F933F932F93EAD0F1
:1044C0002F913F914F915F9152DF4AC011F40EF44A
:1044D000E8CED9CE10DFD0F39923D9F3CEF39F578E
:1044E000550B87FF69D00024A0E640EA9001805870
:1044F0005695979528F4805C660F771F881F20F0EB
:1045000026173707480730F4621B730B840B2029EA
:1045100031294A2BA69517940794202531254A273F
:1045200058F7660F771F881F20F0261737074807B0
:1045300030F4620B730B840B200D311D411DA095CF
:1045400081F7B901842F9158880F96958795089522
:104550009B01AC010CCF19F40EF074CEFDCEA1CEB0
:10456000CADEC8F39638C0F707F80F92E8942BE339
:104570003AEA48EB5FE709DF0F920F920F924DB7CF
:104580005EB70F92C7D0E2E3F2E01DD04F915F918A
:10459000EF91FF91E595EE1FFF1F49F0FE57E06890
:1045A0004427EE0F441FFA95E1F74195550B39D09A
:1045B0000F9007FE2DC0089591505040660F771F51
:1045C000881FD2F70895DF93CF931F930F93FF9225
:1045D000EF92DF927B018C01689405C0DA2EEF0127
:1045E000D2DEFE01E894A591259135914591559132
:1045F000AEF3EF01F9DBFE019701A801DA9479F738
:10460000DF90EF90FF900F911F91CF91DF91089570
:104610009B01AC0160E070E080E89FE31ECD12CE0C
:1046200032CE69DEE8F39923D9F3940F511DBBF321
:104630009150504094F059F0882332F0660F771F64
:10464000881F91505040C1F79E3F510544F7880F95
:10465000911D9695879597F908955F3FACF0983E28
:104660009CF0BB27869577956795B79508F4B16060
:104670009395C1F7BB0F58F711F460FFE8CF6F5F58
:104680007F4F8F4F9F4FE3CF68CE0EF0FCCD09CE0A
:104690006894D8CD30DEC8F39923D1F3C6F3DF9305
:1046A000CF931F930F93FF92C92FDD2788232AF002
:1046B0002197660F771F881FDAF720E030E040E887
:1046C0005FEB9FE3883920F0803E30F021968F77B2
:1046D0007ADBEAE5F2E003C076DBE7E8F2E073DFDD
:1046E0008B01BE01EC01FB2E6F5771097595771F89
:1046F000880B990B48DD28E132E741E35FE343DEB5
:10470000AF2D9801AE01FF900F911F91CF91DF91D6
:104710006BDBD8CDFA01DC01AA0FBB1F9B01AC01FA
:10472000BF5728F422273327442750781FC0B7519A
:1047300088F4AB2F0024469537952795011CA39547
:10474000D2F3002069F0220F331F441FB395DAF330
:104750000DD038CB61307105A0E88A07B94630F436
:104760009B01AC016627772788279078309621F047
:104770002083318342835383089512E0C2EDD2E057
:1047800004C0FE010E94CA1E2296C63DD107C9F789
:06479000F894FFCF1500B4
:00000001FF
