:100000000C94E2010C940A020C940A020C940A0269
:100010000C940A020C943B1B0C940A020C94880961
:100020000C940A020C940A020C940A020C948F0895
:100030000C940A020C940A020C943D090C940A02D6
:100040000C940A020C940A020C940C020C943A02CE
:100050000C940A020C940A020C940A020C940A02F0
:100060000C94FF040C940A02724AD01B0C1C151C41
:10007000391C651C8F1CC71CF11C151D391D651D05
:10008000911D0B1E411E7D1EAF1ED51EFF1E4D1F56
:10009000791FA71FCB1FE01BE61BE61BE61BE61B19
:1000A000E61B3220E61BE61BE61B611C3220F81B18
:1000B000322032201920DC1BD71F211C271C271CB3
:1000C000271C271C271C3220271C271C271C3220FA
:1000D00032203220D31E5F1D1920491C4F1C4F1C9B
:1000E0004F1C4F1C4F1C32204F1C4F1C4F1C611CBF
:1000F0003220631C322032201920451CD71F711C6E
:10010000771C771C771C771C771C3220771C771C98
:10011000771C3220891C8B1C3220322019209B1C1A
:10012000A11CA11CA11CA11CA11C3220A11CA11C52
:10013000A11C3220B31C3220322032201920D71CBF
:10014000DD1CDD1CDD1CDD1CDD1C3220DD1CDD1C8E
:10015000DD1C32203220EF1C322032201920D31C2B
:10016000FD1C031D031D031D031D031D3220031D64
:10017000031D031D322032203220B31C5F1D1920C5
:10018000211D271D271D271D271D271D3220271D47
:10019000271D271D3220451D3220322032201920F4
:1001A000471D4D1D4D1D4D1D4D1D4D1D32204D1D1D
:1001B0004D1D4D1D322032203220451D5F1D19205E
:1001C000751D7B1D7B1D7B1D7B1D7B1D32207B1DBB
:1001D0007B1D7B1D32208D1D3220711DA51F192016
:1001E0009C1DA21DB41DFA1DD41DC21D3220E71D89
:1001F000371EB01D3220322032203220322019200A
:10020000171E1D1E1D1E1D1E1D1E351E3220E71D24
:10021000371E321E32203220322032203220192066
:10022000511E571E571E571E571E571E3220571E4F
:10023000571E571E3220691E32204D1EA51F192041
:10024000891E8F1E8F1E8F1E8F1E8F1E32208F1EA7
:100250008F1EA11E3220322032203220322019205F
:10026000BB1EC11EC11EC11EC11EC11E3220C11E29
:10027000C11EC11E3220D31E32203220322019204E
:10028000E11EE71EE71EE71EE71EE71E3220E71EFF
:10029000E71EE71E3220F91E3220322032201920BC
:1002A0005D1F631F631F631F631F631F3220631F74
:1002B000631F631F3220751F3220591FA51F19208D
:1002C000891F8F1F8F1F8F1F8F1F8F1F32208F1F20
:1002D0008F1F8F1F3220A11F3220851FA51F1920BD
:1002E000B31FB91FB91FB91FB91FB91F3220B91FDA
:1002F000B91FB91F3220D71F3220322032201920D7
:10030000EC1FF21FF21FF21FF21FF21F3220F21F2A
:10031000F21FF21F322032203220D71F0320192073
:1003200007634236B79BD8A71A39685618AEBAABDE
:10033000558C1D3CB7CC5763BD6DEDFD753EF61772
:100340007231BF000000803F08000000BE922449C7
:10035000123EABAAAA2ABECDCCCC4C3E00000080F7
:10036000BEABAAAAAA3E00000000BF000000803F6A
:100370000000000000084178D3BB4387D1133D192A
:100380000E3CC3BD4282AD2B3E68EC8276BED98F57
:10039000E1A93E4C80EFFFBE01C4FF7F3F0000009B
:1003A00000000000B4030000AE030000B103030628
:1003B00004030503080B02100E0F0807561B42200A
:1003C000641B462011241FBECFEFD8E0DEBFCDBF97
:1003D00011E0A0E0B1E0E0E7FAE402C005900D9280
:1003E000A230B107D9F725E0A2E0B1E001C01D922B
:1003F000A73DB207E1F713E0C0ECD3E004C02297B9
:10040000FE010E944C20CC3BD107C9F70E94081A7C
:100410000C942B250C9400001F920F920FB60F9294
:1004200011242F938F939F93EF93FF938091C0009C
:100430009091C6008871E0910401EF5FEF71209107
:100440000301E21739F0E0930401F0E0E95FFE4FA9
:10045000908301C082E090910201982B9093020159
:10046000FF91EF919F918F912F910F900FBE0F9061
:100470001F9018951F920F920FB60F9211248F9311
:100480009F93EF93FF939091060180910501981738
:1004900069F0E0910501EF5FEF71E0930501F0E095
:1004A000E95DFE4F80818093C60005C08091C10048
:1004B0008F7D8093C100FF91EF919F918F910F905D
:1004C0000FBE0F901F901895FC01108211821282AE
:1004D0001382148215821682178210861186128664
:1004E00013861486158616861786108A0895089531
:1004F000CF93DF93EC01141615061606170684F445
:10050000CB01BA010E94312220E030E04AE754E4F6
:100510000E949B21688379838A839B8380E001C04A
:100520008AE0DF91CF910895CF93DF93EC01141609
:1005300015061606170654F4CB01BA010E943122A3
:100540006C837D838E839F8380E001C089E0DF918F
:10055000CF910895CF93DF93EC011416150616067C
:10056000170684F4CB01BA010E94312220E034E264
:1005700044E759E40E942523688779878A879B8707
:1005800080E001C086E0DF91CF910895CF93DF93A3
:10059000EC01141615061606170654F4CB01BA0121
:1005A0000E9431226C877D878E879F8780E001C003
:1005B00087E0DF91CF9108952FEF260F263050F47A
:1005C000622F21E001C0220F6A95EAF7FC01208B1F
:1005D00080E0089588E00895CF92DF92EF92FF9235
:1005E000CF93DF93EC01288988E691E0289FB00142
:1005F000299F700D1124882777FD8095982F0E94E0
:1006000031226B017C012C813D814E815F816881AB
:1006100079818A819B810E9425239B01AC01C701BE
:10062000B6010E949B21DF91CF91FF90EF90DF9068
:10063000CF900895FC01608571858285938508952A
:10064000FC0164857585868597850895CF93DF9332
:10065000EC0120E030E0A901688579858A859B85D9
:100660000E949721882331F120E030E0A9016C85B8
:100670007D858E859F850E9497218823E9F0888952
:100680008823E1F020E030E0A9016C817D818E813A
:100690009F810E949721882399F020E030E0A901F2
:1006A000688179818A819B810E94972181110AC08A
:1006B0008AE009C086E007C087E005C088E003C083
:1006C00089E001C080E0DF91CF910895FC011082A4
:1006D0001182128213821482158208950895FC01FA
:1006E00060830895FC0180810895FC016183089571
:1006F000FC0181810895FB012181428150E060E08D
:1007000070E0BA0155274427522B2081422B2381C8
:10071000722BFC0142835383648375830895FC012B
:1007200062817381848195810895FC01E058FF4FB7
:10073000108231961082319626E020833196108205
:1007400008950895FC01EF57FF4F2081DC01A20FAF
:10075000B11D8C91208130E02F5F3F4F2F773327E1
:1007600020830895CF92DF92EF92FF920F931F9311
:10077000CF93DF9300D000D0CDB7DEB78C017B01E3
:100780006C0183E8C80ED11CF6018081882341F1F9
:10079000C8010E94A203682FC7010E946F03C8010D
:1007A0000E94A203682FC7010E947503C8010E941E
:1007B000A2038983C8010E94A2038A83C8010E9400
:1007C000A2038B83C8010E94A2038C83BE016F5FCA
:1007D0007F4FC7010E947B03F60180818150808397
:1007E0000F900F900F900F90DF91CF911F910F916D
:1007F000FF90EF90DF90CF9008959FE5980F953090
:10080000B8F4823A89F0843A89F0E82FF0E0EE0FEC
:10081000FF1FEE59FD4F85919491662349F0FC012D
:100820002491621738F004C08AE0089589E00895A1
:1008300080E00895FC01E60FF11D84910895FC010C
:1008400010821182089508950F931F93CF93DF9321
:1008500000D000D01F92CDB7DEB709831A832B8357
:100860003C834D83FC01408150E09A012F5F3F4F54
:100870002F70332771817217C1F0E40FF51FEE5A04
:10088000FF4F608335E0349FD001359FB00D1124B8
:10089000A80FB91F1296FE01319601900D923A955C
:1008A000E1F7FC01208380E001C08DE00F900F9004
:1008B0000F900F900F90DF91CF911F910F9108959E
:1008C000CF93DF93EC01998188818917D9F085E076
:1008D000FE01899FE00DF11D11243296DA0101908D
:1008E0000D928A95E1F78981FE01E80FF11DEE5A1C
:1008F000FF4F8081FB018083898190E001968F709A
:1009000099278983DF91CF910895FC01108211828C
:100910000895FC0181E020819181291380E00895F0
:10092000CF93DF93DC01AD57BF4F3C912091000185
:100930003217D1F0FC01E058FF4F208130E02F5FEB
:100940003F4F2F7733273081EC01C30FD11D6883D0
:1009500020833296808181508083811105C08C91E3
:100960008F5F8C9386E08083DF91CF9108951F93F2
:10097000CF93DF93EC01162F603331F4FC01EE5777
:10098000FF4F8081863039F18FEF810F8730E0F49F
:10099000FE01EE57FF4F80818630B1F461EACE014F
:1009A0000E949004612FCE010E94900460E0CE016D
:1009B0000E94900460E0CE010E94900460E0CE01AD
:1009C0000E94900460E001C0612FCE01DF91CF91C1
:1009D0001F910C949004DF91CF911F9108959093F3
:1009E000480180934701ECEBF0E0808184608083D4
:1009F00080818164808380E28093BA0008951F9291
:100A00000F920FB60F9211242F933F934F935F9342
:100A10006F937F938F939F93AF93BF93EF93FF93C6
:100A20008091B900887F803939F1A8F4803709F4C2
:100A30003FC050F48036E1F18836D1F181113DC0DC
:100A40008091BC00856D37C08038B1F0883801F1E5
:100A5000883799F52DC0803BF9F038F4803A41F1A0
:100A6000883AD1F0883949F513C0803C09F1883CB7
:100A7000F9F0883B11F510C06091BB0081EC94E067
:100A80000E94B7049091440580910001981310C012
:100A90008091BC0085680FC0E0914701F09148014A
:100AA00081A58093BB008091BC0085688093BC00C9
:100AB0008091BC00856C8093BC00FF91EF91BF9149
:100AC000AF919F918F917F916F915F914F913F91E6
:100AD0002F910F900FBE0F901F901895CF93DF931B
:100AE000EC01509A589A549852985C9A5A9AE8E6AF
:100AF000F0E0808184608083EDE6F0E080818F7E8D
:100B0000808380818B7F8083CE010E94D506CE01B9
:100B10000E945115DF91CF910C94B31858982FE78C
:100B200088E391E0215080409040E1F700C0000050
:100B3000589A0895FF920F931F93CF93DF9300D09D
:100B400000D000D0CDB7DEB7F82ECA01762F432FE4
:100B5000582F692F233011F148F42130C9F0223089
:100B600009F03FC0C8010E94940215C0243059F119
:100B70002530B9F5C80126960FB6F894DEBF0FBE32
:100B8000CDBFDF91CF911F910F91FF900C94C602C2
:100B9000C8010E947802811125C00BC0632FC801D3
:100BA0003E830E94DC024E8181111CC0842F0E9472
:100BB000B206C8010E94EC02AB01BC018F2D0E945D
:100BC000681580E00FC0C80126960FB6F894DEBF06
:100BD0000FBECDBFDF91CF911F910F91FF900C946D
:100BE000AA0285E026960FB6F894DEBF0FBECDBFF1
:100BF000DF91CF911F910F91FF9008958F929F9257
:100C0000AF92BF92CF92DF92EF92FF920F931F931A
:100C1000CF93DF93CDB7DEB72A970FB6F894DEBF38
:100C20000FBECDBF082F6A017B014901C9010E9497
:100C30002603811158C040E050E0BA010E945D15C2
:100C400040E050E0BA0181E00E945D15CE010196BE
:100C50005C0188E0F50111928A95E9F710E0C7017F
:100C6000B6010E9431226B017C01000F111F000FA1
:100C7000111F0A0D1B1DF801C082D182E282F3828E
:100C800020E030E0A90169817A818B819C810E94FA
:100C90009721881F8827881F898720E030E0A901D5
:100CA0006D817E818F8198850E949721881F88277A
:100CB000881F8A87E894F7F8F801C082D182E2821F
:100CC000F382C4010E941A036B017C01C4010E94DB
:100CD00020039B01AC0187017601BE01675F7F4F56
:100CE000C5010E9473152A960FB6F894DEBF0FBE99
:100CF000CDBFDF91CF911F910F91FF90EF90DF90CB
:100D0000CF90BF90AF909F908F9008954C9B0DC057
:100D100020916D00206120936D009A012F5F3F4F5D
:100D2000AB01BC0180E00C94FE0581E0FA0180A7D4
:100D300080E008954A9B0DC020916D0024602093AF
:100D40006D009A012E5E3F4FAB01BC0181E00C9417
:100D5000FE0581E0FA0180A780E008950E94B318A3
:100D60000C94A618833089F028F4813049F0823041
:100D700049F00895853079F050F0863071F008958B
:100D80002C9801C02C9A2B9804C02C9801C02C9A46
:100D90002B9A2D9808952C9801C02C9A2B982D9A57
:100DA000089541980895419A089590934A01809337
:100DB00049011092800088E08093810022E0209316
:100DC0006F0088EC90E090938900809388002093D6
:100DD000B0001092B1002093700083E68093B300BE
:100DE00024BD15BC20936E0087BD389A399A3A9A73
:100DF000249A239A259A229A519A569A579A409A57
:100E00004298429A0E94D30688E1E5E6F1E0DF01CC
:100E10001D928A95E9F78AE1EBE4F1E0DF011D928A
:100E20008A95E9F781E080934D010895AF92BF92D2
:100E3000CF92DF92EF92FF920F931F93CF938C018B
:100E40005B0169017A01C0914D01C13009F097C081
:100E5000842F880F852F881F8F3F09F492C02CEABA
:100E600035EC47E257E3C701B6010E94972187FDA1
:100E70008AC010924E01F501808180935F0120E0CD
:100E800030E543EC57E4F801608171818281938100
:100E90000E9425239F770E94032260935B01709339
:100EA0005C0180935D0190935E01F50181818093E7
:100EB000640120E030E543EC57E4F801648175817A
:100EC000868197810E9425239F770E940322609349
:100ED000600170936101809362019093630120E04F
:100EE00034E244E759E4C701B6010E949B2120E0A7
:100EF00030E44CE157E40E9425230E9403226B0159
:100F00007C01609353017093540180935501909339
:100F100056010E942F2220E030E543EC57E40E9466
:100F200025230E94032260935701709358018093F8
:100F3000590190935A01B701A601440F551F661F2E
:100F4000771F80914F0190915001A0915101B09174
:100F50005201481759076A077B0710F4C0934E01E6
:100F6000C0924F01D0925001E0925101F092520193
:100F700081E080934B0180934C0180E005C083E1C8
:100F800003C080E101C081E1CF911F910F91FF90DB
:100F9000EF90DF90CF90BF90AF90089510924B01EB
:100FA00081E080934C01089580914D01813019F4C6
:100FB00085B5816085BD0895809165019091660138
:100FC000A0916701B0916801892B8A2B8B2B09F0C6
:100FD000A5C080914D01882339F0E0914901F0913D
:100FE0004A0181E083A3089580914B01813009F08B
:100FF0008EC0409153015091540160915501709100
:1010000056014093650150936601609367017093A8
:1010100068018091570190915801A0915901B091B8
:101020005A018093690190936A01A0936B01B09378
:101030006C0180915B0190915C01A0915D01B09188
:101040005E0180936D0190936E01A0936F01B09348
:10105000700120914E01213079F470956095509582
:1010600041955F4F6F4F7F4F4093710150937201D5
:101070006093730170937401892B8A2B8B2B39F049
:1010800080915F01811102C0599801C0599A8091E5
:10109000600190916101A0916201B0916301809320
:1010A000750190937601A0937701B0937801209118
:1010B0004E012130B9F44091650150916601609173
:1010C00067017091680170956095509541955F4FEB
:1010D0006F4F7F4F4093790150937A0160937B016A
:1010E00070937C01892B8A2B8B2B39F080916401C2
:1010F000811102C05F9801C05F9AB19A1092850079
:10110000109284008091810081608093810081E051
:1011100080934D0110924C010C94D40708951F92B6
:101120000F920FB60F9211242F933F934F935F931B
:101130006F937F938F939F93AF93BF93EF93FF939F
:101140008091710190917201A0917301B09174012D
:1011500040916D0150916E0160916F01709170012D
:10116000840F951FA61FB71F809371019093720182
:10117000A0937301B0937401181619061A061B0682
:10118000B4F42A9A4091690150916A0160916B010F
:1011900070916C01841B950BA60BB70B80937101AA
:1011A00090937201A0937301B09374012A98809177
:1011B000790190917A01A0917B01B0917C014091DD
:1011C0007501509176016091770170917801840FDB
:1011D000951FA61FB71F8093790190937A01A09362
:1011E0007B01B0937C01181619061A061B06B4F48D
:1011F0005E9A4091690150916A0160916B01709112
:101200006C01841B950BA60BB70B8093790190930F
:101210007A01A0937B01B0937C015E988091650177
:1012200090916601A0916701B09168010197A109B1
:10123000B1098093650190936601A0936701B09313
:101240006801892B8A2B8B2B39F4809181008E7F4A
:10125000809381000E94DC07FF91EF91BF91AF91D5
:101260009F918F917F916F915F914F913F912F91BE
:101270000F900FBE0F901F9018951F920F920FB6F0
:101280000F9211242F933F934F935F936F937F930C
:101290008F939F93AF93BF93CF93EF93FF9385B5B6
:1012A0008E7F85BDC0914D01C13001F50E94781936
:1012B000833139F4E0914901F0914A0181A7C6A335
:1012C00015C0833099F010924D0180916501909185
:1012D0006601A0916701B0916801892B8A2B8B2B45
:1012E00029F48091B10081608093B100FF91EF916A
:1012F000CF91BF91AF919F918F917F916F915F91AE
:101300004F913F912F910F900FBE0F901F90189506
:101310001F920F920FB60F9211242F933F934F936A
:101320005F936F937F938F939F93AF93BF93EF934D
:10133000FF93E1EBF0E080818E7F80830E94DC07E9
:10134000FF91EF91BF91AF919F918F917F916F919D
:101350005F914F913F912F910F900FBE0F901F9073
:1013600018954F925F926F927F928F929F92AF9259
:10137000BF92CF92DF92EF92FF926B017C01290125
:101380003A012091CF013091D0014091D10150918B
:10139000D20160E070E080E89FE30E949B210E9400
:1013A00016244B015C01A7019601C301B2010E9402
:1013B0005020A50194010E9425236093E3017093BE
:1013C000E4018093E5019093E6019B01AC010E944A
:1013D00051206093E7017093E8018093E9019093B5
:1013E000EA01C092DF01D092E001E092E101F092C7
:1013F000E201FF90EF90DF90CF90BF90AF909F9071
:101400008F907F906F905F904F900895CF92DF9272
:10141000EF92FF92CF93DF93CDB7DEB728970FB649
:10142000F894DEBF0FBECDBF813089F58091D30126
:101430009091D401A091D501B091D6010197A10559
:10144000B10529F58091F701813009F5809181017D
:1014500090918201A0918301B091840180939101C8
:1014600090939201A0939301B09394018091850190
:1014700090918601A0918701B09188018093950198
:1014800090939601A0939701B093980152C0209138
:10149000D7013091D8014091D9015091DA01609182
:1014A000DF017091E0018091E1019091E2010E94E1
:1014B00025236B017C012091990130919A01409183
:1014C0009B0150919C010E9425239B01AC016091DE
:1014D000890170918A0180918B0190918C010E9409
:1014E00051206093910170939201809393019093A6
:1014F000940120919D0130919E0140919F01509156
:10150000A001C701B6010E9425239B01AC01609197
:101510008D0170918E0180918F01909190010E94B8
:101520005120609395017093960180939701909359
:1015300098012091890130918A0140918B0150914D
:101540008C01609191017091920180919301909131
:1015500094010E9450209B01AC016091A301709105
:10156000A4018091A5019091A6010E942523698381
:101570007A838B839C8320918D0130918E014091E1
:101580008F01509190016091950170919601809129
:101590009701909198010E9450209B01AC016091AD
:1015A000A7017091A8018091A9019091AA010E94C0
:1015B00025236D837E838F8398872091DB01309173
:1015C000DC014091DD015091DE0161EA71E0CE0164
:1015D00001960E941607811106C061E971E089E851
:1015E00091E00E94ED198091D3019091D401A091D6
:1015F000D501B091D6010197A109B1098093D3011A
:101600009093D401A093D501B093D601892B8A2B56
:101610008B2B11F484E001C082E028960FB6F89479
:10162000DEBF0FBECDBFDF91CF91FF90EF90DF9077
:10163000CF9008954F925F926F927F928F929F9278
:10164000AF92BF92CF92DF92EF92FF92CF93DF9350
:1016500000D000D0CDB7DEB780918001813009F095
:10166000A8C0C090B301D090B401E090B501F09053
:10167000B601C701B6019F772CEA35EC47E257E384
:101680000E94972187FF02C080E034C18091BB0196
:101690009091BC01A091BD01B091BE0189839A8354
:1016A000AB83BC832091BF013091C0014091C10147
:1016B0005091C201BC01CD010E94512020E030E0D8
:1016C00040E05FE30E9425234B015C016093C7016A
:1016D0007093C8018093C9019093CA019B01AC012A
:1016E000C701B6010E949B212B013C016093C301FD
:1016F0007093C4018093C5019093C60120EC31EE34
:1017000044E65CE40E94252320E030E44CE156E40A
:101710000E949B210E9484216B017C016093CF0178
:101720007093D0018093D1019093D2019B01AC01C1
:101730000E9451209B01AC01C301B2010E949B2178
:101740002B013C016093D7017093D8018093D9019C
:101750009093DA01C701B6010E9403226093D3017E
:101760007093D4018093D5019093D60120EC31EE93
:1017700044E65CE4C301B2010E9425236093DB01CF
:101780007093DC018093DD019093DE0120E030E472
:101790004CE155E40E94972187FDA9C0A501940161
:1017A00069817A818B819C810E94B10982E080935A
:1017B000800180918001823009F061C02091E301B5
:1017C0003091E4014091E5015091E6016091DF0123
:1017D0007091E0018091E1019091E2010E9451201D
:1017E0006093DF017093E0018093E1019093E20147
:1017F00080E00E94060A843039F56091CF01709133
:10180000D0018091D1019091D2010E940322609376
:10181000D3017093D4018093D5019093D60183E0D6
:10182000809380018091E7019091E801A091E90106
:10183000B091EA01B0588093E7019093E801A0933A
:10184000E901B093EA0155C02091E7013091E80128
:101850004091E9015091EA016091E3017091E40146
:101860008091E5019091E6010E9451206093E3018F
:101870007093E4018093E5019093E6013AC08330D0
:10188000C1F5C090E301D090E401E090E501F09053
:10189000E601A70196016091DF017091E00180915E
:1018A000E1019091E2010E9451206093DF01709369
:1018B000E0018093E1019093E2012091E7013091F2
:1018C000E8014091E9015091EA01C701B6010E9487
:1018D00051206093E3017093E4018093E5019093BC
:1018E000E60181E00E94060A843019F4CDCE82E13F
:1018F00001C082E00F900F900F900F90DF91CF9179
:10190000FF90EF90DF90CF90BF90AF909F908F901F
:101910007F906F905F904F900895CF92DF92EF92FB
:10192000FF920F931F936B017C01CA01B9012BEA4F
:101930003AEA4AE25FE30E948823F801EC5AFF4F3B
:1019400020813181428153810E942523A701960184
:101950000E9451201F910F91FF90EF90DF90CF9048
:101960000895CF92DF92EF92FF920F931F930E9400
:1019700050206B017C01E894F7F8F801E05BFF4F21
:101980002081318142815381C701B6010E94252304
:101990000E94D8239B01AC01C701B6010E942523F8
:1019A0001F910F91FF90EF90DF90CF9008952F92AD
:1019B0003F924F925F926F927F928F929F92AF92DF
:1019C000BF92CF92DF92EF92FF920F931F93CF932C
:1019D000DF93CDB7DEB762970FB6F894DEBF0FBEC8
:1019E000CDBF9A8B898BDC015C961D921D921D9256
:1019F0001C925F97FC0110A211A212A213A294964E
:101A00001D921D921D921C929797D4962D913D91F7
:101A10004D915C91D7972D833E834F8358879C9639
:101A20002D913D914D915C919F9729833A834B83F2
:101A30005C838C012D813E814F81588569817A813B
:101A40008B819C810E94B10C4B015C01F801C0A408
:101A5000D1A4E2A4F3A440A851A862A873A82EE3DD
:101A600033EC4EE258E3C301B2010E9425236D8797
:101A70007E878F87988B9B01AC01C501B4010E94C2
:101A800051209B01AC01C701B6010E949721181695
:101A90000CF4C5C02D813E814F81588569817A81C2
:101AA0008B819C810E94212318160CF046C027E1EF
:101AB00037EB41ED58E3C501B4010E9450209B0172
:101AC000AC01C701B6010E94972187FF0FC0A70193
:101AD00096016D817E818F8198850E948D0CD80141
:101AE0009C966D937D938D939C939F97E989FA893A
:101AF00084A495A4A6A4B7A480AA91AAA2AAB3AAD2
:101B00002D813E814F815885C501B4010E9451202D
:101B10002EE333EC4EE258E30E9425239B01AC01F7
:101B2000C701B6010E94212387FD5BC0E989FA89BC
:101B3000C4A2D5A2E6A2F7A20DC32D813E814F819A
:101B4000588569817A818B819C810E94972187FFCA
:101B500066C027E137EB41ED58E3C501B4010E94AF
:101B600050209B01AC01C701B6010E94972187FF5D
:101B700011C009891A89A701960169817A818B812F
:101B80009C810E948D0CD801D4966D937D938D938A
:101B90009C93D797E989FA8984A895A8A6A8B7A89D
:101BA00080AA91AAA2AAB3AA29813A814B815C8119
:101BB000C501B4010E9451202EE333EC4EE258E3FC
:101BC0000E9425239B01AC01C701B6010E9421237D
:101BD00087FD07C0E989FA89C48ED58EE68EF78E17
:101BE000B9C22EE333EC4EE258E3C501B4010E94C2
:101BF00025239B01AC01C701B6010E9421231816C1
:101C00004CF4A989BA899096CD92DD92ED92FC921E
:101C10009397A0C287E0E989FA8980879BC20989E6
:101C20001A89A301920169817A818B819C810E942A
:101C3000B10C69877A878B879C87D8015C966D93F6
:101C40007D938D939C935F97A30192016D817E811B
:101C50008F8198850E94B10C4B015C01F80164A34F
:101C600075A386A397A329813A814B815C81C30127
:101C7000B2010E9451202EE333EC4EE258E30E9461
:101C800025239B01AC0169857A858B859C850E9403
:101C9000972187FF07C0D8015C961D921D921D9267
:101CA0001C925F972D813E814F815885C301B201FF
:101CB0000E9451202EE333EC4EE258E30E9425238C
:101CC0009B01AC01C501B4010E94972187FF06C0AA
:101CD000E989FA8914A215A216A217A2A989BA89BC
:101CE0005C968D909D90AD90BC905F9794964D9032
:101CF0005D906D907C909797A3019201C501B4010E
:101D00000E9451209B01AC01C701B6010E9497219E
:101D100087FF7CC12D813E814F81588569817A8101
:101D20008B819C810E9450204B015C01E894B7F8A4
:101D300020E030E048EC52E469817A818B819C811B
:101D40000E949B21562E672E782E492E20E030E0EF
:101D500040E050E40E94972187FF05C0512C612C80
:101D6000712C80E401C0842D252D362D472D582F50
:101D7000C501B4010E949721E989FA89A4ACB5ACE8
:101D800036AC27AC87FF3DC020E030E040E05FE3A9
:101D9000C701B6010E9425239B01AC01A989BA891C
:101DA0005C966D937D938D939C935F97FD0164A3E7
:101DB00075A386A397A38D0169817A818B819C810C
:101DC0000E948D0C6B017C019B01AC01B501832D40
:101DD000922D0E94972187FF03C09A2D8B2D04C05E
:101DE0009C2D8D2D3E2C2F2C492F582F632D722D7D
:101DF000A989BA89D0964D935D936D937C93D397BF
:101E0000A9C1A986BD8689859D85A32DB22DE989A5
:101E1000FA8980AB91ABA2ABB3AB8F019C01432D90
:101E2000522D69817A818B819C810E94B10C4B017A
:101E30005C01D8015C966D937D938D939C935F9725
:101E400029853D85432D522D6D817E818F81988519
:101E50000E94B10C2B013C01F80164A375A386A379
:101E600097A39B01AC01C501B4010E942123A301EA
:101E700092011816E4F4C501B4010E9451209B019F
:101E8000AC01C501B4010E949B21A70196010E94EB
:101E900025239B01AC01D8015C966D937D938D93B6
:101EA0009C935F9769817A818B819C811BC0C5015E
:101EB000B4010E9451209B01AC01C301B2010E94F8
:101EC0009B21A70196010E9425239B01AC01E98972
:101ED000FA8964A375A386A397A38F016D817E8180
:101EE0008F8198850E948D0C3B01582E492E9B01B5
:101EF000482F592F69857D85832D922D0E94502072
:101F00009F779301452D542D0E949B212DEC3CEC95
:101F10004CEC5DE30E942123181624F469867D862B
:101F2000120171CFC301A52DB42DE989FA8980ABC7
:101F300091ABA2ABB3AB8F019301452D542D6981B9
:101F40007A818B819C810E94B10C4B015C01D8018C
:101F50005C966D937D938D939C935F9729813A81D5
:101F60004B815C81B301852D942D0E9451202EE37D
:101F700033EC4EE258E30E9425239B01AC01C501DE
:101F8000B4010E94972187FD0CC0A5019401C701EF
:101F9000B6010E945020F80164A375A386A397A3FD
:101FA0000DC0A989BA899496CD92DD92ED92FC92EA
:101FB0009797FD01148E158E168E178E2D813E81FA
:101FC0004F815885B301852D942D0E9451202EE319
:101FD00033EC4EE258E30E9425239B01AC01A98912
:101FE000BA8994966D917D918D919C9197970E945D
:101FF000972187FFAFC0E989FA89C48ED58EE68E16
:10200000F78E14A215A216A217A2A4C0A5019401CE
:10201000C701B6010E945020A30192010E945020E6
:102020006B017C01E989FA8960A371A382A393A360
:102030002D853E854F8558890E949721A5019401E1
:102040005F772D833E834F83588787FF60C02CEADC
:1020500035EC47E257E3C701B6019F770E94212381
:1020600018160CF054C02CEA35EC47E257E36D81AA
:102070007E818F8198850E94212318169CF52CEA79
:1020800035EC47E257E3C301B2019F770E94212359
:102090001816CCF420E030E040E05FE3C701B60161
:1020A0000E9425236B017C019B01AC01C501B40199
:1020B0000E945120A989BA895C966D937D938D9376
:1020C0009C935F970FC0A7019601C501B4010E94C0
:1020D0005120A989BA895C966D937D938D939C93C9
:1020E0005F970CC0A7019601C301B2010E94512065
:1020F000E989FA8964A375A386A397A3A989BA89F4
:1021000090961D921D921D921C92939723C02CEACB
:1021100035EC47E257E36D817E818F8198850E947F
:10212000972187FF17C0C301B2019F772CEA35ECD6
:1021300047E257E30E94972187FF0CC029813A812B
:102140004B815C81A989BA89D0962D933D934D939B
:102150005C93D39762960FB6F894DEBF0FBECDBFE7
:10216000DF91CF911F910F91FF90EF90DF90CF9073
:10217000BF90AF909F908F907F906F905F904F90A7
:102180003F902F9008952F923F924F925F926F92BF
:102190007F928F929F92AF92BF92CF92DF92EF92F7
:1021A000FF920F931F93CF93DF934C011B01EC0120
:1021B0000990D881C02DC815D90509F496C0898524
:1021C000882309F492C0EA81FB81A0ACB1ACC2AC17
:1021D000D3ACE85BFF4FE080F1800281138197016F
:1021E000A801B501C6010E94972187FF02C07501B1
:1021F00001C068018E01085B1F4FFE01EC5BFF4FC1
:102200002081318142815381B701C6010E94512052
:10221000D8016D937D938D939C931397C9CFE81547
:10222000F90509F06CC088AD99ADAAADBBAD8CA71E
:102230009DA7AEA7BFA7F10110828CAD9DADAEAD3D
:10224000BFAD88AB99ABAAABBBAB6A807B802E01DC
:10225000F4E44F0E511CD2012D913D914D915C91B2
:102260006CA57DA58EA59FA50E9451205B016C01E8
:10227000F301E0ACF1AC02AD13ADE85BFF4F2081A0
:102280003181428153813E01F0E46F0E711CD30114
:102290006D917D918D919C910E94A0196CAB7DAB4D
:1022A0008EAB9FABCE010E94D70CCCA8DDA8EEA8C8
:1022B000FFA8F3012081318142815381C701B6011A
:1022C0000E9497218823E1F1EA81FB8120AD31ADA5
:1022D00042AD53ADC701B6010E949721882381F119
:1022E000E881F98181858823C1F00A80DB81C02DD6
:1022F000E881F981C815D90509F091CF23C0D10132
:102300008C91813009F48FCF84A995A9A6A9B7A98A
:102310008CA79DA7AEA7BFA790CFD2012D913D91CD
:102320004D915C916CA57DA58EA59FA50E94512025
:102330009B01AC01C701B6010E9497218111D5CF45
:102340001986D3CF84A995A9A6A9B7A98CA79DA7BB
:10235000AEA7BFA78CAD9DADAEADBFAD88AB99AB01
:10236000AAABBBAB1CAA1DAA1EAA1FAACE01DF9155
:10237000CF911F910F91FF90EF90DF90CF90BF9082
:10238000AF909F908F907F906F905F904F903F9015
:102390002F900C94D70C0E948819009761F0FC01D3
:1023A00031E031870280F381E02DE817F90719F059
:1023B00020852111F6CF08954F925F926F927F9200
:1023C0008F929F92AF92BF92CF92DF92EF92FF9245
:1023D000CF93C0918001C13009F099C0C090AF0186
:1023E000D090B001E090B101F090B201C701B60108
:1023F0009F772CEA35EC47E257E30E94972187FF4D
:1024000017C086E080937F01E0917D01F0917E010D
:10241000C4A3CF91FF90EF90DF90CF90BF90AF908B
:102420009F908F907F906F905F904F900C941A0BBD
:102430004090BB015090BC016090BD017090BE0106
:10244000A3019201C701B6010E949B214B015C01CF
:102450006093C3017093C4018093C5019093C6013A
:1024600020EC31EE44E65CE40E94252320E030E4D9
:102470004CE955E40E949B210E9484216B017C0160
:102480006093CF017093D0018093D1019093D201DA
:102490009B01AC01C501B4010E949B214B015C0171
:1024A0006093D7017093D8018093D9019093DA019A
:1024B0004092DF015092E0016092E1017092E201EE
:1024C000C701B6010E9403226093D3017093D40127
:1024D0008093D5019093D60120EC31EE44E65CE484
:1024E000C501B4010E9425236093DB017093DC01D8
:1024F0008093DD019093DE0120E030E44CE155E46F
:102500000E94972187FD2DC082E0809380018091F9
:102510008001823041F580E00E94060A843019F57E
:102520008091B3019091B401A091B501B091B60131
:10253000BC01CD019F772CEA35EC47E257E30E94BE
:10254000972187FD0CC086E080937F01E0917D019B
:10255000F0917E0181E084A38093800104C080E03B
:1025600003C082E101C082E0CF91FF90EF90DF9045
:10257000CF90BF90AF909F908F907F906F905F9023
:102580004F9008954F925F926F927F928F929F9299
:10259000AF92BF92CF92DF92EF92FF920F931F9371
:1025A000CF93DF9300D000D01F92CDB7DEB78C0160
:1025B000DC0118968C911897882309F45BC28091EE
:1025C0007F0181119DC08091F801843009F452C2CD
:1025D00019961C92199798968D919D910D90BC918A
:1025E000A02DBC01CD019F772CEA35EC47E257E3E3
:1025F0000E94972187FF0FC010927F0110928001E7
:10260000D8011296ED91FC91139711860E94CE0786
:102610000E9427192FC282E0F801808784E080930E
:102620007F0181E080938001E45BFF4F8081918195
:10263000A281B3818093CB019093CC01A093CD0173
:10264000B093CE01F801848D958DA68DB78D8093C2
:10265000AB019093AC01A093AD01B093AE0180A10A
:1026600091A1A2A1B3A18093AF019093B001A093D7
:10267000B101B093B20184A195A1A6A1B7A18093A5
:10268000B3019093B401A093B501B093B60184A5B2
:1026900095A5A6A5B7A58093B7019093B801A0937F
:1026A000B901B093BA0180A991A9A2A9B3A9809355
:1026B000BB019093BC01A093BD01B093BE0184A95E
:1026C00095A9A6A9B7A98093BF019093C001A09333
:1026D000C101B093C201B8016E5E7F4F89E991E0FC
:1026E0000E94ED19B801665F7F4F81E891E00E947A
:1026F000ED19B801665E7F4F81EA91E00E94F519FD
:1027000080917F01853009F483C1863009F483C14B
:10271000843009F083C180918001813009F0AAC022
:10272000C090AB01D090AC01E090AD01F090AE0153
:10273000C701B6019F772CEA35EC47E257E30E94C8
:10274000972187FF04C085E080937F0161C180915C
:10275000B7019091B801A091B901B091BA018983F4
:102760009A83AB83BC832091BB013091BC01409123
:10277000BD015091BE01BC01CD010E94512020E05D
:1027800030E040E05FE30E9425234B015C01609351
:10279000C7017093C8018093C9019093CA019B013E
:1027A000AC01C701B6010E949B212B013C01609343
:1027B000C3017093C4018093C5019093C60120ECBE
:1027C00031EE44E65CE40E94252320E030E44CE155
:1027D00056E40E949B210E9484216B017C0160933E
:1027E000CF017093D0018093D1019093D2019B01CE
:1027F000AC010E9451209B01AC01C301B2010E94B7
:102800009B212B013C016093D7017093D8018093E9
:10281000D9019093DA01C701B6010E9403226093A7
:10282000D3017093D4018093D5019093D60120EC0D
:1028300031EE44E65CE4C301B2010E9425236093BB
:10284000DB017093DC018093DD019093DE0120E0D9
:1028500030E44CE155E40E94972187FDD7C0A501E3
:10286000940169817A818B819C810E94B10982E007
:102870008093800180918001823009F061C02091B5
:10288000E3013091E4014091E5015091E60160914E
:10289000DF017091E0018091E1019091E2010E94DD
:1028A00051206093DF017093E0018093E1019093E8
:1028B000E20180E00E94060A843039F56091CF0180
:1028C0007091D0018091D1019091D2010E94032298
:1028D0006093D3017093D4018093D5019093D60176
:1028E00083E0809380018091E7019091E801A091BD
:1028F000E901B091EA01B0588093E7019093E801B3
:10290000A093E901B093EA017FC02091E7013091E3
:10291000E8014091E9015091EA016091E301709171
:10292000E4018091E5019091E6010E9451206093BD
:10293000E3017093E4018093E5019093E60164C0A4
:10294000833009F061C0C090E301D090E401E090D1
:10295000E501F090E601A70196016091DF01709119
:10296000E0018091E1019091E2010E945120609389
:10297000DF017093E0018093E1019093E2012091E7
:10298000E7013091E8014091E9015091EA01C70166
:10299000B6010E9451206093E3017093E40180939B
:1029A000E5019093E60180E00E94060A843061F51B
:1029B0008091AF019091B001A091B101B091B201AD
:1029C000BC01CD019F772CEA35EC47E257E30E942A
:1029D000972187FF13C08091B3019091B401A0911A
:1029E000B501B091B601BC01CD019F772CEA35EC61
:1029F00047E257E30E94972187FD10C085E080934E
:102A00007F0181E08093800182E009C082E107C0FC
:102A10000E94DC1104C00E941A0B01C080E090915A
:102A2000F801913019F492E09093F8019091F80137
:102A3000933049F4811107C094E09093F80192E03B
:102A40009093F70102C0823099F010927F011092AA
:102A50008001D8011296ED91FC911397118618967A
:102A60009C91923041F48D830E9427198D8103C07F
:102A700082E001C083E00F900F900F900F900F90B5
:102A8000DF91CF911F910F91FF90EF90DF90CF904A
:102A9000BF90AF909F908F907F906F905F904F907E
:102AA000089590937E0180937D018AE7EFE7F1E03E
:102AB000DF011D928A95E9F7089594E0899FF0015E
:102AC0001124E158FE4F4287538764877587089524
:102AD00094E0899FF0011124ED55FE4F408351830E
:102AE0006283738308954F925F926F927F928F9269
:102AF0009F92AF92BF92CF92DF92EF92FF920F938D
:102B00001F93CF93DF93CDB7DEB727970FB6F89417
:102B1000DEBF0FBECDBF6C01270138012C833D8382
:102B20004E835F836A837B830E9443195C012C81FF
:102B30003D814E815F816A817B81009709F421C1CB
:102B400082EC92E1F501958384838501045B1F4F3C
:102B5000F8014082518262827382F50124AF35AF61
:102B600046AF57AFC5014A960E94F519F60140805D
:102B7000518062807380C301B2019F772CEA35ECEB
:102B800047E257E30E9421231816C4F4F50140A63A
:102B900051A662A673A680E090E0A0E8BFE3828B16
:102BA000938BA48BB58BF60180819181A281B38137
:102BB000F50182879387A487B58728C0F6014480F2
:102BC000558066807780C301B2019F772CEA35EC8F
:102BD00047E257E30E94212318160CF0D4C0F501F8
:102BE00040A651A662A673A680E090E0A0E8BFE3ED
:102BF000868B978BA08FB18FF60184819581A681FA
:102C0000B781F50186879787A08BB18BF801C080CB
:102C1000D180E280F3802091EB013091EC01409172
:102C2000ED015091EE01C701B6010E9450209F773F
:102C300020E030E04AE754E40E94972195012C5AA5
:102C40003F4F49018501005B1F4F87FF1BC08091EB
:102C5000F3019091F401A091F501B091F601F90111
:102C600080839183A283B3838091EF019091F001DF
:102C7000A091F101B091F201F80180839183A283C8
:102C8000B38330C0C701B6010E94C0202B013C01B4
:102C9000F4016083718382839383A701960160E0CE
:102CA00070E080E89FE30E949B21F80160837183BC
:102CB00082839383C092EB01D092EC01E092ED010C
:102CC000F092EE014092F3015092F4016092F5010E
:102CD0007092F6016093EF017093F0018093F1011F
:102CE0009093F20181E0F501818764AC75AC86AC0C
:102CF00097ACC301D40180AF91AFA2AFB3AF20A511
:102D000031A542A553A5850160E070E0CB010E948A
:102D10008D0C6B017C01F501EC5BFF4F60837183CF
:102D2000828393839B01AC01B301C4010E945120B3
:102D30002B018C019B01AC01B301C4010E949721BE
:102D400087FD02C032014801F501E05CFF4FC3017D
:102D5000D40180839183A283B3833896C082D182C9
:102D6000E282F38281E08093F7011982BE016F5FF6
:102D70007F4FC5010E94C31081E00E94171980E0B7
:102D800003C08BE001C080E127960FB6F894DEBF48
:102D90000FBECDBFDF91CF911F910F91FF90EF90AC
:102DA000DF90CF90BF90AF909F908F907F906F906B
:102DB0005F904F9008952F923F924F925F926F9243
:102DC0007F928F929F92AF92BF92CF92DF92EF92BB
:102DD000FF920F931F93CF93DF9300D0CDB7DEB751
:102DE0008091F801823011F083E083C10E9467195D
:102DF0005C010097C9F381E08983209189013091BA
:102E00008A0140918B0150918C01609181017091F8
:102E1000820180918301909184010E9450200E9440
:102E200016246B017C0120918D0130918E0140911F
:102E30008F01509190016091850170918601809180
:102E40008701909188010E9450200E9416249B01C6
:102E5000AC01C701B6010E9451200E94D8232B016A
:102E60003C0180917F01853049F4C090DF01D09012
:102E7000E001E090E101F090E20114C02091E30153
:102E80003091E4014091E5015091E6016091DF014C
:102E90007091E0018091E1019091E2010E94512046
:102EA0006B017C01850120E030E0A901C701B6017A
:102EB0000E94B10C1B014C019201A3010E9421232D
:102EC000181694F4F50184A995A9A6A9B7A9BC017F
:102ED000CD019F772CEA35EC47E257E30E9497211A
:102EE00087FF02C0120143019201A301B101C40195
:102EF0000E94972118160CF442C01092BF01109244
:102F0000C0011092C1011092C201C101D40180938D
:102F1000B3019093B401A093B501B093B601C092F0
:102F2000BB01D092BC01E092BD01F092BE0186E0EF
:102F300080937F01FF24F394F09280019101A4011A
:102F4000B201C3010E9450209B01AC01F50160A7B2
:102F500071A782A793A7850160E070E0CB010E9472
:102F60008D0CF501EC5BFF4F60837183828393834B
:102F7000F50110AE11AE12AE13AEF086ADC086E014
:102F800080937F01F1E0F0938001C201D30180932F
:102F9000B3019093B401A093B501B093B601C09270
:102FA000BB01D092BC01E092BD01F092BE0185014F
:102FB0009201A30160E070E0CB010E948D0C9B01A7
:102FC000AC01C701B6010E9450206B017C016093E7
:102FD000BF017093C0018093C1019093C20181E051
:102FE000F5018087E8E0EA83F50162817381C5011C
:102FF0000E940219F5018781813089F5F501C0AE83
:10300000D1AEE2AEF3AE850120E030E0A901C70108
:10301000B6010E94B10C1B014C01F50140A451A462
:1030200062A473A4A30192010E9421231816F4F450
:10303000A301920160E070E0CB010E948D0C9B0126
:10304000AC01C701B6010E9450206B017C01F50163
:10305000E05CFF4F6083718382839383F501A280DC
:10306000B380FA81F150FA83F111BECFC101D401CE
:10307000F50180A791A7A2A7B3A7E05CFF4F10823C
:10308000118212821382F501E280F380F70110AE03
:1030900011AE12AE13AE9101A40160A571A582A577
:1030A00093A50E9450209B01AC01F70160A771A776
:1030B00082A793A7870160E070E0CB010E948D0C8E
:1030C000F701EC5BFF4F60837183828393833497B6
:1030D00060837183828393830E94CB110E948A193B
:1030E000BE016F5F7F4F0E94C31083E08093F801A1
:1030F00080E00F900F90DF91CF911F910F91FF9083
:10310000EF90DF90CF90BF90AF909F908F907F9087
:103110006F905F904F903F902F90089582E0809342
:10312000F70181E08093F80108951092F8010E9460
:103130006719892B21F41092F70183E0089581E04B
:103140008093F7010E94D40780E008951092F70160
:103150001092F8011092DF011092E0011092E1014B
:103160001092E2010895CF9387EC92E0E9EFF1E04D
:10317000DF019C011D9221503040E1F780E092E098
:103180009093FB018093FA019093FD018093FC01E1
:103190009093FF018093FE01FC0181E090E028E61E
:1031A00034E0C8E5883011F0BC0102C060E070E096
:1031B000BE2FAF2FC69FA001C79F500D11244050B6
:1031C0005E4F53834283318320830196E85AFF4F39
:1031D0008930910519F02B2F3A2FE4CF88E08093A6
:1031E000F901CF910895FC01228133818081918181
:1031F00048E5DF011D924A95E9F7338322839183E5
:1032000080830895CF93DF93EC012A813B818881ED
:10321000998148E5FB01DE0101900D924A95E1F7A5
:103220003B832A8399838883DF91CF910895ACEF04
:10323000B1E0ED91FC911197878381E0808782E076
:103240008683828193818D939C930C94D407809183
:10325000FE019091FF010E94F318E091FE01F091B0
:10326000FF010280F381E02DF093FF01E093FE0166
:103270008681823011F483E086838091F9018F5F2B
:103280008093F9010895E091FA01F091FB018681A4
:10329000811119C0828193812081318148E5DF014C
:1032A0001D924A95E9F7938382833183208321E03D
:1032B00026832091F90121502093F9019093FB017D
:1032C0008093FA0102C0E0E0F0E0CF010895E091C0
:1032D000FE01F091FF0186818250823010F484E07B
:1032E00086838681843011F0E0E0F0E0CF0108951C
:1032F0000E946719009741F0DC011496ED91FC9152
:103300001597309719F0099483E0089583E10895A3
:103310000C9467190E946719009769F0FC01A2815B
:10332000B38118962C911897222341F0A817B9075A
:1033300029F0FD01F4CF80E090E00895CF010895D9
:103340004F925F926F927F928F929F92AF92BF92B5
:10335000CF92DF92EF92FF920F931F93CF93DF9361
:103360004B01D82FC92F29013A019B01482F592F12
:10337000B201C3010E94972187FF03C04201D62DED
:10338000C72D94014D2F5C2FB701C8010E949721D2
:1033900087FF03C04701D02FC12F94014D2F5C2F11
:1033A000B501C6010E94972187FF03C04501DC2DAE
:1033B000CD2DB4018D2F9C2FDF91CF911F910F91B7
:1033C000FF90EF90DF90CF90BF90AF909F908F9045
:1033D0007F906F905F904F90089528E0FB01DC0193
:1033E00001900D922A95E1F70895FB01208131812A
:1033F000FC0131832083089581EC94E00E94A103B5
:1034000087E595E00E94770286E495E00C947702C8
:10341000CF93DF93CDB7DEB7CA58D1090FB6F89472
:10342000DEBF0FBECDBFF89485E495E00E94EF04A7
:1034300085E495E00E946E05789463E185E495E06B
:103440000E94A61B10E3CE0101967C0184E8D82ED1
:103450009CE0C92EBB24B3942EE0A22E80916C0573
:103460008823B1F100914505F701812F11928A95CA
:10347000E9F7CE0102960E946402CE0143960E94B3
:1034800064021AA6F701A5E4B5E0812F01900D9220
:103490008A95E1F7CE0143960E947702CE0102960B
:1034A0000E9477020093450585E495E00E946E0531
:1034B000C7010E949503F701A1ECB4E08D2D0190A6
:1034C0000D928A95E1F7C7010E94A1030E94801B1B
:1034D00080916B05882361F010926B0501E12981D1
:1034E0003A814B815C816D8185E495E00E94A91B46
:1034F000909144058091000198130CC0C0926E0514
:1035000001E129813A814B815C816D8185E495E0FF
:103510000E94A91B8091C004882361F01092C0040E
:103520000CE029813A814B815C816D8185E495E0D5
:103530000E94A91B0E94DB1680916805882361F018
:10354000109268050DE029813A814B815C816D8183
:1035500085E495E00E94A91B80916D05882361F0A8
:1035600010926D0503E129813A814B815C816D8167
:1035700085E495E00E94A91B80916905882361F08C
:103580001092690502E129813A814B815C816D814C
:1035900085E495E00E94A91B80916A05882399F033
:1035A00010926A050091740520916F0530917005A5
:1035B00040917105509172056091730585E495E025
:1035C0000E94A91B4BCF80914405882309F446CF64
:1035D000C7010E946603B70181EC94E00E94B20328
:1035E000C7010E947803682FC701C657DF4F688361
:1035F000CA58D0400E947203C657DF4F6881CA582C
:10360000D0400E94FD03082F811105C0B0926B05C8
:10361000A0926E052CC0C7010E947803CB57DF4FE4
:103620008883C558D040C7010E948F03362FCA57E0
:10363000DF4F6883C658D040C957DF4F7883C758DB
:10364000D040C857DF4F8883C858D040C757DF4F96
:103650009883C958D040CB57DF4F2881C558D040F8
:10366000472F582F692F85E495E00E94A91BC701B9
:103670000E946E03F3CE1F920F920FB60F92112489
:103680008F93EF93FF9381E08093C004EDE6F0E029
:1036900080818F7E808380818B7F8083FF91EF91FB
:1036A0008F910F900FBE0F901F90189586E495E0B4
:1036B0000E94640287E595E00E94640210926E0504
:1036C00081EC94E00C9495030C94FC19CF93DF9358
:1036D000EC0185E795E00E94890481110EC081E02C
:1036E0008DA3AE01465D5F4FBE01615D7F4F85E7F3
:1036F00095E0DF91CF910C946004DF91CF91089514
:10370000CF93DF93CDB7DEB7C256D1090FB6F89489
:10371000DEBF0FBECDBFCE0101960E941F0482E620
:10372000FE013196A5E7B5E001900D928A95E1F78B
:10373000CE0101960E942304CE59DF4F0FB6F894B4
:10374000DEBF0FBECDBFDF91CF910895FC01608336
:1037500008958F929F92AF92BF92EF92FF920F9334
:103760001F93CF93DF9300D000D01F92CDB7DEB769
:103770007C0129833A834B835C836D83502F6A815C
:103780007B818C819D81F7018080912CF40132979F
:10379000E631F10508F061C4EB5CFF4F0C944A2060
:1037A000802F90E0FC013297E231F10508F05AC415
:1037B000E55BFF4F0C944A2086E0F701808352C4FA
:1037C00083E1F701808381E087A34CC409811A81DA
:1037D0002B813C814D81652F85E795E00E94240473
:1037E000882309F43FC4F70181A781E086A33AC486
:1037F00085E1F70180830F900F900F900F900F904D
:10380000DF91CF911F910F91FF90EF90BF90AF90FC
:103810009F908F900C948E18023009F00EC383E1B4
:10382000F701808381E087A31DC4802F90E0FC0115
:103830003297E031F10508F015C4E35AFF4F0C94BC
:103840004A2083E1F701808381E087A30BC40981CB
:103850001A812B813C814D81652F85E795E00E947F
:103860002404882309F4FEC3F70181A781E086A31D
:10387000F9C3802F90E0FC013297E231F10508F0A6
:10388000F1C3E359FF4F0C944A2086E0F70180838F
:10389000E9C383E1F701808381E087A3E3C3098162
:1038A0001A812B813C814D81652F85E795E00E942F
:1038B0002404882309F4D6C3F70181A781E086A3F5
:1038C000D1C386E096CF8CE094CF802F90E0FC01AE
:1038D0003297E031F10508F0C5C3E158FF4F0C9471
:1038E0004A2083E1F701808381E087A3BBC309817C
:1038F0001A812B813C814D81652F85E795E00E94DF
:103900002404882309F4AEC3F70181A781E086A3CC
:10391000A9C38DE06FC28FE0F7018083A3C3802F1E
:1039200090E0FC013297E031F10508F09BC3E157CC
:10393000FF4F0C944A2083E1F701808381E087A345
:1039400091C309811A812B813C814D81652F85E7C7
:1039500095E00E942404882309F484C3F70181A719
:1039600081E086A37FC385E0F70180830F900F90ED
:103970000F900F900F90DF91CF911F910F91FF90BB
:10398000EF90BF90AF909F908F900C949518802FE0
:1039900090E0FC013297E131F10508F063C3E15694
:1039A000FF4F0C944A2086E0F70180835BC383E1DC
:1039B000F701808381E087A355C309811A812B8198
:1039C0003C814D81652F85E795E00E942404882382
:1039D00009F448C3F70181A781E086A343C384E1CA
:1039E00008CF802F90E0FC013297E031F10508F01C
:1039F00039C3E055FF4F0C944A2083E1F7018083DF
:103A000081E087A32FC309811A812B813C814D81DD
:103A1000652F85E795E00E942404882309F422C3DA
:103A2000F70181A781E086A31DC3802F90E0FC01F0
:103A30003297E031F10508F015C3E054FF4F0C94C4
:103A40004A2083E1F701808381E087A30BC30981CA
:103A50001A812B813C814D81652F85E795E00E947D
:103A60002404882309F4FEC2F70181A781E086A31C
:103A7000F9C2802F90E0FC013297E031F10508F0A7
:103A8000F1C2E053FF4F0C944A2088E06DCF83E1F0
:103A9000F701808381E087A3E5C209811A812B8128
:103AA0003C814D81652F85E795E00E9424048823A1
:103AB00009F4D8C2F70181A781E086A3D3C28EE0C2
:103AC000F70180830E94AE06A1C2802F90E0FC0126
:103AD0003297E031F10508F0C5C2E052FF4F0C9477
:103AE0004A2087E0F7018083BDC283E1F70180832C
:103AF00081E087A3B7C209811A812B813C814D8166
:103B0000652F85E795E00E942404882309F4AAC262
:103B1000F70181A781E086A3A5C289E0F701808330
:103B2000A1C210E0F8013297E031F10508F09AC225
:103B3000E051FF4F0C944A2083E1F701808381E03C
:103B400087A390C222E0F7012083A7010E94860686
:103B5000882309F487C2F70181A781E086A382C286
:103B60008EE0F70180837EC025E0F7012083A70166
:103B70000E949A06882309F475C2F70181A781E0A3
:103B800086A370C209811A812B813C814D8167E037
:103B900085E795E00E942404882309F463C2F701B5
:103BA00081A781E086A35EC228E0F7012083970108
:103BB0002E5E3F4FAB01BC0181E00E94FE058823D1
:103BC00009F450C2F70181A781E086A34BC28701A7
:103BD0000F5F1F4F29813A814B815C816D8180E0AD
:103BE0000E949A05882309F4E5C1F70181A781E0C5
:103BF00086A3E0C148E0F70141939F01AB01BC01FE
:103C000080E00E94FE05882309F42CC2F70181A7F9
:103C100081E086A327C2802F90E0FC013297E0313B
:103C2000F10508F01FC2E050FF4F0C944A2083E1D9
:103C3000F701808381E087A315C280E1F7018083CB
:103C400009811A812B813C814D81652F85E795E0A3
:103C50000E942404882309F405C2F70181A781E0AA
:103C600086A300C20E948E05A5C183E1E3C187013E
:103C70000E5E1F4F29813A814B815C816D8181E00D
:103C8000AFCF802F90E0FC013297E031F10508F0D2
:103C9000E9C1E05FFE4F0C944A2086E1F701808382
:103CA000E1C183E1F701808381E087A3DBC1098162
:103CB0001A812B813C814D81652F85E795E00E941B
:103CC0002404882309F4CEC1F70181A781E086A3EB
:103CD000C9C187E1F70180830F900F900F900F907B
:103CE0000F90DF91CF911F910F91FF90EF90BF90B8
:103CF000AF909F908F900C94AE06802F90E0FC01C7
:103D00003297E031F10508F0ADC1E05EFE4F0C9452
:103D10004A2083E1F701808381E087A3A3C1098161
:103D20001A812B813C814D81652F85E795E00E94AA
:103D30002404882309F496C1F70181A781E086A3B2
:103D400091C18DE0F701808309811A812B813C812B
:103D50004D816BE085E795E00E94240443CF802FDE
:103D600090E0FC013297E031F10508F07BC1E05DA5
:103D7000FE4F0C944A2083E1F701808381E087A302
:103D800071C109811A812B813C814D81652F85E7A5
:103D900095E00E942404882309F464C1F70181A7F7
:103DA00081E086A35FC182E0DFCD802F90E0FC013F
:103DB0003297E031F10508F055C1E05CFE4F0C94FC
:103DC0004A2083E1F701808381E087A34BC1098109
:103DD0001A812B813C814D81652F85E795E00E94FA
:103DE0002404882309F43EC1F70181A781E086A35A
:103DF00039C18EE0F70180830E94AE06DBC0093036
:103E000031F1C8F40230E9F0083009F02BC18EE03E
:103E1000F70180830F900F900F900F900F90DF911C
:103E2000CF911F910F91FF90EF90BF90AF909F9017
:103E30008F900C94D1060A30E9F0513109F4F9C0A1
:103E400011C183E1F701808381E087A30BC1870162
:103E50000F5F1F4F29813A814B815C816D8180E02A
:103E60000E949A05882309F4FDC0F70181A781E02B
:103E700086A3F8C087010E5E1F4F29813A814B81CE
:103E80005C816D8181E00E949A05882309F4EAC073
:103E9000F70181A781E086A3E5C0802F90E0FC01B7
:103EA0003297E031F10508F0DDC0E05BFE4F0C9485
:103EB0004A208AE0F7018083D5C083E1F70180833F
:103EC00081E087A3CFC009811A812B813C814D817C
:103ED000652F85E795E00E942404882309F4C2C079
:103EE000F70181A781E086A3BDC08BE0F701808345
:103EF000B9C0802F90E0FC013297E031F10508F065
:103F0000B1C0E05AFE4F0C944A2081E1F701808352
:103F1000A9C083E1F701808381E087A3A3C0098161
:103F20001A812B813C814D81652F85E795E00E94A8
:103F30002404882309F496C0F70181A781E086A3B1
:103F400091C084E0F70180838DC082E15DC0802F45
:103F500090E0FC013297E031F10508F083C0E059B0
:103F6000FE4F0C944A2083E1F701808381E087A310
:103F700079C009811A812B813C814D81652F85E7AC
:103F800095E00E942404882309F46CC0F70181A7FE
:103F900081E086A367C0802F90E0FC013297E0317A
:103FA000F10508F05FC0E058FE4F0C944A208DE008
:103FB000F7018083C7010F900F900F900F900F9023
:103FC000DF91CF911F910F91FF90EF90BF90AF9035
:103FD0009F908F900C94661B83E1F701808381E0B2
:103FE00087A340C009811A812B813C814D81652FB7
:103FF00085E795E00E9424048823A1F1F70181A7B9
:1040000081E086A32FC08EE0F701808385E795E0ED
:104010000F900F900F900F900F90DF91CF911F9105
:104020000F91FF90EF90BF90AF909F908F900C9466
:10403000850483E0F70180830F900F900F900F901D
:104040000F90DF91CF911F910F91FF90EF90BF9054
:10405000AF909F908F900C94D3068FE0F70181A7CB
:1040600081E086A30F900F900F900F900F90DF913B
:10407000CF911F910F91FF90EF90BF90AF909F90C5
:104080008F90089585E795E00C941F0485E795E0EF
:104090000C942304EE0FFF1F0590F491E02D09947A
:1040A0005058BB27AA270ED07BC26CD230F071D2F9
:1040B00020F031F49F3F11F41EF461C20EF4E0953C
:1040C000E7FB2EC2E92F7DD280F3BA176207730790
:1040D0008407950718F071F49EF5ACC20EF4E095D4
:1040E0000B2EBA2FA02D0B01B90190010C01CA01B2
:1040F000A0011124FF27591B99F0593F50F4503E5D
:1041000068F11A16F040A22F232F342F4427585F4E
:10411000F3CF469537952795A795F0405395C9F766
:104120007EF41F16BA0B620B730B840BBAF091501E
:10413000A1F0FF0FBB1F661F771F881FC2F70EC0BD
:10414000BA0F621F731F841F48F487957795679590
:10415000B795F7959E3F08F0B3CF9395880F08F079
:104160009927EE0F979587950895492FE5E5939543
:104170009E9F912DE3E0E99F4019EE270895F1C13C
:1041800028D2E8F39923D9F3DF93CF931F930F93AA
:10419000FF92EF92DF92CF92BF92AF929F928F9257
:1041A0009F5780F4919588232AF09395660F771F87
:1041B000881FDAF7DADF4A951AF009F44E5F939513
:1041C000919501C0D2DF91589F93FF27FF248F0163
:1041D0009F014F01DF01EF01660F771F881FAA1FA4
:1041E0004A95D2F798E0000F111F000F111FEE0F34
:1041F000A801AA244E0F511DA11C6A01EA2C440FEC
:10420000551FAA1C4C0D5D1DAE1C4160A41BB50BB7
:10421000CA0920F4A40FB51FCA1D07C0AF01440F7F
:10422000551F040F151F0160E16043E0660F771F03
:10423000881FAA1FBB1FCC1F4A95C1F79A9599F6F4
:1042400090E1000F111F221F331F881C991C10942E
:10425000C1F7EE0FFF1FFF1C0024A00150016001F9
:10426000EE24400F511FA21EB31EC81CD91CE11C16
:104270004E0F5F1FAF1CB11CC11CD11CE11C009470
:1042800041F0440F551FAA1CBB1CCC1CDD1CEE1CAE
:10429000E8CFA41BB50BCA09DB096C097D098E099F
:1042A00040F4A40FB51FCA1DDB1D6C1D7D1D8E1DA6
:1042B0000AC00E0F1F1F2F1D311D811C911C009461
:1042C000C1F70160E16043E0AA0FBB1FCC1FDD1FF7
:1042D000661F771F881F4A95B9F79A9509F0B1CFE5
:1042E000BF018F2D9F91880F9695879597F98F9095
:1042F0009F90AF90BF90CF90DF90EF90FF900F9185
:104300001F91CF91DF9108957ED180F09F3740F4C7
:1043100091110EF490C160E070E080E89FE3089591
:1043200026F01B16611D711D811D00C11AC1D4D05C
:1043300008F481E008950CD033C12BD140F022D194
:1043400030F021F45F3F19F0EBC0511174C117C177
:1043500038D198F39923C9F35523B1F3951B550B25
:10436000BB27AA2762177307840738F09F5F5F4F48
:10437000220F331F441FAA1FA9F333D00E2E3AF089
:10438000E0E830D091505040E695001CCAF729D0A3
:10439000FE2F27D0660F771F881FBB1F26173707F2
:1043A0004807AB07B0E809F0BB0B802DBF01FF2722
:1043B00093585F4F2AF09E3F510568F0B1C03BC152
:1043C0005F3FECF3983EDCF3869577956795B7955C
:1043D000F7959F5FC9F7880F911D9695879597F977
:1043E0000895E1E0660F771F881FBB1F62177307F0
:1043F0008407BA0720F0621B730B840BBA0BEE1F05
:1044000088F7E0950895E5D088F09F5790F0B92F90
:104410009927B751A0F0D1F0660F771F881F991F19
:104420001AF0BA95C9F712C0B13081F003D1B1E0EA
:10443000089500C1672F782F8827B85F39F0B93FFA
:10444000CCF3869577956795B395D9F73EF490951B
:104450008095709561957F4F8F4F9F4F0895E89499
:1044600009C097FB3EF490958095709561957F4FBC
:104470008F4F9F4F9923A9F0F92F96E9BB2793956A
:10448000F695879577956795B795F111F8CFFAF47A
:10449000BB0F11F460FF1BC06F5F7F4F8F4F9F4FAB
:1044A00016C0882311F096E911C0772321F09EE809
:1044B000872F762F05C0662371F096E8862F70E06F
:1044C00060E02AF09A95660F771F881FDAF7880F49
:1044D0009695879597F90895990F0008550FAA0B9F
:1044E000E0E8FEEF16161706E807F907C0F0121607
:1044F0001306E407F50798F0621B730B840B950B0A
:1045000039F40A2661F0232B242B252B21F408955E
:104510000A2609F4A140A6958FEF811D811D0895FB
:1045200097F99F6780E870E060E00895882371F450
:10453000772321F09850872B762F07C0662311F43C
:1045400099270DC09051862B70E060E02AF09A9573
:10455000660F771F881FDAF7880F9695879597F96A
:1045600008959F3F31F0915020F487957795679596
:10457000B795880F911D9695879597F908959FEFA8
:1045800080EC089500240A941616170618060906EA
:10459000089500240A9412161306140605060895B9
:1045A000092E0394000C11F4882352F0BB0F40F441
:1045B000BF2B11F460FF04C06F5F7F4F8F4F9F4F81
:1045C000089557FD9058440F551F59F05F3F71F003
:1045D0004795880F97FB991F61F09F3F79F087956A
:1045E0000895121613061406551FF2CF4695F1DFF3
:1045F00008C0161617061806991FF1CF8695710583
:10460000610508940895E5DFA0F0BEE7B91788F4C6
:10461000BB279F3860F41616B11D672F782F8827A7
:10462000985FF7CF869577956795B11D93959639E5
:10463000C8F30895E894BB2766277727CB0197F93D
:1046400008954ADF08F48FEF08950BD0A9CF9ADFC1
:1046500028F09FDF18F0952309F062CF90CF112446
:10466000EACFAFDFA0F3959FD1F3950F50E0551F30
:10467000629FF001729FBB27F00DB11D639FAA27B7
:10468000F00DB11DAA1F649F6627B00DA11D661F06
:10469000829F2227B00DA11D621F739FB00DA11D27
:1046A000621F839FA00D611D221F749F3327A00DE1
:1046B000611D231F849F600D211D822F762F6A2F7D
:1046C00011249F5750408AF0E1F088234AF0EE0F02
:1046D000FF1FBB1F661F771F881F91505040A9F70F
:1046E0009E3F510570F01CCFA6CF5F3FECF3983E84
:1046F000DCF3869577956795B795F795E7959F5F76
:10470000C1F7FE2B880F911D9695879597F908950F
:10471000FA01EE0FFF1F30962105310599F1611561
:10472000710561F48038BFE39B0749F168949038C4
:10473000810561F08038BFEF9B0741F0992342F576
:10474000FF3FE1053105210511F1E8940894E79553
:10475000D901AA2329F4AB2FBE2FF85FD0F310C0E4
:10476000FF5F70F4A695E0F7F73950F019F0FF3AC3
:1047700038F49F779F930CD00F9007FC90580895C2
:104780003EF0FDCE60E070E080E89FE308954FE7E3
:104790009F775F934F933F932F93EAD02F913F9151
:1047A0004F915F9152DF4AC011F40EF4E8CED9CE9A
:1047B00010DFD0F39923D9F3CEF39F57550B87FF22
:1047C00069D00024A0E640EA90018058569597955C
:1047D00028F4805C660F771F881F20F026173707A4
:1047E000480730F4621B730B840B202931294A2BB4
:1047F000A69517940794202531254A2758F7660F68
:10480000771F881F20F026173707480730F4620B00
:10481000730B840B200D311D411DA09581F7B9014B
:10482000842F9158880F9695879508959B01AC0128
:104830000CCF19F40EF074CEFDCEA1CECADEC8F3B3
:104840009638C0F707F80F92E8942BE33AEA48EB62
:104850005FE709DF0F920F920F924DB75EB70F928D
:10486000C7D0E0E2F3E01DD04F915F91EF91FF914F
:10487000E595EE1FFF1F49F0FE57E0684427EE0F55
:10488000441FFA95E1F74195550B39D00F9007FE7B
:104890002DC0089591505040660F771F881FD2F7A2
:1048A0000895DF93CF931F930F93FF92EF92DF92C0
:1048B0007B018C01689405C0DA2EEF01D2DEFE0187
:1048C000E894A5912591359145915591AEF3EF016D
:1048D000F9DBFE019701A801DA9479F7DF90EF90F8
:1048E000FF900F911F91CF91DF9108959B01AC0133
:1048F00060E070E080E89FE31ECD12CE32CE69DE2C
:10490000E8F39923D9F3940F511DBBF39150504014
:1049100094F059F0882332F0660F771F881F91506A
:104920005040C1F79E3F510544F7880F911D969561
:10493000879597F908955F3FACF0983E9CF0BB27B0
:10494000869577956795B79508F4B1609395C1F70B
:10495000BB0F58F711F460FFE8CF6F5F7F4F8F4FA9
:104960009F4FE3CF68CE0EF0FCCD09CE6894D8CD32
:1049700030DEC8F39923D1F3C6F3DF93CF931F93AF
:104980000F93FF92C92FDD2788232AF02197660F06
:10499000771F881FDAF720E030E040E85FEB9FE305
:1049A000883920F0803E30F021968F777ADBE8E47A
:1049B000F3E003C076DBE5E7F3E073DF8B01BE01D4
:1049C000EC01FB2E6F5771097595771F880B990BBA
:1049D00048DD28E132E741E35FE343DEAF2D980194
:1049E000AE01FF900F911F91CF91DF916BDBD8CD7E
:1049F000FA01DC01AA0FBB1F9B01AC01BF5728F4D1
:104A000022273327442750781FC0B75188F4AB2F93
:104A10000024469537952795011CA395D2F30020D5
:104A200069F0220F331F441FB395DAF30DD038CB52
:104A300061307105A0E88A07B94630F49B01AC01EA
:104A40006627772788279078309621F02083318356
:104A500042835383089513E0C0ECD3E004C0FE0109
:104A60000E944C202296C43CD107C9F7F894FFCF8E
:024A700015002F
:00000001FF
